:400000000080002011000000D5020000D502000008B5044B1A6803F53F5302331A6000F061F900BFFA46004010B5054C237833B9044B13B10448AFF300800123237010BD6F
:400040005881FF1F0000000044170000084B10B51BB108490848AFF300800848036803B910BD074B002BFBD0BDE81040184700BF000000005C81FF1F44170000C880FF1F2C
:400080000000000008B501F0D5FA034B18800020BDE8084001F080BA7A81FF1F70B562B6124C00200121208000F068FA00F09EFA0028FBD000F052FB01F0AEFA0C4801F027
:4000C000C3FA0C4E0C4D642001F0E6F93388AA20B5FBF3F3238000F097FB012000F094FB0221024800F072FBEDE700BF7C81FF1F850000007A81FF1F33AB8100F8B572B612
:400100005C4A5D4D1378002443F004031370062606FB045300219A881868013401F00AFB082CF5D15548564D002450F8041F04F1105303F12C0221F0FF062D33C9B20B440E
:4001400052005B0002329A4206D012F8027C12F801EC07F806E0F5E7A8420C44E5D1494A494C1378494D43F002031370137C484F43F0020313742378A2F5863243F0400373
:400180002370413A1378192643F010031370414B03CBC2F8400DC2F8441D93E8070003C52A803D4A0C3303CB516045F6BF511060A2F55F621378002543F008031370374BE3
:4001C00061221A700122A3F5F0631A80344A1823137051801371334B06221A705222A3F580731A70304B314A1B78DBB21370304B4FF4E1621A8041F2512223F8022C3B782A
:400200004FF4F07003F0010343EA450501F030FA013E05F003052BD0032DF0D1254A4FF480731380244907231370482000230B70887013705371214B02221A70204A214DE1
:40024000137843F003031370144B81221A701E4B1E4A1B78DBB203F007011B09117053701B4B44221A7094E80F0007C52B80F8BDFEE700BFE846004048170000FCFFFF4798
:400280005400004803500140A0430040F051004025420040E0000048125100400048004082400040004300400F010049A1460040224200400440004006400040014000403C
:4002C000A2430040B0430040CF0100496E5800407658004008B501F001FA03680C2B00D1FEE7FEE780B51148114B0025C0B1A3F1100192C922460439161BB74204D051F827
:40030000046F42F8046BF7E7114653F8046C8C1AA64202D041F8045BF9E701381033E5E701F0E2F9FFF7BAFEFEE700BF010000001C190000104A114B10B41A60104A114C92
:400340001368114843F4007313600023032B98BF54F823204FEA830188BF0C4A0133302B4250F3D10A4B1A780A4B1A700A4B064A10BC1A60FFF7C2BE0004FA050CED00E013
:4003800014ED00E0000000000080FF1FD5020000BC760040C080FF1F08ED00E0F8B501F06FF9404A01261378022543F001031370137C3D4C43F0010313743C4B02F5E35296
:4003C0001E700B3203F8945C1378074603F07F031370002001F076F82378354A03F0F90323701378304603F0DF03137023783343237001F067F8282001F064F82D4B284694
:400400001A7802F07F021A701A7802F0BF021A7023782B43237001F055F82378264A43F004032370002313703846537001F02CF90721172001F05CF82049172001F04AF838
:400440000721182001F054F81D49182001F042F80721152001F04CF81A49152001F03AF83046072101F044F81749304601F032F82846072101F03CF81449284601F02AF874
:400480000721032001F034F81149032001F022F807210C2001F02CF8BDE8F8400D490C2001F018B8A5430040944300409D60004012600040F8510040846000401F0D0000BC
:4004C000490B00001D0D0000890C0000B50C0000E50C0000230D000008B51C4B1C4A1870002313701B4A13701B4A13701B4A13701B4A13701B4A13701B4A13701B4B4FF436
:4005000000021A604FF080721A604FF400121A6002221A6004221A6008221A60144B19B91A7802F0FE0202E01A7842F001021A70104B03221A70802203F8202C012001F0F6
:4005400097F80D4B04221A7008BD00BF2182FF1F2082FF1F9481FF1F9581FF1F9681FF1F2482FF1F9781FF1F9381FF1F00E100E009600040286000401260004070B5074CBB
:40058000054623780E461BB9FFF708FF0123237031462846BDE87040FFF79EBF7481FF1F0A4A002313700A4A13700A4A13700A4A13700A4A13700A4A13700A4A13700A4B80
:4005C00003221A70802203F8202C70472082FF1F9481FF1F9581FF1F9681FF1F2482FF1F9781FF1F9381FF1F28600040014B1878704700BF9581FF1F431E072BF0B531D895
:40060000194B0C2505FB0035EC88184FA4B2C4F50074A2424FF00C0404FB003488BFEA88E67884BFC2F5007292B2104C46EA12260501EE552C44D6B2667041B90C2202FB65
:400640000030002343704379DBB2A370F0BD0E46074F2F44751AADB2AA42EFD916F8015B3D72F7E7F0BD00BFB281FF1FFC5F004070600040431E072B0AD8064A0C2303FB5B
:40068000002300225A705A79034BD2B200011A54704700BFB281FF1FFE5F004070B5094C094DFF2100230C26E25C06FB0252927A824204BF194602230133DBB2012BF3D014
:4006C000084670BD8281FF1FB281FF1F10B51E4C2079FFF7E3FF237813F0800F63780DD0212B2ED1BDE81040184B07221A80184AC0EBC0001044586000F07CBADBB2202B4B
:400700000ED0222B1DD1A378124A22F81030124A135C43F002031354BDE8104000F04AB90A4A07230A491380C0EBC0030B445360094A135C43F001031354BDE8104000F064
:400740007FBA002010BD00BF00600040A481FF1FCC80FF1F8A81FF1F8881FF1F10B5164A00231370154A164C137053702078C0B2431E072B01D8FFF77DFF6078C0B2431E92
:40078000072B01D8FFF776FF0E4A13788BB123787BB10D4B197861B11278082A09D8084A1278082A05D81878082894BF0020012010BD012010BD00BF7581FF1F8881FF1F51
:4007C0008081FF1F7E81FF1F8281FF1F0A4610B40A4B0B491B780B4CCB5C0C21DBB201FB03410C89A4B2944238BF0A8910BC014638BF92B21846FFF7FFBE00BF7581FF1F57
:400800007E81FF1FB281FF1F07B5064B064A1B7802A901F8010DD05C0122FFF7EDFE03B05DF804FB7581FF1F7E81FF1FC37890F9020003F0030300280FDA032B15BF0C481A
:400840000C4802F00103C2F3800319BFC15442F00102C15442F0040207E0032B1FBF0648C2F34003C15442F002021046704700BF7E81FF1F8281FF1F8081FF1F30B51A4A91
:400880001A491B4D0878138803449BB21380194A00231488D8B2A4B27CB1082B0CD050680078C0B2E85450680133013050601088013880B21080ECE718460B780E4C082B6E
:4008C0000E4A00D040B10E4D2B7883F080032B700F232370022301E0022323701370094B1870087030BD00BF1E82FF1F9381FF1F00600040A481FF1F9281FF1F2082FF1F86
:400900009881FF1FB081FF1F074B02221A70074B80221A70064B0F221A70064A00231370054A0120137070472082FF1F9881FF1F9281FF1F9381FF1FB081FF1F30B5164B18
:4009400016491B780A8803F00F03023BDBB21A4492B20A80124C134A0020118889B279B173B15568215C013BC9B229705168DBB20131516011880130013989B21180ECE7A5
:40098000094A1370094A137883F080031370084B0B221A7030BD00BF296000401E82FF1F00600040A481FF1FB081FF1F9881FF1F9281FF1F064A06231370064A0120137043
:4009C000054B80221A70054B00221A70704700BF2082FF1F9281FF1F9881FF1FB081FF1F054B9A683AB19A68044910709A680988518000229A607047A481FF1F1E82FF1F4E
:400A000008B5124B1A78D2B21A701B78DBB21A0602D50F4A137008BD0220FFF7E1FF0D4B1B7803F06003202B05D0402B06D043B900F0ECFB04E000F02BFE01E000F01AFDF2
:400A400010B9034B03221A7008BD00BF286000409281FF1F0060004008B5084A084B0120197813880B449BB21380064B00221A70FFF7B6FF044B03221A7008BD1E82FF1F8C
:400A80009381FF1F2082FF1F9281FF1F08B50C4B1B78DBB2042B07D0062B09D0022B0DD1BDE80840FFF7D8BFBDE80840FFF746BF0320FFF795FF034B03221A7008BD00BF34
:400AC0002082FF1F9281FF1F08B5054B002201201A70FFF785FF034B03221A7008BD00BF2082FF1F9281FF1F08B50A4B1A7832B11A78094942F080020A7000221A70074BA8
:400B0000002201201A70FFF76BFF054B03221A7008BD00BF2482FF1F086000402082FF1F9281FF1F074B1B78DBB2042B05D0062B05D0022B05D1FFF7A1BEFFF7C5BFFFF764
:400B4000D3BF70472082FF1F38B51D4C2378DBB2DD0634D518060AD503F00F03012B2ED1FFF74EFF174B1B78190609D538BD5A0602D5FFF7D7FF03E09D0620D5FFF786FFB2
:400B800023781B061BD4104B1A78104B1B7813430F4A13701278934211D10A4A0849154613782078DBB2000605D41378DBB20B700B7803F00F0328788342F1D138BD38BD81
:400BC000286000409281FF1F9881FF1FB081FF1F29600040054A00231380054A916819B191680B7092685380704700BF1E82FF1FA481FF1F0E4808B503889BB213B9FFF731
:400C000083FE13E00B4B02221A700B4B00221A70FFF7E0FF094AD1799379028843EA012392B2934238BF0380FFF728FE012008BDA481FF1F2082FF1F9881FF1F0060004072
:400C400008B50C4B04221A700B4B80221A70FFF7C1FF0A4A0120D179937943EA012308490A8892B2934238BF0B80064B0B221A7008BD00BF2082FF1F9881FF1F00600040BB
:400C8000A481FF1F9281FF1F084B01221A700F3B9B7C074B1A7B02F00302012A1EBFDA7B82F08002DA7301225A7370470B600040B281FF1F094B02221A700F3B93F8223017
:400CC000074B1A7E02F00302012A1EBFDA7E82F08002DA7601225A76704700BF0B600040B281FF1F0B4B04221A700F3B93F83230094B93F8242002F00302012A1EBF93F820
:400D0000272082F0800283F82720012283F82520704700BF0B600040B281FF1F7047FFF73FBC00F0B1BB000070B50446184B88B003AA03F11006154618685968083303C5FD
:400D4000B3422A46F7D11B782B70FCB12223237001AD03232846637000F0D4FB002220461146AB5C08AC04EB131414F8144C03F00F03847008AC234413F8143C0132082ACF
:400D8000C1700371417100F10400EAD108B070BD781700002DE9F0411A4D01222E460C2080274FF0080E184B00FB025C14012344187016499CF805802144B8F1000F07D01F
:400DC0009CF8044024064CBF887081F802E000E08F7000FB0261CC880132E4B29C71CC88092AC4F30724DC71CC88E4B21C71C988C1F307215971D6D1054BFF221A70BDE8C1
:400E0000F08100BFB281FF1F70600040FC5F00400A600040064B074A1B7802EBC30253681A7C824286BF03EBC0035869002070472182FF1F8C1700002DE9F84F424B1A7872
:400E4000002A7ED01878414D0138C0B2FFF7E2FFA8463F4AC3681478007ADFF800C1E4B203EBC0000C2600274FF0010E834268D01A78A24263D11CF80420597891425ED17D
:400E80009A7893F8039002F07F0206FB02FA05EB0A01CF7093F802B009F0030981F804B093F803B005F80AB0B3F804A0A1F808A093F902A0BAF1000F0BDAB9F1010F0CBF12
:400EC0004FF007094FF00D0981F8059081F801E009E0B9F1010F0CBF4FF005094FF0090981F805904F704FEA02191A4906FB0282494481F802E0B2F808A0CAF3072A81F830
:400F000000A0B2F808A05FFA8AFA81F801A0B2F806A011495FFA8AFA494481F806A0B2F80690C9F3072981F80790B2F806905FFA89F981F80490D288C2F307224A71083303
:400F400094E7BDE8F88F00BF9581FF1FB281FF1F9681FF1FFC5F004070600040A081FF1F08B5064B18780138C0B2FFF753FF20B143681B7900EBC300406908BD9581FF1F76
:400F80002DE9F74F00210B46564E0C2707FB01F501317219092973554FF000049370DFF84491D3701381937253705371EED128B14D4A4E4B14701C7054705C704C4B1A78F7
:400FC000002A00F08C80187801270138C0B2FFF721FF80464368057ADB79ED0013F0400F444B4FF0000C1A784FF00C0A14BF42F0010202F0FE021A700AFB0796D8F80C40CC
:40100000FBB204EB050B5C453AD0A07800F07F01B94233D13189B4F804E089B2714538BFA6F808E02178304A94F801E0515C8E4524D13071E178317094F90200E17800287A
:4010400001F0030106DA01290CBF07210D217171012105E001290CBF05210921717100217170A17901F0F701022907D16246194620460193FFF7DAFB8446019B0834C2E721
:401080000137092FB8D1D8F80C200A35931C15440C210833AB4209D013F8082C13F80A0C02F07F0201FB02929072F2E7FFF758FF114B0121186000230C2000FB0192D38015
:4010C0001289013113449BB203F00102134409299BB2F2D103B0BDE8F04FFFF75BBE03B0BDE8F08FB281FF1FA081FF1F9081FF1F9581FF1F9781FF1F9C81FF1F114B1B791F
:4011000003F07F035A1E072A19D80F490C2202FB031291781B0141F0010191700021D170517841F002015170127912F0800F074A1A4414BF8D2389239370FFF73BBC002085
:40114000704700BF00600040B281FF1FFC5F004030B4194B1A7902F07F02531E072B27D8164B0C2404FB02339978154D01F0FE0199700021D97029461201505D114400F06E
:401180007F0050555A7802F0FD025A701A795B78120605D5012B01D18C7006E00D2303E0012B0CBF082309238B7030BCFFF702BC002030BC704700BF00600040B281FF1FD7
:4011C000FC5F004010B50D4B0D4C21791878C9B20138C0B2FFF71EFE43681B798B4201D2022909D8074A0848535CDBB24354A3780120DBB2535410BD002010BD9581FF1FBF
:4012000000600040A081FF1F9081FF1F38B5884A884C13780021DBB221801806517840F188800A2900F20181DFE811F05800FF00FF00FF00FF00FF000B00FF007900FF00CF
:401240007D00D3787A49012B09D17B4B1A787B4B03EBC2035B685B686360122310E0CB78022B12D18878FFF7D5FD002800F0DD80436863606368DA7863689B7843EA022353
:401280002380BDE83840FFF7B5BCCB78032B21D16B4B00228878D5B2854203D3644A92783AB910E0187801320028F7D018780344F0E75F4A63499278097C914203D1624878
:4012C000FFF732FD604B1A78002A00F0AE801A78228018E0BDE8384000F0DAB913F0030313D0022B40F0A1802380514B0C211B7903F07F02554B01FB02339A78544BD2B294
:401300001A7000225A706360BBE702222280514A11784F4AC9B2117053706260B1E7012323804D4BEFE70123238013794B4A1344E9E701390A2978D8DFE801F037774F7709
:40134000067777770A7720009378454ADBB25AE0937803F0FF0153B93F4B1A78914260D01970404B01201870FFF70AFE59E0481EC0B2FFF74FFD0028EED156E0FFF722FF95
:40138000002852D02A4A384913791279DBB2D2B20A70364A3149D25CCB5C9A4241D0314B01221A70FFF748FD3BE003F00303012B2BD009D3022B38D11D4B9B78002B34D1B4
:4013C000BDE83840FFF7C4BE194B9B78012B2CD1204A137803F0FD0315E003F00303012B13D008D3022B20D1114B9B78EBB9BDE83840FFF783BE0E4B9B78012B15D1154A96
:40140000137843F0020313700BE0094B1A79012A0BD898781B791649DBB2CA5C22EA0002CA54BDE83840FFF7C5BA002038BD00BF00600040A481FF1F2182FF1F8C170000F7
:40144000F0170000D21800002582FF1FB281FF1F7681FF1F9781FF1F9581FF1FA081FF1F2482FF1F9481FF1F9681FF1F9081FF1F2282FF1F034B00201A78120648BF5B7898
:40148000704700BF00600040024B1878C0F38010704700BF8F45004038B50446084DB4F5004F05D9286800F0E3F8A4F50044F6E7034B58686043BDE8384000F0D9B800BFE7
:4014C000E480FF1F024B1B7A584300F0D1B800BFE480FF1F054A00F01F00126800F1100352F8230042F82310704700BF08ED00E000F01F0000F16040490100F56440C9B234
:4015000001707047134B144A1B78DBB20360127843EA0223114A0360127843EA0243104A0360127843EA026303600E4B0E4A1B78DBB24360127843EA02230C4A436012789F
:4015400043EA02430A4A4360127843EA02634360704700BF0301004904010049EC4600400201004901010049000100490501004906010049074A137843F001031370137C1B
:4015800043F00103137492F85D3B43F0010382F85D3B7047A3430040054B1A7842F001021A70044A10801A7802F0FE021A707047A3430040064F004008B54FF6FF70134A58
:4015C000137803F001031370937803F0FC039370537843F0010353700D4B1A7802F0CF021A701A7842F030021A701A7802F0F0021A701A7842F00F021A7023F8070CFFF7E7
:40160000CBFF044B00221A7008BD00BF004F00400B4F0040034F004008B505490B781BB9FFF7CAFF01230B70BDE80840FFF7A2BF7881FF1F024B1B88024B188880B27047C5
:40164000064F0040084F0040064A0123136002F688321268E0211064034A1170A2F540721360704780E100E000E400E0000000000230800803D000BF01380046FCD1704721
:40168000EFF3108072B6704780F31088704700BF0F4A137803F00303012B0AD0022B0DD113790C2103F07F020A4B01FB02339B7A00E01379DBB2022B08D800E00023064A49
:4016C0001268D35C022B01D1FFF700B80020704700600040B281FF1F9C81FF1F014B1868704700BF5481FF1F0E4B70B51E460E4C0025E41AA410A54204D056F8253098470C
:401700000135F8E700F0F0F8084B094C1E46E41AA4100025A54204D056F8253098470135F8E770BDF4180000F4180000F4180000FC18000003460244934202D003F8011BD5
:40174000FAE7704700000000004F00400C00205100405000C0510040100000000140001000140140000800400140000A004C014000020050014020003031323334353637BF
:40178000383941424344454600000000010000009417000001000000D2180000000000000000000001000000AC170000010000008F18000003000000D61700000000000030
:4017C00000000000000000000000000000000000D4170000020A00008103080002000100820240000A000100030240000A000203040309042C0343007900700072006500FA
:40180000730073002000530065006D00690063006F006E0064007500630074006F007200100355005300420055004100520054003803430044004300200043006F006D00C6
:401840006D0075006E00690063006100740069006F006E00200049006E007400650072006600610063006500260343004400430020004400610074006100200049006E001C
:40188000740065007200660061006300650000090243000201018032090400000102020103052400100104240202052406000105240100010705810308000A0904010002C1
:4018C0000A00000407058202400000070503024000001201000202000008B40432F201000102800143000000F8B500BFF8BC08BC9E4670474D00000035030000F8B500BF86
:40190000F8BC08BC9E4670472900000020190000C880FF1F90000000F0000000000000000000000000C2010000000800C20100000008A12000000000020000000000E02EE5
:40194000C05D00001800000000366E010000000000000000000000000000000000000000000000000000000000000000E41800000000000000000000000000000000000091
:401980000000000000000000000000000000000000000000000000000000000000000000000000000000000000000000F480FF1F0000000000000000000000000000000095
:4019C00000000000000000000000000000000000000000000000000000000000000000000000000000000000000000000000000000000000000000000000000000000000E7
:401A000000000000000000000000000000000000000000000000000000000000000000000000000000000000000000000000000000000000000000000000000000000000A6
:401A40000000000000000000000000000000000000000000000000000000000000000000000000000000000000000000000000000000000000000000000000000000000066
:401A80000000000000000000000000000000000000000000000000000000000000000000000000000000000000000000000000000000000000000000000000000000000026
:020000040003F7
:0200000480007A
:4000000001450040024F0040015200400802014006030140040501400107014001090140010D014001170140011901400540014008410140094201400443014001450140F5
:40004000014601400647014002480140014C014002500140015101407E0201100A4B7C4008010A020E01300234013E1458045F01044005201C401F28C0C0E602AB08AF20FA
:40008000B520E810E202E202E602EE02EE023108338034023640CCF0034084029C02A508A640A780C010E6405B029B02A508A640AB02AF80B740D640EE908508A508A64064
:4000C000E24084809C8008800B400D0285029C80C20EAE40EE40AF400001080100AB000001000000000000004000000000000000C0000000000B0B00000000000000000092
:4001000000000000000000000000000000000000000000000000000000000000000000000000000000000000000000000000000000000000000000000000000000000000BF
:40014000000000000000000000000000000000000000000000000000000000000000000000000000000000000000000000000000000000000000000000000000000000007F
:40018000000000000000000000000000000000000000000000000000000000000000000000000000000000000000000000000000000000000000000000000000000000003F
:4001C00000000000000000000000000000000000000000000000000000000000000000000000000000000000000000000000000000000000000000000000000000000000FF
:0200000490006A
:0400000000004005B7
:0200000490105A
:04000000BC90ACAF55
:0200000490303A
:020000003DA819
:0200000490402A
:4000000000000000000000000000000000000000000000000000000000000000000000000000000000000000000000000000000000000000000000000000000000000000C0
:400040000000000000000000000000000000000000000000000000000000000000000000000000000000000000000000000000000000000000000000000000000000000080
:400080000000000000000000000000000000000000000000000000000000000000000000000000000000000000000000000000000000000000000000000000000000000040
:4000C0000000000000000000000000000000000000000000000000000000000000000000000000000000000000000000000000000000000000000000000000000000000000
:0200000490501A
:0C00000000012E16106900012E1F4E1189
:00000001FF