:400000000080002011000000AD040000AD04000008B5044B1A6803F53F5302331A6000F065FA00BFFA46004010B5054C237833B9044B13B10448AFF300800123237010BDB6
:400040007081FF1F00000000D4370000084B10B51BB108490848AFF300800848036803B910BD074B002BFBD0BDE81040184700BF000000007481FF1FD4370000C880FF1F9C
:400080000000000008B501F0B3FF0122014B1A6008BD00BF8C81FF1FF0B58FB062B600F005FB00F075FD00F079FF0121002000F06BFE154802F00EF801F0DEFF00F03AF8B2
:4000C00000F05EF8002001F06DFF104B98681E685F6802F065FC04460D46384602F060FCCDE90201304602F05BFCCDE9000122462B46074904A802F049FF04A800F09AFF66
:40010000642000F0C1FCDBE7850000009081FF1FD837000038B505460C460021282002F011FA284602F06AFA204602F067FA02F049FA38BD08B502F021F84FF47A7000F08D
:40014000A3FC012001F02EFF00213E20FFF7E2FF08213D20FFF7DEFF08BD00BF70B506460C4615460021282002F0ECF9304602F045FA00232A462146282002F07BF970BD94
:4001800010B582B0062269461A20FFF7E7FF9DF801009DF8003043EA002000B202F0EEFB0022144B02F07AFD02F060FE124CA0609DF803009DF8023043EA002000B202F03E
:4001C000DDFB00220B4B02F069FD02F04FFE20609DF805009DF8043043EA002000B202F0CDFB0022034B02F059FD02F03FFE606002B010BD00208C409081FF1FFEE700BF97
:40020000F0B40022174611E050F82760F3B226F0FF0608E001EB420511F812406D78A5550132013BDBB2002BF4D10137232FEBD9F0BC704708B50A46002102F09EFE08BDA8
:4002400038B51D22274B1A80182202331A7045F6BF5202331A80192502331D70062203F27A231A705222A3F580731A701E4B1B78DBB21E4A13704FF4E2621D4B1A8041F235
:400280005122023B1A8000240CE01A4B1B7803F0010343EA440404F003044FF4F07002F0DBF9013D0DB1032CEFD115B90320FFF7A5FF114A4FF480731380072313700023B2
:4002C0000E490B7048200231087013700532137002220B4B1A700B4A137843F00303137038BD00BF804000400F010049A146004022420040254200400440004006400040B3
:4003000001400040A2430040F8B5164B1B78DBB2154E3478E4B2154F3D78EDB203F00701134A11701B090132137044F00303337045F003033B703F220E4B1A70802203F23B
:40034000F4731A70A02203F21F231A70502204331A700A2000F0AEFB3D7034704422064B1A70F8BDCF010049F8460040F94600406E5800400D5100407658004008B502F055
:40038000F1FD08BD38B572B6334A137843F00403137000240CE0314D630019194A0011462A44084691882858FFF744FF0134E4B2082CF0D92A494FF09040FFF721FF0421D9
:4003C0002848FFF737FF042227492848FFF7D6FF274A137843F0020313701032137843F002031370234C237843F040032370A2F58632513A137843F01003137008221E497F
:400400001E48FFF7BBFF0A221D491E48FFF7B6FF08221D491D48FFF7B1FF08221C491D48FFF7ACFF0A221C491C48FFF7A7FF1C4A137843F0080313701A4D61232B70FFF714
:40044000FFFEC1232B70FFF75FFF0E2221461648FFF794FF38BD00BFE8460040F837000090000048007600407C0400480876004003500140A04300404C04004802510040E7
:4004800054040048F05100406004004812510040680400482251004070040048305100402243004000480040B043004008B502F02DFD03680C2B00D1FEE7FEE708B5094B61
:4004C0001A681044084BC31A802B02DC054B186005E002F01BFD0C2303604FF0FF32104608BD00BFCC80FF1FC082FF1F08B5104E104D16E029686B68AC68002204E051F8DB
:40050000040B43F8040B0432A242F8D1E868002203E0002143F8041B04328242F9D11035013E002EE6D102F0F7FCFFF7B5FDFEE701000000FC39000008B5114A114B1A60EC
:40054000114A136843F40073136000230AE0032B03D80E4A52F8231000E00D490D4A42F8231001332F2BF2D90B4B1A780B4B1A70084A0B4B1A60FFF705FF00F0A3F908BD15
:400580000004FA050CED00E014ED00E000000000AD0400000080FF1FBC760040C080FF1F08ED00E010B541F6FF734FF480420121022000F03DF9084C207041F6FF731A46C0
:4005C0000121062000F052F96070044800F06CF9002000F06FF910BD9C81FF1FD506000070B52C4C207800F0A3F9607800F0A0F9294B1B78FF2B03D100F008FA264B18709A
:40060000254D287806230246194600F019FA214E341DA4B2224645F6A031287800F024FA2978307800F0C4F96B78FF2B02D100F0EDF96870184D687807230246062100F04B
:40064000FFF9164A92B22146687800F00DFA114C6978607800F0ACF90121207800F04CF90121607800F048F901F0FEFF0C4A137843F02003137001F0FBFF0A4B1A7842F02F
:4006800001021A701A7842F002021A700122064B1A6070BD9C81FF1FD080FF1FBC81FF1F936400407464004080E200E008B5074BDB6823B9FFF776FF0122044BDA6000F076
:4006C000A9F8FFF78DFF024B1B7808BD9C81FF1F67640040704700BF08B50A2813D00C2802D0082809D104E04FF400624FF480510DE080224FF4807109E0002000F0C2F980
:400700000022114603E04FF400724FF480610020084B188042F2107303FB01F313F5806301D503F2FF73DB1203490B6012B2034B1A8008BDCA81FF1FC481FF1FCC81FF1F5C
:4007400010B501F091FF0446184A137843F0010313701032137843F00103137002F5AA520832137843F0030313701822104B1A70013B1A7842F040021A701A7802F0FC02DA
:400780001A70CE22053B1A700222A3F597530C3B1A70084A137843F0080313700A2000F089F9204601F064FF10BD00BFAB43004006590040275B004010B504460A280DD051
:4007C0000C2802D0082804D101E0C22207E0422205E0002000F056F9C22200E08222034B1A702046FFF778FF10BD00BF0259004008B5064A137843F0060313700C20FFF7E7
:40080000DBFF0022024B1A8008BD00BF01590040C881FF1F08B5054B1B7823B9FFF7E8FF0122024B1A70FFF78BFF08BDAC81FF1FF0B583B016461F460B4C0125257000239F
:40084000019300932B460A460146284600F0BCF83A463146207800F091F80221207800F07BF8207803B0F0BDD280FF1FF0B583B016461F460B4D00242C7001940094234666
:400880000A460146204600F09FF83A463146287800F074F80221287800F05EF8287803B0F0BD00BFD380FF1F014B1B681864704708ED00E04001C0B2014B1870704700BFB4
:4008C00000E400E00B4A7F2313708021517007E0DA0002F1804202F5F042013BDBB21370002BF5D1DB0003F1804303F5F04300221A707047D480FF1F172815D831B10301D8
:400900000A495A5C42F020025A5405E0030107495A5C02F0DF025A540001044A835C43F00103835400207047012070471070004017280CD80001074BC1180A7942F0040287
:400940000A71C25C42F00102C254002070470120704700BF1070004017280BD80001064A835C03F0F103490001F00E011943815400207047012070471070004041F6FF739A
:40098000994201D14FF4005141F6FF739A4201D14FF40052172808D8C00000F1804000F5EC408180C280002070470120704700BF172805D8034B03EB0010417200207047B6
:4009C000012070471070004017281BD810B4C00000F1804404F5EC44D201D2B201F07F01114321709DF804201201D2B203F00F03134363709DF8083003F00F03A37000209B
:400A0000E07001E00120704710BC704710B501F02BFE0A4B5B78182B0BD9084A1478013B5370E30003F1804303F5F0431B78137000E0FF2401F01CFE204610BDD480FF1F91
:400A400010F0800F0CD111F4704F0BD1C00000F1804000F5F04001808270C37000207047012070470120704710F0800F08D1C00000F1804000F5F0408180C280002070478F
:400A80000120704701BE704710B5044605E0084B186801F0E1FDA4F50044B4F5004FF6D8034B586800FB04F001F0D6FD10BD00BFDC80FF1F08B5034B1B7A00FB03F001F069
:400AC000CBFD08BDDC80FF1F70B504460E46074B1D681F2802D90020FFF7D4FF04F01F04103455F8240045F8246070BD08ED00E038B504460D46072902D90020FFF7C2FF4F
:400B00001F2C02D90020FFF7BDFF04F01F0000F1604000F564406D01EDB2057038BD00BF134B1B78DBB20360124A127843EA02230360114A127843EA024303600F4A127831
:400B400043EA026303600E4B1B78DBB243600D4A127843EA022343600B4A127843EA024343600A4A127843EA02634360704700BF0301004904010049EC46004002010049B8
:400B800001010049000100490501004906010049F8B501F069FD0746404A137843F0010313701032137843F00103137001263C4B1E700225943B1D7002F5E2521B32137898
:400BC00003F07F0313700020FFF774FF354C237803F0F9032370344A137803F0DF0313702378334323703046FFF764FF2820FFF761FF2E4B1A7802F07F021A701A7802F0D8
:400C0000BF021A7023782B4323702846FFF752FF237843F0040323700023254A137001321370384601F024FD07211720FFF760FF20491720FFF748FF07211820FFF758FF17
:400C40001D491820FFF740FF07211520FFF750FF1A491520FFF738FF07213046FFF748FF17493046FFF730FF07212846FFF740FF14492846FFF728FF07210320FFF738FF39
:400C800011490320FFF720FF07210C20FFF730FF0E490C20FFF718FFF8BD00BFA54300409D6000409443004012600040F8510040846000403D16000025140000391600006F
:400CC00099150000C9150000FD1500004516000008B5214B18700023204A1370204A1370204A1370204A1370204A1370204A1370204A1370204B4FF400021A604FF0807251
:400D00001A604FF400121A6002221A6004221A6008221A6011B1012906D00BE0174A137803F0FE0313700AE0144A137843F00103137004E0114A137843F001031370032242
:400D40000F4B1A708022203B1A70012001F084FC04220C4B1A7008BDE981FF1FEC81FF1F0882FF1F0B82FF1F0082FF1F0A82FF1F0D82FF1FE881FF1F00E100E0096000405C
:400D8000286000401260004038B504460D46064B1B7823B9FFF7FCFE0122034B1A7029462046FFF795FF38BDAD81FF1F00230A4A13700A4A13700A4A13700A4A13700A4A11
:400DC00013700A4A13700A4A13700322094B1A708022203B1A707047EC81FF1F0882FF1F0B82FF1F0082FF1F0A82FF1F0D82FF1FE881FF1F28600040431EDBB2072B3CD829
:400E0000F0B4074600EB4004A3001C4C2344DB889BB2C3F500739A4208D900EB400293002344DA8892B2C2F5007292B200EB4004A300124C2344DB7843EA1223104D0401A0
:400E40002E192B55D3B2737039B909E0CE5C3D010C4C665501339BB200E000239A42F5D8420002449300054A134400225A705A79D2B20001044B1A54F0BC70471082FF1FEB
:400E8000FC5F004078600040FE5F0040431EDBB2072B0BD8420002449300054A134400225A705A79D2B20001024B1A54704700BF1082FF1FFE5F00400246002001E00130E2
:400EC00080B2135C002BFAD1704700BF10B4FF2400230EE0094AD25C02EB42029100084A11448A7AD2B2824201D11C4602230133DBB2012BEED9204610BC7047D881FF1F4A
:400F00001082FF1F10B5204C2079FFF7DFFF237813F0800F0ED06378DBB2212B2FD11B4B07221A80C0EBC000194A1044586000F0E7FA10BD144B5B78DBB2202B02D0222BDA
:400F400010D01EE0114A07231380C0EBC00310490B4453600F4A135C43F00103135400F0F7FA10BD084B9B780B4A22F81030094A135C43F00203135400F080F910BD0020D2
:400F800010BD002010BD00BF00600040F481FF1FEC80FF1FD081FF1FE481FF1F10B500241F4B1C701F4B1C705C700AE01E4B185DC0B2431EDBB2072B01D8FFF767FF0134A4
:400FC000E4B2012CF2D9194B1B7813F0FF0F1AD0154B1B7813F0FF0F17D0154B1B7813F0FF0F14D0114B1B78DBB2082B11D80E4B1B78DBB2082B0ED80D4B1B78DBB2082BC9
:401000000BD8002010BD012010BD012010BD012010BD012010BD012010BD012010BD00BFAE81FF1FD081FF1FDC81FF1FD481FF1FD881FF1F2DE9F8438046234B1B78234AE7
:40104000D65CF6B2FFF738FF05460027344606EB460293001E4A13441B899BB29D4209D906EB460293001A4A1344B3F808901FFA89F900E0A9464A4608EB07013046FFF715
:40108000BBFEC9EB0505ADB245B906EB460293000F4A13441B899BB2994510D14F44BFB204EB440293000A4A13445B7813F0FF0FF6D025B9002211463046FFF79DFE002D84
:4010C000C4D1BDE8F88300BFAE81FF1FD481FF1F1082FF1FC37803F0030390F9020000280FDA032B06D002F001030B48C15442F001020EE0C2F380030848C15442F00402E2
:4011000007E0032B05D0C2F340030548C15442F002021046704700BFD481FF1FD881FF1FDC81FF1F1D4B19781D4A13889BB20B449BB2138000220FE01A494B681B78DBB246
:40114000194883544B6801334B600132D2B20B889BB2013B9BB20B80124B1B889BB20BB1072AE9D90D4B1B78DBB2082B00D05AB10E490B7883F080030B700F210C4B19701D
:4011800002210C4B197004E0022309490B7009490B70094B1A70014B1A707047E881FF1FEA81FF1FF481FF1F006000407E82FF1F0982FF1FEC81FF1F0C82FF1F0222074B67
:4011C0001A708022064B1A700F22064B1A700023054A1370054A137001207047EC81FF1F7E82FF1F0982FF1FE881FF1F0C82FF1F08B5FFF797FF08BD10B4194B197801F000
:401200000F010239C9B2174A13889BB20B449BB21380002011E0144A5468144B1B5CDBB223705368013353600130C0B20139C9B213889BB2013B9BB213800B4B1B889BB20B
:401240000BB10029E7D10A4B19700A4A137883F0800313700B22084B1A7010BC704700BF29600040EA81FF1FF481FF1F006000400C82FF1F7E82FF1F0982FF1F0623064ADE
:401280001370064A13708022054B1A700022054B1A700120704700BFEC81FF1F0982FF1F7E82FF1F0C82FF1F064B9B6843B1054B9A6810709A6804490988518000229A60E4
:4012C000704700BFF481FF1FEA81FF1F08B5134B1A78D2B21A701B78DBB213F0800F02D00F4A137008BD0220FFF7DEFF0D4B1B7803F06003202B05D0402B06D043B900F0F9
:4013000093FC06E001F0B8F903E000F037FE00E0002010B90322024B1A7008BD286000400982FF1F0060004008B5094B1978094A13889BB20B449BB213800022064B1A70EA
:401340000120FFF7B1FF0322044B1A7008BD00BFE881FF1FEA81FF1FEC81FF1F0982FF1F08B50B4B1B78DBB2042B06D0062B07D0022B0BD1FFF7D8FF08BDFFF73DFF08BD0E
:401380000320FFF791FF0322024B1A7008BD00BFEC81FF1F0982FF1F08B50022044B1A700120FFF781FF0322024B1A7008BD00BFEC81FF1F0982FF1F08B50B4B1B7813F024
:4013C000FF0F07D0084A137843F0800307490B70002313700022064B1A700120FFF764FF0322044B1A7008BD0A82FF1F08600040EC81FF1F0982FF1F08B5094B1B78DBB213
:40140000042B06D0062B07D0022B07D1FFF7F0FE08BDFFF7C1FF08BDFFF7CEFF08BD00BFEC81FF1F08B5284B1B78DBB213F0100F48D013F0800F0CD003F00F03012B16D194
:40144000FFF744FF214B1B7813F0800F11D1012312E013F0400F03D0FFF7CEFF01230BE013F0200F07D0FFF77BFF012304E0002302E0002300E0002323B3134B1B7813F03D
:40148000800F1FD1124B1B78124A12781343124A13701278D2B2934214D10C4B1B78DBB2094A127812F0800F07D1084B1B78DBB2054A1370137803F00F03044A1278D2B2EC
:4014C0009342EAD108BD00BF286000400982FF1F7E82FF1F0C82FF1F296000400022064B1A80064B9B682BB1044A916800230B7092685380704700BFEA81FF1FF481FF1F53
:4015000008B50F4B1B889BB213B9FFF757FE15E002220C4B1A7000220B4B1A70FFF7DEFF0A4AD179937943EA0123054A128892B2934201D2024A1380FFF7F4FD012008BD42
:40154000F481FF1FEC81FF1F7E82FF1F0060004008B504220B4B1A7080220B4B1A70FFF7BDFF0A4AD179937943EA0123084A128892B2934201D2064A13800B22054B1A70DB
:40158000012008BDEC81FF1F7E82FF1F00600040F481FF1F0982FF1F0122094B1A700F3B9B7C084B1B7B03F00303934204D0054AD37B83F08003D3730122024B5A73704706
:4015C0000B6000401082FF1F02220A4B1A700F3B93F82230084B1B7E03F00303012B04D0054AD37E83F08003D3760122024B5A76704700BF0B6000401082FF1F04220C4B14
:401600001A700F3B93F832300A4B93F8243003F00303012B06D0074A92F8273083F0800382F827300122034B83F82520704700BF0B6000401082FF1F704700BF08B5FFF796
:40164000B5FB08BD08B500F0A5FC08BD70B588B0054603AC174E0FCE0FC43368237035B322232B7003236B7001A8FFF759FA002402231AE008AA224412F81C2C08A901EB43
:40168000121111F8141CE954581C00212954981C02F00F0208AE324412F8142C2A54DA1CA9540134E4B20433DBB2212BE2D908B070BD00BF3038000010B401233EE01946DA
:4016C0001A010C242148845403EB4300820020480244527912F0FF0F13D003EB430082001B480244127912F0800F04D01801194A024494700AE01801164A0244082090705C
:4017000004E01801134A0244802090704800084482000F480244D488E4B208010B4901448C71D088C0F30720C871D088C0B20871D288C2F307224A710133DBB2082BBED9F9
:40174000FF22054B1A7010BC704700BF706000401082FF1FFC5F00400A600040074B1A78074B03EBC2035B681A7C824204D9C000103018444068704700207047E981FF1F2A
:4017800044380000F8B5404B1B7813F0FF0F79D03D4B18780138C0B2FFF7E0FF047AC2683A4B1878C0B200236AE01178884264D13749095CC9B25578A9425ED1917801F08B
:4017C0007F01D67806F00306DFF8C8E04D000D44AF000EEB07054FF0000C85F803C092F802C085F804C092F803C00EF807C097882F8192F90250002D0DDA012E01D107272A
:4018000000E00D274E000E44B500224E35446F7101266E700CE0012E01D1052700E009274E000E44B5001B4E35446F7100266E70DFF868E00F010EEB07060125B57001FAB2
:4018400005F529448D00134929440D89C5F307250EF807500D89EDB27570CE88F6B20E4D3D44AE71CE88C6F30726EE71CE88F6B22E71C988C1F30721697108320133DBB287
:40188000A34292D3F8BD00BF0B82FF1F0082FF1F7C82FF1F1082FF1F70600040FC5F0040034B1A78034B03EBC2035868704700BFE981FF1F4438000008B5084B18780138B4
:4018C000C0B2FFF74BFF30B142681279023200EBC203586808BD002008BD00BF0B82FF1F2DE9F047002310E0724D5900CA189600AC190022AA55A270E2702281A2726270A5
:4019000034462C4462710133DBB2082BECD940B90AE000226849CA546849CA540133DBB200E00023012BF4D9654B1B7813F0FF0F00F0BD80624B18780138C0B2FFF70EFF65
:4019400080464368DB7913F0400F05D05D4A137843F00103137004E05A4A137803F0FE03137098F808704FF0000A01266FE0D8F80C50002467E0AB7803F07F039E425FD1FF
:40198000314606EB460083004A4803441B899BB2A888834206D206EB460E4FEA8E03454A134418812B784448C35CDBB26878834246D195F802C0DFF8FCE04B000B44980006
:4019C0000EEB000383F804C0EB780EF80030EB7803F0030395F90200002813DA012B02D14FF0070901E04FF00D09DFF8C8E04B0003EB010C4FEA8C00704480F80590012121
:401A0000417012E0012B02D14FF0050901E04FF00909DFF8A0E04B0003EB010C4FEA8C00704480F8059000214170AB790A2B01D0022B05D1524631462846FFF74BFB8246E2
:401A400008350134E4B2BC4295D30136F6B2082E8DD9D8F80C0000220CE0837803F07F0310F8084B03EB43039900124B19448C720132D2B2BA42F0D3FFF71EFF124B1860E5
:401A8000002301210FE00B4D4A00501884002C44E380228992B213449BB203F0010213449BB20131C9B20829EDD9FFF705FEBDE8F08700BF1082FF1F7C82FF1FF081FF1F91
:401AC0000B82FF1F0D82FF1F0482FF1F08B5154B1B7903F07F035A1ED2B2072A20D8590019448A0010490A44917841F0010191700021D170517841F002015170127912F0CE
:401B0000800F05D01B01094A1A448D23937004E01B01064A1A4489239370FFF7AFFB08BD002008BD006000401082FF1FFC5F0040274B1B7903F07F035A1ED2B2072A44D86B
:401B400010B5590019448A0022490A44917801F0FE0191700021D1701F4C1801215C01F07F012154517801F0FD015170127912F0800F13D003EB43018A0016490A445278B9
:401B8000D2B2012A04D1224602440C23937019E01B01114A1A440D23937013E003EB43018A000C490A445278D2B2012A05D11B01094A1A440823937004E01B01064A1A4476
:401BC00009239370FFF75AFB10BD0020704700BF006000401082FF1FFC5F004010B50E4B1C79E4B20D4B18780138C0B2FFF7B6FD43681B799C4201D9022C0AD8084A135DCF
:401C0000DBB208490B55044B9B78DBB21355012010BD002010BD00BF006000400B82FF1F7C82FF1FF081FF1F10B59C4B1B78DBB200219B4A118013F0800F00F0AD80974A8C
:401C40005278D2B20A2A00F27481DFE812F06900720172017201720172010B007201920072019A008D4BDB78DBB2012B09D1FFF717FE42688A4B5A6012221A80FFF740FC6B
:401C800010BD864BDB78DBB2022B13D1834B9878FFF764FD002800F04E814268804B5A605A68D1785A68927842EA01221A80FFF727FC10BD794BDB78DBB2032B05D02CE0F1
:401CC0000A7811440133DBB201E000237549734A9278D2B2934203D20A7812F0FF0FEFD16E4B9B7813F0FF0F0BD06C4B9B78DBB26D4A127C934204D16C4C2046FFF7A6FC8F
:401D000021460B7813F0FF0F00F017810B78644A13805160FFF7F4FB10BD00F0ADFC10BD13F0030317D0022B40F009815C490B805A4B1B7903F07F0303EB43039A005C4B69
:401D40001A449278D2B25B4B1A7000225A704B60FFF7D6FB10BD524902230B80564B1A78D2B2544B1A7000225A704B60FFF7C8FB10BD4B4B01221A80504A5A60FFF7C0FB7C
:401D800010BD474A01231380444B1B794C490B445360FFF7B5FB10BD404A5278013A0A2A00F2CF80DFE812F04C00CD009800CD000B00CD00CD00CD001300CD003000374B92
:401DC0009B78DBB23F4A1370FFF758FA10BD334B9B7803F0FF041BB1601EC0B2FFF7BEFC04B110B9002C40F0AE80344B1B78DBB29C4206D0314B1C700120334B1870FFF7AF
:401E00006FFDFFF73BFA10BDFFF7E8FE002800F09C80224A1379DBB21279D2B22B490A702B4AD25CD2B22649CB5CDBB29A4204D00122254B1A70FFF7A5FCFFF71FFA10BD22
:401E400003F00303012B17D04BB1022B7FD1134B9B7813F0FF0F7CD1FFF76AFE10BD0F4B9B78DBB2012B76D1134A137803F0FD031370FFF703FA10BD084B1B79DBB2012BB8
:401E80006BD8064B98781B79DBB21249CA5C22EA0002CA54FFF7F2F910BD00BF00600040F481FF1FAC380000903900009482FF1F1082FF1FB081FF1F0D82FF1F0B82FF1FD8
:401EC0007C82FF1F0A82FF1F0882FF1F0082FF1FF081FF1F8082FF1F03F00303012B17D04BB1022B3BD1224B9B7813F0FF0F38D1FFF7ECFD10BD1E4B9B78DBB2012B32D166
:401F00001C4A137843F002031370FFF7B7F910BD174B1B79DBB2012B27D8154B98781B79DBB21549CA5C22EA0002CA54FFF7A6F910BD002010BD002010BD002010BD00204A
:401F400010BD002010BD002010BD002010BD002010BD002010BD002010BD002010BD002010BD002010BD002010BD002010BD00BF006000400D82FF1F8082FF1F044B1B7857
:401F800013F0800F01D0024B5B780020704700BF00600040024B1878C0F38010704700BF8F450040044A137803F0FD03400000F0020018431070704720510040084A1378A0
:401FC00043F0010313701032137843F00103137002F64D32137843F001031370704700BFA3430040014B1870704700BF034F0040014B1878704700BF034F0040014B1880A4
:40200000704700BF044F0040014B1880704700BF064F004008B5154A137803F0010313700232137803F0FC031370114B1A7802F0CF021A701A7842F030021A701A7802F014
:40204000F0021A701A7842F00F021A70094A137843F0010313700920FFF7D0FF0920FFF7D3FF0820FFF7BEFF08BD00BF004F00400B4F0040014F004008B5054B1B7823B97A
:40208000FFF7C8FF0122024B1A70FFF797FF08BDB281FF1F024B1B68C3F88400704700BF08ED00E04001C0B2014B1870704700BF11E400E04FF40032014B1A60704700BFEA
:4020C00000E100E04FF40032014B1A60704700BF80E100E010B50446FFF7F4FF2046FFF7D9FF0720FFF7DEFFFFF7E4FF10BD00BF10B50222114B1A7081220E3B1A70082233
:4021000002331A701E2211331A70002401331C704FF400420A4B1A6007210F20FEF7E8FC08490F20FEF7D0FC1022074B1A70074B1C70074B1C70074B1C7010BDD649004055
:4021400080E100E0A52100008282FF1F8682FF1F8E82FF1F8482FF1F08B500F085FA064A137843F0040313701032137843F00403137000F07DFA08BDA543004008B5074B0D
:402180001B7823B9FFF7B4FF0122044B1A70FFF7E3FF4FF40042024B1A6008BDB381FF1F00E100E038B5A54B1C78A54B1B7813F0400F00F03A81E4B214F0010F00F01D81E6
:4021C0009F4B1B78453B052B00F21481DFE813F006008200120112010600DF0004F0DF0504F00A04082C42D1954B1B78DBB2452B35D1944B1B7813F0FF0F10D0924B1B6874
:402200001B78DBB2914A137004228C4B1A7001228F4B1A7046228A4B1A702C46EDE08D4B1B7813F0020F0DD08B4A137843F00A0313706022824B1A704FF40042874B1A60E3
:402240002C46DAE0864A137843F0100313701022844B1A700422023B1A702C46CDE00022764B1A704A22764B1A702C46C5E00A2C2BD1794A137843F0A0031370754B1B7810
:4022800013F0020F14D06E4B1B7813F0080F01D0092300E00A23704A11780B4313706022674B1A704FF400426C4B1A602C46A4E06B4A137843F0100313701022694B1A70BF
:4022C0000422023B1A702C4697E00020FEF7DAFB2C4692E014F0020F36D15D4B1A78D2B2584B1B78DBB29A4210D2594A1378DBB255490968CB5CDBB254490B7004214F4B8A
:40230000197013780133DBB2137076E0514B1B7813F0020F0CD0504A137843F00A0313706022474B1A704FF400424C4B1A6064E04B4A137843F0100313701022494B1A7037
:402340000422023B1A7058E0424B1B7813F0020F0CD0414A137843F09A0313706022384B1A704FF400423D4B1A6046E03C4A137843F01003137010223A4B1A700422023B05
:402380001A70354A137843F09003137035E0364A1378DBB2354908682C490978C9B2C15413780133DBB213701278D2B2304B1B78DBB29A4203D21022204B1A701DE0254B62
:4023C0001B7813F0020F0CD0234A137843F00903137060221A4B1A704FF400421F4B1A600BE01F4A137843F0100313700022134B1A7002E00020FEF745FB14F0200F1CD0BE
:402400000F4B1B7813F0080F01D0012300E00223114A11780B431370114A137803F0EF0313701022064B1A7038BD054B1B7813F0100F02D11022024B1A7038BDD749004060
:402440008282FF1F8582FF1F9082FF1FD84900408482FF1F8C82FF1F8682FF1F80E100E0D6490040D94900408E82FF1F8882FF1F8D82FF1F00294AD070B40C4627490978DF
:40248000C9B2102906D12649097811F0080F11D1002112E021490978C9B260290CD14FF4004520490D60204D297801F0F7012970002102E0012100E0022159BB4926174DCB
:4024C0002E700026194D2E70194D2A70194A1460194A1370144C227802F0FE0222704200D2B242F001021548027013F0010F06D012220B4B1A700422023B1A7002E0012220
:40250000074B1A704FF400420D4B1A6002E0022108467047084670BC704700BF8282FF1FD949004080E200E08682FF1F8E82FF1F8D82FF1F8882FF1F8C82FF1FD849004072
:4025400000E100E01A4B1B78DBB2102B29D1194B1B7813F0080F26D14FF40042164B1A604000C0B229B140F001004922104B1A7002E045220E4B1A70104B18700122013305
:402580001A700F4B1B7813F0010FFAD00C4B1B7803F00A030A2B08D11022054B1A700320704702207047012070470020704700BF8282FF1FD949004080E100E0D84900407C
:4025C000D74900400A4B1B7813F0040F0ED01023074A13700421023A1170064A1370064B1B7813F0210FFAD00020704702207047D94900408282FF1FD7490040114B1B787F
:4026000013F0040F1BD0104B18700422013B1A7046220E4B1A700E4B1B7813F0010FFAD00B4B1B7813F0020F04D16022074B1A70002070476022054B1A7003207047022057
:40264000704700BFD9490040D84900408282FF1FD7490040000000000230800803D000BF01380046FCD17047EFF3108072B6704780F31088704700BF08B5144B1B7803F0DC
:402680000303012B02D0022B04D00FE00F4B1B79DBB20CE00D4B1B7903F07F0303EB43039A000B4B1A44937ADBB200E00023022B07D8084A1268D35C022B04D1FEF722FC23
:4026C00008BD002008BD002008BD00BF006000401082FF1F0482FF1F81F0004102E000BF83F0004330B54FEA41044FEA430594EA050F08BF90EA020F1FBF54EA000C55EA60
:40270000020C7FEA645C7FEA655C00F0E2804FEA5454D4EB5555B8BF6D420CDD2C4480EA020281EA030382EA000083EA010180EA020281EA0303362D88BF30BD11F0004F9D
:402740004FEA01314FF4801C4CEA113102D0404261EB410113F0004F4FEA03334CEA133302D0524263EB430394EA050F00F0A780A4F10104D5F1200E0DDB02FA0EFC22FA3D
:4027800005F2801841F1000103FA0EF2801843FA05F359410EE0A5F120050EF1200E012A03FA0EFC28BF4CF0020C43FA05F3C01851EBE37101F0004507D54FF0000EDCF1F1
:4027C000000C7EEB00006EEB0101B1F5801F1BD3B1F5001F0CD349085FEA30004FEA3C0C04F101044FEA445212F5800F80F09A80BCF1004F08BF5FEA500C50F1000041EB29
:40280000045141EA050130BD5FEA4C0C404141EB010111F4801FA4F10104E9D191F0000F04BF01460020B1FA81F308BF2033A3F10B03B3F120020CDA0C3208DD02F1140C66
:40284000C2F10C0201FA0CF021FA02F10CE002F11402D8BFC2F1200C01FA02F120FA0CFCDCBF41EA0C019040E41AA2BF01EB0451294330BD6FEA04041F3C1CDA0C340EDC9F
:4028800004F11404C4F1200220FA04F001FA02F340EA030021FA04F345EA030130BDC4F10C04C4F1200220FA02F001FA04F340EA0300294630BD21FA04F0294630BD94F0C5
:4028C000000F83F4801306BF81F480110134013D4EE77FEA645C18BF7FEA655C29D094EA050F08BF90EA020F05D054EA000C04BF1946104630BD91EA030F1EBF0021002016
:4029000030BD5FEA545C05D14000494128BF41F0004130BD14F580043CBF01F5801130BD01F0004545F0FE4141F470014FF0000030BD7FEA645C1ABF194610467FEA655C72
:402940001CBF0B46024650EA013406BF52EA033591EA030F41F4002130BD00BF90F0000F04BF0021704730B54FF4806404F132044FF000054FF0000150E700BF90F0000F42
:4029800004BF0021704730B54FF4806404F1320410F0004548BF40424FF000013EE700BF42004FEAE2014FEA31014FEA02701FBF12F07F4393F07F4F81F06051704792F091
:4029C000000F14BF93F07F4F704730B54FF4607401F0004521F0004120E700BF50EA010208BF704730B54FF000050AE050EA010208BF704730B511F0004502D5404261EB4A
:402A000041014FF4806404F132045FEA915C3FF4DCAE4FF003025FEADC0C18BF03325FEADC0C18BF033202EBDC02C2F1200300FA03FC20FA02F001FA03FE40EA0E0021FA5C
:402A400002F11444C1E600BF70B54FF0FF0C4CF4E06C1CEA11541DBF1CEA135594EA0C0F95EA0C0F00F0DEF82C4481EA030621EA4C5123EA4C5350EA013518BF52EA033509
:402A800041F4801143F4801338D0A0FB02CE4FF00005E1FB02E506F00042E0FB03E54FF00006E1FB03569CF0000F18BF4EF0010EA4F1FF04B6F5007F64F5407404D25FEAEA
:402AC0004E0E6D4146EB060642EAC62141EA55514FEAC52040EA5E504FEACE2EB4F1FD0C88BFBCF5E06F1ED8BEF1004F08BF5FEA500E50F1000041EB045170BD06F00046FE
:402B000046EA010140EA020081EA0301B4EB5C04C2BFD4EB0C0541EA045170BD41F480114FF0000E013C00F3AB8014F1360FDEBF002001F0004170BDC4F10004203C35DAD3
:402B40000C341BDC04F11404C4F1200500FA05F320FA04F001FA05F240EA020001F0004221F0004110EBD37021FA04F642EB06015EEA430E08BF20EAD37070BDC4F10C046E
:402B8000C4F1200500FA04F320FA05F001FA04F240EA020001F0004110EBD37041F100015EEA430E08BF20EAD37070BDC4F1200500FA05F24EEA020E20FA04F301FA05F28B
:402BC00043EA020321FA04F001F0004121FA04F220EA020000EBD3705EEA430E08BF20EAD37070BD94F0000F0FD101F00046400041EB010111F4801F08BF013CF7D041EA8B
:402C0000060195F0000F18BF704703F00046520043EB030313F4801F08BF013DF7D043EA0603704794EA0C0F0CEA135518BF95EA0C0F0CD050EA410618BF52EA4306D1D18A
:402C400081EA030101F000414FF0000070BD50EA410606BF1046194652EA430619D094EA0C0F02D150EA013613D195EA0C0F05D152EA03361CBF104619460AD181EA03015E
:402C800001F0004141F0FE4141F470014FF0000070BD41F0FE4141F4780170BD70B54FF0FF0C4CF4E06C1CEA11541DBF1CEA135594EA0C0F95EA0C0F00F0A7F8A4EB05040B
:402CC00081EA030E52EA03354FEA013100F088804FEA03334FF0805545EA131343EA12634FEA022245EA111545EA10654FEA00260EF000419D4208BF964244F1FD0404F566
:402D0000407402D25B084FEA3202B61A65EB03055B084FEA32024FF480104FF4002CB6EB020E75EB030E22BFB61A754640EA0C005B084FEA3202B6EB020E75EB030E22BF6A
:402D4000B61A754640EA5C005B084FEA3202B6EB020E75EB030E22BFB61A754640EA9C005B084FEA3202B6EB020E75EB030E22BFB61A754640EADC0055EA060E18D04FEA46
:402D8000051545EA16754FEA06164FEAC30343EA52734FEAC2025FEA1C1CC0D111F4801F0BD141EA00014FF000004FF0004CB6E711F4801F04BF01430020B4F1FD0C88BF17
:402DC000BCF5E06F3FF6AFAEB5EB030C04BFB6EB020C5FEA500C50F1000041EB045170BD0EF0004E4EEA113114EB5C04C2BFD4EB0C0541EA045170BD41F480114FF0000E56
:402E0000013C90E645EA060E8DE60CEA135594EA0C0F08BF95EA0C0F3FF43BAF94EA0C0F0AD150EA01347FF434AF95EA0C0F7FF425AF104619462CE795EA0C0F06D152EA25
:402E400003353FF4FDAE1046194622E750EA410618BF52EA43067FF4C5AE50EA41047FF40DAF52EA43057FF4EBAE12E74FEA4102B2F1E04324BFB3F5001CDCF1FE5C0DD98E
:402E800001F0004C4FEAC0024CEA5070B2F1004F40EB830008BF20F00100704711F0804F21D113F13872BCBF01F00040704741F480114FEA5252C2F11802C2F1200C10FA89
:402EC0000CF320FA02F018BF40F001004FEAC1234FEAD32303FA0CFC40EA0C0023FA02F34FEA4303CCE77FEA625307D150EA01331EBF4FF0FE4040F44000704701F00040DA
:402F000040F0FE4040F40000704700BF014B1868704700BF6881FF1F0E4B70B51E460E4C0025E41AA410A54204D056F8253098470135F8E700F050FD084B094C1E46E41A84
:402F4000A4100025A54204D056F8253098470135F8E770BDE4390000E4390000E4390000EC39000010B5431E0A44914204D011F8014B03F8014FF8E710BD034602449342B2
:402F800002D003F8011BFAE7704700000EB400B54FF402719CB0ADF814106FF00041049107914FF6FF711DAB02900690084853F8042BADF81610006802A9019300F064F854
:402FC000029B00221A701CB05DF804EB03B070476881FF1F2DE9F0478E6882469E420C46914698463ED88A8912F4906F3AD02568096902236F1A656905EB450595FBF3F5B0
:403000007B1C43449D4238BF1D4653050FD5294600F040FB064698B13A462169FFF7A2FFA38923F4906343F08003A38113E02A4600F08EFB064670B92169504600F0DEFAE4
:403040000C23CAF80030A3894FF0FF3043F04003A381BDE8F08726613E44266046466561ED1BA560464528BF464649463246206800F0A8FAA36800209B1BA36023681E4401
:403080002660BDE8F08700002DE9F04F9DB003938B8980461C060D4616460DD50B695BB9402100F0F7FA2860286118B90C23C8F80030CDE040236B610023099320238DF87B
:4030C0002930DFF89CB130238DF82A3037463C4614F8013B1BB9B7EB060910D003E0252BF9D02746F3E74B46324629464046FFF771FF013000F0A780099B4B4409933B7804
:40310000002B00F0A08000234FF0FF3204930793059206938DF853301A930126052221784E4800F041FA671C049B38B14B4A3C46801A06FA00F018430490EFE7D90644BFB0
:4031400020228DF853201A0744BF2B228DF8532022782A2A03D0079A00210A200BE0039A111D12680391002A10DA524243F00200079204900BE027463B780134303B092B52
:4031800003D800FB02320121F5E701B107923B782E2B1ED17B782A2B0AD1039B02371A1D1B680392002BB8BF4FF0FF33059310E0002319460593781C0A2407463A780130D1
:4031C000303A092A03D804FB01210123F5E703B1059103223978224800F0E6F940B14023CBEB000003FA00F0049B013718430490397806221B487E1C8DF8281000F0D4F9D0
:4032000088B1194B33B9039B073323F007030833039314E003AB00932A46144B04A94046AFF3008007E003AB00932A460F4B04A9404600F093F8B0F1FF3F824603D0099B28
:403240005344099342E7AB895B0601D4099801E04FF0FF301DB0BDE8F08F00BFA4390000AA390000AE39000000000000D52F00002DE9F04791461F460A698B68064693422D
:40328000B8BF1346C9F8003091F843200C46DDF8208012B10133C9F800302368990642BFD9F800300233C9F80030256815F0060510D104F1190A07E0012352463946304632
:4032C000C04701301AD00135E368D9F800209B1A9D42F1DB94F843302268003318BF012392060FD5E118302081F843005A1C94F845102244023382F8431003E04FF0FF3092
:40330000BDE8F08704F1430239463046C0470130F4D02268D9F80050E36802F00602042A08BF5D1B2269A3680CBF25EAE57500259342C4BF9B1AED184FF000091A344D45C0
:4033400009D00123224639463046C0470130D5D009F10109F3E70020BDE8F0872DE9F04317460A7E85B06E2A984606460C460C9B01F1430E00F0AE8011D8632A22D009D834
:40338000002A00F0BB80582A40F0CA8081F84520834955E0642A1ED0692A1CD0C0E0732A00F0B08009D86F2A2ED0702A40F0B8800A6842F020020A603EE0752A24D0782A88
:4033C0003AD0ADE01A6801F14205111D1960136884F84230A8E021681A6811F0800F02D0111D196008E011F0400F02F10401196002D0B2F9003000E01368002B3CDA2D228E
:403400005B4284F8432037E021681A6811F0800F02D0111D196007E011F0400F02F10401196001D0138800E01368227E5C496F2A14BF0A2208221BE078225A4984F8452056
:403440002268186812F0800F00F104051D6003D1550601D5038800E00368D00744BF42F0200222601BB9226822F0200222601022002084F8430001E049490A226568002DF1
:40348000A56008DB206820F0040020602BB9002D7DD175460CE0002B79D07546B3FBF2F002FB1033CB5C05F8013D03460028F5D1082A0BD12368DA0708D5236962689A42E1
:4034C000DEBF302305F8013C05F1FF35C5EB0E0323612EE008681A6810F0800F496903D0101D1860136808E010F0400F02F104001860136801D0198000E019600023236174
:40350000754616E01A68111D1960156800216268284600F049F808B1401B6060636804E004F1420584F8422001232361002384F84330CDF800803B4603AA21463046FFF70D
:4035400097FE013002D14FF0FF3026E023692A4639463046C0470130F5D023689B0710D5002504F1190907E001234A4639463046C0470130E7D00135E368039A9B1A9D42D1
:40358000F2DBE068039B9842B8BF184605E00B7804F1420584F842308AE705B0BDE8F083B5390000C639000010B5C9B202449042034605D01C7801308C42F8D1184610BDEF
:4035C000002010BD884210B501EB020301D8421E0BE09842FBD28118D21AD34204D013F8014D01F8014DF8E710BD994204D011F8014B02F8014FF8E710BD000038B50546A7
:40360000002944D051F8043C0C1F002BB8BFE41800F0D4F81E4A1368114613B96360146030E0A3420DD92268A018834201BF18685B681218226063600C6023E0A24203D880
:4036400013465A68002AF9D118681918A1420BD12168014458188242196013D110685268014419605A600DE002D90C232B6009E021686018824201BF1068526809182160FE
:4036800062605C602846BDE8384000F098B838BDB881FF1F70B5CD1C25F0030508350C2D38BF0C25002D064601DBA94202D90C23336046E000F082F8234B1C681A46214686
:4036C000A1B10B685B1B0ED40B2B03D90B60CC18CD501EE08C420BBF63684B681360636018BF0C4615E00C464968E9E7174C23681BB9304600F052F820602946304600F02D
:403700004DF8431C18D0C41C24F00304A0420DD12560304600F053F804F10B00231D20F00700C31A0ED05A42E25070BD211A304600F034F80130EBD10C233360304600F01D
:403740003EF8002070BD00BFB881FF1FB481FF1FF8B5074615460E4621B91146BDE8F840FFF798BF1AB9FFF749FF2846F8BD00F027F885420ED929463846FFF78BFF0446B1
:4037800050B131462A46FFF7EDFB31463846FFF735FF01E03046F8BD2046F8BD38B5064C0023054608462360FCF788FE431C02D1236803B12B6038BDB882FF1F704770474F
:4037C00051F8040C0028BEBF091851F8043CC0180438704700000000683A2025332E33662C20723A2025332E33662C20703A2025332E33660A0D0000C84900401900004F39
:4038000000400C00405100403000C0510040100000000140001000140140000800400140000A004C01400002005001402000000030313233343536373839414243444546BF
:4038400000000000010000004C380000010000009039000000000000000000000100000064380000010000004C39000003000000903800000000000000000000000000000B
:4038800000000000000000008C380000020A000000008103080002000100820240000A000100030240000A0002030000040309042C0343007900700072006500730073005A
:4038C0002000530065006D00690063006F006E0064007500630074006F007200100355005300420055004100520054003803430044004300200043006F006D006D007500EA
:403900006E00690063006100740069006F006E00200049006E007400650072006600610063006500260343004400430020004400610074006100200049006E007400650044
:40394000720066006100630065000000090243000201018032090400000102020103052400100104240202052406000105240100010705810308000A09040100020A0000AF
:40398000040705820240000007050302400000001201000202000008B40432F20100010280014300232D302B2000686C4C00656667454647003031323334353637383941E2
:4039C000424344454600303132333435363738396162636465660000F8B500BFF8BC08BC9E4670474D00000039050000F8B500BFF8BC08BC9E46704729000000103A000015
:403A0000C880FF1FA8000000500100000000000000000000C082FF1FFFFFFFFF7F800000030000000000C05D80BB000030000000006CDC0200C2010000000800C201000069
:403A400000080000A120000000000200000000000000000000000000000000000000000000000000000000000000000000000000A2390000000000000000000000000000A0
:403A80000000000000000000000000000000000000000000000000000000000000000000000000000000000000000000000000000881FF1F0000000000000000000000005F
:403AC00000000000000000000000000000000000000000000000000000000000000000000000000000000000000000000000000000000000000000000000000000000000C6
:403B00000000000000000000000000000000000000000000000000000000000000000000000000000000000000000000000000000000000000000000000000000000000085
:403B40000000000000000000000000000000000000000000000000000000000000000000000000000000000000000000000000000000000000000000000000000000000045
:403B80000000000000000000000000000000000000000000000000000000000000000000000000000000000000000000000000000000000000000000000000000000000005
:020000040003F7
:0200000480007A
:4000000001450040024F004003520040015B0040016400401200014027010140300201403E03014025040140380501400D0601402E0701400408014003090140020B014088
:40004000010D0140010F0140061501400317014003190140041B01400D4001400D41014009420140094301400244014002450140094601400C4701400A4801400F490140D7
:400080000A4C01400B4D014005500140045101407E0201100A1B003C19047C402784830206041C011F022002230126022E0131013207350238083E04580459045F01D804EB
:4000C000D904DF0100140102050A064008810A010BB00C010F1410401101120213041502181019082088210122022384288129082D082F40304035023604378039023A400B
:400100003B243F04C03EC27DC41DCACBCCD8CE4FE61000010503060108010D0311031202170318011C011D021F012001250127023102320134023701580459045F018008EE
:40014000820484028B018C0190209210948096409E01A202A404A608A810AA20AC40AE80B101B4FFBE10D602D739D804D904DB0CDF01008801020301051A09020A010BA0DF
:400180000C420F04102A1101170118041D101E081F182102238025402740291A2A802F1031023440350A378039103B043C803E803F045A206104682A6911700172017940AC
:4001C0008940930494049501960997A099089D02A044A604B204C07DC2DDC41FCA4FCCD1CE56D604D802DE08E202E620EA800104070808040D010E011401153C191C1B207D
:400200001D281F14230328042D102E022F043003310232043301350C373038083E04520753065804590C5B045C095F01D608D804D904DB04DD90DF0100400208051A090886
:400240000C020D020F041009170118401905210822642340280229012C0230083260351A380239043B403C885E406401680869446A2079408108820883808620900293A45C
:400280009540962899189B019D06A064A102AB40AF08C073C254C413CA19CCEECE5BD610D810DE08E204E4025608580459045B045D905F01A601B001D401D804D904DB0C7C
:4002C000DF0100080102050A0A400BA00E4010211180120416A81902290A2A042E402F103001350A3A283BA03C883D803E885B805C105F4079408B40914093A099089B80E4
:400300009D02A064B402B640C03CC21CC477CA53CCC1CE5ED638DE08E020EC40EE04B802BE01D804DF011A80EA10EE04E204E402E202E6108C109410E010E2C0E810EA015B
:400340009410E401EE03AA40E401EE02E010E2C0E810EA011108162032023380364037043A403B023E208F04C430CCF0CE70531057105E0486028A0497029E40A104A6420C
:40038000B380D460D680E2403E1097029E40A104A640AB10AF10CE20EEC063208B0296109E40A640AB01B504D840EE208F01E6088408970118101B04271083108708970119
:4003C000A408C608C8010B410C08430844029701A308A408AB04B410C20ED006EA082408830296109E409F02AB10AE40C820E480EEC0012006400702500153048B048C0122
:400400008D209E409F02AA10B404C0E0D4A0EA801280132014407B087C1080109C02AF40C40EDE0388408E808F089840A280A708AB20B402E008E203E80800010101080148
:400440000A010B0100AB010303C0100A00000000003F3F004000000000000000C0000000000B0B000000000000020200000000000C0002000C000C0000000000000100001A
:40048000000000000000000000000000000000000000000000000000000000000000000000000000000000000000000000000000000000000000000000000000000000003C
:4004C00000000000000000000000000000000000000000000000000000000000000000000000000000000000000000000000000000000000000000000000000000000000FC
:4005000000000000000000000000000000000000000000000000000000000000000000000000000000000000000000000000000000000000000000000000000000000000BB
:40054000000000000000000000000000000000000000000000000000000000000000000000000000000000000000000000000000000000000000000000000000000000007B
:0200000490006A
:0400000000004005B7
:0200000490105A
:04000000BC90ACAF55
:0200000490303A
:02000000ACD37F
:0200000490402A
:4000000000000000000000000000000000000000000000000000000000000000000000000000000000000000000000000000000000000000000000000000000000000000C0
:400040000000000000000000000000000000000000000000000000000000000000000000000000000000000000000000000000000000000000000000000000000000000080
:400080000000000000000000000000000000000000000000000000000000000000000000000000000000000000000000000000000000000000000000000000000000000040
:4000C0000000000000000000000000000000000000000000000000000000000000000000000000000000000000000000000000000000000000000000000000000000000000
:0200000490501A
:0C00000000012E16106900012E2CBD3CE2
:00000001FF