:400000000080002011000000990700009907000080B500AF024A034B1B68136000F0F0FBBC760040FA46004010B5054C237833B9044B13B10448AFF300800123237010BDEC
:40004000A881FF1F00000000BC680000084B10B51BB108490848AFF300800848036803B910BD074B002BFBD0BDE81040184700BF00000000AC81FF1FBC680000C880FF1FFA
:400080000000000080B500AF03F06EFA024B01221A6000BF80BD00BFC481FF1F2DE9B043A0B006AF62B607F15C0300221A605A60FF2387F85C3000F0F9FC01F0C5F901F074
:4000C0009DFC0121002001F0A1F9284803F07AFA03F028FA03F006FB03F028FB4FF47A7001F0B0F8012003F07DF9082000F042F83B46184600F0E0F83D2000F0BDF8034610
:4001000087F86730BB68184604F008F8804689463B68184604F002F804460D467B68184603F0FCFF02460B4697F8671007F10C000491CDE90223CDE9004542464B460C4968
:4001400004F052FF07F10C03184601F0C1FC03F067F90346002B0CBF01230023DBB2184603F040F9642001F06DF8C1E785000000C068000080B584B000AF0346FB7140F605
:40018000B83001F05FF8002000F076F80346FB73FB7BA02B0DD04FF47A7001F053F8002000F06AF80346FB73FB7BA02B01D000233CE000213D2000F03DF84FF4167001F07C
:4001C00041F820213F2000F035F84FF47A7001F039F802E0642001F035F8002000F04CF80346A02BF6D14FF4167001F02BF800213E2000F01FF8642001F024F800210720CB
:4002000000F018F8642001F01DF800213F2000F011F8C82001F016F8FB7919463D2000F009F84FF4167001F00DF8012318461037BD4680BD80B584B000AF03460A46FB71CE
:400240001346BB710021282003F05CFC0346FB73FB7B002B0AD1FB79184603F02DFD002003F0C0F8BB79184603F026FD03F0F8FC00BF1037BD4680BD80B584B000AF034622
:40028000FB710021282003F03DFC0346FB73FB79184603F011FD0121282003F08FFC002003F04AFD0346BB7303F0DAFCBB7B18461037BD4680BD00BF90B585B000AF786056
:4002C0001A20FFF7D9FF03463B721B20FFF7D4FF03467B721C20FFF7CFFF0346BB721D20FFF7CAFF0346FB721E20FFF7C5FF03463B731F20FFF7C0FF03467B737B7A1B0272
:400300001AB23B7A1BB213431BB2184603F0F4FE4FF000021F4B04F07FF803460C461846214604F061F902467B689A60FB7A1B021AB2BB7A1BB213431BB2184603F0DCFE72
:400340004FF00002134B04F067F803460C461846214604F049F902467B681A607B7B1B021AB23B7B1BB213431BB2184603F0C4FE4FF00002074B04F04FF803460C461846F1
:40038000214604F031F902467B685A6000BF1437BD4690BD0000304080B582B000AF786039603A680021786804F0A5F900BF0837BD4680BD80B584B000AFF860B9607A60AC
:4003C0007A68B968F86804F08BF900BF1037BD4680BD00BF80B483B000AF0346FB71FEE780B487B000AF7860396000233B6100237B6127E07B699B007A6813441B68BB60C7
:40040000BB68FB73BB6823F0FF03BB6014E03B695B003A6813441B781A46BB68134419463B695B003A6813445B780B703B6901333B61FB7B013BFB73FB7B002BE7D17B6909
:4004400001337B617B69212BD4D900BF1C37BD4680BC704780B582B000AF344B1D221A80334B18221A70334B45F6BF521A80324B19221A70314B06221A70314B52221A7089
:40048000304B314A1278D2B21A70304B4FF4E2621A802F4B41F251221A800023FB7019237B6014E0FB785B00DAB22A4B1B78DBB203F00103DBB21343DBB203F00303FB7005
:4004C0004FF4F07003F074FC7B68013B7B607B68002B02D0FB78032BE4D17B68002B02D10320FFF777FF1C4B4FF480721A801A4B07221A70194B00221A70194B48221A70A0
:40050000154B00221A70174B00221A70164B02221A70164A154B1B78DBB243F00303DBB2137000BF0837BD4680BD00BF8040004082400040844000408640004000430040DD
:4005400000420040A14600400F0100492242004020420040254200400440004006400040084000400940004001400040A243004080B582B000AF1E4B1B78FB711D4B1B7852
:40058000BB711D4B1B787B711C4AFB7903F00703DBB213701A4AFB791B09DBB21370154ABB7943F00303DBB21370134A7B7943F00303DBB21370134B3F221A70124B802277
:4005C0001A70124BA0221A70114B50221A700A2000F05AFE084A7B791370064ABB7913700C4B44221A7000BF0837BD4680BD00BFCF010049F8460040F94600406E580040CE
:400600006F5800400D51004001590040205B0040245B00407658004080B582B000AF72B6444A444B1B78DBB243F00403DBB213700023FB7113E0FA7913465B0013445B00D3
:400640003D4A13443B603B681A683B689B889BB219461046FFF7A0FEFB790133FB71FB79072BE8D935494FF09040FFF7B9FE04213348FFF791FE042232493348FFF79AFEFC
:40068000324A324B1B78DBB243F00203DBB213702F4A2F4B1B78DBB243F00203DBB213702C4A2C4B1B78DBB243F04003DBB21370294A294B1B78DBB243F01003DBB213708E
:4006C000082226492648FFF775FE0A2225492648FFF770FE0A2225492548FFF76BFE082224492548FFF766FE082224492448FFF761FE082223492448FFF75CFE234A234BD5
:400700001B78DBB243F00803DBB21370204B61221A70FFF79FFE1E4BC1221A70FFF728FF0E220C491B48FFF745FE00BF0837BD4680BD00BFE8460040E868000088000048A1
:40074000007600407C040048087600400350014013500140A0430040C243004044040048025100404C040048C051004058040048F051004064040048125100406C04004861
:400780002251004074040048325100402243004000480040B043004080B500AF03F074FF03461B680C2B00D1FEE7FEE780B584B000AF7860104B1A687B6813441A460F4BFA
:4007C000D31AB3F5007F09DC0B4B1B68FB600A4B1A687B681344084A136007E003F054FF02460C2313604FF0FF33FB60FB6818461037BD4680BD00BFCC80FF1FE882FF1F1A
:4008000080B586B000AF224B7B61224B3B61204B7B6135E03B691B68FB603B695B68BB603B699B683B6000237B600CE0FB681A68BB681A60BB680433BB60FB680433FB60D4
:400840007B6804337B607A683B689A42EED13B69DB683B6000237B6008E0BB6800221A60BB680433BB607B6804337B607A683B689A42F2D13B6910333B617B69013B7B612F
:400880007B69002BC6D103F005FFFFF707FCFEE701000000106C000080B582B000AF194B194A1A60194A194B1B6843F40073136000237B600FE07B68032B04D8144A7B6867
:4008C00052F8233000E0134B13497A6841F822307B6801337B607B682F2BECD90F4B1B78DAB20F4B1A700F4B0B4A1A60FFF794FE00F080FA0C4B00221A6000BF0837BD46F4
:4009000080BD00BF0CED00E00004FA0514ED00E000000000990700000080FF1FBC760040C480FF1F08ED00E0C080FF1F80B500AF41F6FF734FF480420121022000F0D2F928
:4009400003461A460A4B1A7041F6FF7341F6FF720121062000F0F8F903461A46054B1A70054800F023FA002000F032FA00BF80BDCC81FF1FCD81FF1FDD0A000080B582B03B
:4009800000AF414B1B78184600F0A8FA3F4B1B78184600F0A3FA3E4B1B78FF2B05D100F0A9FB03461A463A4B1A70394B1878384B1A780623062100F0CBFB354B1B78354A48
:4009C00092B245F6A031184600F002FC2E4B1A782F4B1B781946104600F01EFB2E4B1B78FF2B05D100F086FB03461A462A4B1A70294B1878284B1A780723062100F0A8FB73
:400A0000254B1B78234A91B2244A92B2184600F0DFFB1E4B1A78204B1B781946104600F0FBFA194B1B780121184600F011FA174B1B780121184600F00BFA03F0C1F90346C4
:400A4000FB71174A164B1B78DBB243F02003DBB21370FB79184603F0B7F9124A114B1B78DBB243F00103DBB213700E4A0D4B1B78DBB243F00203DBB213700B4B01221A6023
:400A800000BF0837BD4680BDCC81FF1FCD81FF1FD080FF1FD081FF1FD180FF1FE881FF1F936400407464004080E200E080B500AF084B1B68002B04D1FFF738FF054B012263
:400AC0001A6000F011F8FFF759FF034B1B7800BF80BD00BFC881FF1F6764004080B400AF00BFBD4680BC704780B500AF064B1B78002B04D100F00AF8034B01221A7000F0EA
:400B00001BF800BF80BD00BFD681FF1F80B500AF074A074B1B78DBB243F00603DBB213700C2000F06BF8034B00221A8000BF80BD01590040F481FF1F80B582B000AF03F0C4
:400B40003FF90346FB71254A244B1B78DBB243F00103DBB21370224A214B1B78DBB243F00103DBB213701F4B1B78BB71BB7943F00203BB71BB7943F00103BB71194ABB7915
:400B80001370194B18221A70184A184B1B78DBB243F04003DBB21370144A144B1B78DBB223F00303DBB21370114BCE221A70114B02221A70104A104B1B78DBB243F0080326
:400BC000DBB213700A2000F05FFBFB79184603F0FBF800BF0837BD4680BD00BFAB430040BB4300400359004006590040055900400059004014460040275B004080B584B019
:400C000000AF0346FB71FB790A2B07D00C2B02D0082B06D008E0C223FB730BE08223FB7308E04223FB7305E0C223FB73002000F0FDFA00BF054AFB7B1370FB79184600F0C2
:400C400007F800BF1037BD4680BD00BF0259004080B584B000AF0346FB71FB790A2B0BD00C2B02D0082B0ED013E04FF48053FB604FF400637B8114E04FF48063FB604FF4AC
:400C800000737B810DE04FF48073FB6080237B8107E00023FB6000237B81002000F0C6FA00BF0D4B00221A80FB6842F2107202FB03F303F58063002B01DA03F2FF73DB1240
:400CC0001A46064B1A60B7F90A20054B1A8000BF1037BD4680BD00BFF681FF1FF081FF1FF881FF1F90B585B002AF0446084611461A462346FB710346BB710B46BB8013469C
:400D00007B80104B01221A700E4B1878BA79F9790023019300230093012300F09BF9094B1B787A88B988184600F03AF9054B1B780221184600F002F9024B1B7818460C3792
:400D4000BD4690BDD280FF1F90B585B002AF0446084611461A462346FB710346BB710B46BB8013467B80104B00221A700E4B1878BA79F9790023019300230093002300F0FA
:400D800069F9094B1B787A88B988184600F008F9054B1B780221184600F0D0F8024B1B7818460C37BD4690BDD380FF1F80B485B000AF7860054B1B68FB60FB6840337A6824
:400DC0001A6000BF1437BD4680BC704708ED00E080B483B000AF0346FB71054AFB795B01DBB2137000BF0C37BD4680BC704700BF00E400E080B483B000AF134B7F221A7090
:400E0000124B80221A707F23FB710CE0FB79DB0003F1804303F5F043FA79013AD2B21A70FB79013BFB71FB79002BEFD1FB79DB0003F1804303F5F04300221A7000BF0C37E8
:400E4000BD4680BC704700BFD580FF1FD480FF1F80B485B000AF03460A46FB711346BB710123FB60FB79172B2FD8BB79002B0ED0FB791A01184B1344FA791101164A0A4441
:400E80001278D2B242F02002D2B21A700DE0FB791A01114B1344FA7911010F4A0A441278D2B222F02002D2B21A70FB791A010A4B1344FA791101084A0A441278D2B242F077
:400EC0000102D2B21A700023FB60FB6818461437BD4680BC704700BF1070004080B485B000AF0346FB710123FB60FB79172B1DD8FB791A01104B1344FA7911010E4A0A447F
:400F00001279D2B242F00402D2B21A71FB791A01094B1344FA791101074A0A441278D2B242F00102D2B21A700023FB60FB6818461437BD4680BC70471070004080B485B003
:400F400000AF03460A46FB711346BB710123FB60FB79172B1BD8FB791A01104B13441B78DBB223F00E03FB72FB791A010B4B1344BA795200D2B252B202F00E0251B297F940
:400F80000B200A4352B2D2B21A700023FB60FB6818461437BD4680BC704700BF1070004080B485B000AF0346FB710B46BB8013467B800123FB60BB8841F6FF72934202D1E9
:400FC0004FF40053BB807B8841F6FF72934202D14FF400537B80FB79172B17D8FB79DB0003F1804303F5EC430433BB60BB68BA881A80FB79DB0003F1804303F5EC430633B3
:40100000BB60BB687A881A800023FB60FB6818461437BD4680BC704780B485B000AF03460A46FB711346BB710123FB60FB79172B07D8FB791A01064B1344BA795A72002347
:40104000FB60FB6818461437BD4680BC704700BF1070004090B484B000AF0446084611461A462346FB710346BB710B467B7113463B710123FB60FB79172B34D8FB79DB0002
:4010800003F1804303F5EC43BA7902F07F02D1B27A79D201D2B20A43D2B21A70FB79DB0003F1804303F5EC433A7E1201D1B23A7902F00F02D2B20A43D2B25A70FB79DB00E5
:4010C00003F1804303F5EC433A7F02F00F02D2B29A70FB79DB0003F1804303F5EC430022DA700023FB60FB6818461037BD4690BC704700BF80B582B000AFFF23FB7102F04E
:401100005FFE0346BB71104B1B78182B12D90F4B1B78FB710C4B1B78013BDAB20A4B1A70FB79DB0003F1804303F5F0431B78DAB2064B1A70BB79184602F046FEFB79184612
:401140000837BD4680BD00BFD480FF1FD580FF1F90B484B000AF0446084611461A462346FB710346BB800B46BB711346FB700123FB6097F90730002B23DBBB8823F47F6391
:4011800023F00F039BB2002B1BD1FB79DB0003F1804303F5F043BB60BB68BA881A80FB79DB0003F1804303F5F043BA799A70FB79DB0003F1804303F5F043FA78DA700023DD
:4011C000FB60FB6818461037BD4690BC704700BF80B485B000AF0346FB710B46BB8013467B800123FB6097F90730002B17DBFB79DB0003F1804303F5F0430433BB60BB6811
:40120000BA881A80FB79DB0003F1804303F5F0430633BB60BB687A881A800023FB60FB6818461437BD4680BC704700BF80B483B000AF0346FB7101BE00BF0C37BD4680BC84
:40124000704700BF80B582B000AF786008E00C4B1B68184602F0ACFD7B68A3F500437B607B68B3F5004FF2D8064B1B687A6802FB03F3184602F09CFD00BF0837BD4680BD42
:40128000E880FF1FE080FF1F80B582B000AF0346FB80FB88054A127802FB03F3184602F087FD00BF0837BD4680BD00BFE480FF1F80B584B000AF03463960FB710F4B1B686B
:4012C000FB60FB791F2B02D90020FFF7AFFFFB7903F01F0310339B00FA6813441B68BB60FB7903F01F0310339B00FA6813443A681A60BB6818461037BD4680BD08ED00E05F
:4013000080B582B000AF03460A46FB711346BB71BB79072B02D90020FFF788FFFB791F2B02D90020FFF782FFFB7903F01F0303F1604303F56443BA795201D2B21A7000BFED
:401340000837BD4680BD00BF80B483B000AF7860264B1B78DBB21A467B681A60244B1B78DBB21B027A6812681A437B681A60214B1B78DBB21B047A6812681A437B681A6070
:401380001D4B1B78DBB21B067A6812681A437B681A607B680433194A1278D2B21A60184B1B78DBB21A027B6804337968043109680A431A60134B1B78DBB21A047B680433AC
:4013C0007968043109680A431A600F4B1B78DBB21A067B6804337968043109680A431A6000BF0C37BD4680BC704700BF0301004904010049EC460040020100490101004942
:4014000000010049050100490601004980B582B000AF03460A46FB711346BB71094B1B78002B04D100F010F8064B01221A70BA79FB791146184600F0D9F800BF0837BD4628
:4014400080BD00BFD781FF1F80B582B000AF02F0B7FC0346FB71544A534B1B78DBB243F00103DBB21370514A504B1B78DBB243F00103DBB213704E4B01221A704D4B022248
:401480001A704D4A4C4B1B78DBB203F07F03DBB213700020FFF7F8FE484A484B1B78DBB223F00603DBB21370454A454B1B78DBB223F02003DBB21370404A404B1B78DBB298
:4014C00043F00103DBB213700120FFF7DDFE2820FFF7DAFE3B4A3B4B1B78DBB203F07F03DBB21370374A374B1B78DBB223F04003DBB21370314A314B1B78DBB243F0020315
:40150000DBB213700220FFF7BFFE2C4A2B4B1B78DBB243F00403DBB213702B4B00221A702A4B00221A70FB79184602F04DFC07211720FFF7E5FE26491720FFF7B9FE07216D
:401540001820FFF7DDFE23491820FFF7B1FE07211520FFF7D5FE20491520FFF7A9FE07210120FFF7CDFE1D490120FFF7A1FE07210220FFF7C5FE1A490220FFF799FE072155
:401580000320FFF7BDFE17490320FFF791FE07210C20FFF7B5FE14490C20FFF789FE00BF0837BD4680BD00BFA5430040B54300409D60004009600040106000409443004042
:4015C00012600040F85100408460004085600040552300003D1C00004923000061220000A9220000F52200006123000080B582B000AF03460A46FB711346BB712E4AFB79B5
:4016000013702E4B00221A702D4B00221A702D4B00221A702C4B00221A702C4B00221A702B4B00221A702B4B00221A702A4B4FF400021A60284B4FF080721A60264B4FF42A
:4016400000121A60244B02221A60234B04221A60214B08221A60BB79002B02D0012B09D011E01E4A1D4B1B78DBB223F00103DBB2137011E0194A194B1B78DBB243F0010366
:40168000DBB2137008E0154A144B1B78DBB243F00103DBB2137000BF114B03221A70114B80221A70012002F083FB0F4B04221A7000BF0837BD4680BD1582FF1F1882FF1F75
:4016C0003482FF1F3782FF1F2C82FF1F3682FF1F3982FF1F1482FF1F00E100E00960004028600040086000401260004080B400AF0F4B00221A700F4B00221A700E4B00221A
:401700001A700E4B00221A700D4B00221A700D4B00221A700C4B00221A700C4B03221A700B4B80221A7000BFBD4680BC704700BF1882FF1F3482FF1F3782FF1F2C82FF1FE4
:401740003682FF1F3982FF1F1482FF1F2860004008600040B0B485B000AF03463960FB711346BB80FB79002B6DD0FB79082B6AD8B988FA79364813465B0013449B00034488
:4017800006331B889BB2C3F5007399420CD9FA792F4913465B0013449B000B4406331B889BB2C3F50073BB802A4CF979BB881B0A9BB2D8B2FA79264D13465B0013449B00F3
:4017C0002B4403331B78DBB20343DAB20B0123441A70204AFB79B988C9B21B01134401330A461A703B68002B13D00023FB810CE01948FB79FA8939680A4412781B010344CA
:4018000008331A70FB890133FB81FA89BB889A42EED3FA790E4913465B0013449B000B44013300221A700B48F979FA79084C13465B0013449B00234405331B78DAB20B01B1
:40184000034402331A7000BF1437BD46B0BC70473C82FF1FFC5F00407060004090B482B000AF0346FB71FB79002B1CD0FB79082B19D8FA790E4913465B0013449B000B44EF
:40188000013300221A700B48F979FA79084C13465B0013449B00234405331B78DAB20B01034402331A7000BF0837BD4690BC70473C82FF1FFC5F004080B582B000AF002392
:4018C000FB71314B1B79DBB2184600F067F80346BB712D4B1B78DBB25BB2002B15DA2A4B5B78DBB2212B00D048E0284B07221A80BA791346DB009B1A254A1344234A5360AD
:4019000000F016FB0346FB7138E01F4B5B78DBB2202B02D0222B1AD030E01C4B07221A80BA791346DB009B1A194A1344174A5360BB79BA7917498A5CD2B242F00102D1B2AE
:40194000144AD15400F072FB0346FB7116E0BB790D4A9278D2B291B20F4A22F81310BB79BA790C498A5CD2B242F00202D1B2094AD15400F0F9FB0346FB7100BFFB79184669
:401980000837BD4680BD00BF006000402082FF1FEC80FF1FFC81FF1F1082FF1F80B485B000AF0346FB710023FB73FF23BB7317E0FB7B104AD35C7B737A7B0F4913465B0021
:4019C00013449B000B440A331B78DBB2FA799A4203D1FB7BBB730223FB73FB7B0133FB73FB7B012BE4D9BB7B18461437BD4680BC704700BF0482FF1F3C82FF1F80B582B0FD
:401A000000AF0023BB71224B00221A70214B00221A70204B00225A700023FB7110E0FB791D4AD35C7B717B79002B06D07B79082B03D87B791846FFF711FFFB790133FB7148
:401A4000FB79012BEBD9154B1B78DBB2002B18D0114B1B78DBB2002B13D0114B1B78DBB2002B0ED00D4B1B78DBB2082B09D80A4B1B78DBB2082B04D8094B1B78DBB2082BA9
:401A800001D90123BB71BB7918460837BD4680BDD881FF1FFC81FF1F0882FF1F0082FF1F0482FF1F80B485B000AF78600023FB8102E0FB890133FB81FB897A6813441B78F8
:401AC000002BF6D1FB8918461437BD4680BC704780B584B000AF78600023BB81304B1B781A46304B9B5CFB727868FFF7DBFF0346FB81FA7A2C4913465B0013449B000B44E2
:401B000008331B889BB2FA899A420AD9FA7A264913465B0013449B000B4408331B889BB200E0FB893B81BB897A68D1183A89FB7A1846FFF70FFEFA893B89D31AFB81FB8939
:401B4000002B0CD1FA7A184913465B0013449B000B4408331B889BB23A899A4219D1BA893B891344BB8100BFFA7A0F4913465B0013449B000B4401331B78DBB2002BF3D083
:401B8000FB89002B05D1FB7A002200211846FFF7E1FDFB89002BACD100BF1037BD4680BDD881FF1F0082FF1F3C82FF1F80B485B000AF78600B46FB701346BB707B68DB78EB
:401BC00003F00303FB737B689B785BB2002B1ADAFB7B032B0AD0BB7803F001031449FA78CA54BB7843F00103BB701BE0BB789B08DBB203F001030F49FA78CA54BB7843F08F
:401C00000403BB700EE0FB7B032B0BD0BB785B08DBB203F001030849FA78CA54BB7843F00203BB70BB7818461437BD4680BC70470082FF1F0482FF1F0882FF1F80B582B04F
:401C400000AF374B1B78BB71BB7903F01003002B62D00123FB7197F90630002B12DABB7903F00F03012B02D00023FB711CE000F061F82C4B1B78DBB25BB2002B14DA002385
:401C8000FB7111E0BB7903F04003002B02D000F095F809E0BB7903F02003002B02D000F0B3F801E00023FB71FB79002B34D01C4B1B78BB7197F90630002B2DDB1A4B1B78EE
:401CC000DAB21A4B1B78DBB21343BB71184ABB791370174B1B78DBB2BA799A421CD1114B1B78FB710E4B1B78DBB223F07F03BB71BB79002B0AD10A4B0A4A1278D2B21A70AA
:401D0000074B1B78DBB203F00F03FB71054B1B78DBB2FA799A42E2D100BF0837BD4680BD286000403582FF1FAA82FF1F3882FF1F2960004080B582B000AF1D4B1B78FB710B
:401D40001B4AFB7913701A4B1B78FB7197F90730002B03DA174AFB79137025E0022000F045FA154B1B78DBB203F06003202B08D0402B0BD0002B0ED100F0F8FA0346FB7146
:401D80000CE002F025F80346FB7107E001F000FB0346FB7102E00023FB7100BFFB79002B02D1044B03221A7000BF0837BD4680BD286000403582FF1F0060004080B500AFEC
:401DC000104B1B78DBB2062B19D801A252F823F0FF1D0000FF1D0000ED1D0000FF1D0000F31D0000FF1D0000F91D000000F0F8F806E000F0A7F903E000F0D2F900E000BF13
:401E000000BF80BD1882FF1F80B500AF124B1B78DBB2062B1DD801A252F823F0531E0000531E0000391E0000531E00003F1E0000531E0000451E000000F0D8F80AE000F0F2
:401E400027F907E0032000F0D1F9044B03221A7000E000BF00BF80BD1882FF1F3582FF1F80B483B000AF0023FB71294B1B78DBB29AB2284B1B889BB213449AB2254B1A80C3
:401E800015E02549FB79254A52681278D2B2CA54224B5B680133214A5360FB790133FB711E4B1B889BB2013B9AB21C4B1A801B4B1B889BB2002B02D0FB79072BE1D9144B6C
:401EC0001B78DBB2082B02D0FB79002B0FD0144B1B78DBB283F07F03DB43DAB2104B1A70104B0F221A70104B02221A7005E00D4B02221A700C4B02221A700C4AFB791370E0
:401F0000034AFB79137000BF0C37BD4680BC70471482FF1F1682FF1F006000402082FF1FAA82FF1F3582FF1F1882FF1F3882FF1F80B582B000AF164B1B889BB2002B02D187
:401F400000F02EF81EE0134B02221A70124B00221A7000F06BF9114BDB79DBB29BB21B029AB20E4B9B79DBB29BB21343FB80084B1B889BB2FA889A4202D2054AFB881380FF
:401F8000FFF76EFF012318460837BD4680BD00BF2082FF1F1882FF1FAA82FF1F0060004080B400AF094B02221A70094B80221A70084B0F221A70084B00221A70074B0022B6
:401FC0001A7001231846BD4680BC70471882FF1FAA82FF1F3582FF1F1482FF1F3882FF1F80B500AFFFF73CFF00BF80BD80B500AF0A4B1B78DBB29AB2094B1B889BB213442B
:402000009AB2074B1A80074B00221A70012000F0EDF8054B03221A7000BF80BD1482FF1F1682FF1F1882FF1F3582FF1F80B582B000AF124B04221A70114B80221A7000F0E7
:40204000F5F8104BDB79DBB29BB21B029AB20D4B9B79DBB29BB21343FB800B4B1B889BB2FA889A4202D2084AFB881380074B0B221A70012318460837BD4680BD1882FF1FC8
:40208000AA82FF1F006000402082FF1F3582FF1F80B483B000AF0023BB71234B1B78DBB203F00F03DBB2023BFB71FB799AB21F4B1B889BB213449AB21C4B1A8018E01C4B56
:4020C0005B681C49BA798A5CD2B21A70184B5B680133174A5360BB790133BB71FB79013BFB71134B1B889BB2013B9AB2104B1A800F4B1B889BB2002B02D0FB79002BDED113
:402100000D4AFB7913700D4B1B78DBB283F07F03DB43DAB2094B1A70094B0B221A7000BF0C37BD4680BC7047296000401682FF1F2082FF1F006000403882FF1FAA82FF1F58
:402140003582FF1F80B500AF054B00221A70012000F04CF8034B03221A7000BF80BD00BF1882FF1F3582FF1F80B400AF084B06221A70084B06221A70074B80221A70074B53
:4021800000221A7001231846BD4680BC704700BF1882FF1F3582FF1FAA82FF1F3882FF1F80B500AF0D4B1B78DBB2002B0AD00C4A0A4B1B78DBB263F07F03DBB21370074B2A
:4021C00000221A70074B00221A70012000F00EF8054B03221A7000BF80BD00BF3682FF1F086000401882FF1F3582FF1F80B483B000AF0346FB710B4B9B68002B0CD0094BDA
:402200009B68FA791A70074B9B68074A128892B25A80044B00229A6000BF0C37BD4680BC704700BF2082FF1F1682FF1F80B400AF094B00221A80094B9B68002B07D0074B0A
:402240009B6800221A70054B9B6800225A8000BFBD4680BC704700BF1682FF1F2082FF1F80B400AF0D4B01221A700D4B9B7C0D4B1B7BDBB203F00303012B08D0094BDB7BFD
:40228000DBB283F07F03DB43DAB2064BDA73054B01225A7300BFBD4680BC70470B600040FC5F00403C82FF1F80B400AF0E4B02221A700E4B93F822300D4B1B7EDBB203F0AC
:4022C0000303012B08D00A4BDB7EDBB283F07F03DB43DAB2064BDA76054B01225A7600BFBD4680BC704700BF0B600040FC5F00403C82FF1F80B400AF104B04221A70104B37
:4023000093F832300F4B93F82430DBB203F00303012B0AD00B4B93F82730DBB283F07F03DB43DAB2074B83F82720064B012283F8252000BFBD4680BC704700BF0B60004020
:40234000FC5F00403C82FF1F80B400AF00BFBD4680BC704780B500AFFFF7C8F900BF80BD80B500AF01F02EF800BF80BD80B586B000AF0023FB75B04B1B78FB7100233B615A
:40238000AE4B00221A8097F90730002B80F2FD80A94B5B78DBB20A2B00F2168201A252F823F000BFE1240000C9270000C9270000C9270000C9270000C9270000D12300000C
:4023C000C927000055250000C92700006B250000994BDB78DBB2012B0ED100F049FEB860BB685B68954A5360944B12221A80FFF79FFD0346FB75E9E18F4BDB78DBB2022BB4
:4024000025D18D4B9B78DBB2184600F009FEB860BB68002B00F0DA81BB685B68874A5360864B5B6803331B78DBB29BB21B029AB2824B5B6802331B78DBB29BB213439AB24A
:402440007E4B1A80FFF774FD0346FB75BEE17A4BDB78DBB2032B3ED10023FB73784B3B6109E03B691B78BB71BB793A6913443B61FB7B0133FB73704B9B78DBB2FA7B9A428E
:4024800004D23B691B78DBB2002BEAD16A4B9B78DBB2002B0BD0684B9B78DAB2694B1B7C9A4204D1684800F0ABF9674B3B613B691B78DBB2002B00F089813B691B78DBB2B4
:4024C0009AB25E4B1A805D4A3B695360FFF730FD0346FB757AE101F07BFC0346FB7575E1FB7903F00303002B20D0022B00D030E0524B02221A80504B1B79DBB203F07F0281
:40250000524913465B0013449B000B4402331B78DAB24F4B1A704E4B00225A70474B4C4A5A60FFF705FD0346FB7512E0434B02221A80484B1B78DAB2454B1A70444B0022C0
:402540005A703E4B424A5A60FFF7F2FC0346FB7500BF42E1394B01221A80384B3E4A5A60FFF7E6FC0346FB7537E1344B01221A80314B1B79DBB21A46384B13442F4A536055
:40258000FFF7D6FC0346FB7527E12B4B5B78DBB2013B0A2B00F21C8101A252F823F000BFAD260000D12700003B270000D1270000CD250000D1270000D1270000D1270000FE
:4025C000E1250000D1270000692600001A4B9B78DAB2234B1A70FFF7C7FD0346FB75FCE0154B9B787B717B79002B06D07B79013BDBB2184600F014FDB8607B79002B02D08A
:40260000BB68002B03D17B79002B40F0E380124B1B78DBB27A799A4208D00F4A7B791370104B01221A70012000F0F2F9FFF79CFD0346FB75CEE000BF006000402082FF1FB9
:40264000846900002C690000C082FF1F3C82FF1FDC81FF1F3982FF1F3782FF1FA882FF1F3682FF1F3482FF1F00F05AFE0346002B00F0B2805B4B1B793B715A4B1B79DAB2F6
:40268000594B1A703B79594AD35CDAB23B795849CB5CDBB29A4204D0564B01221A7000F091FBFFF761FD0346FB7595E0FB7903F00303012B20D0012B0CD3022B00D03BE029
:4026C000484B9B78DBB2002B31D100F07DFD0346FB752CE0434B9B78DBB2012B29D1464B1B78DBB223F00203DAB2434B1A70FFF73BFD0346FB751CE03A4B1B79DBB2012BD5
:4027000019D8384B9B78DBB2DB43DBB2354A1279D2B211461046394A125CD2B21340DAB2364B5A54FFF720FD0346FB7503E000BF53E000BF51E000BF4FE0FB7903F0030330
:40274000012B20D0012B0CD3022B00D03BE0254B9B78DBB2002B31D100F0C2FC0346FB752CE0204B9B78DBB2012B29D1224B1B78DBB243F00203DAB21F4B1A70FFF7F4FC0E
:402780000346FB751CE0174B1B79DBB2012B19D8144B9B78DBB2DB43DBB2124A1279D2B211461046154A125CD2B21340DAB2134B5A54FFF7D9FC0346FB7503E000BF0CE0B4
:4027C00000BF0AE000BF08E000BF06E000BF04E000BF02E000BF00E000BFFB7D18461837BD4680BD006000402C82FF1F1C82FF1FA882FF1F3482FF1F3982FF1FAC82FF1F74
:40280000B0B58AB000AF7860324B07F114041D460FCD0FC42B682370002387F826307B68002B52D07B6822221A707B68013303221A7007F10C031846FEF786FD022387F88D
:4028400027303EE097F827307A68134497F8262007F128010A4412F81C2C1209D2B207F128010A4412F8142C1A7097F8273001337A68134400221A7097F8273002337A6850
:40288000134497F8262007F128010A4412F81C2C02F00F0207F128010A4412F8142C1A7097F8273003337A68134400221A7097F82630013387F8263097F82730043387F85A
:4028C000273097F82730212BBCD900BF2837BD46B0BD00BF1869000090B482B000AF0123FB7180E0464AFB791B0113440C221A70FA79444913465B0013449B000B4405337B
:402900001B78DBB2002B1CD0FA793E4913465B0013449B000B4404331B78DBB25BB2002B07DA394AFB791B01134402330C221A700EE0354AFB791B011344023308221A706D
:4029400006E0314AFB791B011344023380221A702B48F979FA792B4C13465B0013449B00234406331B889BB2DAB20B01034406331A702348F979FA79224C13465B0013443E
:402980009B00234406331B889BB21B0A9BB2DAB20B01034407331A701948F979FA79194C13465B0013449B00234406331B889BB2DAB20B01034404331A701148F979FA7918
:4029C000104C13465B0013449B00234406331B889BB21B0A9BB2DAB20B01034405331A70FB790133FB71FB79082B7FF67BAF074BFF221A7000BF0837BD4690BC704700BF18
:402A0000706000403C82FF1FFC5F00400A60004080B58AB000AF0346FB7100237B84002387F8273050E097F82720B34913465B0013449B000B4400221A7097F82720AE4907
:402A400013465B0013449B000B44023300221A7097F82720A84913465B0013449B000B44033300221A7097F82720A34913465B0013449B000B44083300221A8097F827205E
:402A80009D4913465B0013449B000B440A3300221A7097F82720984913465B0013449B000B44013300221A7097F82720924913465B0013449B000B44053300221A7097F8AD
:402AC0002730013387F8273097F82730082BAAD9FB79002B16D0002387F825300EE097F82530864A0021D15497F82530844A0021D15497F82530013387F8253097F82530AD
:402B0000012BECD97F4B1B78DBB2002B00F051810023FB767B4B1B78DBB2013BDBB2184600F07EFA78617B695B683B613B6907331B7803F04003002B08D0734B1B78DBB220
:402B400043F00103DAB2704B1A7007E06E4B1B78DBB223F00103DAB26B4B1A707B6908337B617B691B7887F82730012387F82530B6E07B695B68FB61002387F82630A3E056
:402B800097F82520FB699B7803F07F039A4240F0938097F82520584913465B0013449B000B4408331B889AB2FB699B889A420CD297F82520FB6998884F4913465B00134466
:402BC0009B000B44083302461A80FB691B781A464A4B9B5CDAB2FB695B789A426CD197F82520FB699878444913465B0013449B000B44043302461A7097F82520FB69D878B4
:402C00003D4913465B0013449B000B4402461A70FB69DB7803F00303FB73FB699B785BB2002B1CDA97F82520FB7B012B01D1072000E00D20304913465B0013449B000B449A
:402C4000053302461A7097F825202B4913465B0013449B000B44013301221A701BE097F82520FB7B012B01D1052000E00920224913465B0013449B000B44053302461A7051
:402C800097F825201C4913465B0013449B000B44013300221A70FB699B790A2B03D0FB699B79022B08D1FA7E97F825301946F869FEF77CFF0346FB76FB690833FB6197F838
:402CC0002630013387F8263097F8262097F827309A42FFF455AF97F82530013387F8253097F82530082B7FF644AF7B695B68FB61002387F8253020E03C82FF1FA882FF1F5E
:402D00001C82FF1F3782FF1F3982FF1FFB699B7803F07F02FB691878284913465B0013449B000B440A3302461A70FB690833FB6197F82530013387F8253097F8252097F889
:402D400027309A42E2D300F0A5F902461C4B1A6000237B84012387F8273024E097F82720164913465B0013449B000B4406337A8C1A8097F82720114913465B0013449B00BB
:402D80000B4408331B889AB27B8C13447B847B8C03F001039AB27B8C13447B8497F82730013387F8273097F82730082BD6D9FFF793FD00BF2837BD4680BD00BF3C82FF1F5F
:402DC0003082FF1F90B585B000AF8F4B1B78DBB2002B00F015818C4B1B78DBB2013BDBB2184600F01DF978607B6808337B607B681B78FB707B685B68BB60844B1B78BB700B
:402E00000023FB73F7E0BB681B78BA789A4240F0EC80BB787E4AD35CDAB2BB685B789A4240F0E380BB689B7803F07F037B70BB68DB7803F003033B707A78764913465B009A
:402E400013449B000B44033300221A707A78BB689878704913465B0013449B000B44043302461A707A78BB68D8786A4913465B0013449B000B4402461A707A78BB6898883F
:402E8000644913465B0013449B000B44083302461A80BB689B785BB2002B1ADA7A783B78012B01D1072000E00D205A4913465B0013449B000B44053302461A707A785549E8
:402EC00013465B0013449B000B44013301221A7019E07A783B78012B01D1052000E009204C4913465B0013449B000B44053302461A707A78474913465B0013449B000B4427
:402F0000013300221A70444A7B781B011344023301221A70404879787A783E4C13465B0013449B00234408331B889BB21B0A9BB2DAB20B0103441A70374879787A78354CF0
:402F400013465B0013449B00234408331B889BB2DAB20B01034401331A70304879787A782C4C13465B0013449B00234406331B889BB2DAB20B01034406331A702748797871
:402F80007A78244C13465B0013449B00234406331B889BB21B0A9BB2DAB20B01034407331A701E4879787A781A4C13465B0013449B00234406331B889BB2DAB20B010344A0
:402FC00004331A70154879787A78124C13465B0013449B00234406331B889BB21B0A9BB2DAB20B01034405331A70BB680833BB60FB7B0133FB73FA7BFB789A42FFF403AF2F
:4030000000BF1437BD4690BD3782FF1F2C82FF1FA882FF1F3C82FF1FFC5F00407060004080B485B000AF0346FB710F4B1B78DBB20E4ADB0013445B68FB60FB681033FB60D4
:40304000FB681B78FA799A4202D30023FB6005E0FB79DB00FA6813445B68FB60FB6818461437BD4680BC70471582FF1F846A000080B400AF054B1B78DBB2054ADB00134434
:403080005B681846BD4680BC704700BF1582FF1F846A000080B584B000AF104B1B78DBB2013BDBB21846FFF7BBFFB860BB68002B0DD0BB685B681B79FB71FB790233DB0080
:4030C000BA681344BB60BB685B68FB6001E00023FB60FB6818461037BD4680BD3782FF1F80B582B000AF0023FB71344B1B79DBB203F07F03BB71BB79002B5AD0BB79082BA7
:4031000057D8BA79B9792E480B465B000B449B00034402331B78DBB243F00103D8B2284913465B0013449B000B44023302461A70BA79234913465B0013449B000B4403335B
:4031400000221A70BA79B9791D480B465B000B449B00034401331B78DBB243F00203D8B2174913465B0013449B000B44013302461A70BA79124913465B0013449B000B4408
:4031800004331B78DBB25BB2002B07DA0D4ABB791B01134402338D221A7006E0094ABB791B011344023389221A70FEF7DDFF0346FB71FB7918460837BD4680BD0060004072
:4031C0003C82FF1FFC5F004080B582B000AF0023FB71504B1B79DBB203F07F03BB71BB79002B00F09280BB79082B00F28E80BA79B97949480B465B000B449B000344023386
:403200001B78DBB223F00103D8B2434913465B0013449B000B44023302461A70BA793E4913465B0013449B000B44033300221A703A49BB793948BA79120102441278D2B2E2
:4032400002F07F02D2B21B010B441A70BA79B97931480B465B000B449B00034401331B78DBB223F00203D8B22B4913465B0013449B000B44013302461A70BA792649134647
:403280005B0013449B000B4404331B78DBB25BB2002B1BDABA79204913465B0013449B000B4401331B78DBB2012B07D11B4ABB791B01134402330C221A7022E0174ABB7975
:4032C0001B01134402330D221A701AE0BA79124913465B0013449B000B4401331B78DBB2012B07D10D4ABB791B011344023308221A7006E0094ABB791B0113440233092271
:403300001A70FEF731FF0346FB71FB7918460837BD4680BD006000403C82FF1FFC5F004080B584B000AF0023FB73154B1B79BB73144B1B78DBB2013BDBB21846FFF770FEEC
:40334000B860BB685B681B79FB71BA7BFB799A4202D9BB7B022B0ED8BB7BBA7B0A498A5CD1B20A4AD154BB7B054A9278D1B2064AD1540123FB73FB7B18461037BD4680BD92
:40338000006000403782FF1FA882FF1F1C82FF1F80B483B000AF0023FB71094B1B78DBB25BB2002B06DA064B5B78DBB2012B00D000E000BFFB7918460C37BD4680BC70470A
:4033C0000060004080B400AF054B1B78DBB203F040039B09DBB21846BD4680BC704700BF8F45004080B485B000AF0346FB710B4B1B78DBB223F00203FB730849FB795B0063
:40340000DBB203F00203DAB2FB7B1343DBB20B7000BF1437BD4680BC704700BF2051004080B400AF054B1B78DBB203F002035B08DBB21846BD4680BC704700BF2151004037
:4034400080B500AF214A214B1B78DBB203F00103DBB213701E4A1E4B1B78DBB223F00303DBB213701B4A1B4B1B78DBB223F03003DBB21370174A174B1B78DBB243F03003C6
:40348000DBB21370134A134B1B78DBB223F00F03DBB213700F4A0F4B1B78DBB243F00F03DBB213700C4A0C4B1B78DBB243F00103DBB21370092000F063F8092000F072F8B9
:4034C000082000F041F800BF80BD00BF004F0040024F00400B4F0040014F004080B400AF0D4A0D4B1B78DBB243F00103DBB213700A4A0A4B1B78DBB243F00103DBB213706D
:40350000074A074B1B78DBB243F00103DBB2137000BFBD4680BC7047A3430040B3430040004F004080B500AF064B1B78002B04D1FFF786FF034B01221A70FFF7CFFF00BF20
:4035400080BD00BFDE81FF1F80B483B000AF0346FB71044AFB79137000BF0C37BD4680BC704700BF034F004080B400AF034B1B78DBB21846BD4680BC704700BF034F004083
:4035800080B485B000AF0346FB71FB79FB81044AFB89138000BF1437BD4680BC704700BF044F004080B483B000AF0346FB71044BFA7992B21A8000BF0C37BD4680BC704734
:4035C000064F004080B582B000AF786000F03CF8786800F009F8072000F018F800F028F800BF0837BD4680BD80B485B000AF7860054B1B68FB60FB6884337A681A6000BF8B
:403600001437BD4680BC704708ED00E080B483B000AF0346FB71054AFB795B01DBB2137000BF0C37BD4680BC704700BF11E400E080B400AF034B4FF400321A6000BFBD460C
:4036400080BC704700E100E080B400AF034B4FF400321A6000BFBD4680BC704780E100E080B500AF144B02221A70144B81221A70134B08221A70134B1E221A70124B00224A
:403680001A70124B4FF400421A6007210F20FDF737FE0F490F20FDF70BFE0E4B10221A700D4B00221A700D4B00221A700C4B00221A7000BF80BD00BFD6490040C849004095
:4036C000CA490040DB490040DC49004080E100E05D370000AE82FF1FB282FF1FBA82FF1FB082FF1F80B582B000AF00F069FB0346FB710C4A0B4B1B78DBB243F00403DBB2DD
:403700001370094A084B1B78DBB243F00403DBB21370FB79184600F057FB00BF0837BD4680BD00BFA5430040B543004080B500AF084B1B78002B04D1FFF792FF054B0122C1
:403740001A70FFF7CFFF044B4FF400421A6000BF80BD00BFDF81FF1F00E100E080B582B000AFA74B1B78FB71A64B1B78DBB203F04003DBB2002B00F0A981FB7903F0010328
:40378000002B00F080819F4B1B78DBB2453B052B00F2758101A252F823F000BFB5370000DB3800007F3A00007F3A0000B5370000C7390000FB7923F02003FB71FB7903F0B2
:4037C0000A03DBB2082B46D18E4B1B78DBB2452B3AD18D4B1B78DBB2002B0FD08B4A8C4B1B681B78DBB21370854B04221A70894B01221A70834B46221A7044E1864B1B7853
:40380000DBB203F00203002B0FD0844B1B78DBB243F00A03DAB2814B1A707A4B60221A707F4B4FF400421A602DE17E4A7D4B1B78DBB243F01003DBB213707B4B10221A70B8
:403840006F4B04221A701EE16D4B00221A706D4B4A221A7017E1FB7903F00A03DBB20A2B37D16E4B1B78DBB263F05F03DAB26B4B1A70694B1B78DBB203F00203002B19D05D
:40388000604B1B78DBB203F00803002B01D0092300E00A23DAB2614B1B78DBB21343DAB25E4B1A70574B60221A705D4B4FF400421A60E8E05B4A5B4B1B78DBB243F01003CF
:4038C000DBB21370584B10221A704D4B04221A70D9E00020FDF7AAFCD5E0FB7903F00203002B42D14B4B1B78DAB2474B1B78DBB29A4214D2454A464B1B6846490978C9B2E8
:403900000B441B78DBB213703D4B04221A70414B1B78DBB20133DAB23E4B1A70B3E03E4B1B78DBB203F00203002B0FD03B4B1B78DBB243F00A03DAB2384B1A70314B602223
:403940001A70374B4FF400421A609CE0354A354B1B78DBB243F01003DBB21370324B10221A70274B04221A708DE02B4B1B78DBB203F00203002B0FD0284B1B78DBB263F005
:403980006503DAB2254B1A701E4B60221A70244B4FF400421A6076E0224A224B1B78DBB243F01003DBB213701F4B10221A70144B04221A70194B1B78DBB263F06F03DAB287
:4039C000164B1A705FE0194B1B68194A1278D2B213440E4A1278D2B21A70154B1B78DBB20133DAB2124B1A70114B1B78DAB2114B1B78DBB29A421FD2014B10221A7042E0E9
:403A0000D7490040AE82FF1FB182FF1FD8490040BC82FF1FB082FF1FB882FF1FB282FF1F80E100E0D6490040D9490040B482FF1FBA82FF1FB982FF1F2C4B1B78DBB203F03D
:403A40000203002B0FD02A4B1B78DBB243F00903DAB2274B1A70274B60221A70264B4FF400421A600FE0254A244B1B78DBB243F01003DBB21370224B00221A7003E000208E
:403A8000FDF7D4FB00BFFB7903F02003002B28D0184B1B78DBB203F00803002B01D0012300E00223DAB2124B1B78DBB21343DAB20F4B1A70114A114B1B78DBB223F0100365
:403AC000DBB213700B4B10221A700AE0094B1B78DBB203F01003DBB2002B02D1054B10221A7000BF0837BD4680BD00BFB882FF1FB282FF1FAE82FF1F80E100E0D649004014
:403B0000D749004080B485B000AF03460A46FB711346BB710223FB73234B1B78DBB2102B3CD1224B1B78DBB203F00803002B33D11F4B4FF400421A60FB795B00FB71BB7988
:403B4000002B07D0FB7943F00103FB71164B49221A7002E0144B45221A70164AFB791370124B01221A7000BF134B1B78DBB203F00103002BF8D0104B1B78DBB203F00A03A1
:403B8000DBB20A2B05D1084B10221A700323FB7304E00023FB7301E00123FB73FB7B18461437BD4680BC7047AE82FF1FD949004080E100E0D8490040D749004080B485B0B2
:403BC00000AF03460A46FB711346BB710223FB731F4B1B78DBB203F00403002B31D0FB795B00FB71BB79002B07D0FB7943F00103FB71184B49221A7002E0164B45221A7035
:403C0000154AFB791370124B12221A70134B04221A7000BF114B1B78DBB203F00103002BF8D00E4B1B78DBB203F00A03DBB20A2B05D1084B10221A700323FB7301E0002328
:403C4000FB73FB7B18461437BD4680BC704700BFD9490040AE82FF1FD8490040D749004080B483B000AF0223FB71104B1B78DBB203F00403002B12D00C4B10221A700C4BFE
:403C800004221A700B4B10221A7000BF084B1B78DBB203F02103002BF8D00023FB71FB7918460C37BD4680BC704700BFD9490040D7490040AE82FF1F80B485B000AF03463C
:403CC000FB710223FB73184B1B78DBB203F00403002B22D0154AFB791370154B04221A70144B46221A7000BF114B1B78DBB203F00103002BF8D00E4B1B78DBB203F00203DE
:403D0000002B05D10B4B60221A700023FB7304E0084B60221A700323FB73FB7B18461437BD4680BC704700BFD9490040D8490040D7490040AE82FF1F80B485B000AF034612
:403D4000FB710023FB73164B1B78DBB203F00403002B1FD0134B1B78DBB2492B05D1124B00221A700F4B4A221A7000BF0E4B1B78DBB203F00103002BF8D00C4B1B78FB7316
:403D8000FB79002B03D0084B10221A7002E0054B60221A70FB7B18461437BD4680BC7047D9490040AE82FF1FD7490040D84900400230800803D000BF01380046FCD170476F
:403DC000EFF3108072B6704780F31088704700BF80B582B000AF0023BB711B4B1B78DBB203F00303012B02D0022B04D012E0164B1B79FB7111E0144B1B79DBB203F07F02D6
:403E0000124913465B0013449B000B440A331B78FB7102E00023FB7100BFFB79022B0ED80B4B1A68FB7913441B78022B04D1FDF743FD0346BB7102E00023BB7100BFBB793A
:403E400018460837BD4680BD006000403C82FF1F3082FF1F81F0004102E000BF83F0004330B54FEA41044FEA430594EA050F08BF90EA020F1FBF54EA000C55EA020C7FEA6A
:403E8000645C7FEA655C00F0E2804FEA5454D4EB5555B8BF6D420CDD2C4480EA020281EA030382EA000083EA010180EA020281EA0303362D88BF30BD11F0004F4FEA013112
:403EC0004FF4801C4CEA113102D0404261EB410113F0004F4FEA03334CEA133302D0524263EB430394EA050F00F0A780A4F10104D5F1200E0DDB02FA0EFC22FA05F2801882
:403F000041F1000103FA0EF2801843FA05F359410EE0A5F120050EF1200E012A03FA0EFC28BF4CF0020C43FA05F3C01851EBE37101F0004507D54FF0000EDCF1000C7EEB73
:403F400000006EEB0101B1F5801F1BD3B1F5001F0CD349085FEA30004FEA3C0C04F101044FEA445212F5800F80F09A80BCF1004F08BF5FEA500C50F1000041EB045141EA86
:403F8000050130BD5FEA4C0C404141EB010111F4801FA4F10104E9D191F0000F04BF01460020B1FA81F308BF2033A3F10B03B3F120020CDA0C3208DD02F1140CC2F10C028E
:403FC00001FA0CF021FA02F10CE002F11402D8BFC2F1200C01FA02F120FA0CFCDCBF41EA0C019040E41AA2BF01EB0451294330BD6FEA04041F3C1CDA0C340EDC04F11404BC
:40400000C4F1200220FA04F001FA02F340EA030021FA04F345EA030130BDC4F10C04C4F1200220FA02F001FA04F340EA0300294630BD21FA04F0294630BD94F0000F83F4B4
:40404000801306BF81F480110134013D4EE77FEA645C18BF7FEA655C29D094EA050F08BF90EA020F05D054EA000C04BF1946104630BD91EA030F1EBF0021002030BD5FEACE
:40408000545C05D14000494128BF41F0004130BD14F580043CBF01F5801130BD01F0004545F0FE4141F470014FF0000030BD7FEA645C1ABF194610467FEA655C1CBF0B46E5
:4040C000024650EA013406BF52EA033591EA030F41F4002130BD00BF90F0000F04BF0021704730B54FF4806404F132044FF000054FF0000150E700BF90F0000F04BF0021F3
:40410000704730B54FF4806404F1320410F0004548BF40424FF000013EE700BF42004FEAE2014FEA31014FEA02701FBF12F07F4393F07F4F81F06051704792F0000F14BFFB
:4041400093F07F4F704730B54FF4607401F0004521F0004120E700BF50EA010208BF704730B54FF000050AE050EA010208BF704730B511F0004502D5404261EB41014FF40F
:40418000806404F132045FEA915C3FF4DCAE4FF003025FEADC0C18BF03325FEADC0C18BF033202EBDC02C2F1200300FA03FC20FA02F001FA03FE40EA0E0021FA02F11444FF
:4041C000C1E600BF70B54FF0FF0C4CF4E06C1CEA11541DBF1CEA135594EA0C0F95EA0C0F00F0DEF82C4481EA030621EA4C5123EA4C5350EA013518BF52EA033541F48011F7
:4042000043F4801338D0A0FB02CE4FF00005E1FB02E506F00042E0FB03E54FF00006E1FB03569CF0000F18BF4EF0010EA4F1FF04B6F5007F64F5407404D25FEA4E0E6D410E
:4042400046EB060642EAC62141EA55514FEAC52040EA5E504FEACE2EB4F1FD0C88BFBCF5E06F1ED8BEF1004F08BF5FEA500E50F1000041EB045170BD06F0004646EA01013E
:4042800040EA020081EA0301B4EB5C04C2BFD4EB0C0541EA045170BD41F480114FF0000E013C00F3AB8014F1360FDEBF002001F0004170BDC4F10004203C35DA0C341BDC37
:4042C00004F11404C4F1200500FA05F320FA04F001FA05F240EA020001F0004221F0004110EBD37021FA04F642EB06015EEA430E08BF20EAD37070BDC4F10C04C4F1200534
:4043000000FA04F320FA05F001FA04F240EA020001F0004110EBD37041F100015EEA430E08BF20EAD37070BDC4F1200500FA05F24EEA020E20FA04F301FA05F243EA02039B
:4043400021FA04F001F0004121FA04F220EA020000EBD3705EEA430E08BF20EAD37070BD94F0000F0FD101F00046400041EB010111F4801F08BF013CF7D041EA060195F099
:40438000000F18BF704703F00046520043EB030313F4801F08BF013DF7D043EA0603704794EA0C0F0CEA135518BF95EA0C0F0CD050EA410618BF52EA4306D1D181EA030110
:4043C00001F000414FF0000070BD50EA410606BF1046194652EA430619D094EA0C0F02D150EA013613D195EA0C0F05D152EA03361CBF104619460AD181EA030101F0004104
:4044000041F0FE4141F470014FF0000070BD41F0FE4141F4780170BD70B54FF0FF0C4CF4E06C1CEA11541DBF1CEA135594EA0C0F95EA0C0F00F0A7F8A4EB050481EA030E29
:4044400052EA03354FEA013100F088804FEA03334FF0805545EA131343EA12634FEA022245EA111545EA10654FEA00260EF000419D4208BF964244F1FD0404F5407402D2C2
:404480005B084FEA3202B61A65EB03055B084FEA32024FF480104FF4002CB6EB020E75EB030E22BFB61A754640EA0C005B084FEA3202B6EB020E75EB030E22BFB61A7546D0
:4044C00040EA5C005B084FEA3202B6EB020E75EB030E22BFB61A754640EA9C005B084FEA3202B6EB020E75EB030E22BFB61A754640EADC0055EA060E18D04FEA051545EAF1
:4045000016754FEA06164FEAC30343EA52734FEAC2025FEA1C1CC0D111F4801F0BD141EA00014FF000004FF0004CB6E711F4801F04BF01430020B4F1FD0C88BFBCF5E06FC8
:404540003FF6AFAEB5EB030C04BFB6EB020C5FEA500C50F1000041EB045170BD0EF0004E4EEA113114EB5C04C2BFD4EB0C0541EA045170BD41F480114FF0000E013C90E60B
:4045800045EA060E8DE60CEA135594EA0C0F08BF95EA0C0F3FF43BAF94EA0C0F0AD150EA01347FF434AF95EA0C0F7FF425AF104619462CE795EA0C0F06D152EA03353FF4D6
:4045C000FDAE1046194622E750EA410618BF52EA43067FF4C5AE50EA41047FF40DAF52EA43057FF4EBAE12E74FEA4102B2F1E04324BFB3F5001CDCF1FE5C0DD901F0004C25
:404600004FEAC0024CEA5070B2F1004F40EB830008BF20F00100704711F0804F21D113F13872BCBF01F00040704741F480114FEA5252C2F11802C2F1200C10FA0CF320FA15
:4046400002F018BF40F001004FEAC1234FEAD32303FA0CFC40EA0C0023FA02F34FEA4303CCE77FEA625307D150EA01331EBF4FF0FE4040F44000704701F0004040F0FE40ED
:4046800040F40000704700BF014B1868704700BF6881FF1F0E4B70B51E460E4C0025E41AA410A54204D056F8253098470135F8E702F09CFA084B094C1E46E41AA410002537
:4046C000A54204D056F8253098470135F8E770BDF86B0000F86B0000F86B0000006C000010B5431E0A44914204D011F8014B03F8014FF8E710BD03460244934202D003F80E
:40470000011BFAE770472DE9F04788B0149F002B1E461299B8BF03F1004327F02007B6BF1E4600232D23462F1446109DDDF84CA00B7003D0452F03D1013501E0032300E02B
:40474000022307AA049206AA03928DE828042246334600F001FD472F804602D1119BDB0728D5462F08EB050911D198F80030302B0AD1002200232046314602F02FF818B924
:40478000C5F10105CAF80050DAF800309944002200232046314602F021F808B9302202E0CDF81C9006E0079B994503D9591C07911A70F8E74046079B159AC8EB03031360FE
:4047C00008B0BDE8F087034673B50029B8BF494203F8022BB4BF2D222B22092942701ADD0DF1070216460A2591FBF5F405FB1411092C01F1300102F8011D2146F4DC303103
:40480000541E02F8011CB4421A460AD214F8012B03F8012BF7E71A463024214402F8024B5970101A02B070BD2DE9F04F91B00C46DDF8688016461F46054601F025FA036822
:404840001846099300F0F4FB00230E93D8F800300A90073323F0070303F1080294F81890D4F800B0C8F80020D3E90023C4E91223D4F84CA0D4F848802AF000430B934FF0D5
:40488000FF32A74B40460B9901F0DAFFA0B94FF0FF32A34B40460B9901F0B4FF60B9002200234046514601F0A3FF10B12D2384F843309C4B9C4A0AE0424653464046514659
:4048C00001F0BEFF002800F09281984B984AB9F1470F8CBF90469846032323612BF0040323604FF0000A3DE0B9F1670F00F08A81B9F1470F00F08681236001936368002151
:404900000DF13302059002920093424653460691CDF81090CDF80CE02846FFF7F4FE09F0DF03472B804600F08481B9F1650F0D9900F28D8101394A4604F150000D91FFF7F5
:4049400042FF0E9A82468318012A236100F37C812268D10700F178819DF8333013B12D2384F84330009733460FAA2146284600F09FF9013002D14FF0FF3096E123685A050C
:4049800001D4236965E0B9F1650F40F2D580D4E912010022002301F021FF78B30123654A31462846B8470130E5D00E9B0D9A9A420BDB2368D80708D423689B0740F1118176
:4049C0004FF0000804F1190906E10A9B099A31462846B8470130CED04FF0000804F11A090E9B013B9845E7DA01234A4631462846B8470130BFD008F10108F1E70D9B002B90
:404A000029DC01234B4A31462846B8470130B2D00D9B23B90E9B13B92368D907CCD50A9B099A31462846B8470130A4D04FF0000904F11A0A0D9B5B42994509DA0123524628
:404A400031462846B847013095D009F10109F1E70E9B4246A7E00E9AA36D9A42A8BF1A46002A914606DC4FF0000A29EAE97904F11A0B11E01346314642462846B84701302B
:404A8000F1D178E701235A4631462846B84701303FF471AF0AF1010AA36DC9EB03029245F0DB08EB03090D9A0E9B9A420FDB2368DA070CD40E9B0D9A9844C9EB08089B1A32
:404AC0009845A8BF9846B8F1000F08DC0FE00A9B099A31462846B8470130EBD14BE743464A4631462846B84701303FF444AF4FF0000928EAE87804F11A0A09E001235246F2
:404B000031462846B84701303FF435AF09F101090D9A0E9B9B1AC8EB03039945EEDB4BE7FFFFEF7F8E6A0000926A0000966A00009A6A00009E6A00000E9A012A01DCDB07B0
:404B400038D50123424631462846B84701303FF412AF0A9B099A31462846B84701303FF40AAFD4E912010022002301F037FE20B14FF0000804F11A090EE00E9B08F101022C
:404B8000013B19E001234A4631462846B84701303FF4F1AE08F101080E9B013B9845F1DB534604F1500231462846B84701307FF403AFE0E64246012331462846B8470130F4
:404BC000EED1D8E601234A4631462846B84701303FF4D1AE08F10108E3680F9A9B1A9845F0DBE0680F9B9842B8BF18465DE062680EA8531C0DF1340E4BF480637FF474AEA6
:404C0000062201E012B90122626075E6002106910DF133018DE80C00236005904246CDF81090CDF80CE0029153462846FFF76BFD80460D9BD81C02DB626893421DDDA9F1D5
:404C400002095FFA89F970E60133236184E6B9F1660F14D10029636807DD216113B92268D2071DD501330B4419E013B92268D00701D5023313E0012311E04FF067090D9B44
:404C80000E9A934205DB22682361D10708D5013305E0002BD4BFC3F102030123134423610D9B4FF0000AA36556E611B0BDE8F08F2DE9F04791461F460A698B68064693421B
:404CC000B8BF1346C9F8003091F843200C46DDF8208012B10133C9F800302368990642BFD9F800300233C9F80030256815F0060510D104F1190A07E00123524639463046D8
:404D0000C04701301AD00135E368D9F800209B1A9D42F1DB94F843302268003318BF012392060FD5E118302081F843005A1C94F845102244023382F8431003E04FF0FF3037
:404D4000BDE8F08704F1430239463046C0470130F4D02268D9F80050E36802F00602042A08BF5D1B2269A3680CBF25EAE57500259342C4BF9B1AED184FF000091A344D4566
:404D800009D00123224639463046C0470130D5D009F10109F3E70020BDE8F0872DE9F04317460A7E85B06E2A984606460C460C9B01F1430E00F0AE8011D8632A22D009D8DA
:404DC000002A00F0BB80582A40F0CA8081F84520834955E0642A1ED0692A1CD0C0E0732A00F0B08009D86F2A2ED0702A40F0B8800A6842F020020A603EE0752A24D0782A2E
:404E00003AD0ADE01A6801F14205111D1960136884F84230A8E021681A6811F0800F02D0111D196008E011F0400F02F10401196002D0B2F9003000E01368002B3CDA2D2233
:404E40005B4284F8432037E021681A6811F0800F02D0111D196007E011F0400F02F10401196001D0138800E01368227E5C496F2A14BF0A2208221BE078225A4984F84520FC
:404E80002268186812F0800F00F104051D6003D1550601D5038800E00368D00744BF42F0200222601BB9226822F0200222601022002084F8430001E049490A226568002D97
:404EC000A56008DB206820F0040020602BB9002D7DD175460CE0002B79D07546B3FBF2F002FB1033CB5C05F8013D03460028F5D1082A0BD12368DA0708D5236962689A4287
:404F0000DEBF302305F8013C05F1FF35C5EB0E0323612EE008681A6810F0800F496903D0101D1860136808E010F0400F02F104001860136801D0198000E019600023236119
:404F4000754616E01A68111D1960156800216268284600F0A5FE08B1401B6060636804E004F1420584F8422001232361002384F84330CDF800803B4603AA21463046FFF751
:404F800097FE013002D14FF0FF3026E023692A4639463046C0470130F5D023689B0710D5002504F1190907E001234A4639463046C0470130E7D00135E368039A9B1A9D4277
:404FC000F2DBE068039B9842B8BF184605E00B7804F1420584F842308AE705B0BDE8F083A06A0000B16A00000EB400B54FF402719CB0ADF814106FF00041049107914FF606
:40500000FF711DAB02900690084853F8042BADF81610006802A9019301F038FA029B00221A701CB05DF804EB03B070476881FF1F034613F8012B002AFBD1181A013870474F
:405040002DE9F74F03690C6980469C427FDC013C01F114074FEA840E00F1140606EB0E0357F82450019356F824300135B3FBF5F507EB0E09C5B34FF0000A3846B446D346B0
:4050800050F8043B9AB205FB02A21B0C4FEA124A05FB03A392B2C2EB0B0BBCF800204FEA134A5A441FFA83FBDCF800308145CBEB134303EB224392B242EA03424FEA234BEC
:4050C0004CF8042BDCD256F80E306BB9019B043B9E421A4602D3C8F8104005E01268043B002AF8D1013CF3E7404600F0F4FF00282BDB304601354FF0000E57F8042B0368BE
:4051000091B2C1EB0E0E120C99B27144C2EB134303EB214389B24FEA234EB94541EA034340F8043BE9D256F8242006EB840362B9043B9E421A4602D3C8F8104005E0126883
:40514000043B002AF8D1013CF3E7284600E0002003B0BDE8F08F00002DE9F04F456A95B08246219CCDE9022345B9102000F090FDCAF82400456085600560C560DAF824302D
:40518000196859B15A68012393404A608B60504600F0C9FDDAF8243000221A60039BA04A002BBDBF01232360039B0023BCBF23F000430393DDF80C80A8BF236028F0004364
:4051C0001B0D1B0593421DD142F20F73209A1360029B43B9934A944BC8F31300002814BF1846104600E09048229B002B00F04685C37813B100F1080300E0C31C229A1360AB
:4052000000F03CBDDDE90245002200232046294601F0E4FA074658B1209A01231360229B002B00F01E8581481860013800F026BD12AB019313AB009322462B46504600F01F
:40524000C5FFC8F30A56049056B1C5F3130343F07F51204641F44011A6F2FF3611971DE0139B129E1E4406F23243202B0ADD029A06F21240C3F1400322FA00F008FA03F345
:40528000184304E0C3F12000029B03FA00F0FEF723FF0123A1F1F871013E11930022644BFEF7DCFD58A3D3E90023FEF78BFF58A3D3E90023FEF7D4FD044630460D46FEF798
:4052C0001BFF55A3D3E90023FEF77CFF02460B4620462946FEF7C4FD04460D4601F0C6FA0022834600232046294601F081FA58B15846FEF701FF02460B462046294601F091
:405300006DFA08B90BF1FF3BBBF1160F0DD8DDE90223484901EBCB01D1E9000101F086FA30B10BF1FF3B002300E00123109300E01090129B9E1B731E079343BFC3F1000849
:40534000002307934FF00008BBF1000F06DB079BCDF82CB05B440793002705E00023CBEB0808CBF100070B931E9B092B28D8052BC4BF043B1E931E9BC8BF0025A3F102032D
:40538000D8BF0125032B20D8DFE803F0060E0204012302E0012308E000230A931F9B002B1DDD9946059321E000230A931F9B0BEB030909F10103012B0593B8BF012315E03F
:4053C000012500231E930A9501E001230A934FF0FF390022CDF8149012231F9206E04FF001094B46CDF81490CDF87C90DAF8244000226260042101F114029A421CD86268AF
:40540000490001326260F6E761436F63A787D23FB3C8608B288AC63FFB799F501344D33F0000F07FC26A0000CB6A00009F6A00000000F83FD86A00006168504600F03EFCD8
:40544000DAF8243020601B680693059B0E2B00F25B81002D00F05881DDE90234BBF1000FCDE90E3430DD9F4A0BF00F034FEA2B1502EBC303E80618CBCDE908340CD5DDE985
:405480000E01994B05F00F05D3E90823FEF7C4FF0324CDE9020100E00224934E6DB1E90708D5DDE90801D6E90023FEF78BFECDE9080101346D100836F0E7DDE90823DDE933
:4054C0000201FEF7A9FF20E0CBF1000505B3DDE90E01844B05F00F0203EBC203D3E90023FEF770FECDE902017F4E2D110023022455B1EA0705D5D6E90023FEF763FE0134A9
:4055000001236D100836F3E71BB1CDE9020100E00224109BE3B1DDE902560022734B2846314601F065F998B1059B8BB1B9F1000F40F3E6800BF1FF330893314600226C4B26
:405540002846FEF73FFE0134CDE902014E4602E0059ECDF820B02046FEF7CEFDDDE90223FEF730FE634B0022FEF77AFCA1F1507304460C931D46D6B9DDE9020100225E4BBC
:40558000FEF76CFC22460C9BCDE9020101F04EF9002840F03F820C99224601F10043DDE9020101F025F9002840F02B82A8E00A9A4C4B711E002A49D003EBC103D3E9002330
:4055C00000204E49FEF728FF22462B46FEF746FCCDE90C01069CDDE9020101F047F90546FEF78AFD02460B46DDE90201FEF736FCDDE90C23303504F8015BCDE9020101F0BD
:40560000F7F8002840F01D83DDE9022300203749FEF724FCDDE90C2301F0EAF8002840F0D180069BE31AB3426ADADDE90C0100222F4BFEF7C7FD0022CDE90C01DDE90201C5
:405640002B4BFEF7BFFDCDE90201C4E703EBC1012246D1E900012B46FEF7B4FD069BCDE90C011D469C19DDE9020101F0FFF80646FEF742FD02460B46DDE90201FEF7EEFBC8
:40568000303605F8016BAC42CDE902014FF0000222D11A4BDDE90C01FEF7E2FB02460B46DDE9020101F0C2F8002840F08B80DDE90C2300201149FEF7D1FB02460B46DDE937
:4056C000020101F095F8D8B114F8013C621E302B40F0B7821446F7E7054BFEF773FDCDE90201C0E7D86A0000B06B00000000F03F0000244000001C40000014400000E03F07
:40570000DDE90E34CDE90234139B002B7CDBBBF10E0F79DCAB4B03EBCB03D3E900671F9B002B14DA059B002B11DC40F06C810022A54B30463946FEF745FDDDE9022301F090
:405740006BF8059D2E46002840F05F8165E1069CDDE9028932463B4640464946FEF75CFE01F084F80546FEF7C7FC32463B46FEF729FD0B46024649464046FEF76FFB05F15B
:40578000300E069B04F801EBC3EB040E059B73452DD102460B46FEF763FB8046894602460B463046394601F023F878B942464B463046394601F012F8002800F04482EB07E7
:4057C00004D440E2DDF820B000E01C4614F8012C631E392A07D1069A9A42F6D1069930220BF1010B0A701A7801321A702BE20022764BFEF7E7FC002200238046894600F03C
:40580000EDFF0028A6D01EE20A9A002A2BD01E9A012A0ADC119A12B103F2334302E0129BC3F136033D46444613E0059B5D1EAF42BFBF0B9BEA1B9B180B93059BB6BF2F46E7
:405840007D1B0025002BA7BF4446059BC3EB08040023079A01211A4450469844079200F001FB064602E03D4644460A9E5CB1079B002B08DDA342A8BF2346079AC3EB080805
:40588000E41AD31A0793002F1DDD0A9BABB18DB131462A46504600F07FFB049A01460646504600F0E8FA04990890504600F03BFA089B04937A1B06D000E03A460499504653
:4058C00000F06AFB04900121504600F0CBFA0B9B05465BB31A460146504600F05DFB1E9B0546012B18DC029B83B9039BC3F3130373B9039B23F000473F0D3F054FB1079B11
:4059000008F1010801330793012702E0002700E0029F0B9B73B100E000272B6905EB8303186900F052FAC0F1200004E01E9B012BD9DD0B9F0120079B184410F01F0008D03D
:40594000C0F12003042B02DDC0F11C0002E006D018461C30079B8044034404440793B8F1000F05DD42460499504600F063FB0490079B002B05DD29461A46504600F05AFBF7
:405980000546109B23B32946049800F0A4FB00281EDA00230A220499504600F0DBF90A9B0BF1FF3B0490002B00F05F81314600230A22504600F0CEF9B9F1000F06463FDC7E
:4059C0003BE000BFD86A00000000144000002440059B002B2BDC1E9B022B28DDDDF81490B9F1000F11D129464B460522504600F0B1F901460546049800F06DFB00280CDC15
:405A000003E0354600E000252E461F9B069C6FEA030B09E03546DDF820B0069B069A5C1C312313700BF1010B05960026F7E00A9BDDF8149023B9069CB2E01E9B022BCFDCD4
:405A4000002C05DD31462246504600F0F3FA06469FB17168504600F031F90446326906F10C01023292000C30FEF73AFE01222146504600F0DFFA059000E00596029B069F4E
:405A800003F00103079329460498FFF7D9FA3146044600F13008049800F01DFB059A02902946504600F033FBC36802463BB901460A90049800F00FFB0A9A034600E00123D0
:405AC000114650460A9300F02EF90A9B53B91E9A42B9079A32B9B8F1390F2AD0029B002B1CDC1DE0029A002A04DB1BD11E9ACAB9079ABAB9002B13DD01220499504600F02C
:405B000099FA2946049000F0E6FA002803DC07D118F0010F04D0B8F1390F0AD004F131087C1C0CE0002B07F101040BDDB8F1390F03D139233B70013756E008F1010887F8EC
:405B400000806CE0069B2746E31A4B4504F8018C3BD000230A220499504600F0FBF8059B04909E424FF00A024FF000033146504604D100F0EFF80646059084E700F0EAF84D
:405B8000002306460A220599504600F0E3F8059079E700230A220499504600F0DBF8049029460498FFF74CFA069B00F1300804F8018BE31A4B45ECDB069B0596B9F1010F9A
:405BC000ACBF4B4401331F46002601220499504600F030FA2946049000F07DFA002803DC15D118F0010F12D03C4614F8013C621E392B09D1069B934204D10BF1010B3123FB
:405C0000069A02E01446F0E70133137007E03C4614F8013C621E302B01D11446F8E72946504600F080F8059B6BB12EB19E4203D03146504600F077F80599504600F073F8AC
:405C400001E0DDF820B00499504600F06CF80023209A23700BF101031360229B1BB11C6001E008480AE0069808E0B9F1000F3FF7E2AE1E9B022B7FF7DEAEB1E615B0BDE826
:405C8000F08F00BF9E6A0000004870476C81FF1F024B0146186800F041BB00BF6881FF1F10B5C9B202449042034605D01C7801308C42F8D1184610BD002010BD70B5456A10
:405CC00004460E463DB91020FFF7E2FF6062456085600560C560656AEB6843B1636ADB6853F8260078B1026843F8262017E021220421204600F0B8FA636AE860DB68002B9E
:405D0000ECD1002070BD012101FA06F56A1D9200204600F0A9FA0028F3D04660856000230361C36070BD70B5446A06460D463CB91020FFF7ADFF7062446084600460C460C7
:405D40003DB1736A6A68DB6853F82210296043F8225070BD2DE9F04106460C460D691F4601F1140E0023DEF80000013381B202FB0171000C0F0C02FB007089B201EB0041C4
:405D80009D424FEA10474EF8041BECDCD7B1A3689D4212DB616830460131FFF78FFF8046226904F10C01023292000C30FEF798FC21463046FFF7B7FF444604EB8503013555
:405DC0005F6125612046BDE8F081030C1B0413B90004102300E0002310F07F4F04BF0002083310F0704F04BF0001043310F0404F04BF80000233002803DB420003D5581C8A
:405E000070471846704720207047036813F007020BD0D90722D49A074BBF5B089B08036003604CBF01200220704799B209B91B0C102213F0FF0F04BF1B0A0832190704BF7F
:405E40001B090432990704BF9B080232D90702D45B0805D00132036010467047002070472020704710B50C460121FFF727FF01224461026110BD2DE9F74F14460A6923692D
:405E800088469A42BEBF0B46A0461C46D8F81070D4F81090D8F80830D8F8041007EB09069E42C8BF0131FFF709FF00F114052B4605EB860C0022634502D243F8042BFAE7FC
:405EC00004F1140208F1140102EB890301EB87070093009B0192934257D9B2F800B0BBF1000F23D08946AE464FF0000859F8044BBEF800A0A3B20BFB03A34FEA144ADEF85A
:405F0000004043444FEA14480BFB0A84F24604EB13449BB243EA04434F454FEA14484AF8043B01D9D646E1E7CEF80480019B0432B3F802A0BAF1000F21D02C4689462B68E2
:405F40004FF00008B9F800E0B4F802B09BB20AFB0EBEA346F04443EA08434BF8043B59F8043BB4F804E01B0C0AFB03E34F4503EB18434FEA134801D95C46E3E763600435D1
:405F8000A7E75CF8043D13B9013E002EF9DC066103B0BDE8F08F00002DE9F843154612F0030206460F4607D0214C013A002354F82220FFF7CFFE0746AD1036D0746A3CB948
:405FC0001020FFF765FE7062446084600460C460D6F82480D8F808404CB940F271213046FFF740FF04460023C8F8080003604FF00008EB070AD5394622463046FFF73BFFFB
:40600000814639463046FFF78EFE4F466D100CD0206808B10446ECE7224621463046FFF72AFF2060C0F80080F4E73846BDE8F883A06B00002DE9F0470C46074691462669E4
:406040004FEA621A56444968A368751CAB4202DA01315B00FAE73846FFF730FE002380461A4600F11401534503DA41F823200133F9E72AEAEA73206901EB830319F01F09BA
:4060800004F1140101EB800E14D0C9F1200C002208689A4600FA09F0024343F8042B51F8042B8E4522FA0CF2F2D8CAF8042042B1B51C06E0043B51F8042B8E4543F8042FC7
:4060C000F9D8013D3846C8F810502146FFF72BFE4046BDE8F08703690A6910B59B1A11D192001430143183180A4453F8044D52F8041D8C4202D007D3012010BD9842F4D37C
:40610000002010BD184610BD4FF0FF3010BD2DE9F8430C460746114620461546FFF7DBFF061E08D131463846FFF7C8FD012303614661BDE8F883BCBF23462C46384661689B
:40614000BABF1D4601260026FFF7B8FD2B69C660266905F1140904F1140101EB860709EB830800F114054FF0000C51F8042B59F8044B93B29C44A3B2240CC3EB0C03C4EB6A
:40618000124202EB23429BB24FEA224CC84543EA02428E4645F8042BE7D8BE450ED25EF8041B8AB26244131403EB114392B242EA03424FEA234C45F8042BEEE755F8043DF9
:4061C0000BB9013EFAE70661BDE8F8832DE9F3411C4601219046089E099DFFF76FFDC4F31302C4F30A5407460CB142F480120192B8F1000F19D002A840F8088DFFF705FE8B
:40620000009B48B1019AC0F1200102FA01F10B43C2407B61019200E07B61019B002B14BF02210121BB61396107E001A8FFF7EDFD019B01217B613961203034B1A4F2334479
:4062400004443460C0F1350009E0A0F2324007EB810330601869FFF7B8FDC0EB41102860384602B0BDE8F08138B502FB01F4214600F054F8054618B122460021FEF73BFA2A
:40628000284638BD38B50546002944D051F8043C0C1F002BB8BFE41800F017FA1E4A1368114613B96360146030E0A3420DD92268A018834201BF18685B6812182260636022
:4062C0000C6023E0A24203D813465A68002AF9D118681918A1420BD12168014458188242196013D110685268014419605A600DE002D90C232B6009E021686018824201BFF8
:40630000106852680918216062605C602846BDE8384000F0DBB938BDE481FF1F70B5CD1C25F0030508350C2D38BF0C25002D064601DBA94202D90C23336046E000F0C5F90A
:40634000234B1C681A462146A1B10B685B1B0ED40B2B03D90B60CC18CD501EE08C420BBF63684B681360636018BF0C4615E00C464968E9E7174C23681BB9304600F07AF9F3
:4063800020602946304600F075F9431C18D0C41C24F00304A0420DD12560304600F096F904F10B00231D20F00700C31A0ED05A42E25070BD211A304600F05CF90130EBD1AE
:4063C0000C233360304600F081F9002070BD00BFE481FF1FE081FF1F2DE9F0478E6882469E420C46914698463ED88A8912F4906F3AD02568096902236F1A656905EB45050E
:4064000095FBF3F57B1C43449D4238BF1D4653050FD52946FFF782FF064698B13A462169FEF75EF9A38923F4906343F08003A38113E02A4600F04BF9064670B92169504644
:40644000FFF720FF0C23CAF80030A3894FF0FF3043F04003A381BDE8F08726613E44266046466561ED1BA560464528BF464649463246206800F00EF9A36800209B1BA36040
:4064800023681E442660BDE8F08700002DE9F04F9DB003938B8980461C060D4616460DD50B695BB94021FFF739FF2860286118B90C23C8F80030CDE040236B6100230993D5
:4064C00020238DF82930DFF89CB130238DF82A3037463C4614F8013B1BB9B7EB060910D003E0252BF9D02746F3E74B46324629464046FFF771FF013000F0A780099B4B4457
:4065000009933B78002B00F0A08000234FF0FF3204930793059206938DF853301A930126052221784E48FFF7BBFB671C049B38B14B4A3C46801A06FA00F018430490EFE78E
:40654000D90644BF20228DF853201A0744BF2B228DF8532022782A2A03D0079A00210A200BE0039A111D12680391002A10DA524243F00200079204900BE027463B780134DB
:40658000303B092B03D800FB02320121F5E701B107923B782E2B1ED17B782A2B0AD1039B02371A1D1B680392002BB8BF4FF0FF33059310E0002319460593781C0A240746E1
:4065C0003A780130303A092A03D804FB01210123F5E703B10591032239782248FFF760FB40B14023CBEB000003FA00F0049B013718430490397806221B487E1C8DF82810F4
:40660000FFF74EFB88B1194B33B9039B073323F007030833039314E003AB00932A46144B04A94046FEF700F907E003AB00932A460F4B04A94046FEF7B1FBB0F1FF3F82463A
:4066400003D0099B5344099342E7AB895B0601D4099801E04FF0FF301DB0BDE8F08F00BFD86B0000DE6B0000E26B000029480000D963000038B5064C002305460846236039
:40668000FAF794F8431C02D1236803B12B6038BDE482FF1F884210B501EB020301D8421E0BE09842FBD28118D21AD34204D013F8014D01F8014DF8E710BD994204D011F82B
:4066C000014B02F8014FF8E710BD70477047F8B5074615460E4621B91146BDE8F840FFF71DBE1AB9FFF7CEFD2846F8BD00F015F885420ED929463846FFF710FE044650B1C4
:4067000031462A46FDF7ECFF31463846FFF7BAFD01E03046F8BD2046F8BD51F8040C0028BEBF091851F8043CC0180438704700004FF0FF3C06E000BF4FF0010C02E000BF4B
:406740004FF0010C4DF804CD4FEA410C7FEA6C5C4FEA430C18BF7FEA6C5C1BD001B050EA410C0CBF52EA430C91EA030F02BF90EA020F0020704710F1000F91EA030F58BF93
:40678000994208BF90422CBFD8176FEAE37040F0010070474FEA410C7FEA6C5C02D150EA013C07D14FEA430C7FEA6C5CD6D152EA033CD3D05DF8040B704700BF84461046A6
:4067C00062468C461946634600E000BF01B5FFF7B7FF002848BF10F1000F01BD4DF808EDFFF7F4FF0CBF012000205DF808FB00BF4DF808EDFFF7EAFF34BF012000205DF831
:4068000008FB00BF4DF808EDFFF7E0FF94BF012000205DF808FB00BF4DF808EDFFF7CEFF94BF012000205DF808FB00BF4DF808EDFFF7C4FF34BF012000205DF808FB00BFF6
:406840004FEA410C7FEA6C5C02D150EA013C0AD14FEA430C7FEA6C5C02D152EA033C02D14FF0000070474FF0010070474FEA410212F5001215D211D56FF47873B3EB625273
:4068800012D94FEAC12343F0004343EA505311F0004F23FA02F018BF404270474FF00000704750EA013005D111F0004008BF6FF0004070474FF00000704700BF00000000D1
:4068C000683A2025362E33662C20723A2025362E33662C20703A2025362E33662C206D6F64653A2025750D00C84900401900004F00400C00405100403000000001400010F9
:4069000000140140000800400140000A004C0140000200500140200030313233343536373839414243444546000000001201000202000008B40432F201000102800100000D
:40694000090243000201018032090400000102020103052400100104240202052406000105240100010705810308000A09040100020A00000407058202400000070503029B
:4069800040000000040309042C0343007900700072006500730073002000530065006D00690063006F006E0064007500630074006F00720010035500530042005500410059
:4069C000520054003803430044004300200043006F006D006D0075006E00690063006100740069006F006E00200049006E0074006500720066006100630065002603430059
:406A00004400430020004400610074006100200049006E00740065007200660061006300650000000203000000008103080002000100820240000A000100030240000A00D2
:406A4000020A0000010000004069000003000000286A00000000000000000000000000000000000000000000406A0000010000002C6900000000000000000000010000008A
:406A8000446A0000010000006C6A00004300494E4600696E66004E414E006E616E00300030313233343536373839414243444546003031323334353637383961626364650C
:406AC0006600496E66696E697479004E614E00504F534958002E0000000000000000F03F000000000000244000000000000059400000000000408F40000000000088C34062
:406B000000000000006AF8400000000080842E4100000000D01263410000000084D797410000000065CDCD41000000205FA00242000000E876483742000000A2941A6D42C6
:406B4000000040E59C30A2420000901EC4BCD64200003426F56B0C430080E03779C3414300A0D8855734764300C84E676DC1AB43003D9160E458E143408CB5781DAF154414
:406B800050EFE2D6E41A4B4492D54D06CFF08044F64AE1C7022DB544B49DD9794378EA4405000000190000007D000000000000000080E03779C34143176E05B5B5B8934601
:406BC000F5F93FE9034F384D321D30F94877825A3CBF737FDD4F1575232D302B2000686C4C0065666745464700000000F8B500BFF8BC08BC9E4670474D0000009908000096
:406C0000F8B500BFF8BC08BC9E46704729000000206C0000C880FF1FE00000004001000000000000E882FF1FFFFFFFFF807F000003000000006CDC0280BB0000300000005E
:406C40000000C05D00C2010000000800C201000000080000A1200000000002000000000000000000000000000000000000000000000000000000000000000000000000009E
:406C80008C6A0000000000000000000000000000000000000000000000000000000000000000000000000000000000000000000000000000000000000000000000000000DE
:406CC0000881FF1FD56A0000DD6B0000DD6B0000DD6B0000DD6B0000DD6B0000DD6B0000DD6B0000DD6B0000DD6B0000FFFFFFFFFFFFFFFFFFFFFFFFFFFF00000000000034
:406D00000000000000000000000000000000000000000000000000000000000000000000000000000000000000000000000000000000000000000000000000000000000053
:406D40000000000000000000000000000000000000000000000000000000000000000000000000000000000000000000000000000000000000000000000000000000000013
:406D800000000000000000000000000000000000000000000000000000000000000000000000000000000000000000000000000000000000000000000000000000000000D3
:406DC0000000000000000000000000000000000000000000000000000000000000000000000000000000000000000000000000000000000000000000000000000000000093
:020000040003F7
:0200000480007A
:4000000001450040024F004003520040015B0040016400401200014024010140300201403E03014025040140360501400D060140300701400408014003090140020B01408B
:40004000010D0140071501400417014003190140041B01400C4001400F410140094201400843014002450140094601400D4701400948014017490140094C0140074D01407A
:4000800005500140045101407E0201100A1B003C60027C402784830206041C012002230126022E012F0231013207350238083E04580459045F01D804D904DF0100140102F2
:4000C0000402050A08800A010BF00F541101124213041502181019082088210122022384288029082A402D082F40320235023604378038023BA43F04C03EC27DC41DCACB36
:40010000CCD1CE4F00010503060108010D0311031202170318011C011D021F012001250127023102320134023701580459045F018008820484028B018C01902092109480B5
:4001400096409E01A202A404A608A810AA20AC40AE80B101B4FFBE10D602D739D804D904DB0CDF01008801020303051A09020A010BA00C420F04102A1101170118041D105A
:400180001E081F182102238025402740291A2B022F1031023440350A378039103B043C803F045A206104682A69117001720179408940930494049501960997A099089D0251
:4001C000A044A202A604B204C07DC2DDC41FCA4FCCD1CE56D604D802DE08E203E620EA800104070808040D010E011401153C191C1B201D281F14230328042D102E022F0412
:400200003003310232043301350C373038083E04520753065804590C5B045C095F01D608D804D904DB04DD90DF01004002080480051A09080C020F04100918401905210893
:4002400022642340280229012E8030083260351A380239043B403C885E406401680869446A2079408108820883808620900293A49540962899189D06A064A202AB40AF08AB
:40028000C0F3C254C403CA19CCEECE5BD610D810DE08E204E4025608580459045B045D905F01A601B001D401D804D904DB0CDF01000801020480050A0BA00C0210221180DE
:4002C000120616281902290A2A042E802F103202350A38803AA83BA03C083D803E085B805F607940914093A0948099089B809D029E80A024A202A402B402B640C0BCC21C18
:40030000C467CA53CCC1CE5ED638DE08EC40EE04B802BE01D804DF011A80EA10EE04E204E402E20387209F20B340E201E401E830EA0197409F20E602EE03AA40E602EE02E9
:40034000E201E401E830EA011108162032023380364037043A403B023E20C430CCF0CE70531057105E04830486028A0497029E409F04A104A642B380D460D680E2C03E10AB
:4003800097029E40A104A640AB10AF10CE20EEC0632096109E40A640AB01B504D840EE208110840818101B04271083108708A408A510C608C80109100B400C0843084402EF
:4003C000A308A408A510AB04B410C20ED006EA082408840496109E40AB10AE40C820E640EEC00640122013041480710874048108822087049C809E40A004AA10B080B4043F
