:400000000080002011000000BD030000BD03000008B5044B1A6803F53F5302331A6000F0D5F900BFFA46004010B5054C237833B9044B13B10448AFF300800123237010BD29
:400040006881FF1F00000000D41C0000084B10B51BB108490848AFF300800848036803B910BD074B002BFBD0BDE81040184700BF000000006C81FF1FD41C0000C880FF1FE2
:400080000000000008B501F09DFD024B01221A6008BD00BF8481FF1F30B5421CC41D0023FF2512F8011F0B4493FBF5F194420B4403F0FF03F5D1437030BD00002DE9F04148
:4000C00086B062B6FF230024019402948DF80430284E00F061FA00F099FC00F079FE0121204600F083FD244801F072FD374601F05BFD3368002BFCD03C6001F00BFDB0FA80
:4001000080F0400901F0FAFC4FF00A0803940494059400F055FA002000F05AFA0025A8B200F062FA03AA52F82530184442F825000135032DF3D1B8F10108EAD1039B0A2230
:4001400093FBF2F3ADF80630049B01A893FBF2F3ADF80830059B93FBF2F3ADF80A30FFF79BFF00F08BFE0028C3D0082101A800F067FEBEE78481FF1F850000002DE9F04128
:4001800072B6724A724D1378002443F004031370062606FB045300219A881868013401F091FD082CF5D16B486B4D002450F8041F04F1105303F1440221F0FF064533C9B2A6
:4001C0000B4452005B0002329A4206D012F8027C12F801EC07F806E0F5E7A8420C44E5D15E4B00251D605E4B5E4C1A685E4B5F4E1A605F4A5F4F137843F002031370137CD1
:4002000043F0020313742378A2F5863243F040032370413A137843F010031370564B03CBC2F8400DC2F8441D93E8070003C63280524A0C3303CB1060516003CBA2F55F62BF
:40024000C2F8000EC2F8041E1378192643F0080313704B4B61221A70A3F5F0631D221A8018229A7045F6BF529A8006229E7183F88022522203F5C0731A70424B424A1B7815
:40028000DBB21370414B4FF4E2621A8041F2512223F8022C3B784FF4F07003F0010343EA450501F0ADFC013E05F003054DD0032DF0D1374A4FF48073138036490723137074
:4002C000482000230B70887013705371324B02221A70324A324F1378DFF8DC8043F003031370274BC1221A702E4B2F4A1B783D78DBB298F8006003F00701EDB21B09117042
:40030000F6B2537045F003033B7046F0030388F80030264B3F221A70802283F8F427A02283F8132A502283F8172A0A2000F016FB1F4B88F8006044223D701E4D1A7094E84B
:400340000F0007C52B80BDE8F081FEE7E8460040D81C0000FCFFFF478400004800760040F4030048A043004008760040F05100400350014025420040D0030048125100403D
:40038000004800400F010049A146004022420040044000400640004001400040A2430040F8460040CF0100496E5800400D51004076580040B0430040F946004008B501F038
:4003C00055FC03680C2B00D1FEE7FEE780B51148114B0025C0B1A3F1100192C922460439161BB74204D051F8046F42F8046BF7E7114653F8046C8C1AA64202D041F8045BFF
:40040000F9E701381033E5E701F036FCFFF756FEFEE700BF01000000C01E0000124A134B10B51A60124A134C1368134843F4007313600023032B98BF54F823204FEA830109
:4004400088BF0E4A0133302B4250F3D10C4B1A780C4B1A700C4B084A1A60FFF78FFEBDE8104000F0ABB900BF0004FA050CED00E014ED00E0000000000080FF1FBD03000065
:40048000BC760040C080FF1F08ED00E010B541F6FF734FF480420121022000F049F941F6FF73084C1A4620700121062000F05CF96070054800F074F9BDE81040002000F0B5
:4004C00075B900BF8881FF1F0506000070B52B4D2B4C287800F09EF9687800F09BF923782E46FF2B02D100F0FFF920702278254D062319461046ADB200F010FA2A4645F6CC
:40050000A031207800F01CFA2178307800F0C0F96378FF2B03D100F0E7F9194B5870627807230621104600F0F9F9174A294692B2607800F005FA6178707800F0A9F90121DA
:40054000307800F051F90121707800F04DF901F05FFB0E4A137843F02003137001F05CFB0B4B1A7842F001021A701A7842F002021A70084B01221A6070BD00BF8881FF1F0E
:40058000CC80FF1F8A81FF1F9A81FF1F966400407665004080E200E010B5074CA3681BB9FFF774FF0123A36000F0B4F8FFF78EFF024B1B7810BD00BF8881FF1F6764004094
:4005C000024A137843F00403137070477665004004490B7803F0FF020BB90028F9D01046704700BF67640040044A054BC0F102001B8832F81000C01A00B270479A81FF1F9B
:40060000A881FF1F7047000010B501F001FB1A4A044613780A2043F001031370137C43F00103137402F5AA521832137843F003031370124B18221A7013F8012C42F040024F
:4006400003F8012C13F8012C02F0FC0203F8012CCE2203F8062CA3F597530222123B1A70074A137843F00803137000F077F92046BDE8104001F0D0BAAB43004006590040C8
:40068000275B0040082804D00A280CBF8223C22300E042230838114AC0B20428137098BF0F4A104B9DBF32F9101002EB4000428900224FF0000088BF1146188042F21073F4
:4006C0004B434FF4006103F5806393FBF1F3064912B20B60054B1A80704700BF02590040081D0000A681FF1FA081FF1FA881FF1F08B5064A0C20137843F006031370FFF799
:40070000C1FF034B00221A8008BD00BF01590040A481FF1F10B5054C23781BB9FFF7E8FF01232370BDE81040FFF76EBF9481FF1F73B515461E460B4C012300220192009281
:400740000A4601461846237000F0AEF832462946207800F085F80221207800F06FF8207802B070BDCE80FF1F73B515461E460B4C0023019300930A4601461846237000F07A
:4007800093F832462946207800F06AF80221207800F054F8207802B070BD00BFCF80FF1F014B1B681864704708ED00E04001024BC0B21870704700BF00E400E0074A7F23B7
:4007C000802113705170064A013BDBB202F80839002BF9D1034A1370704700BFD080FF1FF87B00400078004017280FD8084B0001C25C11B142F0200201E002F0DF02C25434
:40080000C25C42F00102C25400207047012070471070004017280DD8074900010B4603441A7942F004021A71435C43F00103435400207047012070471070004017280BD87F
:40084000064A0001835C490003F0F10301F00E011943815400207047012070471070004041F6FF73994208BF4FF400519A4208BF4FF4005217289FBFC00000F1804000F55E
:40088000EC4081809ABFC280002001207047000017289FBF034B00011954002088BF0120704700BF19700040172810B51AD8C00001F07F0100F1804441EAC21204F5EC4454
:4008C000D2B222709DF8082003F00F0343EA0213DBB263709DF80C30002003F00F03A370E07010BD012010BD10B501F091F90A4A5378182B0AD91478013B5370E30003F183
:40090000804303F5F0431B78137000E0FF2401F083F9204610BD00BFD080FF1F30B504060CD411F4704509D1C40004F1804404F5F0442180A270E370284630BD012030BD67
:4009400003065FBFC00000F1804000F5F04081805ABFC2800020012070470000024B1B7A584301F04DB900BFD880FF1F054A00F01F00126800F1100352F8230042F8231007
:40098000704700BF08ED00E000F01F0000F16040490100F56440C9B201707047134B144A1B78DBB20360127843EA0223114A0360127843EA0243104A0360127843EA026318
:4009C00003600E4B0E4A1B78DBB24360127843EA02230C4A4360127843EA02430A4A4360127843EA02634360704700BF0301004904010049EC46004002010049010100497F
:400A0000000100490501004906010049F8B501F0FFF8404A01261378022543F001031370137C3D4C43F0010313743C4B02F5E3521E700B3203F8945C1378074603F07F038F
:400A400013700020FFF78AFF2378354A03F0F90323701378304603F0DF031370237833432370FFF77BFF2820FFF778FF2D4B28461A7802F07F021A701A7802F0BF021A7052
:400A800023782B432370FFF769FF2378264A43F004032370002313703846537001F0BCF807211720FFF770FF20491720FFF75EFF07211820FFF768FF1D491820FFF756FF7B
:400AC00007211520FFF760FF1A491520FFF74EFF30460721FFF758FF17493046FFF746FF28460721FFF750FF14492846FFF73EFF07210320FFF748FF11490320FFF736FF64
:400B000007210C20FFF740FFBDE8F8400D490C20FFF72CBFA5430040944300409D60004012600040F85100408460004083130000AD11000081130000ED12000019130000FE
:400B4000491300008713000008B51C4B1C4A1870002313701B4A13701B4A13701B4A13701B4A13701B4A13701B4A13701B4B4FF400021A604FF080721A604FF400121A60B8
:400B800002221A6004221A6008221A60144B19B91A7802F0FE0202E01A7842F001021A70104B03221A70802203F8202C012001F027F80D4B04221A7008BD00BFBD81FF1F5F
:400BC000C081FF1FD881FF1FDB81FF1FD081FF1FDA81FF1FDD81FF1FBC81FF1F00E100E009600040286000401260004070B5074C054623780E461BB9FFF708FF01232370C8
:400C000031462846BDE87040FFF79EBF9581FF1F0A4A002313700A4A13700A4A13700A4A13700A4A13700A4A13700A4A13700A4B03221A70802203F8202C7047C081FF1FEC
:400C4000D881FF1FDB81FF1FD081FF1FDA81FF1FDD81FF1FBC81FF1F28600040024A0C2303FB002040787047DE81FF1F431E072BF0B531D8194B0C2505FB0035EC88184F91
:400C8000A4B2C4F50074A2424FF00C0404FB003488BFEA88E67884BFC2F5007292B2104C46EA12260501EE552C44D6B2667041B90C2202FB0030002343704379DBB2A37022
:400CC000F0BD0E46074F2F44751AADB2AA42EFD916F8015B3D72F7E7F0BD00BFDE81FF1FFC5F004070600040431E072B0AD8064A0C2303FB002300225A705A79034BD2B257
:400D000000011A54704700BFDE81FF1FFE5F004070B5094C094DFF2100230C26E25C06FB0252927A824204BF194602230133DBB2012BF3D0084670BDAE81FF1FDE81FF1FD0
:400D400010B51E4C2079FFF7E3FF237813F0800F63780DD0212B2ED1BDE81040184B07221A80184AC0EBC0001044586000F074BADBB2202B0ED0222B1DD1A378124A22F80F
:400D80001030124A135C43F002031354BDE8104000F042B90A4A07230A491380C0EBC0030B445360094A135C43F001031354BDE8104000F077BA002010BD00BF0060004013
:400DC000C481FF1FE880FF1FB681FF1FAA81FF1F10B5164A00231370154A164C137053702078C0B2431E072B01D8FFF77DFF6078C0B2431E072B01D8FFF776FF0E4A1378AE
:400E00008BB123787BB10D4B197861B11278082A09D8084A1278082A05D81878082894BF0020012010BD012010BD00BF9681FF1FAA81FF1FB081FF1FAC81FF1FAE81FF1FF9
:400E40000A4610B40A4B0B491B780B4CCB5C0C21DBB201FB03410C89A4B2944238BF0A8910BC014638BF92B21846FFF7FFBE00BF9681FF1FAC81FF1FDE81FF1F024B034AAA
:400E80001B78D05CFFF7EABE9681FF1FAC81FF1FC37890F9020003F0030300280FDA032B15BF0C480C4802F00103C2F3800319BFC15442F00102C15442F0040207E0032B29
:400EC0001FBF0648C2F34003C15442F002021046704700BFAC81FF1FAE81FF1FB081FF1F30B51A4A1A491B4D0878138803449BB21380194A00231488D8B2A4B27CB1082B18
:400F00000CD050680078C0B2E85450680133013050601088013880B21080ECE718460B780E4C082B0E4A00D040B10E4D2B7883F080032B700F232370022301E0022323702B
:400F40001370094B1870087030BD00BFBE81FF1FBC81FF1F00600040C481FF1FD981FF1FC081FF1F4C82FF1FDC81FF1F074B02221A70074B80221A70064B0F221A70064A1B
:400F800000231370054A012013707047C081FF1F4C82FF1FD981FF1FBC81FF1FDC81FF1F30B5164B16491B780A8803F00F03023BDBB21A4492B20A80124C134A002011880F
:400FC00089B279B173B15568215C013BC9B229705168DBB20131516011880130013989B21180ECE7094A1370094A137883F080031370084B0B221A7030BD00BF2960004066
:40100000BE81FF1F00600040C481FF1FDC81FF1F4C82FF1FD981FF1F064A06231370064A01201370054B80221A70054B00221A70704700BFC081FF1FD981FF1F4C82FF1FD0
:40104000DC81FF1F054B9A683AB19A68044910709A680988518000229A607047C481FF1FBE81FF1F08B5124B1A78D2B21A701B78DBB21A0602D50F4A137008BD0220FFF768
:40108000E1FF0D4B1B7803F06003202B05D0402B06D043B900F0ECFB04E000F0C1FD01E000F01AFD10B9034B03221A7008BD00BF28600040D981FF1F0060004008B5084A28
:4010C000084B0120197813880B449BB21380064B00221A70FFF7B6FF044B03221A7008BDBE81FF1FBC81FF1FC081FF1FD981FF1F08B50C4B1B78DBB2042B07D0062B09D0E3
:40110000022B0DD1BDE80840FFF7D8BFBDE80840FFF746BF0320FFF795FF034B03221A7008BD00BFC081FF1FD981FF1F08B5054B002201201A70FFF785FF034B03221A70EC
:4011400008BD00BFC081FF1FD981FF1F08B50A4B1A7832B11A78094942F080020A7000221A70074B002201201A70FFF76BFF054B03221A7008BD00BFDA81FF1F08600040AC
:40118000C081FF1FD981FF1F074B1B78DBB2042B05D0062B05D0022B05D1FFF7A1BEFFF7C5BFFFF7D3BF7047C081FF1F38B51D4C2378DBB2DD0634D518060AD503F00F0300
:4011C000012B2ED1FFF74EFF174B1B78190609D538BD5A0602D5FFF7D7FF03E09D0620D5FFF786FF23781B061BD4104B1A78104B1B7813430F4A13701278934211D10A4A54
:401200000849154613782078DBB2000605D41378DBB20B700B7803F00F0328788342F1D138BD38BD28600040D981FF1F4C82FF1FDC81FF1F29600040054A00231380054A83
:40124000916819B191680B7092685380704700BFBE81FF1FC481FF1F0E4808B503889BB213B9FFF783FE13E00B4B02221A700B4B00221A70FFF7E0FF094AD1799379028805
:4012800043EA012392B2934238BF0380FFF728FE012008BDC481FF1FC081FF1F4C82FF1F0060004008B50C4B04221A700B4B80221A70FFF7C1FF0A4A0120D179937943EA06
:4012C000012308490A8892B2934238BF0B80064B0B221A7008BD00BFC081FF1F4C82FF1F00600040C481FF1FD981FF1F084B01221A700F3B9B7C074B1A7B02F00302012A90
:401300001EBFDA7B82F08002DA7301225A7370470B600040DE81FF1F094B02221A700F3B93F82230074B1A7E02F00302012A1EBFDA7E82F08002DA7601225A76704700BF54
:401340000B600040DE81FF1F0B4B04221A700F3B93F83230094B93F8242002F00302012A1EBF93F8272082F0800283F82720012283F82520704700BF0B600040DE81FF1FDD
:401380007047FFF745BC00F0B1BB000070B50446184B88B003AA03F11006154618685968083303C5B3422A46F7D11B782B70FCB12223237001AD032328466370FFF7EEFAF0
:4013C000002220461146AB5C08AC04EB131414F8144C03F00F03847008AC234413F8143C0132082AC1700371417100F10400EAD108B070BD1C1D00002DE9F0411A4D012207
:401400002E460C2080274FF0080E184B00FB025C14012344187016499CF805802144B8F1000F07D09CF8044024064CBF887081F802E000E08F7000FB0261CC880132E4B22A
:401440009C71CC88092AC4F30724DC71CC88E4B21C71C988C1F307215971D6D1054BFF221A70BDE8F08100BFDE81FF1F70600040FC5F00400A600040064B074A1B7802EBD0
:40148000C30253681A7C824286BF03EBC003586900207047BD81FF1F301D00002DE9F84F424B1A78002A7ED01878414D0138C0B2FFF7E2FFA8463F4AC3681478007ADFF808
:4014C00000C1E4B203EBC0000C2600274FF0010E834268D01A78A24263D11CF80420597891425ED19A7893F8039002F07F0206FB02FA05EB0A01CF7093F802B009F0030972
:4015000081F804B093F803B005F80AB0B3F804A0A1F808A093F902A0BAF1000F0BDAB9F1010F0CBF4FF007094FF00D0981F8059081F801E009E0B9F1010F0CBF4FF00509E0
:401540004FF0090981F805904F704FEA02191A4906FB0282494481F802E0B2F808A0CAF3072A81F800A0B2F808A05FFA8AFA81F801A0B2F806A011495FFA8AFA494481F8FA
:4015800006A0B2F80690C9F3072981F80790B2F806905FFA89F981F80490D288C2F307224A71083394E7BDE8F88F00BFDB81FF1FDE81FF1FD081FF1FFC5F0040706000407C
:4015C0004A82FF1F08B5064B18780138C0B2FFF753FF20B143681B7900EBC300406908BDDB81FF1F2DE9F74F00210B46564E0C2707FB01F501317219092973554FF0000433
:401600009370DFF84491D3701381937253705371EED128B14D4A4E4B14701C7054705C704C4B1A78002A00F08C80187801270138C0B2FFF721FF80464368057ADB79ED0037
:4016400013F0400F444B4FF0000C1A784FF00C0A14BF42F0010202F0FE021A700AFB0796D8F80C40FBB204EB050B5C453AD0A07800F07F01B94233D13189B4F804E089B2B2
:40168000714538BFA6F808E02178304A94F801E0515C8E4524D13071E178317094F90200E178002801F0030106DA01290CBF07210D217171012105E001290CBF0521092109
:4016C000717100217170A17901F0F701022907D16246194620460193FFF7DAFB8446019B0834C2E70137092FB8D1D8F80C200A35931C15440C210833AB4209D013F8082C40
:4017000013F80A0C02F07F0201FB02929072F2E7FFF758FF114B0121186000230C2000FB0192D3801289013113449BB203F00102134409299BB2F2D103B0BDE8F04FFFF7AA
:401740005BBE03B0BDE8F08FDE81FF1F4A82FF1FC181FF1FDB81FF1FDD81FF1FD481FF1F114B1B7903F07F035A1E072A19D80F490C2202FB031291781B0141F00101917059
:401780000021D170517841F002015170127912F0800F074A1A4414BF8D2389239370FFF73BBC0020704700BF00600040DE81FF1FFC5F004030B4194B1A7902F07F02531E12
:4017C000072B27D8164B0C2404FB02339978154D01F0FE0199700021D97029461201505D114400F07F0050555A7802F0FD025A701A795B78120605D5012B01D18C7006E0C0
:401800000D2303E0012B0CBF082309238B7030BCFFF702BC002030BC704700BF00600040DE81FF1FFC5F004010B50D4B0D4C21791878C9B20138C0B2FFF71EFE43681B795B
:401840008B4201D2022909D8074A0848535CDBB24354A3780120DBB2535410BD002010BDDB81FF1F006000404A82FF1FC181FF1F38B5884A884C13780021DBB2218018062F
:40188000517840F188800A2900F20181DFE811F05800FF00FF00FF00FF00FF000B00FF007900FF007D00D3787A49012B09D17B4B1A787B4B03EBC2035B685B686360122302
:4018C00010E0CB78022B12D18878FFF7D5FD002800F0DD80436863606368DA7863689B7843EA02232380BDE83840FFF7B5BCCB78032B21D16B4B00228878D5B2854203D327
:40190000644A92783AB910E0187801320028F7D018780344F0E75F4A63499278097C914203D16248FFF732FD604B1A78002A00F0AE801A78228018E0BDE8384000F070B96B
:4019400013F0030313D0022B40F0A1802380514B0C211B7903F07F02554B01FB02339A78544BD2B21A7000225A706360BBE702222280514A11784F4AC9B2117053706260A4
:40198000B1E7012323804D4BEFE70123238013794B4A1344E9E701390A2978D8DFE801F037774F77067777770A7720009378454ADBB25AE0937803F0FF0153B93F4B1A78CF
:4019C000914260D01970404B01201870FFF70AFE59E0481EC0B2FFF74FFD0028EED156E0FFF722FF002852D02A4A384913791279DBB2D2B20A70364A3149D25CCB5C9A4296
:401A000041D0314B01221A70FFF748FD3BE003F00303012B2BD009D3022B38D11D4B9B78002B34D1BDE83840FFF7C4BE194B9B78012B2CD1204A137803F0FD0315E003F034
:401A40000303012B13D008D3022B20D1114B9B78EBB9BDE83840FFF783BE0E4B9B78012B15D1154A137843F0020313700BE0094B1A79012A0BD898781B791649DBB2CA5C38
:401A800022EA0002CA54BDE83840FFF7C5BA002038BD00BF00600040C481FF1FBD81FF1F301D0000941D0000761E00004F82FF1FDE81FF1F9781FF1FDD81FF1FDB81FF1F0B
:401AC0004A82FF1FDA81FF1FD881FF1FD081FF1FC181FF1F4D82FF1F034B00201A78120648BF5B78704700BF00600040024B1878C0F38010704700BF8F450040044A400010
:401B0000137800F0020003F0FD0303431370704720510040024B1878C0F34000704700BF21510040134A137803F001031370937803F0FC039370104B1A7802F0CF021A7070
:401B40001A7842F030021A701A7802F0F0021A701A7842F00F021A70084A137843F0010313700923A2F80330A2F80530044B08221A707047004F00400B4F0040014F0040B4
:401B8000034F0040074A137843F001031370137C43F00103137492F85D3B43F0010382F85D3B7047A343004008B505490B781BB9FFF7B8FF01230B70BDE80840FFF7E2BF36
:401BC0009981FF1F014B1878704700BF034F0040084A4FF40033136002F688321268E021C2F88400044A11706FF444710A441360704700BF80E100E011E400E000000000EF
:401C00000230800803D000BF01380046FCD17047EFF3108072B6704780F31088704700BF0F4A137803F00303012B0AD0022B0DD113790C2103F07F020A4B01FB02339B7ACD
:401C400000E01379DBB2022B08D800E00023064A1268D35C022B01D1FFF772B80020704700600040DE81FF1FD481FF1F014B1868704700BF6081FF1F0E4B70B51E460E4C5F
:401C80000025E41AA410A54204D056F8253098470135F8E700F0FAF8084B094C1E46E41AA4100025A54204D056F8253098470135F8E770BD981E0000981E0000981E000095
:401CC000A01E000003460244934202D003F8011BFAE7704700000000004F00400C00305100404000C0510040100000000140001000140140000800400140000A004C01407E
:401D000000020050014020000001000000040000001080000000000200000008303132333435363738394142434445460000000001000000381D000001000000761E0000C4
:401D4000000000000000000001000000501D000001000000331E0000030000007A1D00000000000000000000000000000000000000000000781D0000020A000081030800DC
:401D800002000100820240000A000100030240000A000203040309042C0343007900700072006500730073002000530065006D00690063006F006E00640075006300740033
:401DC0006F007200100355005300420055004100520054003803430044004300200043006F006D006D0075006E00690063006100740069006F006E00200049006E00740003
:401E0000650072006600610063006500260343004400430020004400610074006100200049006E0074006500720066006100630065000009024300020101803209040000ED
:401E40000102020103052400100104240202052406000105240100010705810308000A09040100020A00000407058202400000070503024000001201000202000008B404E0
:401E800032F201000102800143000000F8B500BFF8BC08BC9E4670474D0000001D040000F8B500BFF8BC08BC9E46704729000000C01E0000C880FF1FA000000010010000AC
:401EC00000000000FFFFFFFF7F800000030000000000C05D80BB000030000000006CDC0200C2010000000800C20100000008A12000000000020000000000000000000000B9
:401F0000000000000000000000000000000000000000000000000000881E0000000000000000000000000000000000000000000000000000000000000000000000000000FB
:401F40000000000000000000000000000000000000000000000000000081FF1F000000000000000000000000000000000000000000000000000000000000000000000000C2
:401F80000000000000000000000000000000000000000000000000000000000000000000000000000000000000000000000000000000000000000000000000000000000021
:401FC00000000000000000000000000000000000000000000000000000000000000000000000000000000000000000000000000000000000000000000000000000000000E1
:4020000000000000000000000000000000000000000000000000000000000000000000000000000000000000000000000000000000000000000000000000000000000000A0
:402040000000000000000000000000000000000000000000000000000000000000000000000000000000000000000000000000000000000000000000000000000000000060
:020000040003F7
:0200000480007A
:4000000001450040024F004002520040015B00400164004004000140010101400203014009040140260501402C0601403D07014001090140020B0140010D01401B140140FC
:4000400023150140221601403817014002190140011B01400B4001400F4101400C4201400943014002450140094601400B4701400648014007490140044C0140014D014021
:4000800006500140025101407E0201100A4B010C7C4027848602B908BF04D904DF012720AB20EE025608580459045B045D905F01D804D904DF0100040120038005200B407C
:4000C0000C080D200E020F4010481240160229202A422B802C082F8030083520360138043B403C043F40598060029001A801C04EC2F8C48ACAADCCA2CE5AD608D808E640A5
:40010000EA010202070108020B040E011080124013021408160418201A101C01204022802410262028042A0832FF3301350437023E045602573A580459045B0C5F018A010D
:4001400092029901A703A801B203B301B502D401D804D90CDB0CDC09DF01001005200602074808020C480D280E820F4112081715181019081E20202022182404252826605B
:4001800029082C082F803210362037093D103E043F415A405D0467206D106E046F5576427B027F028104841090019404974098029C409D20A204A408A520A601A780AD80FB
:4001C000B604C0D2C2F8C472CAA2CCE4CEF0D648D840DE18EA40E640EA01EE02020114011A01200124012C013201580459045F018101820189018F0190019401950198012C
:400200009C01A301A401A501B301B401D804D904DF0103C0074009280C210D280F61134917081B041F1025042B902C202F8030053120340437083B013F61830487109341B0
:400240009B089C01A128A380A504C018C2F6C42DCAC3CC47CEB1E801002002010301042306400A080C0410421221161018801E041F02200124E32A022C0830603101320365
:4002800034803502361C38A03E5052075306580C59045B045F01D804D904DF0103800401050406020708081009280E6A0F01122013411504164017541D041E401F90262182
:4002C000270828112B802C182F8031083220362137403B013E023F406F167F02810490019340950497209A429B409F08A008A128A214A504A601A782AA48C0F8C2F6C4FD44
:40030000CAEBCCB6CE91DE10E401EE02E401EE02E8011101168030803101340236403A043E80C430CCF0CE6053085B10628091019B049D019E04A480A640AB04AC02D4A0A2
:40034000D640EA80EE405B048D0191019B049D019F10A480A6C0A708AA04D640EA80831084809F10A480A6C0A708AD01E230E8109C80AC801A1024408F4096109C80AA10A5
:40038000C608C801E60208800B400F80430845109C80A740B440C20ED006EA022704A680A708AE40C820EE4082808708A680A708AB04E660E8808308A510A708AF40A910D5
:4003C000000101010A010B0110011A0100AB100A00000000003F3F004000000000000000C0000000000B0B0000000000000202000000000000010000000000000000000059
:4004000000000000000000000000000000000000000000000000000000000000000000000000000000000000000000000000000000000000000000000000000000000000BC
:40044000000000000000000000000000000000000000000000000000000000000000000000000000000000000000000000000000000000000000000000000000000000007C
:40048000000000000000000000000000000000000000000000000000000000000000000000000000000000000000000000000000000000000000000000000000000000003C
:4004C00000000000000000000000000000000000000000000000000000000000000000000000000000000000000000000000000000000000000000000000000000000000FC
:0200000490006A
:0400000000004005B7
:0200000490105A
:04000000BC90ACAF55
:0200000490303A
:020000005D8F12
:0200000490402A
:4000000000000000000000000000000000000000000000000000000000000000000000000000000000000000000000000000000000000000000000000000000000000000C0
:400040000000000000000000000000000000000000000000000000000000000000000000000000000000000000000000000000000000000000000000000000000000000080
:400080000000000000000000000000000000000000000000000000000000000000000000000000000000000000000000000000000000000000000000000000000000000040
:4000C0000000000000000000000000000000000000000000000000000000000000000000000000000000000000000000000000000000000000000000000000000000000000
:0200000490501A
:0C00000000012E16106900012E226DF880
:00000001FF