:400000000080002011000000350A0000350A000008B5044B1A6803F53F5302331A6000F027FD00BFFA46004010B5054C237833B9044B13B10448AFF300800123237010BDD5
:400040008081FF1F00000000643F0000084B10B51BB108490848AFF300800848036803B910BD074B002BFBD0BDE81040184700BF000000008481FF1F643F0000C880FF1F4C
:4000800000000000044A054B1168B3FBF1F304490B80002313607047F081FF1FBCEB2B00F481FF1F40F6B8310B4A136801338B4240F6B831136081BF00231360074A138042
:4000C000074A136801338B42136081BF00231360044A1380704700BFEC81FF1FE081FF1FF081FF1FF481FF1F2DE9F04101F066F9234B244E1C6800F02BFD241A204601F0BF
:400100003BFF2149804601F08BFF316801F080FE054630607068201A01F02EFF1A4902F033F84FF07C5101F07BFF18490746404601F076FF4FF082418046284601F070FFA0
:400140000146404601F064FE0146384601F060FE02F02CF90546C00F746001F0D3F840F6980385EAE570A0EBE5709842A8BF1846BDE8F041F928D8BF002080B200F074BD75
:40018000E481FF1F9C81FF1F0AD7233C0000304108B500F02FFFB0FA80F0400900F01EFF044A054B1168B3FBF1F304490B800023136008BDEC81FF1F11392B00E081FF1F2A
:4001C00008B500F035FE4FF496737F3858437F2390FBF3F0014B186008BD00BF0082FF1F10B5C32000F038FE062000F0B9FA7F30C0B200F031FE0B2000F0B2FA144C7F30DC
:40020000C0B200F029FE2088000A00F025FE207800F022FE00F09CFCA0F5004084B2200A00F01AFEE0B200F017FE082000F098FA7F30C0B200F010FE7F2000F00DFE0A20DF
:4002400000F08EFABDE810407F30C0B200F004BEE081FF1F0000000008B501F0D5FA0EA3D3E9002301F024FB0DA3D3E9002301F06DF90DA3D3E9002301F044FC0CA3D3E991
:40028000002301F015FB01F04DFDBDE80840C0B200F082BFAFF3008062105839B4C8084077BE9F1A2FDDEC3FFCA9F1D24D6210400000000000E06F402DE9F04701F0EAF82B
:4002C000304C314B3149188823890A8803EB40030320B3FBF0F392B2642A23812C4D4FF0000646D9088880B2C01A01F045FE294901F096FE02F05AF8074601F03DFE254984
:40030000824601F08DFEE16801F082FDE06080462069381A01F030FE1E4901F035FF1E4901F07EFE1D498146504601F079FE1C498246404601F074FE0146504601F068FDEC
:400340000146484601F064FD2968276101F060FD3146044602F002F840B94FF07E51204602F01AF818B14FF07E5400E034462C6003E000232361E6602E602868BDE8F04747
:40038000FFF76ABF9C81FF1FE081FF1FFC81FF1FE881FF1F0AD7A33CB00F2135BD370636FFE6DB2F08B5064901F03AFE01F0FEFFBDE8084000F6C41080B200F0CDBE00BF08
:4003C0000040034580B5002000F04EFC62B600F019FF00F0E7FB002000F0C1FB00F036FC00F0ACFE00F046FF00F0E6FD00F012FD00F0BCF800F0E0F84A4B00241C804A4B0F
:400400004A481C804A4B4B4F1C604B4B4B4D1C604B4B4C4E1C6000F087FB4B4800F0D4FF4A4801F03DF842F2107000F083FC484B002248482C6034603C801A6000F03CFF24
:40044000454800F04BFF454800F022FF3C4600F0A7FF01F011F8052000F082F9002848DA00F09CF9002844D10B2000F079F9002805DB022000F074F900EB40000CE0092015
:4004800000F06EF901F0AEF90022354B01F03AFB01F020FC376838442860032000F060F9043019DB40F6C41000F056FE072000F057F9002802DA4FF400530BE0012000F0F6
:4004C0004FF947F6BD535843264BC8220344B3FBF2F39BB2238012E000230320238000F03FF901F049FD204901F04EFEFFF75AFF05E0002340F68270238000F02DFEFFF794
:400500006FFE00F07FFD20B9286800B200F027FB04E00B2000F024F93228F5DC0A2000F009FC98E7E081FF1FF481FF1FE9000000F881FF1FFC81FF1FEC81FF1FE481FF1F95
:40054000F081FF1F0082FF1FB9020000C1010000E881FF1F9101000085000000A500000000002440D41D31000000C8C2002318460A4A0B4913700B4A136041F82300013378
:40058000122B4FF00002F8D1074B1A60074B1A60074B1A60074B1A60704700BFB081FF1F1482FF1F0C82FF1F0482FF1F5C82FF1F1082FF1F0882FF1F08B5054800F05CFD54
:4005C000012000F06BFDBDE8084000F041BD00BF0907000010B5484B484A5988DC78C1F30A0111601979480140EAD400C0F30A005C7950608909987941EA840141EA80214F
:40060000DC79C1F30A019160E10141EA5001C1F30A01D160197A080140EA1410C0F30A001061587A9C7AC90941EA400141EA4421C1F30A015161D97A880140EA9400C0F3DB
:400640000A009061187B490941EAC001D161B3F80D109C7BC1F30A011162D97B480140EAD400C0F30A001C7C50628909587C41EA840141EA80219C7CC1F30A019162E1013B
:4006800041EA5001C1F30A01D162D97C080140EA1410C0F30A0010635C7D187DC90941EA400141EA4421C1F30A015163997D880140EA9400C0F30A009063D87D49091B7EF4
:4006C00041EAC001D16313F0010118BF40F2FF711164C3F3400109B140F2FF715164C3F3C001074A01B101215B07116041BF054A13680133136010BDB081FF1F1482FF1F2F
:400700000882FF1F5C82FF1F38B5114C257800F0ADFC23782544687013B962780F2A15D10133DBB2192B01D0237038BD0023237063780F2B06D1064B5B7E1BB9FFF74AFFB7
:40074000044A00E0044A13680133136038BD00BFB081FF1F0482FF1F1082FF1F000000000138112808B510D80B4B53F82000AC3801F038F806A3D3E9002301F0C3F901F081
:40078000F1FA00F0B1FE643808BD002008BD00BFA4703D0AD76320401482FF1F014B1868704700BF0882FF1FF8B572B67F4A804D1378002443F004031370062606FB0453BC
:4007C00000219A881868013401F04DFE082CF5D180227849784801F03BFE784D7848002450F8041F04F1105303F1520221F0FF065333C9B20B4452005B000232934206D0D8
:4008000012F8027C12F801EC07F806E0F5E7A8420C44E5D16B4B6C4A6C4E1A60A2F58022C3F8002A6A4A6B4C1378192543F002031370137C684F43F0020313743378A2F594
:40084000863243F040033370413A137843F010031370624A624B07CA03C31A80614AB83307CA03C31A80604A1068C3F803001279DA715E4A5E4B03CB1060516003CB42F889
:40088000E00C42F8DC1C93E8070003C42280594A0C3303CBA2F56162C2F8141EC2F8100E1378002443F008031370534B61221A70A3F5F06301221C809D709A804F4A1823A1
:4008C0000F21137051803B211371D1806721137251814FF41C711373D18142F27F5113745182137545F6BF52454B1A8006229D7083F86422522203F5B2731A70414B424AF7
:400900001B78DBB21370414B4FF4E2621A8041F2512223F8022C3B784FF4F07003F0010343EA440400F0D0FD013D04F003043CD0032CF0D1364A4FF48073138035490723D3
:400940001370482000230B70887013705371324B02221A7093F8A123FF2283F8A123C12283F8FF2703F5F823012203331A702B4B2B4A1B782B4CDBB203F007011B09117039
:400980005370294B08221A70284A202313701372274B4FF481721A804422A3F534731A7096E80F0007C42380F8BDFEE7E8460040683F0000B810004880080140A0000048B3
:4009C000FCFFFF475804014004040484A043004003500140205100402542004038110048005100404411004850110048F2510040581100483251004000480040864000408D
:400A00009C4000400F010049A146004022420040044000400640004001400040CF0100496E580040B0430040CD510040905A0040465B004008B501F0DFFC03680C2B00D134
:400A4000FEE7FEE7084908B50B68084A1844821A802A01DC086005E001F0CEFC0C2303604FF0FF33184608BDCC80FF1F7082FF1F80B51148114B0025C0B1A3F1100192C932
:400A800022460439161BB74204D051F8046F42F8046BF7E7114653F8046C8C1AA64202D041F8045BF9E701381033E5E701F0AAFCFFF788FCFEE700BF01000000FC4000002C
:400AC000104A114B10B41A60104A114C1368114843F4007313600023032B98BF54F823204FEA830188BF0C4A0133302B4250F3D10A4B1A780A4B1A700A4B064A10BC1A6033
:400B0000FFF752BE0004FA050CED00E014ED00E0000000000080FF1F350A0000BC760040C080FF1F08ED00E0074A4FF48023136002F688321268E021C2F88800034A117089
:400B4000A2F212321360704780E100E012E400E008B500F09DF8A0F5004000B208BDA0F5004080B200F08EB8024B187800F00F00704700BF6764004008B5084B0F221A7069
:400B8000FFF7F2FF00F0A8FC054A137843F010031370BDE8084000F0A3BC00BF876400409764004008B500F0B7F84FF4004000F069F8044B1A780AB901221A70BDE8084048
:400BC000FFF7DABFCA81FF1F024A137843F080031370704778640040034A04491378DB0601D50B88FAE7704768640040B268004008B5144A1378103203F0C00343F00903D0
:400C000002F8103C537C43F001035374937C43F00103937440F6C413A2F88A33A2F80A340023A2F8CA33137000F056FC064A137843F01003137000F053FCBDE80840FFF7D3
:400C4000CBBF00BF786400409864004010B5054C23781BB9FFF7CCFF01232370BDE81040FFF7B2BFCB81FF1F014B1880704700BF52680040024A137843F0800313707047F5
:400C800072640040014B1880704700BF0C6A0040024B1B78024B188880B27047066500408C6A0040034A044913785B0601D50B88FAE77047646400408C6A004008B5124B98
:400CC0001A7802F0F8021A701A7802F0FC021A70FFF7E8FF0D4A4FF400431380002122F8403CA2F5B9621170203A1278084A138000F0F2FB074A137843F010031370BDE8B9
:400D0000084000F0EDBB00BF726400404C6A00406C6A00409464004010B5054C23781BB9FFF7CCFF01232370BDE81040FFF7A2BFCC81FF1F38B50446084DB4F5004F05D9A4
:400D4000286800F0C1FBA4F50044F6E7034B58686043BDE8384000F0B7BB00BFD080FF1F054A00F01F00126800F1100352F8230042F82310704700BF08ED00E000F01F0010
:400D800000F16040490100F56440C9B20170704708B50B4B72221A70202283F8FF2009490720FFF7DDFF07210846FFF7E7FF064B06221A7047221A74022283F8642008BD90
:400DC00086640040BD0E00002764004010B500F083FB04460D4A137843F02003137092F8FF3043F0100382F8FF30537943F010035371074A80231360A2F5C072136000F0EA
:400E000085F82046BDE8104000F06ABB9664004080E200E010B5054C23781BB9FFF7B8FF01232370BDE81040FFF7D0BFCD81FF1F074B1B78DBB203F0200202F0FF002AB127
:400E4000044A13F01E0F107818BF0020704700BF656500404664004010B5134CA3786278D2B2934202D2511E994201E0991A072914BF002101210029F1D193420B4A05D1B6
:400E80001178490702D40A4B187010BD082B094928BF0023C8540133A37013789B0742BF054B80221A6010BDCD81FF1F6B6400404B6400406082FF1F00E200E00E4AF0B557
:400EC00011460E4C0E480F4D0F4E137827789F4211D0037813F004030DD11778072F88BF13700B78DBB2EB5CDBB233700B780133DBB20B70E9E7F0BDCE81FF1FCF81FF1FB6
:400F00006B6400406082FF1F4B640040044A137843F010031370137C43F0100313747047A2430040044A137843F004031370137C43F0040313747047A8430040054B00F0D1
:400F400002001A7802F0FD021A701A7810431870704700BF28580040064B074A1B78C3F3810303F19243063393F82831DBB21370704700BF285800400A460040054B00F054
:400F80000C001A7802F0F3021A701A7810431870FFF7E2BF2858004008B5064B0021197004205970FFF7EAFFBDE808400846FFF7C5BF00BF2858004010B5064C23781BB920
:400FC000FFF7EAFF01232370FFF7ACFF024BCE221A7010BDD181FF1F825B0040044A4000137800F0020003F0FD0303431370704720510040024B1878C0F34000704700BF24
:4010000021510040024B1878C0F38000704700BF21510040034B72221A70202203F8062C704700BF8A65004008B500F055FA074A137843F02003137012F8063C43F0100303
:4010400002F8063CBDE8084000F04ABA9A65004008B505490B781BB9FFF7DCFF01230B70BDE80840FFF7E0BFD281FF1F014B1878704700BF44650040064A1023136002F626
:4010800088321268E0211065034A1170A2F541721360704780E100E004E400E04001024BC0B21870704700BF04E400E0024A137843F080031370704770640040034A044900
:4010C0001378DB0601D50B88FAE7704765640040A868004010B5164A164C137803F0C00343F00903137092F8243043F0010382F82430237843F0010323704EF66023A2F8F7
:401100009833A2F818340C4B4FF47A721A800022A3F2C3331A7000F0DFF9237843F01003237000F0DDF9BDE81040FFF7C7BF00BF70640040956400404868004010B5054C22
:4011400023781BB9FFF7C6FF01232370BDE81040FFF7ACBFD381FF1F014B1880704700BF48680040044A137843F008031370137C43F0080313747047A8430040054B00F06C
:4011800002001A7802F0FD021A701A7810431870704700BF2C580040014B1870704700BF835B0040064B074A1B78C3F3810303F19243063393F83831DBB21370704700BF26
:4011C0002C5800400B460040054B00F00C001A7802F0F3021A701A7810431870FFF7E2BF2C58004008B5064B0021197004205970FFF7EAFFBDE808400846FFF7BFBF00BF91
:401200002C58004010B5064C23781BB9FFF7EAFF01232370FFF7A6FF024B38221A7010BDD481FF1F835B0040084A137843F060031370A2F5A652133A137843F00803137086
:40124000137C43F008031374704700BF77580040054B00F003001A7802F0FC021A701A7810431870704700BF5E5800400320FFF7EFBF000008B5054B1A781AB901221A7087
:40128000FFF7F4FFBDE80840FFF7CEBFD581FF1F074A2023136002F688321268E0215065044A11706FF441710A441360704700BF80E100E005E400E0064A0423136002F671
:4012C00088321268E0219064034A1170A2F202321360704780E100E002E400E0074A0223136002F688321268E0215064044A11706FF440710A441360704700BF80E100E0D9
:4013000001E400E0044AC000137800F0080003F0F70303431370704720510040134A137803F001031370937803F0FC039370104B1A7802F0CF021A701A7842F030021A701D
:401340001A7802F0F0021A701A7842F00F021A70084A137843F0010313700923A2F80330A2F80530044B08221A7070470C4F0040174F00400D4F00400F4F0040074A13789E
:4013800043F002031370137C43F00203137492F8693B43F0010382F8693B7047A343004008B505490B781BB9FFF7B8FF01230B70BDE80840FFF7E2BFD681FF1F014B187841
:4013C000704700BF0F4F0040084A4FF40033136002F688321268E021C2F88400044A11706FF444710A441360704700BF80E100E011E400E0134A137803F001031370937892
:4014000003F0FC039370104B1A7802F0CF021A701A7842F030021A701A7802F0F0021A701A7842F00F021A70084A137843F0010313700123A2F80330A2F80530044B0822CE
:401440001A707047004F00400B4F0040014F0040034F0040074A137843F001031370137C43F00103137492F85D3B43F0010382F85D3B7047A343004008B505490B781BB953
:40148000FFF7B8FF01230B70BDE80840FFF7E2BFD781FF1F014B1878704700BF034F0040064A0823136002F688321268E021D064034A1170A2F203321360704780E100E0B1
:4014C00003E400E0000000000230800803D000BF01380046FCD17047EFF3108072B6704780F31088704700BF10B5C0F3C7540028A4F17F02B4BF4FF0FF3101211E2A0CDCFF
:40150000002A17DBC0F31603162A43F4000307DD963CA34001FB03F010BD00F047FF10BD4FF4800010410344C2F11702D34001FB03F010BD01320CBF0846002010BD00BF03
:4015400081F0004102E000BF83F0004330B54FEA41044FEA430594EA050F08BF90EA020F1FBF54EA000C55EA020C7FEA645C7FEA655C00F0E2804FEA5454D4EB5555B8BFBF
:401580006D420CDD2C4480EA020281EA030382EA000083EA010180EA020281EA0303362D88BF30BD11F0004F4FEA01314FF4801C4CEA113102D0404261EB410113F0004FAD
:4015C0004FEA03334CEA133302D0524263EB430394EA050F00F0A780A4F10104D5F1200E0DDB02FA0EFC22FA05F2801841F1000103FA0EF2801843FA05F359410EE0A5F11B
:4016000020050EF1200E012A03FA0EFC28BF4CF0020C43FA05F3C01851EBE37101F0004507D54FF0000EDCF1000C7EEB00006EEB0101B1F5801F1BD3B1F5001F0CD3490834
:401640005FEA30004FEA3C0C04F101044FEA445212F5800F80F09A80BCF1004F08BF5FEA500C50F1000041EB045141EA050130BD5FEA4C0C404141EB010111F4801FA4F1B6
:401680000104E9D191F0000F04BF01460020B1FA81F308BF2033A3F10B03B3F120020CDA0C3208DD02F1140CC2F10C0201FA0CF021FA02F10CE002F11402D8BFC2F1200CC3
:4016C00001FA02F120FA0CFCDCBF41EA0C019040E41AA2BF01EB0451294330BD6FEA04041F3C1CDA0C340EDC04F11404C4F1200220FA04F001FA02F340EA030021FA04F341
:4017000045EA030130BDC4F10C04C4F1200220FA02F001FA04F340EA0300294630BD21FA04F0294630BD94F0000F83F4801306BF81F480110134013D4EE77FEA645C18BFEB
:401740007FEA655C29D094EA050F08BF90EA020F05D054EA000C04BF1946104630BD91EA030F1EBF0021002030BD5FEA545C05D14000494128BF41F0004130BD14F58004DA
:401780003CBF01F5801130BD01F0004545F0FE4141F470014FF0000030BD7FEA645C1ABF194610467FEA655C1CBF0B46024650EA013406BF52EA033591EA030F41F400215E
:4017C00030BD00BF90F0000F04BF0021704730B54FF4806404F132044FF000054FF0000150E700BF90F0000F04BF0021704730B54FF4806404F1320410F0004548BF404233
:401800004FF000013EE700BF42004FEAE2014FEA31014FEA02701FBF12F07F4393F07F4F81F06051704792F0000F14BF93F07F4F704730B54FF4607401F0004521F0004154
:4018400020E700BF50EA010208BF704730B54FF000050AE050EA010208BF704730B511F0004502D5404261EB41014FF4806404F132045FEA915C3FF4DCAE4FF003025FEA35
:40188000DC0C18BF03325FEADC0C18BF033202EBDC02C2F1200300FA03FC20FA02F001FA03FE40EA0E0021FA02F11444C1E600BF70B54FF0FF0C4CF4E06C1CEA11541DBF0F
:4018C0001CEA135594EA0C0F95EA0C0F00F0DEF82C4481EA030621EA4C5123EA4C5350EA013518BF52EA033541F4801143F4801338D0A0FB02CE4FF00005E1FB02E506F08E
:401900000042E0FB03E54FF00006E1FB03569CF0000F18BF4EF0010EA4F1FF04B6F5007F64F5407404D25FEA4E0E6D4146EB060642EAC62141EA55514FEAC52040EA5E505A
:401940004FEACE2EB4F1FD0C88BFBCF5E06F1ED8BEF1004F08BF5FEA500E50F1000041EB045170BD06F0004646EA010140EA020081EA0301B4EB5C04C2BFD4EB0C0541EA68
:40198000045170BD41F480114FF0000E013C00F3AB8014F1360FDEBF002001F0004170BDC4F10004203C35DA0C341BDC04F11404C4F1200500FA05F320FA04F001FA05F29D
:4019C00040EA020001F0004221F0004110EBD37021FA04F642EB06015EEA430E08BF20EAD37070BDC4F10C04C4F1200500FA04F320FA05F001FA04F240EA020001F00041E7
:401A000010EBD37041F100015EEA430E08BF20EAD37070BDC4F1200500FA05F24EEA020E20FA04F301FA05F243EA020321FA04F001F0004121FA04F220EA020000EBD37087
:401A40005EEA430E08BF20EAD37070BD94F0000F0FD101F00046400041EB010111F4801F08BF013CF7D041EA060195F0000F18BF704703F00046520043EB030313F4801F4C
:401A800008BF013DF7D043EA0603704794EA0C0F0CEA135518BF95EA0C0F0CD050EA410618BF52EA4306D1D181EA030101F000414FF0000070BD50EA410606BF10461946A2
:401AC00052EA430619D094EA0C0F02D150EA013613D195EA0C0F05D152EA03361CBF104619460AD181EA030101F0004141F0FE4141F470014FF0000070BD41F0FE4141F49F
:401B0000780170BD70B54FF0FF0C4CF4E06C1CEA11541DBF1CEA135594EA0C0F95EA0C0F00F0A7F8A4EB050481EA030E52EA03354FEA013100F088804FEA03334FF080551F
:401B400045EA131343EA12634FEA022245EA111545EA10654FEA00260EF000419D4208BF964244F1FD0404F5407402D25B084FEA3202B61A65EB03055B084FEA32024FF43A
:401B800080104FF4002CB6EB020E75EB030E22BFB61A754640EA0C005B084FEA3202B6EB020E75EB030E22BFB61A754640EA5C005B084FEA3202B6EB020E75EB030E22BFAB
:401BC000B61A754640EA9C005B084FEA3202B6EB020E75EB030E22BFB61A754640EADC0055EA060E18D04FEA051545EA16754FEA06164FEAC30343EA52734FEAC2025FEA5C
:401C00001C1CC0D111F4801F0BD141EA00014FF000004FF0004CB6E711F4801F04BF01430020B4F1FD0C88BFBCF5E06F3FF6AFAEB5EB030C04BFB6EB020C5FEA500C50F16F
:401C4000000041EB045170BD0EF0004E4EEA113114EB5C04C2BFD4EB0C0541EA045170BD41F480114FF0000E013C90E645EA060E8DE60CEA135594EA0C0F08BF95EA0C0FBF
:401C80003FF43BAF94EA0C0F0AD150EA01347FF434AF95EA0C0F7FF425AF104619462CE795EA0C0F06D152EA03353FF4FDAE1046194622E750EA410618BF52EA43067FF454
:401CC000C5AE50EA41047FF40DAF52EA43057FF4EBAE12E74FEA410212F5001215D211D56FF47873B3EB625212D94FEAC12343F0004343EA505311F0004F23FA02F018BFB4
:401D0000404270474FF00000704750EA013005D111F0004008BF6FF0004070474FF00000704700BF4A0011D212F5001211D20DD56FF47873B3EB62520ED44FEAC12343F043
:401D4000004343EA505323FA02F070474FF00000704750EA013002D14FF0FF3070474FF0000070474FEA4102B2F1E04324BFB3F5001CDCF1FE5C0DD901F0004C4FEAC0020D
:401D80004CEA5070B2F1004F40EB830008BF20F00100704711F0804F21D113F13872BCBF01F00040704741F480114FEA5252C2F11802C2F1200C10FA0CF320FA02F018BFF0
:401DC00040F001004FEAC1234FEAD32303FA0CFC40EA0C0023FA02F34FEA4303CCE77FEA625307D150EA01331EBF4FF0FE4040F44000704701F0004040F0FE4040F400002B
:401E0000704700BF80F0004002E000BF81F0004142001FBF5FEA410392EA030F7FEA226C7FEA236C6AD04FEA1262D2EB1363C1BFD218414048404140B8BF5B42192B88BF52
:401E4000704710F0004F40F4000020F07F4018BF404211F0004F41F4000121F07F4118BF494292EA030F3FD0A2F1010241FA03FC10EB0C00C3F1200301FA03F100F00043DA
:401E800002D5494260EB4000B0F5000F13D3B0F1807F06D340084FEA310102F10102FE2A51D2B1F1004F40EBC25008BF20F0010040EA03007047490040EB000010F4000FBD
:401EC000A2F10102EDD1B0FA80FCACF1080CB2EB0C0200FA0CF0AABF00EBC25052421843BCBFD0401843704792F0000F81F4000106BF80F400000132013BB5E74FEA41035C
:401F00007FEA226C18BF7FEA236C21D092EA030F04D092F0000F08BF0846704790EA010F1CBF0020704712F07F4F04D1400028BF40F00040704712F100723CBF00F5000097
:401F4000704700F0004343F0FE4040F4000070477FEA226216BF08467FEA23630146420206BF5FEA412390EA010F40F4800070474FF0000304E000BF10F0004348BF404279
:401F80005FEA000C08BF704743F0964301464FF000001CE050EA010208BF70474FF000030AE000BF50EA010208BF704711F0004302D5404261EB41015FEA010C02BF844653
:401FC0000146002043F0B64308BFA3F18053A3F50003BCFA8CF2083AA3EBC25310DB01FA02FC634400FA02FCC2F12002BCF1004F20FA02F243EB020008BF20F0010070474B
:4020000002F1200201FA02FCC2F1200250EA4C0021FA02F243EB020008BF20EADC7070474FF0FF0C1CEAD0521EBF1CEAD15392EA0C0F93EA0C0F6FD01A4480EA010C400226
:4020400018BF5FEA41211ED04FF0006343EA501043EA5111A0FB01310CF00040B1F5000F3EBF490041EAD3715B0040EA010062F17F02FD2A1DD8B3F1004F40EBC25008BF52
:4020800020F00100704790F0000F0CF0004C08BF49024CEA502040EA51207F3AC2BFD2F1FF0340EAC250704740F400004FF00003013A5DDC12F1190FDCBF00F000407047A5
:4020C000C2F10002410021FA02F1C2F1200200FA02FC5FEA310040F1000053EA4C0308BF20EADC70704792F0000F00F0004C02BF400010F4000F013AF9D040EA0C0093F066
:40210000000F01F0004C02BF490011F4000F013BF9D041EA0C018FE70CEAD15392EA0C0F18BF93EA0C0F0AD030F0004C18BF31F0004CD8D180EA010000F00040704790F05D
:40214000000F17BF90F0004F084691F0000F91F0004F14D092EA0C0F01D142020FD193EA0C0F03D14B0218BF084608D180EA010000F0004040F0FE4040F40000704740F0B1
:40218000FE4040F4400070474FF0FF0C1CEAD0521EBF1CEAD15392EA0C0F93EA0C0F69D0A2EB030280EA010C49024FEA402037D04FF0805343EA111143EA10130CF00040F4
:4021C0008B4238BF5B0042F17D024FF4000C8B4224BF5B1A40EA0C00B3EB510F24BFA3EB510340EA5C00B3EB910F24BFA3EB910340EA9C00B3EBD10F24BFA3EBD10340EA25
:40220000DC001B0118BF5FEA1C1CE0D1FD2A3FF650AF8B4240EBC25008BF20F0010070470CF0004C4CEA50207F32C2BFD2F1FF0340EAC250704740F400004FF00003013A20
:4022400037E792F0000F00F0004C02BF400010F4000F013AF9D040EA0C0093F0000F01F0004C02BF490011F4000F013BF9D041EA0C0195E70CEAD15392EA0C0F08D14202B1
:402280007FF47DAF93EA0C0F7FF470AF084676E793EA0C0F04D14B023FF44CAF08466EE730F0004C18BF31F0004CCAD130F000427FF45CAF31F000437FF43CAF5FE700BF2D
:4022C0004FF0FF3C06E000BF4FF0010C02E000BF4FF0010C4DF804CD4FEA40024FEA41037FEA226C18BF7FEA236C11D001B052EA530C18BF90EA010F58BFB2EB030088BF26
:40230000C81738BF6FEAE17018BF40F0010070477FEA226C02D15FEA402C05D17FEA236CE4D15FEA412CE1D05DF8040B704700BF844608466146FFE70FB5FFF7C9FF0028CC
:4023400048BF10F1000F0FBD4DF808EDFFF7F4FF0CBF012000205DF808FB00BF4DF808EDFFF7EAFF34BF012000205DF808FB00BF4DF808EDFFF7E0FF94BF012000205DF8D8
:4023800008FB00BF4DF808EDFFF7D2FF94BF012000205DF808FB00BF4DF808EDFFF7C8FF34BF012000205DF808FB00BF4FEA4002B2F1FE4F0FD34FF09E03B3EB12620DD948
:4023C0004FEA002343F0004310F0004F23FA02F018BF404270474FF00000704712F1610F01D1420205D110F0004008BF6FF0004070474FF000007047014B1868704700BFB3
:402400004081FF1F0E4B70B51E460E4C0025E41AA410A54204D056F8253098470135F8E701F052FE084B094C1E46E41AA4100025A54204D056F8253098470135F8E770BDB5
:40244000D4400000D4400000D4400000DC40000010B5431E0A44914204D011F8014B03F8014FF8E710BD03460244934202D003F8011BFAE770472DE9F04788B0149F002B55
:402480001E461299B8BF03F1004327F02007B6BF1E4600232D23462F1446109DDDF84CA00B7003D0452F03D1013501E0032300E0022307AA049206AA03928DE8280422462B
:4024C000334600F0B9FB472F804602D1119BDB0728D5462F08EB050911D198F80030302B0AD1002200232046314601F0F3FC18B9C5F10105CAF80050DAF800309944002235
:4025000000232046314601F0E5FC08B9302202E0CDF81C9006E0079B994503D9591C07911A70F8E74046079B159AC8EB0303136008B0BDE8F087034673B50029B8BF494238
:4025400003F8022BB4BF2D222B22092942701ADD0DF1070216460A2591FBF5F405FB1411092C01F1300102F8011D2146F4DC3031541E02F8011CB4421A460AD214F8012B22
:4025800003F8012BF7E71A463024214402F8024B5970101A02B070BD2DE9F04F91B00C46DDF8688016461F46054601F0DDF803681846099300F0AAFA00230E93D8F80030B0
:4025C0000A90073323F0070303F1080294F81890D4F800B0C8F80020D3E90023C4E91223D4F84CA0D4F848802AF000430B934FF0FF32A74B40460B9901F09EFCA0B94FF0A5
:40260000FF32A34B40460B9901F078FC60B9002200234046514601F067FC10B12D2384F843309C4B9C4A0AE0424653464046514601F082FC002800F09281984B984AB9F11F
:40264000470F8CBF90469846032323612BF0040323604FF0000A3DE0B9F1670F00F08A81B9F1470F00F0868123600193636800210DF1330205900292009342465346069194
:40268000CDF81090CDF80CE02846FFF7F4FE09F0DF03472B804600F08481B9F1650F0D9900F28D8101394A4604F150000D91FFF742FF0E9A82468318012A236100F37C8154
:4026C0002268D10700F178819DF8333013B12D2384F84330009733460FAA2146284600F09FF9013002D14FF0FF3096E123685A0501D4236965E0B9F1650F40F2D580D4E992
:4027000012010022002301F0E5FB78B30123654A31462846B8470130E5D00E9B0D9A9A420BDB2368D80708D423689B0740F111814FF0000804F1190906E10A9B099A31465C
:402740002846B8470130CED04FF0000804F11A090E9B013B9845E7DA01234A4631462846B8470130BFD008F10108F1E70D9B002B29DC01234B4A31462846B8470130B2D0E1
:402780000D9B23B90E9B13B92368D907CCD50A9B099A31462846B8470130A4D04FF0000904F11A0A0D9B5B42994509DA0123524631462846B847013095D009F10109F1E7CA
:4027C0000E9B4246A7E00E9AA36D9A42A8BF1A46002A914606DC4FF0000A29EAE97904F11A0B11E01346314642462846B8470130F1D178E701235A4631462846B84701302A
:402800003FF471AF0AF1010AA36DC9EB03029245F0DB08EB03090D9A0E9B9A420FDB2368DA070CD40E9B0D9A9844C9EB08089B1A9845A8BF9846B8F1000F08DC0FE00A9B7C
:40284000099A31462846B8470130EBD14BE743464A4631462846B84701303FF444AF4FF0000928EAE87804F11A0A09E00123524631462846B84701303FF435AF09F10109B6
:402880000D9A0E9B9B1AC8EB03039945EEDB4BE7FFFFEF7F9A3F00009E3F0000A23F0000A63F0000AA3F00000E9A012A01DCDB0738D50123424631462846B84701303FF41D
:4028C00012AF0A9B099A31462846B84701303FF40AAFD4E912010022002301F0FBFA20B14FF0000804F11A090EE00E9B08F10102013B19E001234A4631462846B847013012
:402900003FF4F1AE08F101080E9B013B9845F1DB534604F1500231462846B84701307FF403AFE0E64246012331462846B8470130EED1D8E601234A4631462846B84701304E
:402940003FF4D1AE08F10108E3680F9A9B1A9845F0DBE0680F9B9842B8BF18465DE062680EA8531C0DF1340E4BF480637FF474AE062201E012B90122626075E600210691C2
:402980000DF133018DE80C00236005904246CDF81090CDF80CE0029153462846FFF76BFD80460D9BD81C02DB626893421DDDA9F102095FFA89F970E60133236184E6B9F13C
:4029C000660F14D10029636807DD216113B92268D2071DD501330B4419E013B92268D00701D5023313E0012311E04FF067090D9B0E9A934205DB22682361D10708D501339B
:402A000005E0002BD4BFC3F102030123134423610D9B4FF0000AA36556E611B0BDE8F08F2DE9F04791461F460A698B6806469342B8BF1346C9F8003091F843200C46DDF83D
:402A4000208012B10133C9F800302368990642BFD9F800300233C9F80030256815F0060510D104F1190A07E00123524639463046C04701301AD00135E368D9F800209B1A05
:402A80009D42F1DB94F843302268003318BF012392060FD5E118302081F843005A1C94F845102244023382F8431003E04FF0FF30BDE8F08704F1430239463046C0470130A0
:402AC000F4D02268D9F80050E36802F00602042A08BF5D1B2269A3680CBF25EAE57500259342C4BF9B1AED184FF000091A344D4509D00123224639463046C0470130D5D055
:402B000009F10109F3E70020BDE8F087034613F8012B002AFBD1181A013870472DE9F74F03690C6980469C427FDC013C01F114074FEA840E00F1140606EB0E0357F82450C2
:402B4000019356F824300135B3FBF5F507EB0E09C5B34FF0000A3846B446D34650F8043B9AB205FB02A21B0C4FEA124A05FB03A392B2C2EB0B0BBCF800204FEA134A5A440E
:402B80001FFA83FBDCF800308145CBEB134303EB224392B242EA03424FEA234B4CF8042BDCD256F80E306BB9019B043B9E421A4602D3C8F8104005E01268043B002AF8D197
:402BC000013CF3E7404600F0E8FF00282BDB304601354FF0000E57F8042B036891B2C1EB0E0E120C99B27144C2EB134303EB214389B24FEA234EB94541EA034340F8043B08
:402C0000E9D256F8242006EB840362B9043B9E421A4602D3C8F8104005E01268043B002AF8D1013CF3E7284600E0002003B0BDE8F08F0000000000002DE9F04F456A95B01A
:402C40008246219CCDE9022345B9102000F090FDCAF82400456085600560C560DAF82430196859B15A68012393404A608B60504600F0BBFDDAF8243000221A60039BA04AC8
:402C8000002BBDBF01232360039B0023BCBF23F000430393DDF80C80A8BF236028F000431B0D1B0593421DD142F20F73209A1360029B43B9934A944BC8F31300002814BFEC
:402CC0001846104600E09048229B002B00F04685C37813B100F1080300E0C31C229A136000F03CBDDDE90245002200232046294601F0F0F8074658B1209A01231360229B8F
:402D0000002B00F01E8581481860013800F026BD12AB019313AB009322462B46504600F0B7FFC8F30A56049056B1C5F3130343F07F51204641F44011A6F2FF3611971DE0EC
:402D4000139B129E1E4406F23243202B0ADD029A06F21240C3F1400322FA00F008FA03F3184304E0C3F12000029B03FA00F0FEF729FD0123A1F1F871013E11930022644B88
:402D8000FEF7E2FB58A3D3E90023FEF791FD58A3D3E90023FEF7DAFB044630460D46FEF721FD55A3D3E90023FEF782FD02460B4620462946FEF7CAFB04460D46FEF78AFF8C
:402DC0000022834600232046294601F08DF858B15846FEF707FD02460B462046294601F079F808B90BF1FF3BBBF1160F0DD8DDE90223484901EBCB01D1E9000101F092F8F3
:402E000030B10BF1FF3B002300E00123109300E01090129B9E1B731E079343BFC3F10008002307934FF00008BBF1000F06DB079BCDF82CB05B440793002705E00023CBEBE1
:402E40000808CBF100070B931E9B092B28D8052BC4BF043B1E931E9BC8BF0025A3F10203D8BF0125032B20D8DFE803F0060E0204012302E0012308E000230A931F9B002BE5
:402E80001DDD9946059321E000230A931F9B0BEB030909F10103012B0593B8BF012315E0012500231E930A9501E001230A934FF0FF390022CDF8149012231F9206E04FF08A
:402EC00001094B46CDF81490CDF87C90DAF8244000226260042101F114029A421CD86268490001326260F6E761436F63A787D23FB3C8608B288AC63FFB799F501344D33F63
:402F00000000F07FAC3F0000B53F0000AB3F00000000F83FC83F00006168504600F030FCDAF8243020601B680693059B0E2B00F25B81002D00F05881DDE90234BBF1000F8A
:402F4000CDE90E3430DD9F4A0BF00F034FEA2B1502EBC303E80618CBCDE908340CD5DDE90E01994B05F00F05D3E90823FEF7CAFD0324CDE9020100E00224934E6DB1E9074C
:402F800008D5DDE90801D6E90023FEF791FCCDE9080101346D100836F0E7DDE90823DDE90201FEF7AFFD20E0CBF1000505B3DDE90E01844B05F00F0203EBC203D3E900236B
:402FC000FEF776FCCDE902017F4E2D110023022455B1EA0705D5D6E90023FEF769FC013401236D100836F3E71BB1CDE9020100E00224109BE3B1DDE902560022734B28462C
:40300000314600F071FF98B1059B8BB1B9F1000F40F3E6800BF1FF330893314600226C4B2846FEF745FC0134CDE902014E4602E0059ECDF820B02046FEF7D4FBDDE90223D4
:40304000FEF736FC634B0022FEF780FAA1F1507304460C931D46D6B9DDE9020100225E4BFEF772FA22460C9BCDE9020100F05AFF002840F03F820C99224601F10043DDE993
:40308000020100F031FF002840F02B82A8E00A9A4C4B711E002A49D003EBC103D3E9002300204E49FEF72EFD22462B46FEF74CFACDE90C01069CDDE90201FEF70BFE054660
:4030C000FEF790FB02460B46DDE90201FEF73CFADDE90C23303504F8015BCDE9020100F003FF002840F01D83DDE9022300203749FEF72AFADDE90C2300F0F6FE002840F099
:40310000D180069BE31AB3426ADADDE90C0100222F4BFEF7CDFB0022CDE90C01DDE902012B4BFEF7C5FBCDE90201C4E703EBC1012246D1E900012B46FEF7BAFB069BCDE9B9
:403140000C011D469C19DDE90201FEF7C3FD0646FEF748FB02460B46DDE90201FEF7F4F9303605F8016BAC42CDE902014FF0000222D11A4BDDE90C01FEF7E8F902460B4693
:40318000DDE9020100F0CEFE002840F08B80DDE90C2300201149FEF7D7F902460B46DDE9020100F0A1FED8B114F8013C621E302B40F0B7821446F7E7054BFEF779FBCDE945
:4031C0000201C0E7C83F0000A04000000000F03F0000244000001C40000014400000E03FDDE90E34CDE90234139B002B7CDBBBF10E0F79DCAB4B03EBCB03D3E900671F9B0B
:40320000002B14DA059B002B11DC40F06C810022A54B30463946FEF74BFBDDE9022300F077FE059D2E46002840F05F8165E1069CDDE9028932463B4640464946FEF762FC26
:40324000FEF748FD0546FEF7CDFA32463B46FEF72FFB0B46024649464046FEF775F905F1300E069B04F801EBC3EB040E059B73452DD102460B46FEF769F980468946024644
:403280000B463046394600F02FFE78B942464B463046394600F01EFE002800F04482EB0704D440E2DDF820B000E01C4614F8012C631E392A07D1069A9A42F6D10699302286
:4032C0000BF1010B0A701A7801321A702BE20022764BFEF7EDFA002200238046894600F0F9FD0028A6D01EE20A9A002A2BD01E9A012A0ADC119A12B103F2334302E0129BD9
:40330000C3F136033D46444613E0059B5D1EAF42BFBF0B9BEA1B9B180B93059BB6BF2F467D1B0025002BA7BF4446059BC3EB08040023079A01211A4450469844079200F01F
:40334000F3FA064602E03D4644460A9E5CB1079B002B08DDA342A8BF2346079AC3EB0808E41AD31A0793002F1DDD0A9BABB18DB131462A46504600F071FB049A01460646B3
:40338000504600F0DAFA04990890504600F02DFA089B04937A1B06D000E03A460499504600F05CFB04900121504600F0BDFA0B9B05465BB31A460146504600F04FFB1E9B30
:4033C0000546012B18DC029B83B9039BC3F3130373B9039B23F000473F0D3F054FB1079B08F1010801330793012702E0002700E0029F0B9B73B100E000272B6905EB83036C
:40340000186900F044FAC0F1200004E01E9B012BD9DD0B9F0120079B184410F01F0008D0C0F12003042B02DDC0F11C0002E006D018461C30079B8044034404440793B8F184
:40344000000F05DD42460499504600F055FB0490079B002B05DD29461A46504600F04CFB0546109B23B32946049800F096FB00281EDA00230A220499504600F0CDF90A9B2C
:403480000BF1FF3B0490002B00F05F81314600230A22504600F0C0F9B9F1000F06463FDC3BE000BFC83F00000000144000002440059B002B2BDC1E9B022B28DDDDF8149053
:4034C000B9F1000F11D129464B460522504600F0A3F901460546049800F05FFB00280CDC03E0354600E000252E461F9B069C6FEA030B09E03546DDF820B0069B069A5C1C04
:40350000312313700BF1010B05960026F7E00A9BDDF8149023B9069CB2E01E9B022BCFDC002C05DD31462246504600F0E5FA06469FB17168504600F023F90446326906F110
:403540000C01023292000C30FEF782FF01222146504600F0D1FA059000E00596029B069F03F00103079329460498FFF7D7FA3146044600F13008049800F00FFB059A029085
:403580002946504600F025FBC36802463BB901460A90049800F001FB0A9A034600E00123114650460A9300F020F90A9B53B91E9A42B9079A32B9B8F1390F2AD0029B002BFF
:4035C0001CDC1DE0029A002A04DB1BD11E9ACAB9079ABAB9002B13DD01220499504600F08BFA2946049000F0D8FA002803DC07D118F0010F04D0B8F1390F0AD004F1310887
:403600007C1C0CE0002B07F101040BDDB8F1390F03D139233B70013756E008F1010887F800806CE0069B2746E31A4B4504F8018C3BD000230A220499504600F0EDF8059B49
:4036400004909E424FF00A024FF000033146504604D100F0E1F80646059084E700F0DCF8002306460A220599504600F0D5F8059079E700230A220499504600F0CDF8049042
:4036800029460498FFF74AFA069B00F1300804F8018BE31A4B45ECDB069B0596B9F1010FACBF4B4401331F46002601220499504600F022FA2946049000F06FFA002803DCAB
:4036C00015D118F0010F12D03C4614F8013C621E392B09D1069B934204D10BF1010B3123069A02E01446F0E70133137007E03C4614F8013C621E302B01D11446F8E7294649
:40370000504600F072F8059B6BB12EB19E4203D03146504600F069F80599504600F065F801E0DDF820B00499504600F05EF80023209A23700BF101031360229B1BB11C6085
:4037400001E008480AE0069808E0B9F1000F3FF7E2AE1E9B022B7FF7DEAEB1E615B0BDE8F08F00BFAA3F0000004870474481FF1F024B0146186800F0E7BA00BF4081FF1FF4
:4037800070B5456A04460E463DB91020FFF7F0FF6062456085600560C560656AEB6843B1636ADB6853F8260078B1026843F8262017E021220421204600F0B8FA636AE8608F
:4037C000DB68002BECD1002070BD012101FA06F56A1D9200204600F0A9FA0028F3D04660856000230361C36070BD70B5446A06460D463CB91020FFF7BBFF70624460846039
:403800000460C4603DB1736A6A68DB6853F82210296043F8225070BD2DE9F04106460C460D691F4601F1140E0023DEF80000013381B202FB0171000C0F0C02FB007089B2CE
:4038400001EB00419D424FEA10474EF8041BECDCD7B1A3689D4212DB616830460131FFF78FFF8046226904F10C01023292000C30FEF7EEFD21463046FFF7B7FF444604EBF4
:40388000850301355F6125612046BDE8F081030C1B0413B90004102300E0002310F07F4F04BF0002083310F0704F04BF0001043310F0404F04BF80000233002803DB42007D
:4038C00003D5581C70471846704720207047036813F007020BD0D90722D49A074BBF5B089B08036003604CBF01200220704799B209B91B0C102213F0FF0F04BF1B0A08327C
:40390000190704BF1B090432990704BF9B080232D90702D45B0805D00132036010467047002070472020704710B50C460121FFF727FF01224461026110BD2DE9F74F1446AE
:403940000A69236988469A42BEBF0B46A0461C46D8F81070D4F81090D8F80830D8F8041007EB09069E42C8BF0131FFF709FF00F114052B4605EB860C0022634502D243F872
:40398000042BFAE704F1140208F1140102EB890301EB87070093009B0192934257D9B2F800B0BBF1000F23D08946AE464FF0000859F8044BBEF800A0A3B20BFB03A34FEAE3
:4039C000144ADEF8004043444FEA14480BFB0A84F24604EB13449BB243EA04434F454FEA14484AF8043B01D9D646E1E7CEF80480019B0432B3F802A0BAF1000F21D02C4676
:403A000089462B684FF00008B9F800E0B4F802B09BB20AFB0EBEA346F04443EA08434BF8043B59F8043BB4F804E01B0C0AFB03E34F4503EB18434FEA134801D95C46E3E7D0
:403A400063600435A7E75CF8043D13B9013E002EF9DC066103B0BDE8F08F00002DE9F843154612F0030206460F4607D0214C013A002354F82220FFF7CFFE0746AD1036D084
:403A8000746A3CB91020FFF773FE7062446084600460C460D6F82480D8F808404CB940F271213046FFF740FF04460023C8F8080003604FF00008EB070AD5394622463046AF
:403AC000FFF73BFF814639463046FFF78EFE4F466D100CD0206808B10446ECE7224621463046FFF72AFF2060C0F80080F4E73846BDE8F883904000002DE9F0470C460746BB
:403B0000914626694FEA621A56444968A368751CAB4202DA01315B00FAE73846FFF730FE002380461A4600F11401534503DA41F823200133F9E72AEAEA73206901EB8303EA
:403B400019F01F0904F1140101EB800E14D0C9F1200C002208689A4600FA09F0024343F8042B51F8042B8E4522FA0CF2F2D8CAF8042042B1B51C06E0043B51F8042B8E4569
:403B800043F8042FF9D8013D3846C8F810502146FFF72BFE4046BDE8F08703690A6910B59B1A11D192001430143183180A4453F8044D52F8041D8C4202D007D3012010BD14
:403BC0009842F4D3002010BD184610BD4FF0FF3010BD2DE9F8430C460746114620461546FFF7DBFF061E08D131463846FFF7C8FD012303614661BDE8F883BCBF23462C46A7
:403C000038466168BABF1D4601260026FFF7B8FD2B69C660266905F1140904F1140101EB860709EB830800F114054FF0000C51F8042B59F8044B93B29C44A3B2240CC3EB46
:403C40000C03C4EB124202EB23429BB24FEA224CC84543EA02428E4645F8042BE7D8BE450ED25EF8041B8AB26244131403EB114392B242EA03424FEA234C45F8042BEEE72E
:403C800055F8043D0BB9013EFAE70661BDE8F8832DE9F3411C4601219046089E099DFFF76FFDC4F31302C4F30A5407460CB142F480120192B8F1000F19D002A840F8088D5B
:403CC000FFF705FE009B48B1019AC0F1200102FA01F10B43C2407B61019200E07B61019B002B14BF02210121BB61396107E001A8FFF7EDFD019B01217B613961203034B1F3
:403D0000A4F2334404443460C0F1350009E0A0F2324007EB810330601869FFF7B8FDC0EB41102860384602B0BDE8F08138B502FB01F4214600F008F8054618B122460021F8
:403D4000FEF791FB284638BD70B5CD1C25F0030508350C2D38BF0C25002D064601DBA94202D90C23336046E000F05CF8234B1C681A462146A1B10B685B1B0ED40B2B03D967
:403D80000B60CC18CD501EE08C420BBF63684B681360636018BF0C4615E00C464968E9E7174C23681BB9304600F02CF820602946304600F027F8431C18D0C41C24F003045A
:403DC000A0420DD12560304600F02DF804F10B00231D20F00700C31A0ED05A42E25070BD211A304600F00EF80130EBD10C233360304600F018F8002070BD00BFDC81FF1F93
:403E0000D881FF1F38B5064C0023054608462360FCF718FE431C02D1236803B12B6038BD6882FF1F704770474FF0FF3C06E000BF4FF0010C02E000BF4FF0010C4DF804CDAF
:403E40004FEA410C7FEA6C5C4FEA430C18BF7FEA6C5C1BD001B050EA410C0CBF52EA430C91EA030F02BF90EA020F0020704710F1000F91EA030F58BF994208BF90422CBFBF
:403E8000D8176FEAE37040F0010070474FEA410C7FEA6C5C02D150EA013C07D14FEA430C7FEA6C5CD6D152EA033CD3D05DF8040B704700BF8446104662468C4619466346AC
:403EC00000E000BF01B5FFF7B7FF002848BF10F1000F01BD4DF808EDFFF7F4FF0CBF012000205DF808FB00BF4DF808EDFFF7EAFF34BF012000205DF808FB00BF4DF808EDE0
:403F0000FFF7E0FF94BF012000205DF808FB00BF4DF808EDFFF7CEFF94BF012000205DF808FB00BF4DF808EDFFF7C4FF34BF012000205DF808FB00BF4FEA410C7FEA6C5C64
:403F400002D150EA013C0AD14FEA430C7FEA6C5C02D152EA033C02D14FF0000070474FF00100704700000000004F0040180040510040300000000140800800090140000793
:403F800000140140000800400140000A004C014000020050014020004300494E4600696E66004E414E006E616E003000496E66696E697479004E614E00504F534958002E2A
:403FC0000000000000000000000000000000F03F000000000000244000000000000059400000000000408F40000000000088C34000000000006AF8400000000080842E41E6
:4040000000000000D01263410000000084D797410000000065CDCD41000000205FA00242000000E876483742000000A2941A6D42000040E59C30A2420000901EC4BCD642EB
:4040400000003426F56B0C430080E03779C3414300A0D8855734764300C84E676DC1AB43003D9160E458E143408CB5781DAF154450EFE2D6E41A4B4492D54D06CFF0804499
:40408000F64AE1C7022DB544B49DD9794378EA4405000000190000007D000000000000000080E03779C34143176E05B5B5B89346F5F93FE9034F384D321D30F94877825AED
:4040C0003CBF737FDD4F1575F8B500BFF8BC08BC9E4670474D000000C10A0000F8B500BFF8BC08BC9E4670472900000000410000C880FF1FB8000000F0000000000000008F
:40410000000000007082FF1F0000C05D80BB000030000000006CDC020000000000000000000000000000000000000000000000000000000000000000983F000000000000C6
:404140000000000000000000000000000000000000000000000000000000000000000000000000000000000000000000000000000000000000000000E080FF1FBF3F0000C3
:40418000C03F0000C03F0000C03F0000C03F0000C03F0000C03F0000C03F0000C03F0000C03F0000FFFFFFFFFFFFFFFFFFFFFFFFFFFF000000000000000000000000000016
:4041C00000000000000000000000000000000000000000000000000000000000000000000000000000000000000000000000000000000000000000000000000000000000BF
:40420000000000000000000000000000000000000000000000000000000000000000000000000000000000000000000000000000000000000000000000000000000000007E
:40424000000000000000000000000000000000000000000000000000000000000000000000000000000000000000000000000000000000000000000000000000000000003E
:4042800000000000000000000000000000000000000000000000000000000000000000000000000000000000000000000000000000000000000000000000000000000000FE
:020000040003F7
:0200000480007A
:40000000044F0040045200400A6400400465004052000140390101405202014050030140640401404C050140600601404F0701400C08014053090140620A0140510B014054
:400040006C0C0140520D0140490E01403C0F0140581401404F1501406A1601404B1701406E1801404B1901404F1A01403D1B0140094001401741014013420140074301405A
:40008000094501400446014003470140064801400E490140034C0140024D01400C5001400251014001700A4B0D70164B0002101011016104830F846F850D8672870F880DAC
:4000C00089728B0F8C0F8E6F843C853889388A7201200310041806040A200D100E1E0F201040141815041602170219101A011B281C401D101F21200E24162502260827049F
:40010000281029022A022B042D022F043020310832013306341E35013640373038803B885280580459045B045C115D205F018005820A8320850E861088038A0C8B408D1828
:400140008F02900C92039301940F980799189B049F1EA510A702A80AA916AA05AB08B101B20FB31EB410B520B60FB740D804D904DC11DF010004030A040106080710080245
:4001800009280B010E200F881040120813041720180419A41B091D301E211F04202121042298234025812602272829142B012E082F04318032183681372038013B403D0A63
:4001C0003E203F88724082408448851088208B408E20C077C27FC44ECA6ECCBECEF9E004E240E440E688057F0A080B010C010DA30E060F5C1401160219C51B3A1D961F68C1
:4002000020012202250E261027F0280229FE2A012B0130083204340335FF36103A203F105280580459045B045C015D105F0180028204850789118B028D408E098F879004AC
:40024000920293C09511970298099B209D049F10A008A110A201A304A402A604A708A917AC02ADC0AE04B006B10FB330B408B540B601B780BA02BE50BF50D40FD604D80413
:40028000D904DB04DC11DD10DF0101800380046008200A400E101202130A141016081701188019501A401B021C481E121F9022502350252029082A202B412E282F143004AC
:4002C000312032813680372038043B603C043D883F904404472058095950608075028050848088018B048C028F109118920193089784982899A09B2A9C029E089F10A28252
:40030000A50CA601A742AB01AC10AF02B404C0C9C22AC47DCA6FCC3FCE7ED60FD801E001E280E440E808EA01EE0204940503066007FC09770D850F1A120F147315CC17236E
:4003400018FD19BF1A021B40203022C9289E29CA2A602B152CCF2E3032FF33F0350F3E044050410449FF4AFF4BFF4DA04F045018540F580459045A045B045C105D125F05B8
:40038000604062C06440654066C068C06AC06CC06EC08A058B0C9202930494049504A102A202AB01B004B102B201B304B402B508B701BE10BF05C010C105C5D0C602C701A2
:4003C000C816C9FFCAFFCBFFCDAFCE0FCF04D018D405D804D904DA04DB04DC12DD22DF01E040E2C0E440E540E6C0E8C0EAC0ECC0EEC0000803200608080409040B480C0383
:400400000E20118212801320168019081E642004212823042608274929202E102F80312835123728388039183F104280440148024D014F8056885740582059415A085D0189
:400440005E44610462207804810883408E089080911892B193589602978499229B209D089F01A006A280A54CA701AC10B402C044C23EC41BCAA4CCC6CE2ED011D218D6DF0E
:40048000D806DE02E001E208EA80056709671101130E15221751240128012C012D442FB1300131803360351837073F10405441064202440347EC483049FF4AFF4BFF4C62E6
:4004C0004DA04EF04F41500C56025711580459045A045B045C445D445F016640670269106A306B106D106E106F1284088521870E8A048C0C95219603971698029F1CA3080C
:40050000A51CA723A80CA940AB03B002B31AB401B50FB60CB760B880B980BB28BE41C001C740C9FFCA07CBFFCC40CD20CEF0CF05D008D40FD804D904DA04DB04DC41DD14CC
:40054000DF01E040E1A8E240E32000040188030809080A0410081554180119011A041D021E40202421042280230124102605270929082A012B082E80300832803604370170
:4005800039083D144001450247184F90520153085604570258045AA15E20602061086D547480772483018C0492A19348960A9780988499109C209D45A008A101A208A32081
:4005C000A544A620A789A880AC08B404B708C007C206C4E2CA17CCCACE62D0E8D230D62FE011E602EA02EE01020113011B013601370152805405580459045B045C205F01B9
:400600000004010202010308064009800AA810811314188019A01AA81D402160222123202402280129A02A812B803181321033083601371038803A023B14411049405B2042
:400640005D045E405F01681069406A147080720273147640830487408C808E2091249240930194049501961499109A049B109C809D449E209F44A180A281A380A628A74232
:40068000AB08AD50AF01B004B520B601C01FC20FC40FCA0DCCAFCE0FD004D208D6D4E010E440E810EC4007080B010C300EC90F02120F1494166018731B041D08249E2660C3
:4006C000270428CF2A302CFD2E022F03310832FF3301350237043E043F454050410245D04621480E49FF4AFF4BFF4DAF4E0F4F0450185608580459045A045B045D905F0168
:40070000604062C06440654066C068C06AC06CC06EC08103831489208D138F0C940197089B15A90AAB14AD13AE03AF04B001B110B202B320B70FBB80BF05C016C105C5E064
:40074000C6E0C7CBC83AC9FFCAFFCBFFCEF0CF44D00CD401D604D804D904DA04DB04DC40DD44DF01E6C0EA40EB02020208040B480E20110812011320158C19081E602008E0
:400780002104228124402540260429442D802E202F02326035203704380839A03DA03F024110454049404B014DA251505510570958805C405D125E08600261806780804059
:4007C000832087408E01900892809348948495019616980499109A049B109C029D089E019F60A104A202A380A608A740B001B204B710C001C22EC487CA3ACC6CCEBED014DB
:40080000D238D6F8D888E010EA80EE4002080440062008130A0C100A121414E018E01C201EC0210222152403261428132A042C802E202F0130103301340F350236E03A2061
:400840003E013F104041410549FF4AFF4BFF4DA04F0150185401580459045A045B045C255D515F016040628064406540668068406A806C406D206E8081FE8301857F89C58A
:400880008A048B3A8DA38E018F5C9001919692089368950E97F09C049E02A701B008B1FFB202B404B601BE50BF01C041C105C54EC6C3C702C81FC9FFCAFFCBFFCDAFCE07C4
:4008C000CF01D018D804D904DA04DC06DD01DF01E040E280E440E540E680E840EA80EC40ED20EE80030A040405100608074008810E150F801110120814621511161019408F
:400900001A081B0A1D101E411F802101271828102C822D023004320238A03A013B0841824582484049044B404F4050045140522053405C205D025E405F08802082028880A2
:4009400089408C04902092809348948895829602978098149A149C409D0C9E099F20A082A186A460A628A940AC04AF40B410B504B740C073C2F9C4F0CA92CC03CE0FD09930
:40098000D218D6F0E290EC400340071009210B020D200E030F04130715211702180219041B20212727082907310F33603401360237103E40540F580459045B045C115D102B
:4009C0005F0584018C0A900C940798109C019D01A210A305A610A702A80CB010B20EB302B501B601B704B8A8BE51BF10C024C106C5E0C6C0C70BC81AC9FFCAFFCBFFCEF0B3
:400A0000CF44D00CD280D804D904DA04DB04DC11DD15DF01E6C0EA40EB0200800408060107100A080D400E280F80141015081640172019801A081D921E201F0C210422428B
:400A400023402684270429082A012B082C102F4030243202368038A83902444046084C804E08561459805A025B146104622076407A10800287048A048D10C0A1C2F2C47001
:400A8000CAC7CC17CE0FD0A0D220D60FD806DE02E2C01B0127012A012E01350136013B023E403F10402341044205440146E0470C481849FF4AFF4BFF4C624DA04EF04F41D8
:400AC000500C541C5604580459045A045B045C305D335F016640670269106A306B106D106E106F128008810284F38510860C880189018C4F8D708E908F0F910392B394FF09
:400B000095789707984C99309AA39E40A003A120A404A57FA80CA94FAB30AC42AF0BB08CB104B20FB338B47CB540B703B902BA2ABF10D418D604D804D904DB04DC44DD405E
:400B4000DF01045006600E4A0F10108A1240140115041602172519401C401E081F04208421012401261227102B102C802E602F143320360437213C503D043E024002412948
:400B800048025008532059065C016084614064046580678080028140831084C0880289208D0E90109240933095409780980599809B259E209F10A080A201A612AA20AB408F
:400BC000AC10AD80C0F0C2F0C4F3CAF2CCE4CEF0D00FD208D683D8BDE002E204E601EE08011002030302041C056E06020A200C1013011410160C19D81B021C091E10201492
:400C000021D82304240C2611271E29B62A202B082F01322033E03501361F371E39083A203E043F104062410549FF4AFF4BFF4DA04F0150185608580459045A045B045C143F
:400C40005D915F016040628064406540668068406A806C406D206E808004850389018D038E068F04A201A904B002B102B304B401B501B604B922BE40BF14C062C105C54E37
:400C8000C6C3C702C81FC9FFCAFFCBFFCDAFCE07CF01D018D804D904DA04DC11DD01DF01E040E280E440E540E680E840EA80EC40ED20EE8000800102040506050B300C0805
:400CC0000F0110041120128014801508171019621B011C211F90212022052420255429202E022F263510360238A83D0A412045604602484049044A084B404E084F405044A2
:400D0000510852A05D40640166809014910892409349960A9790988099109A059B259D449E809F10A088A101A209A322A54CA630A7C1B010B180C0F9C2A0C478CAF4CCA025
:400D4000CECED024D23CD610D8100009012002100303045C054C0602071308700A0C0B080C800E0314101511170E19111B461E201F4C246C2611281431303260330F348025
:400D8000354A361F380839023B283E144003464049FF4A074BFF4C404D204EF04F055008580459045A045C555D055F01604061A862406320821088078C048F0894079502CE
:400DC000970198019A229C029D019E299F02A308A505A702B008B204B304B403B508B630B703BB80BE40BF10C043C106C202C401C5ECC803C9FFCAFFCBFFCC62CDA0CEF0A0
:400E0000CF41D00CD418D604D804D904DA04DB04DC35DD55DF01E640E702E910EA30EB10ED10EE10EF120020014003800550075009800A140F2116041704180519021A045C
:400E40001B081D481F202002224423042504275428202901324435103608374439803D093F204001412042804308450849254D014F0157105A026280634491C09212940433
:400E80009501974099309A849D069F40A010A1A0A280A380A504A608A708A801A904AB40B302B404B501C0FBC2A7C460CA03CC7ACEE8D04FD204D601D80DEC840028011150
:400EC0000255030805020C900E490F0C1102151D19021C401D101EA22111230424F8271028F8291D3018320433023403350136E0371C3B803E103F10560257125804590465
:400F00005B045C335D305F018038811682078369843F850687218821896F8B108C108D048F0A917F941898089B3F9C1A9E25A427A618A90BAA27AB14AD19AF66B01CB14006
:400F4000B238B307B402B520B601B718B902BA0ABB88D804D904DC33DF0100420280052106120A010E100F05102816201720184019241A011C201D211F8920012329240803
:400F80002544260129052A202B082D202F0130023108329036023720388139043C213D885B08682A69046A20721273048120820185088612881089208C448FA0A001AF20C5
:400FC000B420C0F9C2E1C466CA37CCAFCEFBD602E270E6903010320436183B408A088D208F01CCF0CE1009200B200C800F803002318036205720808086208A108F40930247
:40100000960897409C10A520A610C2F0CC70D440E020E640500458085C08670280048402930297409C10A402A580A720AF10B204D420D6C0E210E680EC4084108F02974038
:401040009C10A580A720E64008100E0453015C028810C203D401D601E20497029C02B204EE049702B002E804070297409F02A580A720C08005102320458047208110874048
:401080009740A580AF20C080C840E420E640EE100B02AB01C202B701EA020077010108060A160C350D010E66103A11011A1A1B011C2800FF01FF000000204000011000000A
:4010C0000030B300037800074C01A3004F00900BFF70000F4202000008030000040000000C7F0000F34F0C307C038C4000380F040080AA00000000045002000000000000C1
:4011000000FFFFFF00A00004180000000000021104040404555000014000C0004040C000C000C000C000C000000000000000000000000000000000000200F00202000200F5
:401140000000000004000004040004000004000000080004000000000800000000000000400B0B00000000000400D01F0B001100000000000800000000008000000000005A
:40118000000000000000000000000000000000000000000000000000000000000000000000000000000000000000000000000000000000000000000000000000000000002F
:4011C00000000000000000000000000000000000000000000000000000000000000000000000000000000000000000000000000000000000000000000000000000000000EF
:4012000000000000000000000000000000000000000000000000000000000000000000000000000000000000000000000000000000000000000000000000000000000000AE
:40124000000000000000000000000000000000000000000000000000000000000000000000000000000000000000000000000000000000000000000000000000000000006E
:0200000490006A
:0400000000004005B7
:0200000490105A
:04000000BC90ACAF55
:0200000490303A
:02000000375374
:0200000490402A
:4000000000000000000000000000000000000000000000000000000000000000000000000000000000000000000000000000000000000000000000000000000000000000C0
:400040000000000000000000000000000000000000000000000000000000000000000000000000000000000000000000000000000000000000000000000000000000000080
:400080000000000000000000000000000000000000000000000000000000000000000000000000000000000000000000000000000000000000000000000000000000000040
:4000C0000000000000000000000000000000000000000000000000000000000000000000000000000000000000000000000000000000000000000000000000000000000000
:0200000490501A
:0C00000000012E16106900012E3547BCCF
:00000001FF