:400000000080002011000000E5020000E502000008B5044B1A6803F53F5302331A6000F081F900BFFA46004010B5054C237833B9044B13B10448AFF300800123237010BD2F
:400040006081FF1F00000000B8230000084B10B51BB108490848AFF300800848036803B910BD074B002BFBD0BDE81040184700BF000000006481FF1FB8230000C880FF1F1C
:400080000000000000B58FB062B600F0CDF90121002000F0D7FA00F00DFB0028FBD000F0E1FB642001F05EFC00F096F90246044901A801F05DFD01A800F020FCF1E700BFA1
:4000C000BC230000FEE700BFF0B40022174611E050F82760F3B226F0FF0608E001EB420511F812406D78A5550132013BDBB2002BF4D10137162FEBD9F0BC7047064B1B7811
:40010000DBB203F00701054A11701B09013213704422034B1A707047CF0100496E5800407658004008B50A46002101F018FD08BD38B50024234B1C80582202331A700622F6
:4001400003F27E231A705222A3F580731A701E4B1B78DBB21D4A13704FF4E1621C4B1A8041F25122023B1A8019250CE0194B1B7803F0010343EA440404F003044FF4F07034
:4001800001F076FC013D0DB1032CEFD115B90320FFF798FF104A4FF4807313800723137000230E490B7048200231087013700532137002220A4B1A700A4A137843F0010345
:4001C000137038BD804000400F010049A14600402242004025420040044000400640004001400040A243004008B501F0ADFC08BD38B572B62B4A137843F0040313700024FA
:400200000CE0294D630019194A0011462A44084691882858FFF786FF0134E4B2062CF0D922494FF09040FFF74FFF214A214B1A60214A137843F0020313701032137843F0D0
:40024000020313701D4C237843F040032370A2F58632513A137843F010031370082218491848FFF7C1FF0A2217491848FFF7BCFF082217491748FFF7B7FF174A137843F0C9
:4002800008031370154D61232B70FFF751FF81232B70FFF733FF0E2221461148FFF7A4FF38BD00BFE8460040C42300005C000048040400845804014003500140A04300406C
:4002C0009C03004802510040A4030048F0510040B0030048125100402243004000480040B043004008B501F003FC03680C2B00D1FEE7FEE708B5094B1A681044084BC31A15
:40030000802B02DC054B186005E001F0F1FB0C2303604FF0FF32104608BD00BFCC80FF1F6882FF1F08B5104E104D16E029686B68AC68002204E051F8040B43F8040B043298
:40034000A242F8D1E868002203E0002143F8041B04328242F9D11035013E002EE6D101F0CDFBFFF78FFEFEE701000000BC25000008B5104A104B1A60104A136843F4007365
:40038000136000230AE0032B03D80D4A52F8231000E00C490C4A42F8231001332F2BF2D90A4B1A780A4B1A70074A0A4B1A60FFF71FFF08BD0004FA050CED00E014ED00E013
:4003C00000000000E50200000080FF1FBC760040C080FF1F08ED00E008B501F059FAA0F5004000B208BD00BF024B187800F00F00704700BF65640040014B1870704700BF22
:400400008564004008B50F20FFF7F6FFFFF7ECFF01F036FB034A137843F01003137001F033FB08BD9564004008B501F083FA4FF4004001F027FA044B1B7813B90122024B1D
:400440001A70FFF7DFFF08BD7C81FF1FF8B501F017FB0746404A137843F0010313701032137843F00103137001263C4B1E700225943B1D7002F5E2521B32137803F07F03B4
:400480001370002001F084FA354C237803F0F9032370344A137803F0DF031370237833432370304601F074FA282001F071FA2E4B1A7802F07F021A701A7802F0BF021A7037
:4004C00023782B432370284601F062FA237843F0040323700024254B1C7001331C70384601F0D2FA0721172001F070FA2049172001F058FA0721182001F068FA1D49182034
:4005000001F050FA0721152001F060FA1A49152001F048FA0721204601F058FA1749204601F040FA0721304601F050FA1449304601F038FA0721284601F048FA11492846EB
:4005400001F030FA07210C2001F040FA0E490C2001F028FAF8BD00BFA54300409D6000409443004012600040F851004084600040050F0000ED0C0000010F0000610E000070
:40058000910E0000C50E00000D0F000008B5214B18700023204A1370204A1370204A1370204A1370204A1370204A1370204A1370204B4FF400021A604FF080721A604FF446
:4005C00000121A6001221A6002221A6004221A6011B1012906D00BE0174A137803F0FE0313700AE0144A137843F00103137004E0114A137843F00103137003220F4B1A706A
:400600008022203B1A70012001F032FA04220C4B1A7008BD3782FF1F3682FF1FA881FF1FA981FF1FAA81FF1F3A82FF1FAB81FF1FA781FF1F00E100E0096000402860004008
:400640001260004038B504460D46064B1B7823B9FFF7FCFE0122034B1A7029462046FFF795FF38BD7D81FF1F00230A4A13700A4A13700A4A13700A4A13700A4A13700A4A79
:4006800013700A4A13700322094B1A708022203B1A7070473682FF1FA881FF1FA981FF1FAA81FF1F3A82FF1FAB81FF1FA781FF1F28600040014B1878704700BFA981FF1F25
:4006C000431EDBB2072B3CD8F0B4074600EB4004A3001C4C2344DB889BB2C3F500739A4208D900EB400293002344DA8892B2C2F5007292B200EB4004A300124C2344DB7878
:4007000043EA1223104D04012E192B55D3B2737039B909E0CE5C3D010C4C665501339BB200E000239A42F5D8420002449300054A134400225A705A79D2B20001044B1A5481
:40074000F0BC7047C881FF1FFC5F004078600040FE5F0040431EDBB2072B0BD8420002449300054A134400225A705A79D2B20001024B1A54704700BFC881FF1FFE5F004022
:400780000246002001E0013080B2135C002BFAD1704700BF10B4FF2400230EE0094AD25C02EB42029100084A11448A7AD2B2824201D11C4602230133DBB2012BEED9204611
:4007C00010BC70479481FF1FC881FF1F10B5204C2079FFF7DFFF237813F0800F0ED06378DBB2212B2FD11B4B07221A80C0EBC000194A1044586000F0E7FA10BD144B5B78AC
:40080000DBB2202B02D0222B10D01EE0114A07231380C0EBC00310490B4453600F4A135C43F00103135400F0F7FA10BD084B9B780B4A22F81030094A135C43F00203135478
:4008400000F080F910BD002010BD002010BD00BF00600040B881FF1FD080FF1F9C81FF1FA081FF1F10B500241F4B1C701F4B1C705C700AE01E4B185DC0B2431EDBB2072BCF
:4008800001D8FFF767FF0134E4B2012CF2D9194B1B7813F0FF0F1AD0154B1B7813F0FF0F17D0154B1B7813F0FF0F14D0114B1B78DBB2082B11D80E4B1B78DBB2082B0ED851
:4008C0000D4B1B78DBB2082B0BD8002010BD012010BD012010BD012010BD012010BD012010BD012010BD00BF7E81FF1F9C81FF1F9081FF1F8C81FF1F9481FF1F2DE9F843F4
:400900008046234B1B78234AD65CF6B2FFF738FF05460027344606EB460293001E4A13441B899BB29D4209D906EB460293001A4A1344B3F808901FFA89F900E0A9464A468F
:4009400008EB07013046FFF7BBFEC9EB0505ADB245B906EB460293000F4A13441B899BB2994510D14F44BFB204EB440293000A4A13445B7813F0FF0FF6D025B90022114698
:400980003046FFF79DFE002DC4D1BDE8F88300BF7E81FF1F8C81FF1FC881FF1FC37803F0030390F9020000280FDA032B06D002F001030B48C15442F001020EE0C2F3800353
:4009C0000848C15442F0040207E0032B05D0C2F340030548C15442F002021046704700BF8C81FF1F9481FF1F9081FF1F1D4B19781D4A13889BB20B449BB2138000220FE0FF
:400A00001A494B681B78DBB2194883544B6801334B600132D2B20B889BB2013B9BB20B80124B1B889BB20BB1072AE9D90D4B1B78DBB2082B00D05AB10E490B7883F08003B9
:400A40000B700F210C4B197002210C4B197004E0022309490B7009490B70094B1A70014B1A707047A781FF1F3482FF1FB881FF1F00600040AC81FF1FA681FF1F3682FF1F63
:400A8000C481FF1F0222074B1A708022064B1A700F22064B1A700023054A1370054A1370012070473682FF1FAC81FF1FA681FF1FA781FF1FC481FF1F08B5FFF797FF08BD8E
:400AC00010B4194B197801F00F010239C9B2174A13889BB20B449BB21380002011E0144A5468144B1B5CDBB223705368013353600130C0B20139C9B213889BB2013B9BB282
:400B000013800B4B1B889BB20BB10029E7D10A4B19700A4A137883F0800313700B22084B1A7010BC704700BF296000403482FF1FB881FF1F00600040C481FF1FAC81FF1F7B
:400B4000A681FF1F0623064A1370064A13708022054B1A700022054B1A700120704700BF3682FF1FA681FF1FAC81FF1FC481FF1F064B9B6843B1054B9A6810709A68044920
:400B80000988518000229A60704700BFB881FF1F3482FF1F08B5134B1A78D2B21A701B78DBB213F0800F02D00F4A137008BD0220FFF7DEFF0D4B1B7803F06003202B05D0E0
:400BC000402B06D043B900F093FC06E000F060FF03E000F037FE00E0002010B90322024B1A7008BD28600040A681FF1F0060004008B5094B1978094A13889BB20B449BB24C
:400C000013800022064B1A700120FFF7B1FF0322044B1A7008BD00BFA781FF1F3482FF1F3682FF1FA681FF1F08B50B4B1B78DBB2042B06D0062B07D0022B0BD1FFF7D8FF90
:400C400008BDFFF73DFF08BD0320FFF791FF0322024B1A7008BD00BF3682FF1FA681FF1F08B50022044B1A700120FFF781FF0322024B1A7008BD00BF3682FF1FA681FF1F8A
:400C800008B50B4B1B7813F0FF0F07D0084A137843F0800307490B70002313700022064B1A700120FFF764FF0322044B1A7008BD3A82FF1F086000403682FF1FA681FF1FCB
:400CC00008B5094B1B78DBB2042B06D0062B07D0022B07D1FFF7F0FE08BDFFF7C1FF08BDFFF7CEFF08BD00BF3682FF1F08B5284B1B78DBB213F0100F48D013F0800F0CD078
:400D000003F00F03012B16D1FFF744FF214B1B7813F0800F11D1012312E013F0400F03D0FFF7CEFF01230BE013F0200F07D0FFF77BFF012304E0002302E0002300E0002336
:400D400023B3134B1B7813F0800F1FD1124B1B78124A12781343124A13701278D2B2934214D10C4B1B78DBB2094A127812F0800F07D1084B1B78DBB2054A1370137803F0D7
:400D80000F03044A1278D2B29342EAD108BD00BF28600040A681FF1FAC81FF1FC481FF1F296000400022064B1A80064B9B682BB1044A916800230B7092685380704700BFC8
:400DC0003482FF1FB881FF1F08B50F4B1B889BB213B9FFF757FE15E002220C4B1A7000220B4B1A70FFF7DEFF0A4AD179937943EA0123054A128892B2934201D2024A13802C
:400E0000FFF7F4FD012008BDB881FF1F3682FF1FAC81FF1F0060004008B504220B4B1A7080220B4B1A70FFF7BDFF0A4AD179937943EA0123084A128892B2934201D2064AB3
:400E400013800B22054B1A70012008BD3682FF1FAC81FF1F00600040B881FF1FA681FF1F0122094B1A700F3B9B7C084B1B7B03F00303934204D0054AD37B83F08003D373CF
:400E80000122024B5A7370470B600040C881FF1F02220A4B1A700F3B93F82230084B1B7E03F00303012B04D0054AD37E83F08003D3760122024B5A76704700BF0B600040DD
:400EC000C881FF1F04220C4B1A700F3B93F832300A4B93F8243003F00303012B06D0074A92F8273083F0800382F827300122034B83F82520704700BF0B600040C881FF1F6C
:400F0000704700BF08B5FFF7AFFB08BD08B500F01FFD08BD70B588B0054603AC174E0FCE0FC43368237035B322232B7003236B7001A800F063FD002402231AE008AA2244D4
:400F400012F81C2C08A901EB121111F8141CE954581C00212954981C02F00F0208AE324412F8142C2A54DA1CA9540134E4B20433DBB2212BE2D908B070BD00BFF0230000EC
:400F800010B401233EE019461A010C242148845403EB4300820020480244527912F0FF0F13D003EB430082001B480244127912F0800F04D01801194A024494700AE018010C
:400FC000164A02440820907004E01801134A0244802090704800084482000F480244D488E4B208010B4901448C71D088C0F30720C871D088C0B20871D288C2F307224A71FE
:401000000133DBB2082BBED9FF22054B1A7010BC704700BF70600040C881FF1FFC5F00400A600040074B1A78074B03EBC2035B681A7C824204D9C00010301844406870478E
:40104000002070473782FF1F04240000F8B5404B1B7813F0FF0F79D03D4B18780138C0B2FFF7E0FF047AC2683A4B1878C0B200236AE01178884264D13749095CC9B255788C
:40108000A9425ED1917801F07F01D67806F00306DFF8C8E04D000D44AF000EEB07054FF0000C85F803C092F802C085F804C092F803C00EF807C097882F8192F90250002D73
:4010C0000DDA012E01D1072700E00D274E000E44B500224E35446F7101266E700CE0012E01D1052700E009274E000E44B5001B4E35446F7100266E70DFF868E00F010EEB37
:4011000007060125B57001FA05F529448D00134929440D89C5F307250EF807500D89EDB27570CE88F6B20E4D3D44AE71CE88C6F30726EE71CE88F6B22E71C988C1F3072150
:40114000697108320133DBB2A34292D3F8BD00BFA981FF1FAA81FF1FB481FF1FC881FF1F70600040FC5F0040034B1A78034B03EBC2035868704700BF3782FF1F04240000D0
:4011800008B5084B18780138C0B2FFF74BFF30B142681279023200EBC203586808BD002008BD00BFA981FF1F2DE9F047002310E0724D5900CA189600AC190022AA55A27051
:4011C000E2702281A272627034462C4462710133DBB2082BECD940B90AE000226849CA546849CA540133DBB200E00023012BF4D9654B1B7813F0FF0F00F0BD80624B187880
:401200000138C0B2FFF70EFF80464368DB7913F0400F05D05D4A137843F00103137004E05A4A137803F0FE03137098F808704FF0000A01266FE0D8F80C50002467E0AB781D
:4012400003F07F039E425FD1314606EB460083004A4803441B899BB2A888834206D206EB460E4FEA8E03454A134418812B784448C35CDBB26878834246D195F802C0DFF8D6
:40128000FCE04B000B4498000EEB000383F804C0EB780EF80030EB7803F0030395F90200002813DA012B02D14FF0070901E04FF00D09DFF8C8E04B0003EB010C4FEA8C003D
:4012C000704480F805900121417012E0012B02D14FF0050901E04FF00909DFF8A0E04B0003EB010C4FEA8C00704480F8059000214170AB790A2B01D0022B05D152463146B9
:401300002846FFF74BFB824608350134E4B2BC4295D30136F6B2082E8DD9D8F80C0000220CE0837803F07F0310F8084B03EB43039900124B19448C720132D2B2BA42F0D3A2
:40134000FFF71EFF124B1860002301210FE00B4D4A00501884002C44E380228992B213449BB203F0010213449BB20131C9B20829EDD9FFF705FEBDE8F08700BFC881FF1FE4
:40138000B481FF1FA481FF1FA981FF1FAB81FF1FB081FF1F08B5154B1B7903F07F035A1ED2B2072A20D8590019448A0010490A44917841F0010191700021D170517841F0EB
:4013C00002015170127912F0800F05D01B01094A1A448D23937004E01B01064A1A4489239370FFF7AFFB08BD002008BD00600040C881FF1FFC5F0040274B1B7903F07F03F4
:401400005A1ED2B2072A44D810B5590019448A0022490A44917801F0FE0191700021D1701F4C1801215C01F07F012154517801F0FD015170127912F0800F13D003EB4301B8
:401440008A0016490A445278D2B2012A04D1224602440C23937019E01B01114A1A440D23937013E003EB43018A000C490A445278D2B2012A05D11B01094A1A44082393706A
:4014800004E01B01064A1A4409239370FFF75AFB10BD0020704700BF00600040C881FF1FFC5F004010B50E4B1C79E4B20D4B18780138C0B2FFF7B6FD43681B799C4201D983
:4014C000022C0AD8084A135DDBB208490B55044B9B78DBB21355012010BD002010BD00BF00600040A981FF1FB481FF1FA481FF1F10B59C4B1B78DBB200219B4A118013F007
:40150000800F00F0AD80974A5278D2B20A2A00F27481DFE812F06900720172017201720172010B007201920072019A008D4BDB78DBB2012B09D1FFF717FE42688A4B5A6025
:4015400012221A80FFF740FC10BD864BDB78DBB2022B13D1834B9878FFF764FD002800F04E814268804B5A605A68D1785A68927842EA01221A80FFF727FC10BD794BDB78D4
:40158000DBB2032B05D02CE00A7811440133DBB201E000237549734A9278D2B2934203D20A7812F0FF0FEFD16E4B9B7813F0FF0F0BD06C4B9B78DBB26D4A127C934204D1F0
:4015C0006C4C2046FFF7A6FC21460B7813F0FF0F00F017810B78644A13805160FFF7F4FB10BD00F055FA10BD13F0030317D0022B40F009815C490B805A4B1B7903F07F03CA
:4016000003EB43039A005C4B1A449278D2B25B4B1A7000225A704B60FFF7D6FB10BD524902230B80564B1A78D2B2544B1A7000225A704B60FFF7C8FB10BD4B4B01221A8053
:40164000504A5A60FFF7C0FB10BD474A01231380444B1B794C490B445360FFF7B5FB10BD404A5278013A0A2A00F2CF80DFE812F04C00CD009800CD000B00CD00CD00CD0066
:401680001300CD003000374B9B78DBB23F4A1370FFF758FA10BD334B9B7803F0FF041BB1601EC0B2FFF7BEFC04B110B9002C40F0AE80344B1B78DBB29C4206D0314B1C7081
:4016C0000120334B1870FFF76FFDFFF73BFA10BDFFF7E8FE002800F09C80224A1379DBB21279D2B22B490A702B4AD25CD2B22649CB5CDBB29A4204D00122254B1A70FFF7CA
:40170000A5FCFFF71FFA10BD03F00303012B17D04BB1022B7FD1134B9B7813F0FF0F7CD1FFF76AFE10BD0F4B9B78DBB2012B76D1134A137803F0FD031370FFF703FA10BD22
:40174000084B1B79DBB2012B6BD8064B98781B79DBB21249CA5C22EA0002CA54FFF7F2F910BD00BF00600040B881FF1F6C240000502500003C82FF1FC881FF1F8081FF1F8C
:40178000AB81FF1FA981FF1FB481FF1F3A82FF1FA881FF1FAA81FF1FA481FF1F3882FF1F03F00303012B17D04BB1022B3BD1224B9B7813F0FF0F38D1FFF7ECFD10BD1E4BCF
:4017C0009B78DBB2012B32D11C4A137843F002031370FFF7B7F910BD174B1B79DBB2012B27D8154B98781B79DBB21549CA5C22EA0002CA54FFF7A6F910BD002010BD00209D
:4018000010BD002010BD002010BD002010BD002010BD002010BD002010BD002010BD002010BD002010BD002010BD002010BD002010BD002010BD00BF00600040AB81FF1F29
:401840003882FF1F044B1B7813F0800F01D0024B5B780020704700BF00600040024A137843F080031370704770640040014B1870704700BF84640040014B1878704700BF56
:4018800064640040014B1880704700BF04680040024B1B78024B188880B270470264004084680040014B188880B2704784680040014B1880704700BF44680040014B188067
:4018C000704700BF6468004008B501E0FFF7EAFFFFF7D2FF10F0400FF8D108BD08B5134B1A7802F0F8021A701A7802F0FC021A70FFF7EAFF4FF40040FFF7DAFF4FF4004062
:40190000FFF7C0FF0020FFF7B1FFFFF7B5FF4FF40040FFF7D3FF00F0B3F8054A137843F01003137000F0B0F808BD00BF706400409464004008B5054B1B7823B9FFF7CEFF52
:401940000122024B1A70FFF789FF08BD8281FF1F024B1878C0F38010704700BF8F45004001BE704710B5044605E0084B186800F07FF8A4F50044B4F5004FF6D8034B58680A
:4019800000FB04F000F074F810BD00BFEC80FF1F08B5034B1B7A00FB03F000F069F808BDEC80FF1F70B504460E46074B1D681F2802D90020FFF7D4FF04F01F04103455F84B
:4019C000240045F8246070BD08ED00E038B504460D46072902D90020FFF7C2FF1F2C02D90020FFF7BDFF04F01F0000F1604000F564406D01EDB2057038BD00BF134B1B7838
:401A0000DBB20360124A127843EA02230360114A127843EA024303600F4A127843EA026303600E4B1B78DBB243600D4A127843EA022343600B4A127843EA024343600A4A4F
:401A4000127843EA02634360704700BF0301004904010049EC4600400201004901010049000100490501004906010049000000000230800803D000BF01380046FCD1704755
:401A8000EFF3108072B6704780F31088704700BF08B5144B1B7803F00303012B02D0022B04D00FE00F4B1B79DBB20CE00D4B1B7903F07F0303EB43039A000B4B1A44937A67
:401AC000DBB200E00023022B07D8084A1268D35C022B04D1FEF77AFE08BD002008BD002008BD00BF00600040C881FF1FB081FF1F014B1868704700BF5C81FF1F0E4B70B581
:401B00001E460E4C0025E41AA410A54204D056F8253098470135F8E700F03EFD084B094C1E46E41AA4100025A54204D056F8253098470135F8E770BDA4250000A42500009F
:401B4000A4250000AC25000010B5431E0A44914204D011F8014B03F8014FF8E710BD03460244934202D003F8011BFAE7704700000EB400B54FF402719CB0ADF814106FF0DE
:401B80000041049107914FF6FF711DAB02900690084853F8042BADF81610006802A9019300F064F8029B00221A701CB05DF804EB03B070475C81FF1F2DE9F0478E688246C1
:401BC0009E420C46914698463ED88A8912F4906F3AD02568096902236F1A656905EB450595FBF3F57B1C43449D4238BF1D4653050FD5294600F040FB064698B13A462169CD
:401C0000FFF7A2FFA38923F4906343F08003A38113E02A4600F08EFB064670B92169504600F0DEFA0C23CAF80030A3894FF0FF3043F04003A381BDE8F08726613E442660C4
:401C400046466561ED1BA560464528BF464649463246206800F0A8FAA36800209B1BA36023681E442660BDE8F08700002DE9F04F9DB003938B8980461C060D4616460DD5AE
:401C80000B695BB9402100F0F7FA2860286118B90C23C8F80030CDE040236B610023099320238DF82930DFF89CB130238DF82A3037463C4614F8013B1BB9B7EB060910D09B
:401CC00003E0252BF9D02746F3E74B46324629464046FFF771FF013000F0A780099B4B4409933B78002B00F0A08000234FF0FF3204930793059206938DF853301A93012668
:401D0000052221784E4800F041FA671C049B38B14B4A3C46801A06FA00F018430490EFE7D90644BF20228DF853201A0744BF2B228DF8532022782A2A03D0079A00210A207F
:401D40000BE0039A111D12680391002A10DA524243F00200079204900BE027463B780134303B092B03D800FB02320121F5E701B107923B782E2B1ED17B782A2B0AD1039BA7
:401D800002371A1D1B680392002BB8BF4FF0FF33059310E0002319460593781C0A2407463A780130303A092A03D804FB01210123F5E703B1059103223978224800F0E6F902
:401DC00040B14023CBEB000003FA00F0049B013718430490397806221B487E1C8DF8281000F0D4F988B1194B33B9039B073323F007030833039314E003AB00932A46144B83
:401E000004A94046AFF3008007E003AB00932A460F4B04A9404600F093F8B0F1FF3F824603D0099B5344099342E7AB895B0601D4099801E04FF0FF301DB0BDE8F08F00BF29
:401E4000642500006A2500006E25000000000000B91B00002DE9F04791461F460A698B6806469342B8BF1346C9F8003091F843200C46DDF8208012B10133C9F800302368EC
:401E8000990642BFD9F800300233C9F80030256815F0060510D104F1190A07E00123524639463046C04701301AD00135E368D9F800209B1A9D42F1DB94F84330226800337D
:401EC00018BF012392060FD5E118302081F843005A1C94F845102244023382F8431003E04FF0FF30BDE8F08704F1430239463046C0470130F4D02268D9F80050E36802F027
:401F00000602042A08BF5D1B2269A3680CBF25EAE57500259342C4BF9B1AED184FF000091A344D4509D00123224639463046C0470130D5D009F10109F3E70020BDE8F087B2
:401F40002DE9F04317460A7E85B06E2A984606460C460C9B01F1430E00F0AE8011D8632A22D009D8002A00F0BB80582A40F0CA8081F84520834955E0642A1ED0692A1CD06E
:401F8000C0E0732A00F0B08009D86F2A2ED0702A40F0B8800A6842F020020A603EE0752A24D0782A3AD0ADE01A6801F14205111D1960136884F84230A8E021681A6811F0D1
:401FC000800F02D0111D196008E011F0400F02F10401196002D0B2F9003000E01368002B3CDA2D225B4284F8432037E021681A6811F0800F02D0111D196007E011F0400FBA
:4020000002F10401196001D0138800E01368227E5C496F2A14BF0A2208221BE078225A4984F845202268186812F0800F00F104051D6003D1550601D5038800E00368D00784
:4020400044BF42F0200222601BB9226822F0200222601022002084F8430001E049490A226568002DA56008DB206820F0040020602BB9002D7DD175460CE0002B79D0754690
:40208000B3FBF2F002FB1033CB5C05F8013D03460028F5D1082A0BD12368DA0708D5236962689A42DEBF302305F8013C05F1FF35C5EB0E0323612EE008681A6810F0800F06
:4020C000496903D0101D1860136808E010F0400F02F104001860136801D0198000E0196000232361754616E01A68111D1960156800216268284600F049F808B1401B6060FB
:40210000636804E004F1420584F8422001232361002384F84330CDF800803B4603AA21463046FFF797FE013002D14FF0FF3026E023692A4639463046C0470130F5D0236850
:402140009B0710D5002504F1190907E001234A4639463046C0470130E7D00135E368039A9B1A9D42F2DBE068039B9842B8BF184605E00B7804F1420584F842308AE705B051
:40218000BDE8F083752500008625000010B5C9B202449042034605D01C7801308C42F8D1184610BD002010BD884210B501EB020301D8421E0BE09842FBD28118D21AD342F3
:4021C00004D013F8014D01F8014DF8E710BD994204D011F8014B02F8014FF8E710BD000038B50546002944D051F8043C0C1F002BB8BFE41800F0D4F81E4A1368114613B93C
:402200006360146030E0A3420DD92268A018834201BF18685B681218226063600C6023E0A24203D813465A68002AF9D118681918A1420BD12168014458188242196013D107
:4022400010685268014419605A600DE002D90C232B6009E021686018824201BF106852680918216062605C602846BDE8384000F098B838BD8881FF1F70B5CD1C25F0030560
:4022800008350C2D38BF0C25002D064601DBA94202D90C23336046E000F082F8234B1C681A462146A1B10B685B1B0ED40B2B03D90B60CC18CD501EE08C420BBF63684B68AB
:4022C0001360636018BF0C4615E00C464968E9E7174C23681BB9304600F052F820602946304600F04DF8431C18D0C41C24F00304A0420DD12560304600F053F804F10B0073
:40230000231D20F00700C31A0ED05A42E25070BD211A304600F034F80130EBD10C233360304600F03EF8002070BD00BF8881FF1F8481FF1FF8B5074615460E4621B9114648
:40234000BDE8F840FFF798BF1AB9FFF749FF2846F8BD00F027F885420ED929463846FFF78BFF044650B131462A46FFF7EDFB31463846FFF735FF01E03046F8BD2046F8BD7F
:4023800038B5064C0023054608462360FDF7B2FF431C02D1236803B12B6038BD6082FF1F7047704751F8040C0028BEBF091851F8043CC018043870470000000025640A0D88
:4023C00000000000205100405000C0510040100000000140001000140140000800400140000A004C0140000200500140200000003031323334353637383941424344454660
:4024000000000000010000000C240000010000005025000000000000000000000100000024240000010000000C250000030000005024000000000000000000000000000003
:4024400000000000000000004C240000020A000000008103080002000100820240000A000100030240000A0002030000040309042C03430079007000720065007300730002
:402480002000530065006D00690063006F006E0064007500630074006F007200100355005300420055004100520054003803430044004300200043006F006D006D0075003E
:4024C0006E00690063006100740069006F006E00200049006E007400650072006600610063006500260343004400430020004400610074006100200049006E007400650099
:40250000720066006100630065000000090243000201018032090400000102020103052400100104240202052406000105240100010705810308000A09040100020A000003
:40254000040705820240000007050302400000001201000202000008B40432F20100010280014300232D302B2000686C4C0065666745464700303132333435363738394136
:40258000424344454600303132333435363738396162636465660000F8B500BFF8BC08BC9E4670474D00000071030000F8B500BFF8BC08BC9E46704729000000D025000088
:4025C000C880FF1F980000000801000000000000000000006882FF1F00C2010000000800C201000000080000A120000000000200000000000000E02EC05D00001800000030
:4026000000366E010000000000000000000000000000000000000000000000000000000000000000622500000000000000000000000000000000000000000000000000006E
:40264000000000000000000000000000000000000000000000000000000000000000000000000000FC80FF1F000000000000000000000000000000000000000000000000C0
:40268000000000000000000000000000000000000000000000000000000000000000000000000000000000000000000000000000000000000000000000000000000000001A
:4026C00000000000000000000000000000000000000000000000000000000000000000000000000000000000000000000000000000000000000000000000000000000000DA
:402700000000000000000000000000000000000000000000000000000000000000000000000000000000000000000000000000000000000000000000000000000000000099
:402740000000000000000000000000000000000000000000000000000000000000000000000000000000000000000000000000000000000000000000000000000000000059
:020000040003F7
:0200000480007A
:4000000001450040015200400264004046000140250101405D02014039030140390401403D050140010D0140011701400119014004400140074101400442014002430140D7
:4000400001450140014601400547014003480140024C014003500140015101407E027C40846F850F01960368060307010804097F0C010DA30F5C1004140415FE1701190E92
:400080001BF022042608280429C52B3A2E013002340C35FF36013E403F105280580459045B045F01810183028501870A89018B068C018D528E028FA1940195F0960A980286
:4000C00099A09A019B509C019E06A1C0A330A530A610A7C0A970B004B104B210B308B403B5F0B608B703BA20BB80D804D904DF010004030604400BA00E2A100613061620C0
:40010000180419401B421C401E2A1F302304241225412706280429102D102F60332435103704380639103B903C103D8A7002C087C2ECC42FCAE4CC66CEFF060F089E0A6071
:400140000C300EC91473170118941A601CCF1E3024FD260232FF33013E044056410249FF4AFF4BFF4DA04F015018580459045A045F016040628064406540668068406A806B
:400180006C406D206E8080048208861C8708881C89038C108D069210941D95059A20A001A404A608A906AA02AC01AD08B002B23CB307B401B708B820B908BE10BF40C052D9
:4001C000C103C53EC6C0C724C83BC9FFCAFFCBFFCDAFCE07CF01D018D804D904DA04DF01E040E280E440E540E680E840EA80EC40ED20EE800040010A0304044005180702C3
:40020000080809080B880C100E0A0F10109A1704180419081A401B191F04210822402310250429102B012D082E083304370838083B90400443084608488049444FA0500E4D
:4002400052115302979099409B069D109E20A204A340A504C0EFC2EEC42FCA0CCC42CE0ED026D238E20200010418060408160A080D041018120218101A021D011F06210145
:40028000221E2308280E2E0131023301341E35043601370839083E403F10540F580459045B045F05840188168A088C108E029001940E97019A1E9B019C189E04A418A6025F
:4002C000AA01AD01B101B201B61EBE04BF01D40FD804D904DB04DF010006010403040508070608100B800C100E420F101002131215041720180419101A021E221F4020028C
:40030000236824402A012E403080350837203B405A825B185C495E206104621078088001830492C0931097809818990C9A119B169D10A082A601A912AB12B308B620C0EEBB
:40034000C2FAC46BCA11CC68CE08D6FFD806DE02ECC0E202EE0AEE0A320233803640CC70030204048602A642A780C060E240A640A780B302B404A640A78086049604080860
:400380000A040F409604C20EAE40AF80EE50AC08AF40000108010A01002A000006000000000000004000000000000000C0000000000B0B000000000000000000000000001D
:4003C00000000000000000000000000000000000000000000000000000000000000000000000000000000000000000000000000000000000000000000000000000000000FD
:4004000000000000000000000000000000000000000000000000000000000000000000000000000000000000000000000000000000000000000000000000000000000000BC
:40044000000000000000000000000000000000000000000000000000000000000000000000000000000000000000000000000000000000000000000000000000000000007C
:40048000000000000000000000000000000000000000000000000000000000000000000000000000000000000000000000000000000000000000000000000000000000003C
:0200000490006A
:0400000000004005B7
:0200000490105A
:04000000BC90ACAF55
:0200000490303A
:02000000CCCF63
:0200000490402A
:4000000000000000000000000000000000000000000000000000000000000000000000000000000000000000000000000000000000000000000000000000000000000000C0
:400040000000000000000000000000000000000000000000000000000000000000000000000000000000000000000000000000000000000000000000000000000000000080
:400080000000000000000000000000000000000000000000000000000000000000000000000000000000000000000000000000000000000000000000000000000000000040
:4000C0000000000000000000000000000000000000000000000000000000000000000000000000000000000000000000000000000000000000000000000000000000000000
:0200000490501A
:0C00000000012E16106900012E24DD38CE
:00000001FF