:400000000080002011000000490800004908000008B5044B1A6803F53F5302331A6000F01BFC00BFFA46004010B5054C237833B9044B13B10448AFF300800123237010BDBE
:400040004081FF1F00000000BC350000084B10B51BB108490848AFF300800848036803B910BD074B002BFBD0BDE81040184700BF000000004481FF1FBC350000C880FF1F30
:400080000000000000000000F8B51B4C23680133236000F079FE0546606885421CD0401B02F0DAFB12A3D3E9002302F03BFC06460F46206803F002F802F0E0FB02460B4662
:4000C0003046394602F058FD02F0EEFE0B4B1860656000232360F8BD074B1B68B3F57A6F05DD0022054B1A600022034B1A60F8BD9A999999993943405C81FF1F9881FF1F39
:400100002DE9F04100F01CFF454B1868454B196802F01EFF444903F025F80546424903F021F8424CA16802F015FF0646A060E168284602F00DFF3C4903F0C8F807463C4916
:40014000284603F00FF880463A49304603F00AF80146404602F0FEFE06463349384603F001F80146304602F0F5FEE560216902F0F1FE0446304903F093F930B94FF07E51EB
:40018000204603F0ABF910B903E02B4C01E04FF07E54264B1C614FF001050021204603F07FF908B94FF0000505F0010000F0AEFB1E4B1D6925F0004002F060FB16A3D3E96E
:4001C000002302F0AFFB02F047FE0446132800DC00240021284603F081F948B100F0D4FD10F1B40F04DA0022104B9A6000240DE000210E4B186903F053F938B100F0C4FDD0
:40020000B42803DD0022094B9A600024A0B200F045FDBDE8F08100BF000000000030A1409481FF1F9881FF1F6F12033B5C81FF1FCDCC4C3F0AD7A33C000080BF2DE9F04176
:4002400000F046FC264B1C6800F0FAFE241A204602F034FF8046234902F084FF224D696902F078FE06466861A869201A02F026FF1C4903F02BF807461C49404602F072FFC9
:4002800080464FF08141304602F06CFF0146404602F060FE06464FF07C51384602F062FF0146304602F056FE03F022F9AC6104460028D4BF0020012000F0B2FF84EAE47097
:4002C000A0EBE47040F698039842A8BF1846B0F5827F00DA002080B200F0C2FFBDE8F0819081FF1F0AD7233C5C81FF1F0000204110B500F069FB194B1B7F2BB9FF2803D155
:400300000122164B1A7710BD5A1E14490A4482F820000133DBB20B77042B1ED900230B7791F820301B021BB291F8210091F82220120212B291F823401443184302F0BEFEB4
:40034000074902F0C3FF074B1860204602F0B6FE034902F0BBFF044B186010BD5C81FF1F00007A44A481FF1FA081FF1F70B5144B1968002002F0ECFD0646124902F0F2FE53
:40038000114D696A02F0E6FD044668620F4B1D680F49304602F0E6FE06460021204602F0E1FE0146304602F0D5FD04460949284602F0D8FE0146204602F0CCFD70BD00BF55
:4003C000A481FF1F0AD7233C5C81FF1FA081FF1F0000A041CDCC0C4008B500F0D5FC02F06DFE00F1004002F049FA05A3D3E9002302F098FA02F058FD08BD00BFAFF3008041
:40040000F981AB3C81B0733F38B562B600F09AFC642000F03DFC002000F0AAFC00224E4B1A6000F0E7FC002000F0B6FC00244B4B1C6000F03BFE204600F00AFE00F062FFB2
:40044000474800F0EFFD474800F0DCFE464800F017FB464800F0A8FB00F0B6FD00F07CFB00F0A4FA002000F083FC27E0FFF7B4FF002103F033F848B9FFF7AEFF002103F039
:400480000FF838B130A5D5E9004506E030A5D5E9004502E000244FF00045FFF79DFF02F0EDF900F04DFF024621F000432046294602F062FB02F0F8FC274B186000F050FCBA
:4004C0000028D3D14FF4FA7000F08CFB6E2415E0204600F0DDFB012000F04AFC4FF4FA7000F080FB002000F043FC4FF4FA7000F079FB00F035FC18B90134A4B2842CE7D99B
:4005000042F2107000F06EFB012000F031FC06E0FFF72CFF104B18600A2000F063FB00F01FFC0028F4D000220B4B1A60642000F0AFFB002000F01CFC4FF47A7000F052FB85
:4005400090E700BFAFF300809A9999999999C93F9A9999999999C9BF9481FF1F9081FF1F010100003D020000F102000089000000FEE700BFF0B40022174611E050F82760BF
:40058000F3B226F0FF0608E001EB420511F812406D78A5550132013BDBB2002BF4D10137242FEBD9F0BC70470A4B1B78DBB203F00701094A11701B09013213700822074BEE
:4005C0001A70202203F6C3031A704422A3F21A231A707047CF0100496E580040CD51004008B50A46002102F0E0FF08BD38B50024344B1C80192502331D7002331C805822B5
:4006000002331A70332202331A8018232E4A1370EF21023211800232137040F2E731023211800232137040F65F11023211800232137040F6B732254B1A8002331D7002221E
:4006400003F266231A7008224FF040231A70032103F5007319701E4B1B78DBB21D490B701D4B1A8041F25122023B1A800CE01B4B1B7803F0010343EA440404F003044FF48C
:40068000F07000F04DFE013D0DB1032CEFD115B90320FFF76DFF124B4FF480721A8007221A7000220F490A704820023108701A700222033B1A700C4A137843F07F031370EC
:4006C00038BD00BF804000408A4000409840004008010049A146004022420040254200400440004006400040A243004008B502F051FF08BD38B572B63C4A137843F004030D
:40070000137000240CE03A4D630019194A0011462A44084691882858FFF762FF0134E4B2082CF0D900240BE03149A3001819420088188022C16B806BFFF7D8FF0134E4B265
:40074000002CF1D02B494FF09040FFF713FF2A4A2A4B1A602A4A137843F0020313701032137843F002031370264C237843F040032370A2F58632513A137843F01003137018
:40078000082221492148FFF7B1FF0A2220492148FFF7ACFF052220492048FFF7A7FF0A221F492048FFF7A2FF08221F491F48FFF79DFF0A221E491F48FFF798FF1E4A1378CB
:4007C00043F0080313701D4D61232B70FFF70EFF81232B7001221A4B1A70FFF7E5FE0E2221461848FFF782FF38BD00BFE8460040C035000094000048040400445806014036
:4008000003500140A0430040780C004802510040800C0048C05100408C0C0048CB510040940C004810510040A00C004822510040A80C004830510040224300400048004027
:4008400004000840B043004008B502F077FE03680C2B00D1FEE7FEE708B5104E104D16E029686B68AC68002204E051F8040B43F8040B0432A242F8D1E868002203E00021B1
:4008800043F8041B04328242F9D11035013E002EE6D102F059FEFFF7B7FDFEE7010000000838000008B5104A104B1A60104A136843F40073136000230AE0032B03D80D4A4D
:4008C00052F8231000E00C490C4A42F8231001332F2BF2D90A4B1A780A4B1A70074A0A4B1A60FFF707FF08BD0004FA050CED00E014ED00E000000000490800000080FF1FD7
:40090000BC760040C080FF1F08ED00E0044A137803F0FB03800000F004001843107070470051004008B572220B4B1A70202201331A700A49022000F06BF90721022000F07D
:400940007BF90622064B1A70472210331A70022253331A7008BD00BF85650040F50900002264004010B500F0E3FC04460D4A137843F0200313700132137843F01003137004
:40098000A2F20112137843F0100313700423064A1360A2F5C072136000F014F9204600F0CBFC10BD9565004080E200E008B5054B1B7823B9FFF7B6FF0122024B1A70FFF79C
:4009C000D1FF08BD8481FF1F084B1B78DBB213F0200F06D0064A1078C0B213F01E0F02D17047002070470020704700BF666500404665004013E0104B1B78DBB2072B02D9E2
:400A000000220D4B1A700C4A1378DBB20B49CB5CDBB20B490B7013780133DBB21370064B1B78DBB2074A1278934204D0064B1B7813F0040FDFD070478581FF1FA881FF1FDE
:400A4000456400408681FF1F65640040014B1B681864704708ED00E04001C0B2014B1870704700BF00E400E00122014B1A60704700E100E00122014B1A60704780E100E085
:400A800010B50446FFF7F6FF2046FFF7DFFF0720FFF7E2FFFFF7E8FF10BD00BF084A137843F0020313701032137843F00203137002F65932137843F001031370704700BF3D
:400AC000A3430040014B1870704700BF0F4F0040014B1878704700BF0F4F0040014B1880704700BF104F0040014B1880704700BF124F004008B5154A137803F001031370E3
:400B00000232137803F0FC031370114B1A7802F0CF021A701A7842F030021A701A7802F0F0021A701A7842F00F021A70094A137843F0010313700920FFF7D0FF0920FFF7C2
:400B4000D3FF0820FFF7BEFF08BD00BF0C4F0040174F00400D4F004008B5054B1B7823B9FFF7C8FF0122024B1A70FFF797FF08BD8881FF1F014B1B685864704708ED00E0A5
:400B80004001C0B2014B1870704700BF01E400E00222014B1A60704700E100E00222014B1A60704780E100E010B50446FFF7F6FF2046FFF7DFFF0720FFF7E2FFFFF7E8FF20
:400BC00010BD00BF054A137843F0040313701032137843F004031370704700BFA243004001BE704710B5044605E0084B186800F097FBA4F50044B4F5004FF6D8034B58683D
:400C000000FB04F000F08CFB10BD00BFCC80FF1F70B504460E46074B1D681F2802D90020FFF7DEFF04F01F04103455F8240045F8246070BD08ED00E038B504460D46072960
:400C400002D90020FFF7CCFF1F2C02D90020FFF7C7FF04F01F0000F1604000F564406D01EDB2057038BD00BF024A137843F080031370704772640040014B1880704700BF0C
:400C800000680040014B1880704700BF80680040014B1880704700BF40680040014B1880704700BF60680040014B1870704700BF81640040014B1878704700BF61640040A0
:400CC000014B188880B27047A068004008B501E0FFF7F6FFFFF7EEFF10F0100FF8D108BD10B5164A137803F0C00343F0090313701E32137843F001031370114C237843F0D6
:400D0000010323704FF4E160FFF7B6FF4FF4E160FFF7B8FF6420FFF7BBFF0020FFF7BEFF0020FFF7C1FF00F003FB237843F01003237000F001FBFFF7C9FF10BD72640040F0
:400D40009164004008B5054B1B7823B9FFF7C8FF0122024B1A70FFF787FF08BD8981FF1F024B1878C0F38010704700BF31510040044A137803F0FD03400000F002001843F1
:400D8000107070472051004008B500F05FF8A0F5004000B208BD00BF08B5002803DB80B280F4004002E0A0F5004080B200F048F808BD00BF024B187800F00F00704700BFA4
:400DC00068640040014B1870704700BF8864004008B50F20FFF7F6FFFFF7ECFF00F0A8FA034A137843F01003137000F0A5FA08BD9864004008B500F07BF84FF4004000F063
:400E00001FF8044B1B7813B90122024B1A70FFF7DFFF08BD8A81FF1F024A137843F08003137070477A650040014B1870704700BF89650040014B1878704700BF6965004073
:400E4000014B1880704700BF106A0040024B1B78024B188880B2704708650040906A0040014B188880B27047906A0040014B1880704700BF506A0040014B1880704700BF04
:400E8000706A004008B501E0FFF7EAFFFFF7D2FF10F0400FF8D108BD08B5134B1A7802F0F8021A701A7802F0FC021A70FFF7EAFF4FF40040FFF7DAFF4FF40040FFF7C0FF5F
:400EC0000020FFF7B1FFFFF7B5FF4FF40040FFF7D3FF00F02DFA054A137843F01003137000F02AFA08BD00BF7A6500409965004008B5054B1B7823B9FFF7CEFF0122024BD9
:400F00001A70FFF789FF08BD8B81FF1F084A137843F0010313701032137843F00103137002F64D32137843F001031370704700BFA3430040014B1870704700BF034F004068
:400F4000014B1878704700BF034F0040014B1880704700BF044F0040014B1880704700BF064F004008B5154A137803F0010313700232137803F0FC031370114B1A7802F07C
:400F8000CF021A701A7842F030021A701A7802F0F0021A701A7842F00F021A70094A137843F0010313700920FFF7D0FF0920FFF7D3FF0820FFF7BEFF08BD00BF004F004092
:400FC0000B4F0040014F004008B5054B1B7823B9FFF7C8FF0122024B1A70FFF797FF08BD8C81FF1F024B1B68C3F88400704700BF08ED00E04001C0B2014B1870704700BFC1
:4010000011E400E04FF40032014B1A60704700BF00E100E04FF40032014B1A60704700BF80E100E010B50446FFF7F4FF2046FFF7D9FF0720FFF7DEFFFFF7E4FF10BD00BFEC
:4010400008B500F05FF8A0F5004000B208BD00BF08B5002803DB80B280F4004002E0A0F5004080B200F048F808BD00BF024B187800F00F00704700BF6B650040014B1870E5
:40108000704700BF8B65004008B50F20FFF7F6FFFFF7ECFF00F04CF9034A137843F01003137000F049F908BD9B65004008B500F07BF84FF4004000F01FF8044B1B7813B96D
:4010C0000122024B1A70FFF7DFFF08BD8D81FF1F024A137843F08003137070477B650040014B1870704700BF86640040014B1878704700BF66640040014B1880704700BF20
:40110000086A0040024B1B78024B188880B2704704650040886A0040014B188880B27047886A0040014B1880704700BF486A0040014B1880704700BF686A004008B501E00F
:40114000FFF7EAFFFFF7D2FF10F0400FF8D108BD08B5134B1A7802F0F8021A701A7802F0FC021A70FFF7EAFF4FF40040FFF7DAFF4FF40040FFF7C0FF0020FFF7B1FFFFF798
:40118000B5FF4FF40040FFF7D3FF00F0D1F8054A137843F01003137000F0CEF808BD00BF7B6500409664004008B5054B1B7823B9FFF7CEFF0122024B1A70FFF789FF08BDC4
:4011C0008E81FF1F024B1B68C3F88800704700BF08ED00E04001C0B2014B1870704700BF12E400E04FF48022014B1A60704700BF00E100E04FF48022014B1A60704700BF8E
:4012000080E100E010B50446FFF7F4FF2046FFF7D9FF0720FFF7DEFFFFF7E4FF10BD00BF044A137803F0F703C00000F0080018431070704720510040024A137843F0800394
:40124000137070477D640040014B1880704700BF18680040014B1880704700BF98680040014B1880704700BF58680040014B1870704700BF8D640040014B1878704700BF38
:401280006D640040014B188880B27047B868004008B501E0FFF7F6FFFFF7EEFF10F0100FF8D108BD10B5154A137803F0C00343F0090313701F32137843F001031370104CB6
:4012C000237843F00103237040F6C410FFF7BCFF40F6C410FFF7BEFF0020FFF7C1FF0020FFF7C4FF00F024F8237843F01003237000F022F8FFF7CCFF10BD00BF7D6400406A
:401300009D64004008B5054B1B7823B9FFF7CAFF0122024B1A70FFF78FFF08BD8F81FF1F0230800803D000BF01380046FCD17047EFF3108072B6704780F31088704700BF9F
:4013400030B5214A21F00043934287B01BDD1F4A934205DD02460B4601F030F907B030BD02AA00F035F800F0030001281AD002280FD008B3DDE9020101230093DDE904234E
:4013800000F05AFFEAE70022002300F039FA07B030BDDDE90423DDE9020100F031FA01F10041DBE70090DDE90423DDE9020100F043FF01F10041D1E7DDE90423DDE9020128
:4013C00000F01EFACAE700BFFB21E93FFFFFEF7F2DE9F04F944C21F00047A7428FB040F381801446914A0E46974226DC84A3D3E90023002940F3A08101F0E0F88C4B80468F
:401400009F42894600F083807FA3D3E9002301F0D5F802460B464046C4E90023494601F0CDF879A3D3E9002301F0C8F80125C4E9020128460FB0BDE8F08F7E4A974240F36F
:4014400083807D4A974258DC3D15A5F21645A7EB05518B46824601F0FFFC01F0FDF98046894642464B4650465946CDE9088901F0A5F80022714B01F055FA8B46824601F09D
:40148000EBFC01F0E9F98046894642464B4650465946CDE90A8901F091F80022674B01F041FA00220023CDE90C0101F0A3FC002800F06A81002340464946002201F09AFC50
:4014C000002814BF012302235D480221019000912A46214608A800F0B7FA002EC0F24A81054606E0C2E9000100250024C2E90245002528460FB0BDE8F08F02460B4601F0D3
:401500005DF80025C4E90201C4E90001F1E740A3D3E9002301F052F83FA3D3E9002306460F4601F04BF802460B463046C4E90023394601F043F838A3D3E9002301F03EF8FD
:401540000125C4E90201D4E700F02CFF34A3D3E900238046894601F0E5F90022394B01F02FF801F079FC054601F076F924A3D3E90023CDE9040101F0D5F902460B46404697
:40158000494601F01BF820A3D3E9002382468B46DDE9040101F0C6F91F2DCDE9020155DC294B6A1E53F822309F424FD002460B465046594601F002F802460B46814688462C
:4015C000C4E900234A4643465046594600F0F6FFDDE9022300F0F2FF02460B46002EC4E9022386DA4A4608F1004301F1004184E80C00E160A0606D427BE700BFAFF3008079
:4016000000004054FB21F93F3163621A61B4D03D0000601A61B4D03D7370032E8A19A33B83C8C96D305FE43FFB21E93F7BD90240FB21F93FFB213941FFFFEF7F000070414B
:40164000843600000000E03F04360000DDE902235046594600F0B2FF3F15C1F30A53FB1A102B81468846C4E90001ABDD58A3D3E90023DDE9040101F055F980468946024655
:401680000B465046594600F099FFCDE9060102460B465046594600F091FF42464B4600F08DFF4DA3D3E9002380468946DDE9040101F038F942464B4600F080FF02460B460A
:4016C000CDE90201DDE9060100F078FF0B4602468846C1F30A517F1A312F8146C4E9002372DD3FA3D3E90023DDE9040101F01AF98046894602460B46DDE9060100F05EFFD0
:4017000002460B4682468B46DDE9060100F056FF42464B4600F052FF33A3D3E9002380468946DDE9040101F0FDF842464B4600F045FFCDE9020139E700F042FF2E4B80467A
:401740009F42894622D02AA3D3E9002300F038FF02460B464046C4E90023494600F02EFF23A3D3E9002300F02BFF4FF0FF35C4E90201BEE66268E36802F1004203F1004352
:4017800045426260E360B4E603239DE610A3D3E9002300F015FF10A3D3E9002306460F4600F00EFF02460B463046C4E90023394600F004FF08A3D3E9002300F001FF4FF08A
:4017C000FF35C4E9020194E6DDE906ABFAE600BF0000601A61B4D03D7370032E8A19A33B0000002E8A19A33BC14920259A837B393163621A61B4D03DFB21F93F00000000EF
:401800002DE9F04F21F00046B6F1795F85B00C4692469B4605466BDA01F01EFB002800F0E7802A4623462846214601F07BF874A3D3E900238046894601F074F872A3D3E959
:40184000002300F0BDFE42464B4601F06BF870A3D3E9002300F0B2FE42464B4601F062F86DA3D3E9002300F0ABFE42464B4601F059F86BA3D3E9002300F0A0FE42464B46C0
:4018800001F050F868A3D3E9002300F099FE42464B4601F047F8CDE900010022644B4046494601F03FF8DDE9002306460F464046494601F037F85246804689465B46284675
:4018C000214601F02FF802460B464046494600F075FE02460B463046394600F06FFE02460B460020534900F069FE05B0BDE8F08F02460B4601F016F841A3D3E900238046C7
:40190000894601F00FF840A3D3E9002300F058FE42464B4601F006F83DA3D3E9002300F04DFE42464B4600F0FDFF3BA3D3E9002300F046FE42464B4600F0F4FF38A3D3E94D
:40194000002300F03BFE42464B4600F0EBFF36A3D3E9002300F034FE4B46424600F0E2FF354BCDE900019E4297DD344B00229E4238DCA6F5001300202E4916461F4600F04E
:401980001DFECDE902010022294B4046494600F0C9FF32463B4600F011FEDDE9002306460F464046494600F0BDFF5246804689465B462846214600F0B5FF02460B46404647
:4019C000494600F0FBFD02460B463046394600F0F5FD02460B46DDE9020100F0EFFD05B0BDE8F08F164B0026CDE90223154FCAE71049002005B0BDE8F08F00BFAFF300803F
:401A0000D43888BEE9FAA8BDC4B1B4BD9EEE213EAD529C804F7E923E9015CB19A001FA3E7751C1166CC1563F4C5555555555A53F0000E03F0000F03F3233D33F0000E93FFA
:401A40000000E73F0000D23F2DE9F04F794CADF51D7D1F460B93D31E84FB0354DB17C3EBA403A69E744C23EAE37554F826406B1C26460994A3EB83037C1E0D95029402EB4A
:401A8000C3032D1B341904900A91089316D42C44013422AEA79F08E057F8250000F0DCFE0135A542E6E9020108D0002DF4DA013500200021A542E6E90201F6D1099B002BAE
:401AC0002FDB099B74AADDF8089002EBC30B0DF5E47A029B002BC0F295810B9B0026C3EB090824AB03EBC808049B0027A3F1080524AB03EBC904F5E9022374E8020100F0A7
:401B000011FF02460B463046394600F059FD444506460F46EFD1EAE90267DA4509F10109D7D1099B10A91D4603F18043023B9B001A1D0A440B440F920E939CAB03EBC5036E
:401B4000002D53E928672BDD9CAB03EBC504A83C0DF13C0A0DF5E47B0022384B3046394600F0E0FE01F078F900F076FE0022344B8046894600F0D6FE02460B463046394628
:401B800000F01CFD01F068F974E802234AF8040F4946404600F014FD5C4506460F46DBD1089C30463946224600F08AFC00224FF07F5306460F4600F0B5FE00F0F9FB0022FC
:401BC000204B00F0AFFE02460B463046394600F0F5FC0F46064601F03FF9814600F03CFE02460B463046394600F0E8FC002C06460F4640F3EE80681E10AB53F82030C4F152
:401C0000180243FA02F101FA02F29B1AC4F1170810AA42F82030894443FA08F8B8F1000F3DDD002D09F1010940F3D382002214460FA911E0ABAAAA2A8C3700000000703E4A
:401C40000000704100002040C3F180700BB108600124013295420DDD51F8043F002CF3D0C3F1FF13013203F57F4395420B604FF00104F1DC089B002B0DDD012B00F0B180EC
:401C8000022B08D16A1E10AB53F8223010A9C3F3150341F82230B8F1020F00F08180002200233046394601F0A5F8002800F05B82099B05F1FF3B5B4510DC05F1804310AAF1
:401CC000013B0F9802EB8303002253F80419834242EA0102F9D1002A40F0B180099B10AA013B52F82330002B40F071820E9A012352F8041901330029FAD0E9186A1C8A4289
:401D00000C914BDC0D990B985118DB0001F180410593A79B05440139E80003EB810A24ABD20003EB000B74AB13440193A2F10803069007934FF000095AF8040F00F08CFD49
:401D4000029BEBE80201002B4FF000064FF000071BDB069B03EB0904079B09EB030824AB1C449844049BA3F10805F5E9022374E8020100F0D7FD02460B463046394600F018
:401D80001FFC444506460F46EFD1019B09F10809E3E802670193059B9945CDD10C9DCCE632463B460020B04900F008FC06460F46002C3FF474AF089A0020AB4900F080FBEE
:401DC00002460B463046394600F0F8FB06460F4665E710D16B1E10AA52F823304FEAE3581CE76A1E10AB53F8223010A9C3F3160341F822304FE700229C4B01F019F858B908
:401E000080464CE700260027EAE90267DA4509F101097FF45EAE84E6002D09F10109C8BF4FF002083FF702AF32463B4600208E4900F0C4FB4FF0020806460F462FE7089AEB
:401E400010AB53F82B30183ACDF81490CDF8048008926BB90BF18043013B10A901EB830353F804190BF1FF3B183A0029F8D00892089A00207C4900F023FBBBF1000F044604
:401E80000D46C0F2B6814FEACB030DF5E87810AA02EB8B0608EB03090493043609F1080756F8040D00F0D8FC22462B4600F03AFD002267E902016E4B2046294600F032FD27
:401EC000B84504460D46EBD14B46CDF818B09B460DF5987ACDF808A0DDF824A04FF00009BAF1000FC0F226815DA3D3E90023DFF884815D4600260027002403E0A14510DB95
:401F0000F8E90223F5E8020100F00CFD02460B463046394600F054FB0134A24506460F46ECDA029BABF1080B03EBC903C3E9006772AB5B4509F10109D2D1A69BDDF818B017
:401F4000DDF808A0032B00F28380DFE813F0D100950095000400BBF1000F40F35481049BCDF808B053449846D3E90067D34658E9029A32463B464846514600F021FB044617
:401F80000D4602460B464846514600F017FB32463B4600F015FBC8E9000168E90245C34526462F46E3D1DA46DDF808B0BBF1010F40F32981049B0DF59C7B53449846D3E9FF
:401FC0000067994659E902343046CDE902341A463946234600F0F4FA04460D4602460B46DDE9020100F0EAFA32463B4600F0E8FAC9E9000169E90245CB4526462F46E1D10E
:4020000000231D4608F1080850AC184678E90223294600F0D5FA444503460D46F5D1019A002A00F0D880DAF80440DAF80C200A9FDAF80010DAF8080005F1004504F100441E
:4020400002F100427D613B617C60FA603960B860059B03F007000DF51D7DBDE8F08F00BF00000040FB21F93F0000F03F0000E03F0000703EA037000000242146049D0835E1
:40208000554475E90223204600F09AFA55450446F7D1019B002B50D00A9F01F100450B46DAE9000187E83000224600F087FABBF1000F03460D460DDD01241846FAE902234E
:4020C000294600F07DFA0134A34503460D46F4DA019A0AB105F10045184629460A9BC3E90201059B03F007000DF51D7DBDE8F08F00231C46049A0832924418467AE902235E
:40210000214600F05DFA0BF1FF3BBBF1FF3F03460C46F2D1019A0AB104F10044184621460A9BC3E90001059B03F007000DF51D7DBDE8F08F00260027F3E626460F46224624
:402140000A9C0B46DAE90001C4E9006700F036FABBF1000F03460D46AEDC184629460A9BC3E90201BDE7089B30465A423946CDF81490CDF8048000F0A3F900222C4B064673
:402180000F4600F055FE002840D00022294B3046394600F0C7FB00F05FFE044600F05CFB0022234B00F0BEFB0B4602463946304600F004FA00F050FE089B05F1010B183351
:4021C000089310AB43F8250043F82B4050E6012393E500244EE51846DAE90067DAE9022329460A9DC5E90067C5E90401C5E902232EE7A69B032B3FF62BAFDFE803F01510C7
:4022000010020DF5987A00231D4608E73046394600F022FE10ABAB4643F8250028E6002421460DF5987A34E700231C4672E700BF000070410000703E2DE9F04F21F0004682
:40224000B6F1795F85B00C4690469946054604DA00F002FE002800F085802A4623462846214600F05FFB06460F4602460B462846214600F057FB3EA3D3E9002382468B46CB
:402280003046394600F04EFB3BA3D3E9002300F095F932463B4600F045FB39A3D3E9002300F08EF932463B4600F03CFB36A3D3E9002300F083F932463B4600F033FB34A328
:4022C000D3E9002300F07CF90E9BCDE900019BB30022334B4046494600F024FBDDE90023CDE902015046594600F01CFB02460B46DDE9020100F062F932463B4600F012FBA7
:4023000042464B4600F05AF923A3D3E9002306460F465046594600F005FB02460B463046394600F04DF902460B462846214600F045F905B0BDE8F08F02460B46304639460F
:4023400000F0F0FA14A3D3E9002300F037F952465B4600F0E7FA2A46234600F031F905B0BDE8F08F2846214605B0BDE8F08F00BF7CD5CF5A3AD9E53DEB9C2B8AE6E55A3E3C
:402380007DFEB157E31DC73ED561C119A0012A3FA6F810111111813F495555555555C53F0000E03F21F00041704700BF00000000C1F30A522DE9F843A2F2FF36132E0B4641
:4023C00004460D46884607461CDC002E3FDB3A4A864642FA06F901EA0902024317D034A3D3E9002300F0ECF80022002300F02AFD20B1002D40DB28EA090500273846294605
:40240000BDE8F883332E06DDB6F5806F2FD020461946BDE8F883A2F213424FF0FF3929FA02F910EA090FF2D021A3D3E9002300F0C7F80022002300F005FD0028DED0002DDC
:4024400020DB454627EA090738462946D8E718A3D3E9002300F0B4F80022002300F0F2FC0028CBD0002D18DB00273D46C6E702460B4600F0A5F8CCE74FF4801343FA06F68E
:40248000B044B8E7142E10D00123C6F1340603FA06F6371928BF9844D3E725F00042074B224318BF1D460027A8E705F10108C8E79C7500883CE4377EFFFF0F000000F0BFB6
:4024C000F8B5C1F30A5604460D460B46174606BB21F00043034325D000222F4B00F022FA2E4A044697420D460B462ADBC1F30A56363E40F2FE723E44964228DC002E12DDEF
:4025000023F0FF4323F4E00343EA065520462946F8BD40F2FF729642EBD102460B4600F04FF8F8BDF8BD16F1350F1DDA4CF250339F420CDC14A1D1E9000122462B4600F0C4
:4025400031F811A3D3E9002300F0ECF9F8BD22460FA1D1E900012B4600F024F80CA3D3E9002300F0DFF9F8BD23F0FF4323F4E003363643EA0655204629460022084B00F03D
:40258000D1F9F8BDAFF3008059F3F8C21F6EA5019C7500883CE4377E00005043B03CFFFF0000903C03F0004321F0004242EA0301704700BF81F0004102E000BF83F0004352
:4025C00030B54FEA41044FEA430594EA050F08BF90EA020F1FBF54EA000C55EA020C7FEA645C7FEA655C00F0E2804FEA5454D4EB5555B8BF6D420CDD2C4480EA020281EA57
:40260000030382EA000083EA010180EA020281EA0303362D88BF30BD11F0004F4FEA01314FF4801C4CEA113102D0404261EB410113F0004F4FEA03334CEA133302D05242AC
:4026400063EB430394EA050F00F0A780A4F10104D5F1200E0DDB02FA0EFC22FA05F2801841F1000103FA0EF2801843FA05F359410EE0A5F120050EF1200E012A03FA0EFC57
:4026800028BF4CF0020C43FA05F3C01851EBE37101F0004507D54FF0000EDCF1000C7EEB00006EEB0101B1F5801F1BD3B1F5001F0CD349085FEA30004FEA3C0C04F1010434
:4026C0004FEA445212F5800F80F09A80BCF1004F08BF5FEA500C50F1000041EB045141EA050130BD5FEA4C0C404141EB010111F4801FA4F10104E9D191F0000F04BF0146C1
:402700000020B1FA81F308BF2033A3F10B03B3F120020CDA0C3208DD02F1140CC2F10C0201FA0CF021FA02F10CE002F11402D8BFC2F1200C01FA02F120FA0CFCDCBF41EAB5
:402740000C019040E41AA2BF01EB0451294330BD6FEA04041F3C1CDA0C340EDC04F11404C4F1200220FA04F001FA02F340EA030021FA04F345EA030130BDC4F10C04C4F1EC
:40278000200220FA02F001FA04F340EA0300294630BD21FA04F0294630BD94F0000F83F4801306BF81F480110134013D4EE77FEA645C18BF7FEA655C29D094EA050F08BF79
:4027C00090EA020F05D054EA000C04BF1946104630BD91EA030F1EBF0021002030BD5FEA545C05D14000494128BF41F0004130BD14F580043CBF01F5801130BD01F0004521
:4028000045F0FE4141F470014FF0000030BD7FEA645C1ABF194610467FEA655C1CBF0B46024650EA013406BF52EA033591EA030F41F4002130BD00BF90F0000F04BF002153
:40284000704730B54FF4806404F132044FF000054FF0000150E700BF90F0000F04BF0021704730B54FF4806404F1320410F0004548BF40424FF000013EE700BF42004FEA22
:40288000E2014FEA31014FEA02701FBF12F07F4393F07F4F81F06051704792F0000F14BF93F07F4F704730B54FF4607401F0004521F0004120E700BF50EA010208BF7047E2
:4028C00030B54FF000050AE050EA010208BF704730B511F0004502D5404261EB41014FF4806404F132045FEA915C3FF4DCAE4FF003025FEADC0C18BF03325FEADC0C18BF2A
:40290000033202EBDC02C2F1200300FA03FC20FA02F001FA03FE40EA0E0021FA02F11444C1E600BF70B54FF0FF0C4CF4E06C1CEA11541DBF1CEA135594EA0C0F95EA0C0FD9
:4029400000F0DEF82C4481EA030621EA4C5123EA4C5350EA013518BF52EA033541F4801143F4801338D0A0FB02CE4FF00005E1FB02E506F00042E0FB03E54FF00006E1FB78
:4029800003569CF0000F18BF4EF0010EA4F1FF04B6F5007F64F5407404D25FEA4E0E6D4146EB060642EAC62141EA55514FEAC52040EA5E504FEACE2EB4F1FD0C88BFBCF515
:4029C000E06F1ED8BEF1004F08BF5FEA500E50F1000041EB045170BD06F0004646EA010140EA020081EA0301B4EB5C04C2BFD4EB0C0541EA045170BD41F480114FF0000E1E
:402A0000013C00F3AB8014F1360FDEBF002001F0004170BDC4F10004203C35DA0C341BDC04F11404C4F1200500FA05F320FA04F001FA05F240EA020001F0004221F00041F0
:402A400010EBD37021FA04F642EB06015EEA430E08BF20EAD37070BDC4F10C04C4F1200500FA04F320FA05F001FA04F240EA020001F0004110EBD37041F100015EEA430EFD
:402A800008BF20EAD37070BDC4F1200500FA05F24EEA020E20FA04F301FA05F243EA020321FA04F001F0004121FA04F220EA020000EBD3705EEA430E08BF20EAD37070BD27
:402AC00094F0000F0FD101F00046400041EB010111F4801F08BF013CF7D041EA060195F0000F18BF704703F00046520043EB030313F4801F08BF013DF7D043EA06037047DD
:402B000094EA0C0F0CEA135518BF95EA0C0F0CD050EA410618BF52EA4306D1D181EA030101F000414FF0000070BD50EA410606BF1046194652EA430619D094EA0C0F02D1F0
:402B400050EA013613D195EA0C0F05D152EA03361CBF104619460AD181EA030101F0004141F0FE4141F470014FF0000070BD41F0FE4141F4780170BD70B54FF0FF0C4CF493
:402B8000E06C1CEA11541DBF1CEA135594EA0C0F95EA0C0F00F0A7F8A4EB050481EA030E52EA03354FEA013100F088804FEA03334FF0805545EA131343EA12634FEA022290
:402BC00045EA111545EA10654FEA00260EF000419D4208BF964244F1FD0404F5407402D25B084FEA3202B61A65EB03055B084FEA32024FF480104FF4002CB6EB020E75EBEE
:402C0000030E22BFB61A754640EA0C005B084FEA3202B6EB020E75EB030E22BFB61A754640EA5C005B084FEA3202B6EB020E75EB030E22BFB61A754640EA9C005B084FEA3D
:402C40003202B6EB020E75EB030E22BFB61A754640EADC0055EA060E18D04FEA051545EA16754FEA06164FEAC30343EA52734FEAC2025FEA1C1CC0D111F4801F0BD141EA44
:402C800000014FF000004FF0004CB6E711F4801F04BF01430020B4F1FD0C88BFBCF5E06F3FF6AFAEB5EB030C04BFB6EB020C5FEA500C50F1000041EB045170BD0EF0004E59
:402CC0004EEA113114EB5C04C2BFD4EB0C0541EA045170BD41F480114FF0000E013C90E645EA060E8DE60CEA135594EA0C0F08BF95EA0C0F3FF43BAF94EA0C0F0AD150EA5E
:402D000001347FF434AF95EA0C0F7FF425AF104619462CE795EA0C0F06D152EA03353FF4FDAE1046194622E750EA410618BF52EA43067FF4C5AE50EA41047FF40DAF52EA31
:402D400043057FF4EBAE12E74FF0FF3C06E000BF4FF0010C02E000BF4FF0010C4DF804CD4FEA410C7FEA6C5C4FEA430C18BF7FEA6C5C1BD001B050EA410C0CBF52EA430CD8
:402D800091EA030F02BF90EA020F0020704710F1000F91EA030F58BF994208BF90422CBFD8176FEAE37040F0010070474FEA410C7FEA6C5C02D150EA013C07D14FEA430C6C
:402DC0007FEA6C5CD6D152EA033CD3D05DF8040B704700BF8446104662468C461946634600E000BF01B5FFF7B7FF002848BF10F1000F01BD4DF808EDFFF7F4FF0CBF012054
:402E000000205DF808FB00BF4DF808EDFFF7EAFF34BF012000205DF808FB00BF4DF808EDFFF7E0FF94BF012000205DF808FB00BF4DF808EDFFF7CEFF94BF012000205DF857
:402E400008FB00BF4DF808EDFFF7C4FF34BF012000205DF808FB00BF4FEA410212F5001215D211D56FF47873B3EB625212D94FEAC12343F0004343EA505311F0004F23FA95
:402E800002F018BF404270474FF00000704750EA013005D111F0004008BF6FF0004070474FF00000704700BF4FEA4102B2F1E04324BFB3F5001CDCF1FE5C0DD901F0004C93
:402EC0004FEAC0024CEA5070B2F1004F40EB830008BF20F00100704711F0804F21D113F13872BCBF01F00040704741F480114FEA5252C2F11802C2F1200C10FA0CF320FA6D
:402F000002F018BF40F001004FEAC1234FEAD32303FA0CFC40EA0C0023FA02F34FEA4303CCE77FEA625307D150EA01331EBF4FF0FE4040F44000704701F0004040F0FE4044
:402F400040F40000704700BF80F0004002E000BF81F0004142001FBF5FEA410392EA030F7FEA226C7FEA236C6AD04FEA1262D2EB1363C1BFD218414048404140B8BF5B4258
:402F8000192B88BF704710F0004F40F4000020F07F4018BF404211F0004F41F4000121F07F4118BF494292EA030F3FD0A2F1010241FA03FC10EB0C00C3F1200301FA03F131
:402FC00000F0004302D5494260EB4000B0F5000F13D3B0F1807F06D340084FEA310102F10102FE2A51D2B1F1004F40EBC25008BF20F0010040EA03007047490040EB00004C
:4030000010F4000FA2F10102EDD1B0FA80FCACF1080CB2EB0C0200FA0CF0AABF00EBC25052421843BCBFD0401843704792F0000F81F4000106BF80F400000132013BB5E774
:403040004FEA41037FEA226C18BF7FEA236C21D092EA030F04D092F0000F08BF0846704790EA010F1CBF0020704712F07F4F04D1400028BF40F00040704712F100723CBFBE
:4030800000F50000704700F0004343F0FE4040F4000070477FEA226216BF08467FEA23630146420206BF5FEA412390EA010F40F4800070474FF0000304E000BF10F00043BC
:4030C00048BF40425FEA000C08BF704743F0964301464FF000001CE050EA010208BF70474FF000030AE000BF50EA010208BF704711F0004302D5404261EB41015FEA010C04
:4031000002BF84460146002043F0B64308BFA3F18053A3F50003BCFA8CF2083AA3EBC25310DB01FA02FC634400FA02FCC2F12002BCF1004F20FA02F243EB020008BF20F026
:403140000100704702F1200201FA02FCC2F1200250EA4C0021FA02F243EB020008BF20EADC7070474FF0FF0C1CEAD0521EBF1CEAD15392EA0C0F93EA0C0F6FD01A4480EA6C
:40318000010C400218BF5FEA41211ED04FF0006343EA501043EA5111A0FB01310CF00040B1F5000F3EBF490041EAD3715B0040EA010062F17F02FD2A1DD8B3F1004F40EB8B
:4031C000C25008BF20F00100704790F0000F0CF0004C08BF49024CEA502040EA51207F3AC2BFD2F1FF0340EAC250704740F400004FF00003013A5DDC12F1190FDCBF00F072
:4032000000407047C2F10002410021FA02F1C2F1200200FA02FC5FEA310040F1000053EA4C0308BF20EADC70704792F0000F00F0004C02BF400010F4000F013AF9D040EAAC
:403240000C0093F0000F01F0004C02BF490011F4000F013BF9D041EA0C018FE70CEAD15392EA0C0F18BF93EA0C0F0AD030F0004C18BF31F0004CD8D180EA010000F00040B4
:40328000704790F0000F17BF90F0004F084691F0000F91F0004F14D092EA0C0F01D142020FD193EA0C0F03D14B0218BF084608D180EA010000F0004040F0FE4040F4000010
:4032C000704740F0FE4040F4400070474FF0FF0C1CEAD0521EBF1CEAD15392EA0C0F93EA0C0F69D0A2EB030280EA010C49024FEA402037D04FF0805343EA111143EA1013F8
:403300000CF000408B4238BF5B0042F17D024FF4000C8B4224BF5B1A40EA0C00B3EB510F24BFA3EB510340EA5C00B3EB910F24BFA3EB910340EA9C00B3EBD10F24BFA3EB95
:40334000D10340EADC001B0118BF5FEA1C1CE0D1FD2A3FF650AF8B4240EBC25008BF20F0010070470CF0004C4CEA50207F32C2BFD2F1FF0340EAC250704740F400004FF00F
:403380000003013A37E792F0000F00F0004C02BF400010F4000F013AF9D040EA0C0093F0000F01F0004C02BF490011F4000F013BF9D041EA0C0195E70CEAD15392EA0C0F3F
:4033C00008D142027FF47DAF93EA0C0F7FF470AF084676E793EA0C0F04D14B023FF44CAF08466EE730F0004C18BF31F0004CCAD130F000427FF45CAF31F000437FF43CAFC4
:403400005FE700BF4FF0FF3C06E000BF4FF0010C02E000BF4FF0010C4DF804CD4FEA40024FEA41037FEA226C18BF7FEA236C11D001B052EA530C18BF90EA010F58BFB2EB19
:40344000030088BFC81738BF6FEAE17018BF40F0010070477FEA226C02D15FEA402C05D17FEA236CE4D15FEA412CE1D05DF8040B704700BF844608466146FFE70FB5FFF721
:40348000C9FF002848BF10F1000F0FBD4DF808EDFFF7F4FF0CBF012000205DF808FB00BF4DF808EDFFF7EAFF34BF012000205DF808FB00BF4DF808EDFFF7E0FF94BF01200C
:4034C00000205DF808FB00BF4DF808EDFFF7D2FF94BF012000205DF808FB00BF4DF808EDFFF7C8FF34BF012000205DF808FB00BF4FEA4002B2F1FE4F0FD34FF09E03B3EBDC
:4035000012620DD94FEA002343F0004310F0004F23FA02F018BF404270474FF00000704712F1610F01D1420205D110F0004008BF6FF0004070474FF000007047014B18687D
:40354000704700BF3C81FF1F0E4B70B51E460E4C0025E41AA410A54204D056F8253098470135F8E700F03EF9084B094C1E46E41AA4100025A54204D056F825309847013518
:40358000F8E770BDF0370000F0370000F0370000F837000010B5431E0A44914204D011F8014B03F8014FF8E710BD03460244934202D003F8011BFAE770470000000000000F
:4035C000004F00401800405100403000F0510040100000000140001000140140800000150140000700400140000A004C01400002005001402000000080140140F80B004824
:4036000080000000FB21F93FFB2109407CD91240FB2119407A6A1F407CD92240BBFD2540FB2129403A462C407A6A2F405C4731407CD932409C6B3440BBFD3540DB8F3740F6
:40364000FB2139401BB43A403A463C405AD83D407A6A3F404C7E40405C4741406C1042407CD942408CA243409C6B4440AC344540BBFD4540CBC64640DB8F4740EB5848406A
:40368000FB21494083F9A200444E6E00FC291500D1572700DD34F50062DBC0003C999500419043006351FE00BBDEAB00B761C5003A6E2400D24D42004906E00009EA2E00ED
:4036C0001C92D100EB1DFE0029B11C00E83EA700F535820044BB2E009CE98400B4267000417E5F00D6913900538339009CF439008B5F840028F9BD00F81F3B00DEFF9700AE
:403700000F980500112FEF000A5A8B006D1F6D00CF7E360009CB2700464FB7009E663F002DEA5F00BA277500E5EBC7003D7BF100F739070092528A00FB6BEA001FB15F0089
:40374000085D8D00300356007BFC4600F0AB6B0020BCCF0036F49A00E3A91D005E619100081BE60085996500A0145F008D40680080D8FF0027734D0006063100CA5615001F
:40378000C9A873007BE260006B8CC000020000000300000004000000060000000000000000000040FB21F93F000000002D44743E000000809846F83C0000006051CC783B29
:4037C00000000080831BF0390000004020257A38000000802282E336000000001DF3693543000000F8B500BFF8BC08BC9E4670474D000000A5080000F8B500BFF8BC08BCC0
:403800009E4670472900000018380000C880FF1F7800000070000000000000000000E02EC05D00001800000000366E0100000000000000000000000000000000000000003E
:40384000000000000000000000000000E037000000000000000000000000000000000000000000000000000000000000000000000000000000000000000000000000000031
:40388000000000000000000000000000DC80FF1F0000000000000000000000000000000000000000000000000000000000000000000000000000000000000000000000008E
:4038C00000000000000000000000000000000000000000000000000000000000000000000000000000000000000000000000000000000000000000000000000000000000C8
:403900000000000000000000000000000000000000000000000000000000000000000000000000000000000000000000000000000000000000000000000000000000000087
:403940000000000000000000000000000000000000000000000000000000000000000000000000000000000000000000000000000000000000000000000000000000000047
:403980000000000000000000000000000000000000000000000000000000000000000000000000000000000000000000000000000000000000000000000000000000000007
:020000040003F7
:0200000480007A
:40000000044F00400552004005640040046500405E000140310101404D02014038030140500401404705014044060140370701404B0801403E0901400B0B0140510C0140E9
:40004000300D0140181401404415014055160140421701406518014052190140401A01403B1B0140044001400D410140084201400343014002450140024601400147014059
:400080000A48014007490140054C0140085001400151014001500A360D6016360003010210101C086104810F850F866F880F8D0D85728638896F8B0F040705730A070B0F26
:4000C0000C010D9E0E020F60100415941604176019CF1A081B302407280129FD2A022B022D302FC9320F35FF3F104050410349FF4AFF4BFF4DA04F045018580459045A04CC
:400100005C015D035F01604062C06440654066C068C06AC06CC06EC0830287018E0C900896019D019E02A602AF02B004B101B208B302B402B601BE10C050C103C5D0C620F9
:40014000C751C83AC9FFCAFFCBFFCDAFCE0FCF04D018D407D804D904DA04DB04DC33DD33DF01E040E2C0E440E540E6C0E8C0EAC0ECC0EEC000540602080109200A200D087C
:400180000E8210041210162018101B081D401EA8212027A0280129102A102B022C02300432103304354038543C023D0842204620480149804A014D804F015402550C562234
:4001C0005E285F81C087C2BEC426CA1CCC16CECED042D218D6F0040407020A041104160217011E0422012404250629062A042E023004310633013402360139023E013F0173
:400200004001474049FF4A074BFF4C404D204EF04F0550085280580459045A045B045C135D325F01604061A8624063208418850E8B018C308D188F0490029201943095107F
:40024000970299189B029C019E02A001A206A401A602A828A916AB08AF1EB003B11EB438B604B701B820BA02D804D904DC11DF010044050806040A610D080E0210041108A3
:40028000128016AA18041A491B021C0A1E8020402280242025042780280429102B022D082E202F0432103304360B38643C023E0A3F0447804F04550176808A089444962089
:4002C0009D109F04A108A308A401A702AF20B410C065C2ADC4FECA6CCCC6CE4ED010E4800206030C06030703110C120213031501160517061A011F082501270E2C062E013E
:40030000310F32073A083B02580459045C225F0181288406858086188A0A9014913892089344940695589608972298019B069D20A112A210A320A501A806A960AA08AB1817
:40034000B001B21EB33EB501B7C0B980BA08BE01BF10C032C106C6E0C7BCC838C9FFCAFFCBFFCEF0CF44D00CD401D604D804D904DA04DB04DC22DD22DF01E6C0EA40EB02AC
:4003800001090504060809090A800B040E180F40120215011604172119081A101D0C1E401F04220223402604271929082D012F24310832C23508368A371039013A083E08B5
:4003C0003F02450846084E08560457215D025E805F2867808A028B40904092089304962097089A089D189E049F04A101A240A30AA602B004C06CC27EC451CAE2CCFBCEC3F3
:40040000D060D220D6F0D880E080E680EA2003080E0412011304150217011D011E021F02280229012B022D012F023004320133043402350337083B203E10540F58045904E7
:400440005B045C115D105F05871E880389018A0C8C058D188E0A8F02900A9205940C950E9603980799189B049C10A020A321A40FA916AA10AB08AC20AD10AF02B020B32048
:40048000B40FB51EB610B701B802BE40BF40D804D904DC11DF01030607010A6A0C800E821080112012111720188819901E881F0520102210230224042680272529102A1107
:4004C0002B022F0532143681370438543C403E425DA05E085F02660467047E049040920896209A029D109F04A30AB102B320B640C083C29FC44FCA3DCCD6CE8ED6F0D860D1
:40050000DE20EE400073010805010894090E0A600D0E1102130417011C301EC91F0E20CF2230231024FD25012602289E29022A602B042E0F2F08311E350136FF3E403F10AB
:40054000540F580459045B045C405D405F01810C830384048602890A8B058C028D078E04900292049402950F960C99109E019F20A110A210A810A903AB0CAD05AF0AB010B9
:40058000B110B201B30FB406B608B720B902BA20BE01D804D904DC44DF0101800320051006400A900B020D400F02108011201280151A1680175119F01A501B201F80208038
:4005C000210422482310250126102740284029102B012D202E802F903020314032083501374439123A403BC03E083F525C405D015F2883018B489040938095089A089B20F7
:400600009F51A110A4C0C055C28DC4FACAFDCCDECEFDD6F0E6049040938095089A089B209F51A110A4C0B304B408B50209010F01120118011C061D01200C2302240A280C62
:400640002E01300133013502360E38803E013F044060410249FF4AFF4BFF4DA04F045018580459045A045C445F01604062C06440654066C068C06AC06CC06EC092019A02A8
:400680009B03A604AA02AB02AD01B002B101B401B502B604BE01C020C106C5D1C702C813C9FFCAFFCBFFCDAFCE0FCF04D018D280D405D804D904DA04DB04DF01E040E2C00F
:4006C000E440E540E6C0E8C0EAC0ECC0EEC009020A040DA00E40102012041508175119621A041B101C401D801F40210123042530272029602C80302037403C803D203E40EC
:400700004080410142044604482849014F20500852045888590171029A08B608C2DAC4F6CA8CCC14CE30D024D224D60BE8103B084024410349FF4AFF4BFF4DA04F0150188B
:4007400059045A045C205D015F016040628064406540668068406A806C406D206E800505070A0E040F111480169A1C201D011F5122082310261027522C182E082F113510B4
:40078000360837423C083E82400841024240430C4408450247044C804E404F04551156055E206C157404751076127708800883018410860188089244942A9681978598803D
:4007C00099049C109E059F10A308A480A511A608A921B201B404C0F0C2E0C4F0CA70CCF0CED0D0E7D620001004F3070208F313011482162918201AC41B021C411E2A2301BF
:4008000030103102320334E03501360C3E403F11403441064202440145EC480349FF4AFF4BFF4C624DA04EF04F41500C54185604580459045A045B045C025D225F01664037
:40084000670269106A306B106D106E106F12870188048DC58E048F3A9002919693689404950E97F0980299A39B5C9C04A002A404A57FA9FEAA01AB01AE08B002B1FFB40C1D
:40088000B601B802BE01BF01D804D904DC01DF010306042A08200AA80B020E240F011122121218041A421D861E2422022748282029102A102F40321033063502371038448C
:4008C0003F084490458247104D024E084F08580859405B485E016408654066027C407F0186048A02904092289602970499109B049D209E05A30AA480A510B444C073C2EF36
:40090000C40FCA86CCA7CE4AD0F0D220D680D8B0E284E408000101080301090C0B010D07110C1302150B17041B0F2201231031103401370F39083E103F044056410449FF46
:400940004AFF4BFF4DA04F015018580459045A045C405D045F016040628064406540668068406A806C406D206E808501860487108A018D019102930498029D049F02A102F8
:40098000A30CA602A902AB04AD01B002B108B301B404B510B601B706B908BB80BE01BF04C053C104C542C6C3C70EC81FC9FFCAFFCBFFCDAFCE07CF01D018D40FD804D90426
:4009C000DA04DB04DC44DD44DF05E040E280E440E540E680E840EA80EC40ED20EE800008012007400B0410301440164019211B801E042144224623042504274129202A4013
:400A00002B802C40324235103608370139403B883D103F424080410444804501482049804A804B084D804E0551085250581059015A446108621079408104840485089110BF
:400A4000924093C09580972099109A089B049C409F11A101A219A301A420A680B101B208B501B601B714C016C202C414CA8DCCE9CEBAD083D238D60FD806DE08E602E81094
:400A8000EC1000010603070109C50B3A0C040D7F11A31201135C140415FE1701190E1BF01D961E041F682208240428043002340C360137FF3E403F405280580459045B042E
:400AC0005C045D405F01870189188B049118920393029401970199109B029F1EA10EA501A916AB08AE01B202B31EB601B701BE40BF40D280D40FD804D904DB04DC41DD10A0
:400B0000DF01000401020301084009060E100F80101012881740180419021A021E101F80228024202504264027102C082F50305831103248330134403510370538243A2014
:400B40003B803E285D085EA2710277408B80928093A0960299189A089B059F10A219A340B310B740C00DC23DC48ECAE0CCFFCE6ED6F0E280E820EC40304032083680CC701C
:400B80000A010F0257085F808A019B809C40A688AF80C2C0D440D620EA4050108A088B019C40A301A688B308D4209C40A680B4106680D601B280EC048020662068028002B4
:400BC000822088409C40A680D880DA40E220070422808304A680C080C810E08008200C1084109C20C203001F080E0A060C100E1110161A061C12003F0F10F000221800006E
:400C0000040000000C00F323007C0002FF7F00003308000011000004000073000C670018F3040C80085C00214C8030380F40801F800022800000001024030000003C402E17
:400C40003BFFFFFF00AF0701180000000000021104040404222100014000800040408000400080004020800000000000000000000000000000000000C007070003000000D5
:400C80000400000404000400000400000008000400000000C00000CB0B00000000000000101A0A0010000000400008400000000000000000000000000000000000000000B2
:400CC00000000000000000000000000000000000000000000000000000000000000000000000000000000000000000000000000000000000000000000000000000000000F4
:400D000000000000000000000000000000000000000000000000000000000000000000000000000000000000000000000000000000000000000000000000000000000000B3
:400D40000000000000000000000000000000000000000000000000000000000000000000000000000000000000000000000000000000000000000000000000000000000073
:400D80000000000000000000000000000000000000000000000000000000000000000000000000000000000000000000000000000000000000000000000000000000000033
:0200000490006A
:0400000000004005B7
:0200000490105A
:04000000BC90ACAF55
:0200000490303A
:02000000485561
:0200000490402A
:4000000000000000000000000000000000000000000000000000000000000000000000000000000000000000000000000000000000000000000000000000000000000000C0
:400040000000000000000000000000000000000000000000000000000000000000000000000000000000000000000000000000000000000000000000000000000000000080
:400080000000000000000000000000000000000000000000000000000000000000000000000000000000000000000000000000000000000000000000000000000000000040
:4000C0000000000000000000000000000000000000000000000000000000000000000000000000000000000000000000000000000000000000000000000000000000000000
:0200000490501A
:0C00000000012E16106900012E3058BEC1
:00000001FF