:400000000080002011000000550800005508000008B5044B1A6803F53F5302331A6000F021FC00BFFA46004010B5054C237833B9044B13B10448AFF300800123237010BDA0
:400040004081FF1F00000000CC350000084B10B51BB108490848AFF300800848036803B910BD074B002BFBD0BDE81040184700BF000000004481FF1FCC350000C880FF1F10
:400080000000000000000000F8B51B4C23680133236000F07FFE0546606885421CD0401B02F0E2FB12A3D3E9002302F043FC06460F46206803F00AF802F0E8FB02460B463C
:4000C0003046394602F060FD02F0F6FE0B4B1860656000232360F8BD074B1B68B3F57A6F05DD0022054B1A600022034B1A60F8BD9A999999993943405C81FF1F9881FF1F29
:400100002DE9F04100F022FF454B1868454B196802F026FF444903F02DF80546424903F029F8424CA16802F01DFF0646A060E168284602F015FF3C4903F0D0F807463C49E0
:40014000284603F017F880463A49304603F012F80146404602F006FF06463349384603F009F80146304602F0FDFEE560216902F0F9FE0446304903F09BF930B94FF07E51B2
:40018000204603F0B3F910B903E02B4C01E04FF07E54264B1C614FF001050021204603F087F908B94FF0000505F0010000F0B4FB1E4B1D6925F0004002F068FB16A3D3E950
:4001C000002302F0B7FB02F04FFE0446132800DC00240021284603F089F948B100F0DAFD10F1B40F04DA0022104B9A6000240DE000210E4B186903F05BF938B100F0CAFDA4
:40020000B42803DD0022094B9A600024A0B200F04BFDBDE8F08100BF000000000030A1409481FF1F9881FF1F6F12033B5C81FF1FCDCC4C3F0AD7A33C000080BF2DE9F04170
:4002400000F04CFC264B1C6800F000FF241A204602F03CFF8046234902F08CFF224D696902F080FE06466861A869201A02F02EFF1C4903F033F807461C49404602F07AFF8C
:4002800080464FF08141304602F074FF0146404602F068FE06464FF07C51384602F06AFF0146304602F05EFE03F02AF9AC6104460028D4BF0020012000F0B8FF84EAE47069
:4002C000A0EBE47040F698039842A8BF1846B0F5827F00DA002080B200F0C8FFBDE8F0819081FF1F0AD7233C5C81FF1F0000204110B500F06FFB194B1B7F2BB9FF2803D149
:400300000122164B1A7710BD5A1E14490A4482F820000133DBB20B77042B1ED900230B7791F820301B021BB291F8210091F82220120212B291F823401443184302F0C6FEAC
:40034000074902F0CBFF074B1860204602F0BEFE034902F0C3FF044B186010BD5C81FF1F00007A44A481FF1FA081FF1F70B5144B1968002002F0F4FD0646124902F0FAFE2B
:40038000114D696A02F0EEFD044668620F4B1D680F49304602F0EEFE06460021204602F0E9FE0146304602F0DDFD04460949284602F0E0FE0146204602F0D4FD70BD00BF25
:4003C000A481FF1F0AD7233C5C81FF1FA081FF1F0000A041CDCC0C4008B500F0DBFC02F075FE00F1004002F051FA05A3D3E9002302F0A0FA02F060FD08BD00BFAFF300801B
:40040000F981AB3C81B0733F38B562B600F0A0FC642000F043FC002000F0B0FC00224E4B1A6000F0EDFC002000F0BCFC00244B4B1C6000F041FE204600F010FE00F068FF82
:40044000474800F0F5FD474800F0E2FE464800F01DFB464800F0AEFB00F0BCFD00F082FB00F0AAFA002000F089FC27E0FFF7B4FF002103F03BF848B9FFF7AEFF002103F001
:4004800017F838B130A5D5E9004506E030A5D5E9004502E000244FF00045FFF79DFF02F0F5F900F055FF024621F000432046294602F06AFB02F000FD274B186000F056FC8B
:4004C0000028D3D14FF4FA7000F092FB6E2415E0204600F0E3FB012000F050FC4FF4FA7000F086FB002000F049FC4FF4FA7000F07FFB00F03BFC18B90134A4B2842CE7D971
:4005000042F2107000F074FB012000F037FC06E0FFF72CFF104B18600A2000F069FB00F025FC0028F4D000220B4B1A60642000F0B5FB002000F022FC4FF47A7000F058FB5B
:4005400090E700BFAFF300809A9999999999C93F9A9999999999C9BF9481FF1F9081FF1F010100003D020000F102000089000000FEE700BFF0B40022174611E050F82760BF
:40058000F3B226F0FF0608E001EB420511F812406D78A5550132013BDBB2002BF4D10137252FEBD9F0BC70470A4B1B78DBB203F00701094A11701B09013213700822074BED
:4005C0001A70202203F6C3031A704422A3F21A231A707047CF0100496E580040CD51004008B50A46002102F0E8FF08BD38B50024324B1C80582202331A700B2202331A80C5
:4006000018232F4A13703321023211800232137040F2E731023211800232137040F65F11023211800232137045F6BF52254B1A80192502331D70062203F26A231A705222CD
:40064000A3F580731A70204B1B78DBB21F4A13704FF4E1621E4B1A8041F25122023B1A800CE01C4B1B7803F0010343EA440404F003044FF4F07000F05BFE013D0DB1032C84
:40068000EFD115B90320FFF773FF134A4FF48073138007231370002310490B7048200231087013700532137002220D4B1A700D4A137843F03F03137038BD00BF8040004073
:4006C00086400040944000400F010049A14600402242004025420040044000400640004001400040A243004008B502F05BFF08BD38B572B63F4A137843F00403137000248D
:400700000CE03D4D630019194A0011462A44084691882858FFF764FF0134E4B2072CF0D900240BE03449A3001819420088180822416B006BFFF7D8FF0134E4B2002CF1D090
:400740002E494FF09040FFF715FF2D4A2D4B1A60A2F5802203F580631A602B4A137843F0020313701032137843F002031370274C237843F040032370A2F58632513A137833
:4007800043F0100313700A2221492248FFF7ACFF0A2221492148FFF7A7FF052220492148FFF7A2FF0A2220492048FFF79DFF0A221F492048FFF798FF08221F491F48FFF79D
:4007C00093FF0A221E491F48FFF78EFF1E4A137843F0080313701D4D61232B70FFF706FF81232B70FFF7E0FE0E2221461848FFF77BFF38BDE8460040D035000098000048F0
:4008000004040484D804014003500140A0430040EC0E004800510040F80E0048C0510040040F0048CB5100400C0F0048F0510040180F004810510040240F00482251004009
:400840002C0F0048305100402243004000480040B043004008B502F079FE03680C2B00D1FEE7FEE708B5104E104D16E029686B68AC68002204E051F8040B43F8040B0432AD
:40088000A242F8D1E868002203E0002143F8041B04328242F9D11035013E002EE6D102F05BFEFFF7B1FDFEE7010000001038000008B5104A104B1A60104A136843F4007306
:4008C000136000230AE0032B03D80D4A52F8231000E00C490C4A42F8231001332F2BF2D90A4B1A780A4B1A70074A0A4B1A60FFF7FFFE08BD0004FA050CED00E014ED00E0EF
:4009000000000000550800000080FF1FBC760040C080FF1F08ED00E0044A137803F0FB03800000F004001843107070470051004008B572220B4B1A702022FD331A700A4936
:40094000042000F06BF90721042000F07BF90622064B1A70472210331A700222B33B1A7008BD00BF87640040010A00002B65004010B500F0E5FC04460D4A137843F02003D8
:400980001370FD32137843F010031370FC3A137843F0100313701023064A1360A2F5C072136000F015F9204600F0CEFC10BD00BF9764004080E200E008B5054B1B7823B9D2
:4009C000FFF7B6FF0122024B1A70FFF7D1FF08BD8481FF1F084B1B78DBB213F0200F06D0064A1078C0B213F01E0F02D17047002070470020704700BF6465004047650040C3
:400A000013E0104B1B78DBB2072B02D900220D4B1A700C4A1378DBB20B49CB5CDBB20B490B7013780133DBB21370064B1B78DBB2074A1278934204D0064B1B7813F0040F34
:400A4000DFD070478581FF1FA881FF1F486400408681FF1F68640040014B1B689864704708ED00E04001C0B2014B1870704700BF02E400E00422014B1A60704700E100E00A
:400A80000422014B1A60704780E100E010B50446FFF7F6FF2046FFF7DFFF0720FFF7E2FFFFF7E8FF10BD00BF084A137843F0040313701032137843F00403137002F6653204
:400AC000137843F001031370704700BFA3430040014B1870704700BF1B4F0040014B1878704700BF1B4F0040014B1880704700BF1C4F0040014B1880704700BF1E4F004019
:400B000008B5154A137803F0010313700232137803F0FC031370114B1A7802F0CF021A701A7842F030021A701A7802F0F0021A701A7842F00F021A70094A137843F0010331
:400B400013700920FFF7D0FF0920FFF7D3FF0820FFF7BEFF08BD00BF184F0040234F0040194F004008B5054B1B7823B9FFF7C8FF0122024B1A70FFF797FF08BD8881FF1F08
:400B8000014B1B68D864704708ED00E04001C0B2014B1870704700BF03E400E00822014B1A60704700E100E00822014B1A60704780E100E010B50446FFF7F6FF2046FFF734
:400BC000DFFF0720FFF7E2FFFFF7E8FF10BD00BF054A137843F0040313701032137843F004031370704700BFA243004001BE704710B5044605E0084B186800F099FBA4F59A
:400C00000044B4F5004FF6D8034B586800FB04F000F08EFB10BD00BFCC80FF1F70B504460E46074B1D681F2802D90020FFF7DEFF04F01F04103455F8240045F8246070BDD5
:400C400008ED00E038B504460D46072902D90020FFF7CCFF1F2C02D90020FFF7C7FF04F01F0000F1604000F564406D01EDB2057038BD00BF024A137843F0800313707047ED
:400C800073640040014B1880704700BF04680040014B1880704700BF84680040014B1880704700BF44680040014B1880704700BF64680040014B1870704700BF8364004074
:400CC000014B1878704700BF63640040014B188880B27047A468004008B501E0FFF7F6FFFFF7EEFF10F0100FF8D108BD10B5164A137803F0C00343F0090313701F3213785D
:400D000043F001031370114C237843F0010323704FF4E160FFF7B6FF4FF4E160FFF7B8FF6420FFF7BBFF0020FFF7BEFF0020FFF7C1FF00F005FB237843F01003237000F0A6
:400D400003FBFFF7C9FF10BD736400409364004008B5054B1B7823B9FFF7C8FF0122024B1A70FFF787FF08BD8981FF1F024B1878C0F38010704700BF31510040044A1378CF
:400D800003F0FD03400000F002001843107070472051004008B500F05FF8A0F5004000B208BD00BF08B5002803DB80B280F4004002E0A0F5004080B200F048F808BD00BF76
:400DC000024B187800F00F00704700BF67650040014B1870704700BF8765004008B50F20FFF7F6FFFFF7ECFF00F0AAFA034A137843F01003137000F0A7FA08BD97650040A0
:400E000008B500F07BF84FF4004000F01FF8044B1B7813B90122024B1A70FFF7DFFF08BD8A81FF1F024A137843F08003137070477B650040014B1870704700BF8964004040
:400E4000014B1878704700BF69640040014B1880704700BF106A0040024B1B78024B188880B2704708650040906A0040014B188880B27047906A0040014B1880704700BFF9
:400E8000506A0040014B1880704700BF706A004008B501E0FFF7EAFFFFF7D2FF10F0400FF8D108BD08B5134B1A7802F0F8021A701A7802F0FC021A70FFF7EAFF4FF4004012
:400EC000FFF7DAFF4FF40040FFF7C0FF0020FFF7B1FFFFF7B5FF4FF40040FFF7D3FF00F02FFA054A137843F01003137000F02CFA08BD00BF7B6500409964004008B5054B70
:400F00001B7823B9FFF7CEFF0122024B1A70FFF789FF08BD8B81FF1F084A137843F0010313701032137843F00103137002F64D32137843F001031370704700BFA3430040A2
:400F4000014B1870704700BF034F0040014B1878704700BF034F0040014B1880704700BF044F0040014B1880704700BF064F004008B5154A137803F00103137002321378F5
:400F800003F0FC031370114B1A7802F0CF021A701A7842F030021A701A7802F0F0021A701A7842F00F021A70094A137843F0010313700920FFF7D0FF0920FFF7D3FF082003
:400FC000FFF7BEFF08BD00BF004F00400B4F0040014F004008B5054B1B7823B9FFF7C8FF0122024B1A70FFF797FF08BD8C81FF1F024B1B68C3F88400704700BF08ED00E0F8
:401000004001C0B2014B1870704700BF11E400E04FF40032014B1A60704700BF00E100E04FF40032014B1A60704700BF80E100E010B50446FFF7F4FF2046FFF7D9FF072027
:40104000FFF7DEFFFFF7E4FF10BD00BF08B500F05FF8A0F5004000B208BD00BF08B5002803DB80B280F4004002E0A0F5004080B200F048F808BD00BF024B187800F00F0007
:40108000704700BF6C640040014B1870704700BF8C64004008B50F20FFF7F6FFFFF7ECFF00F04EF9034A137843F01003137000F04BF908BD9C64004008B500F07BF84FF404
:4010C000004000F01FF8044B1B7813B90122024B1A70FFF7DFFF08BD8D81FF1F024A137843F08003137070477C640040014B1870704700BF85640040014B1878704700BF90
:4011000065640040014B1880704700BF08680040024B1B78024B188880B270470464004088680040014B188880B2704788680040014B1880704700BF48680040014B1880DB
:40114000704700BF6868004008B501E0FFF7EAFFFFF7D2FF10F0400FF8D108BD08B5134B1A7802F0F8021A701A7802F0FC021A70FFF7EAFF4FF40040FFF7DAFF4FF40040E5
:40118000FFF7C0FF0020FFF7B1FFFFF7B5FF4FF40040FFF7D3FF00F0D3F8054A137843F01003137000F0D0F808BD00BF7C6400409564004008B5054B1B7823B9FFF7CEFF8D
:4011C0000122024B1A70FFF789FF08BD8E81FF1F024B1B68C3F88C00704700BF08ED00E04001C0B2014B1870704700BF13E400E04FF40022014B1A60704700BF00E100E0ED
:401200004FF40022014B1A60704700BF80E100E010B50446FFF7F4FF2046FFF7D9FF0720FFF7DEFFFFF7E4FF10BD00BF044A137803F0F703C00000F0080018431070704731
:4012400020510040024A137843F08003137070477F640040014B1880704700BF1C680040014B1880704700BF9C680040014B1880704700BF5C680040014B1870704700BF6F
:401280008F640040014B1878704700BF6F640040014B188880B27047BC68004008B501E0FFF7F6FFFFF7EEFF10F0100FF8D108BD10B5154A137803F0C00343F0090313701D
:4012C0001F32137843F001031370104C237843F00103237040F6C410FFF7BCFF40F6C410FFF7BEFF0020FFF7C1FF0020FFF7C4FF00F026F8237843F01003237000F024F8E2
:40130000FFF7CCFF10BD00BF7F6400409F64004008B5054B1B7823B9FFF7CAFF0122024B1A70FFF78FFF08BD8F81FF1F000000000230800803D000BF01380046FCD17047FF
:40134000EFF3108072B6704780F31088704700BF30B5214A21F00043934287B01BDD1F4A934205DD02460B4601F030F907B030BD02AA00F035F800F0030001281AD0022883
:401380000FD008B3DDE9020101230093DDE9042300F05AFFEAE70022002300F039FA07B030BDDDE90423DDE9020100F031FA01F10041DBE70090DDE90423DDE9020100F004
:4013C00043FF01F10041D1E7DDE90423DDE9020100F01EFACAE700BFFB21E93FFFFFEF7F2DE9F04F944C21F00047A7428FB040F381801446914A0E46974226DC84A3D3E9B2
:401400000023002940F3A08101F0E0F88C4B80469F42894600F083807FA3D3E9002301F0D5F802460B464046C4E90023494601F0CDF879A3D3E9002301F0C8F80125C4E991
:40144000020128460FB0BDE8F08F7E4A974240F383807D4A974258DC3D15A5F21645A7EB05518B46824601F0FFFC01F0FDF98046894642464B4650465946CDE9088901F0BA
:40148000A5F80022714B01F055FA8B46824601F0EBFC01F0E9F98046894642464B4650465946CDE90A8901F091F80022674B01F041FA00220023CDE90C0101F0A3FC0028C7
:4014C00000F06A81002340464946002201F09AFC002814BF012302235D480221019000912A46214608A800F0B7FA002EC0F24A81054606E0C2E9000100250024C2E9024517
:40150000002528460FB0BDE8F08F02460B4601F05DF80025C4E90201C4E90001F1E740A3D3E9002301F052F83FA3D3E9002306460F4601F04BF802460B463046C4E9002389
:40154000394601F043F838A3D3E9002301F03EF80125C4E90201D4E700F02CFF34A3D3E900238046894601F0E5F90022394B01F02FF801F079FC054601F076F924A3D3E9C7
:401580000023CDE9040101F0D5F902460B464046494601F01BF820A3D3E9002382468B46DDE9040101F0C6F91F2DCDE9020155DC294B6A1E53F822309F424FD002460B46BE
:4015C0005046594601F002F802460B4681468846C4E900234A4643465046594600F0F6FFDDE9022300F0F2FF02460B46002EC4E9022386DA4A4608F1004301F1004184E86A
:401600000C00E160A0606D427BE700BFAFF3008000004054FB21F93F3163621A61B4D03D0000601A61B4D03D7370032E8A19A33B83C8C96D305FE43FFB21E93F7BD9024013
:40164000FB21F93FFB213941FFFFEF7F000070418C3600000000E03F0C360000DDE902235046594600F0B2FF3F15C1F30A53FB1A102B81468846C4E90001ABDD58A3D3E948
:401680000023DDE9040101F055F98046894602460B465046594600F099FFCDE9060102460B465046594600F091FF42464B4600F08DFF4DA3D3E9002380468946DDE9040143
:4016C00001F038F942464B4600F080FF02460B46CDE90201DDE9060100F078FF0B4602468846C1F30A517F1A312F8146C4E9002372DD3FA3D3E90023DDE9040101F01AF9D5
:401700008046894602460B46DDE9060100F05EFF02460B4682468B46DDE9060100F056FF42464B4600F052FF33A3D3E9002380468946DDE9040101F0FDF842464B4600F0BF
:4017400045FFCDE9020139E700F042FF2E4B80469F42894622D02AA3D3E9002300F038FF02460B464046C4E90023494600F02EFF23A3D3E9002300F02BFF4FF0FF35C4E9ED
:401780000201BEE66268E36802F1004203F1004345426260E360B4E603239DE610A3D3E9002300F015FF10A3D3E9002306460F4600F00EFF02460B463046C4E9002339460E
:4017C00000F004FF08A3D3E9002300F001FF4FF0FF35C4E9020194E6DDE906ABFAE600BF0000601A61B4D03D7370032E8A19A33B0000002E8A19A33BC14920259A837B39C9
:401800003163621A61B4D03DFB21F93F000000002DE9F04F21F00046B6F1795F85B00C4692469B4605466BDA01F01EFB002800F0E7802A4623462846214601F07BF874A375
:40184000D3E900238046894601F074F872A3D3E9002300F0BDFE42464B4601F06BF870A3D3E9002300F0B2FE42464B4601F062F86DA3D3E9002300F0ABFE42464B4601F003
:4018800059F86BA3D3E9002300F0A0FE42464B4601F050F868A3D3E9002300F099FE42464B4601F047F8CDE900010022644B4046494601F03FF8DDE9002306460F4640467B
:4018C000494601F037F85246804689465B462846214601F02FF802460B464046494600F075FE02460B463046394600F06FFE02460B460020534900F069FE05B0BDE8F08FFD
:4019000002460B4601F016F841A3D3E900238046894601F00FF840A3D3E9002300F058FE42464B4601F006F83DA3D3E9002300F04DFE42464B4600F0FDFF3BA3D3E90023F3
:4019400000F046FE42464B4600F0F4FF38A3D3E9002300F03BFE42464B4600F0EBFF36A3D3E9002300F034FE4B46424600F0E2FF354BCDE900019E4297DD344B00229E4291
:4019800038DCA6F5001300202E4916461F4600F01DFECDE902010022294B4046494600F0C9FF32463B4600F011FEDDE9002306460F464046494600F0BDFF52468046894676
:4019C0005B462846214600F0B5FF02460B464046494600F0FBFD02460B463046394600F0F5FD02460B46DDE9020100F0EFFD05B0BDE8F08F164B0026CDE90223154FCAE739
:401A00001049002005B0BDE8F08F00BFAFF30080D43888BEE9FAA8BDC4B1B4BD9EEE213EAD529C804F7E923E9015CB19A001FA3E7751C1166CC1563F4C5555555555A53FB4
:401A40000000E03F0000F03F3233D33F0000E93F0000E73F0000D23F2DE9F04F794CADF51D7D1F460B93D31E84FB0354DB17C3EBA403A69E744C23EAE37554F826406B1C39
:401A800026460994A3EB83037C1E0D95029402EBC3032D1B341904900A91089316D42C44013422AEA79F08E057F8250000F0DCFE0135A542E6E9020108D0002DF4DA013562
:401AC00000200021A542E6E90201F6D1099B002B2FDB099B74AADDF8089002EBC30B0DF5E47A029B002BC0F295810B9B0026C3EB090824AB03EBC808049B0027A3F10805F3
:401B000024AB03EBC904F5E9022374E8020100F011FF02460B463046394600F059FD444506460F46EFD1EAE90267DA4509F10109D7D1099B10A91D4603F18043023B9B00A5
:401B40001A1D0A440B440F920E939CAB03EBC503002D53E928672BDD9CAB03EBC504A83C0DF13C0A0DF5E47B0022384B3046394600F0E0FE01F078F900F076FE0022344BFC
:401B80008046894600F0D6FE02460B463046394600F01CFD01F068F974E802234AF8040F4946404600F014FD5C4506460F46DBD1089C30463946224600F08AFC00224FF031
:401BC0007F5306460F4600F0B5FE00F0F9FB0022204B00F0AFFE02460B463046394600F0F5FC0F46064601F03FF9814600F03CFE02460B463046394600F0E8FC002C0646BD
:401C00000F4640F3EE80681E10AB53F82030C4F1180243FA02F101FA02F29B1AC4F1170810AA42F82030894443FA08F8B8F1000F3DDD002D09F1010940F3D3820022144606
:401C40000FA911E0ABAAAA2A943700000000703E0000704100002040C3F180700BB108600124013295420DDD51F8043F002CF3D0C3F1FF13013203F57F4395420B604FF078
:401C80000104F1DC089B002B0DDD012B00F0B180022B08D16A1E10AB53F8223010A9C3F3150341F82230B8F1020F00F08180002200233046394601F0A5F8002800F05B82ED
:401CC000099B05F1FF3B5B4510DC05F1804310AA013B0F9802EB8303002253F80419834242EA0102F9D1002A40F0B180099B10AA013B52F82330002B40F071820E9A012397
:401D000052F8041901330029FAD0E9186A1C8A420C914BDC0D990B985118DB0001F180410593A79B05440139E80003EB810A24ABD20003EB000B74AB13440193A2F10803BE
:401D4000069007934FF000095AF8040F00F08CFD029BEBE80201002B4FF000064FF000071BDB069B03EB0904079B09EB030824AB1C449844049BA3F10805F5E9022374E807
:401D8000020100F0D7FD02460B463046394600F01FFC444506460F46EFD1019B09F10809E3E802670193059B9945CDD10C9DCCE632463B460020B04900F008FC06460F464C
:401DC000002C3FF474AF089A0020AB4900F080FB02460B463046394600F0F8FB06460F4665E710D16B1E10AA52F823304FEAE3581CE76A1E10AB53F8223010A9C3F3160342
:401E000041F822304FE700229C4B01F019F858B980464CE700260027EAE90267DA4509F101097FF45EAE84E6002D09F10109C8BF4FF002083FF702AF32463B4600208E495F
:401E400000F0C4FB4FF0020806460F462FE7089A10AB53F82B30183ACDF81490CDF8048008926BB90BF18043013B10A901EB830353F804190BF1FF3B183A0029F8D008924D
:401E8000089A00207C4900F023FBBBF1000F04460D46C0F2B6814FEACB030DF5E87810AA02EB8B0608EB03090493043609F1080756F8040D00F0D8FC22462B4600F03AFDAF
:401EC000002267E902016E4B2046294600F032FDB84504460D46EBD14B46CDF818B09B460DF5987ACDF808A0DDF824A04FF00009BAF1000FC0F226815DA3D3E90023DFF840
:401F000084815D4600260027002403E0A14510DBF8E90223F5E8020100F00CFD02460B463046394600F054FB0134A24506460F46ECDA029BABF1080B03EBC903C3E900678C
:401F400072AB5B4509F10109D2D1A69BDDF818B0DDF808A0032B00F28380DFE813F0D100950095000400BBF1000F40F35481049BCDF808B053449846D3E90067D34658E9E5
:401F8000029A32463B464846514600F021FB04460D4602460B464846514600F017FB32463B4600F015FBC8E9000168E90245C34526462F46E3D1DA46DDF808B0BBF1010FB5
:401FC00040F32981049B0DF59C7B53449846D3E90067994659E902343046CDE902341A463946234600F0F4FA04460D4602460B46DDE9020100F0EAFA32463B4600F0E8FA37
:40200000C9E9000169E90245CB4526462F46E1D100231D4608F1080850AC184678E90223294600F0D5FA444503460D46F5D1019A002A00F0D880DAF80440DAF80C200A9F5F
:40204000DAF80010DAF8080005F1004504F1004402F100427D613B617C60FA603960B860059B03F007000DF51D7DBDE8F08F00BF00000040FB21F93F0000F03F0000E03F9F
:402080000000703EA837000000242146049D0835554475E90223204600F09AFA55450446F7D1019B002B50D00A9F01F100450B46DAE9000187E83000224600F087FABBF178
:4020C000000F03460D460DDD01241846FAE90223294600F07DFA0134A34503460D46F4DA019A0AB105F10045184629460A9BC3E90201059B03F007000DF51D7DBDE8F08F57
:4021000000231C46049A0832924418467AE90223214600F05DFA0BF1FF3BBBF1FF3F03460C46F2D1019A0AB104F10044184621460A9BC3E90001059B03F007000DF51D7D7E
:40214000BDE8F08F00260027F3E626460F4622460A9C0B46DAE90001C4E9006700F036FABBF1000F03460D46AEDC184629460A9BC3E90201BDE7089B30465A423946CDF85E
:402180001490CDF8048000F0A3F900222C4B06460F4600F055FE002840D00022294B3046394600F0C7FB00F05FFE044600F05CFB0022234B00F0BEFB0B460246394630460F
:4021C00000F004FA00F050FE089B05F1010B1833089310AB43F8250043F82B4050E6012393E500244EE51846DAE90067DAE9022329460A9DC5E90067C5E90401C5E902231D
:402200002EE7A69B032B3FF62BAFDFE803F0151010020DF5987A00231D4608E73046394600F022FE10ABAB4643F8250028E6002421460DF5987A34E700231C4672E700BF1B
:40224000000070410000703E2DE9F04F21F00046B6F1795F85B00C4690469946054604DA00F002FE002800F085802A4623462846214600F05FFB06460F4602460B462846C2
:40228000214600F057FB3EA3D3E9002382468B463046394600F04EFB3BA3D3E9002300F095F932463B4600F045FB39A3D3E9002300F08EF932463B4600F03CFB36A3D3E9A3
:4022C000002300F083F932463B4600F033FB34A3D3E9002300F07CF90E9BCDE900019BB30022334B4046494600F024FBDDE90023CDE902015046594600F01CFB02460B4634
:40230000DDE9020100F062F932463B4600F012FB42464B4600F05AF923A3D3E9002306460F465046594600F005FB02460B463046394600F04DF902460B462846214600F0AA
:4023400045F905B0BDE8F08F02460B463046394600F0F0FA14A3D3E9002300F037F952465B4600F0E7FA2A46234600F031F905B0BDE8F08F2846214605B0BDE8F08F00BFE5
:402380007CD5CF5A3AD9E53DEB9C2B8AE6E55A3E7DFEB157E31DC73ED561C119A0012A3FA6F810111111813F495555555555C53F0000E03F21F00041704700BF00000000AF
:4023C000C1F30A522DE9F843A2F2FF36132E0B4604460D46884607461CDC002E3FDB3A4A864642FA06F901EA0902024317D034A3D3E9002300F0ECF80022002300F02AFD96
:4024000020B1002D40DB28EA0905002738462946BDE8F883332E06DDB6F5806F2FD020461946BDE8F883A2F213424FF0FF3929FA02F910EA090FF2D021A3D3E9002300F088
:40244000C7F80022002300F005FD0028DED0002D20DB454627EA090738462946D8E718A3D3E9002300F0B4F80022002300F0F2FC0028CBD0002D18DB00273D46C6E7024635
:402480000B4600F0A5F8CCE74FF4801343FA06F6B044B8E7142E10D00123C6F1340603FA06F6371928BF9844D3E725F00042074B224318BF1D460027A8E705F10108C8E740
:4024C0009C7500883CE4377EFFFF0F000000F0BFF8B5C1F30A5604460D460B46174606BB21F00043034325D000222F4B00F022FA2E4A044697420D460B462ADBC1F30A5656
:40250000363E40F2FE723E44964228DC002E12DD23F0FF4323F4E00343EA065520462946F8BD40F2FF729642EBD102460B4600F04FF8F8BDF8BD16F1350F1DDA4CF2503335
:402540009F420CDC14A1D1E9000122462B4600F031F811A3D3E9002300F0ECF9F8BD22460FA1D1E900012B4600F024F80CA3D3E9002300F0DFF9F8BD23F0FF4323F4E00369
:40258000363643EA0655204629460022084B00F0D1F9F8BDAFF3008059F3F8C21F6EA5019C7500883CE4377E00005043B03CFFFF0000903C03F0004321F0004242EA0301A3
:4025C000704700BF81F0004102E000BF83F0004330B54FEA41044FEA430594EA050F08BF90EA020F1FBF54EA000C55EA020C7FEA645C7FEA655C00F0E2804FEA5454D4EBDA
:402600005555B8BF6D420CDD2C4480EA020281EA030382EA000083EA010180EA020281EA0303362D88BF30BD11F0004F4FEA01314FF4801C4CEA113102D0404261EB41014D
:4026400013F0004F4FEA03334CEA133302D0524263EB430394EA050F00F0A780A4F10104D5F1200E0DDB02FA0EFC22FA05F2801841F1000103FA0EF2801843FA05F35941BC
:402680000EE0A5F120050EF1200E012A03FA0EFC28BF4CF0020C43FA05F3C01851EBE37101F0004507D54FF0000EDCF1000C7EEB00006EEB0101B1F5801F1BD3B1F5001F50
:4026C0000CD349085FEA30004FEA3C0C04F101044FEA445212F5800F80F09A80BCF1004F08BF5FEA500C50F1000041EB045141EA050130BD5FEA4C0C404141EB010111F42A
:40270000801FA4F10104E9D191F0000F04BF01460020B1FA81F308BF2033A3F10B03B3F120020CDA0C3208DD02F1140CC2F10C0201FA0CF021FA02F10CE002F11402D8BFDD
:40274000C2F1200C01FA02F120FA0CFCDCBF41EA0C019040E41AA2BF01EB0451294330BD6FEA04041F3C1CDA0C340EDC04F11404C4F1200220FA04F001FA02F340EA0300E3
:4027800021FA04F345EA030130BDC4F10C04C4F1200220FA02F001FA04F340EA0300294630BD21FA04F0294630BD94F0000F83F4801306BF81F480110134013D4EE77FEAE0
:4027C000645C18BF7FEA655C29D094EA050F08BF90EA020F05D054EA000C04BF1946104630BD91EA030F1EBF0021002030BD5FEA545C05D14000494128BF41F0004130BD40
:4028000014F580043CBF01F5801130BD01F0004545F0FE4141F470014FF0000030BD7FEA645C1ABF194610467FEA655C1CBF0B46024650EA013406BF52EA033591EA030F96
:4028400041F4002130BD00BF90F0000F04BF0021704730B54FF4806404F132044FF000054FF0000150E700BF90F0000F04BF0021704730B54FF4806404F1320410F00045D5
:4028800048BF40424FF000013EE700BF42004FEAE2014FEA31014FEA02701FBF12F07F4393F07F4F81F06051704792F0000F14BF93F07F4F704730B54FF4607401F000458D
:4028C00021F0004120E700BF50EA010208BF704730B54FF000050AE050EA010208BF704730B511F0004502D5404261EB41014FF4806404F132045FEA915C3FF4DCAE4FF0A1
:4029000003025FEADC0C18BF03325FEADC0C18BF033202EBDC02C2F1200300FA03FC20FA02F001FA03FE40EA0E0021FA02F11444C1E600BF70B54FF0FF0C4CF4E06C1CEA71
:4029400011541DBF1CEA135594EA0C0F95EA0C0F00F0DEF82C4481EA030621EA4C5123EA4C5350EA013518BF52EA033541F4801143F4801338D0A0FB02CE4FF00005E1FB99
:4029800002E506F00042E0FB03E54FF00006E1FB03569CF0000F18BF4EF0010EA4F1FF04B6F5007F64F5407404D25FEA4E0E6D4146EB060642EAC62141EA55514FEAC520C5
:4029C00040EA5E504FEACE2EB4F1FD0C88BFBCF5E06F1ED8BEF1004F08BF5FEA500E50F1000041EB045170BD06F0004646EA010140EA020081EA0301B4EB5C04C2BFD4EB3C
:402A00000C0541EA045170BD41F480114FF0000E013C00F3AB8014F1360FDEBF002001F0004170BDC4F10004203C35DA0C341BDC04F11404C4F1200500FA05F320FA04F0C2
:402A400001FA05F240EA020001F0004221F0004110EBD37021FA04F642EB06015EEA430E08BF20EAD37070BDC4F10C04C4F1200500FA04F320FA05F001FA04F240EA020096
:402A800001F0004110EBD37041F100015EEA430E08BF20EAD37070BDC4F1200500FA05F24EEA020E20FA04F301FA05F243EA020321FA04F001F0004121FA04F220EA0200F3
:402AC00000EBD3705EEA430E08BF20EAD37070BD94F0000F0FD101F00046400041EB010111F4801F08BF013CF7D041EA060195F0000F18BF704703F00046520043EB030334
:402B000013F4801F08BF013DF7D043EA0603704794EA0C0F0CEA135518BF95EA0C0F0CD050EA410618BF52EA4306D1D181EA030101F000414FF0000070BD50EA410606BF20
:402B40001046194652EA430619D094EA0C0F02D150EA013613D195EA0C0F05D152EA03361CBF104619460AD181EA030101F0004141F0FE4141F470014FF0000070BD41F0CD
:402B8000FE4141F4780170BD70B54FF0FF0C4CF4E06C1CEA11541DBF1CEA135594EA0C0F95EA0C0F00F0A7F8A4EB050481EA030E52EA03354FEA013100F088804FEA03332F
:402BC0004FF0805545EA131343EA12634FEA022245EA111545EA10654FEA00260EF000419D4208BF964244F1FD0404F5407402D25B084FEA3202B61A65EB03055B084FEA0D
:402C000032024FF480104FF4002CB6EB020E75EB030E22BFB61A754640EA0C005B084FEA3202B6EB020E75EB030E22BFB61A754640EA5C005B084FEA3202B6EB020E75EB95
:402C4000030E22BFB61A754640EA9C005B084FEA3202B6EB020E75EB030E22BFB61A754640EADC0055EA060E18D04FEA051545EA16754FEA06164FEAC30343EA52734FEAE6
:402C8000C2025FEA1C1CC0D111F4801F0BD141EA00014FF000004FF0004CB6E711F4801F04BF01430020B4F1FD0C88BFBCF5E06F3FF6AFAEB5EB030C04BFB6EB020C5FEA6F
:402CC000500C50F1000041EB045170BD0EF0004E4EEA113114EB5C04C2BFD4EB0C0541EA045170BD41F480114FF0000E013C90E645EA060E8DE60CEA135594EA0C0F08BF2C
:402D000095EA0C0F3FF43BAF94EA0C0F0AD150EA01347FF434AF95EA0C0F7FF425AF104619462CE795EA0C0F06D152EA03353FF4FDAE1046194622E750EA410618BF52EAE5
:402D400043067FF4C5AE50EA41047FF40DAF52EA43057FF4EBAE12E74FF0FF3C06E000BF4FF0010C02E000BF4FF0010C4DF804CD4FEA410C7FEA6C5C4FEA430C18BF7FEA00
:402D80006C5C1BD001B050EA410C0CBF52EA430C91EA030F02BF90EA020F0020704710F1000F91EA030F58BF994208BF90422CBFD8176FEAE37040F0010070474FEA410C06
:402DC0007FEA6C5C02D150EA013C07D14FEA430C7FEA6C5CD6D152EA033CD3D05DF8040B704700BF8446104662468C461946634600E000BF01B5FFF7B7FF002848BF10F155
:402E0000000F01BD4DF808EDFFF7F4FF0CBF012000205DF808FB00BF4DF808EDFFF7EAFF34BF012000205DF808FB00BF4DF808EDFFF7E0FF94BF012000205DF808FB00BF61
:402E40004DF808EDFFF7CEFF94BF012000205DF808FB00BF4DF808EDFFF7C4FF34BF012000205DF808FB00BF4FEA410212F5001215D211D56FF47873B3EB625212D94FEA46
:402E8000C12343F0004343EA505311F0004F23FA02F018BF404270474FF00000704750EA013005D111F0004008BF6FF0004070474FF00000704700BF4FEA4102B2F1E043ED
:402EC00024BFB3F5001CDCF1FE5C0DD901F0004C4FEAC0024CEA5070B2F1004F40EB830008BF20F00100704711F0804F21D113F13872BCBF01F00040704741F480114FEAEF
:402F00005252C2F11802C2F1200C10FA0CF320FA02F018BF40F001004FEAC1234FEAD32303FA0CFC40EA0C0023FA02F34FEA4303CCE77FEA625307D150EA01331EBF4FF0D9
:402F4000FE4040F44000704701F0004040F0FE4040F40000704700BF80F0004002E000BF81F0004142001FBF5FEA410392EA030F7FEA226C7FEA236C6AD04FEA1262D2EBCE
:402F80001363C1BFD218414048404140B8BF5B42192B88BF704710F0004F40F4000020F07F4018BF404211F0004F41F4000121F07F4118BF494292EA030F3FD0A2F10102BA
:402FC00041FA03FC10EB0C00C3F1200301FA03F100F0004302D5494260EB4000B0F5000F13D3B0F1807F06D340084FEA310102F10102FE2A51D2B1F1004F40EBC25008BFAE
:4030000020F0010040EA03007047490040EB000010F4000FA2F10102EDD1B0FA80FCACF1080CB2EB0C0200FA0CF0AABF00EBC25052421843BCBFD0401843704792F0000FC5
:4030400081F4000106BF80F400000132013BB5E74FEA41037FEA226C18BF7FEA236C21D092EA030F04D092F0000F08BF0846704790EA010F1CBF0020704712F07F4F04D1C2
:40308000400028BF40F00040704712F100723CBF00F50000704700F0004343F0FE4040F4000070477FEA226216BF08467FEA23630146420206BF5FEA412390EA010F40F45D
:4030C000800070474FF0000304E000BF10F0004348BF40425FEA000C08BF704743F0964301464FF000001CE050EA010208BF70474FF000030AE000BF50EA010208BF704726
:4031000011F0004302D5404261EB41015FEA010C02BF84460146002043F0B64308BFA3F18053A3F50003BCFA8CF2083AA3EBC25310DB01FA02FC634400FA02FCC2F12002B6
:40314000BCF1004F20FA02F243EB020008BF20F00100704702F1200201FA02FCC2F1200250EA4C0021FA02F243EB020008BF20EADC7070474FF0FF0C1CEAD0521EBF1CEAB5
:40318000D15392EA0C0F93EA0C0F6FD01A4480EA010C400218BF5FEA41211ED04FF0006343EA501043EA5111A0FB01310CF00040B1F5000F3EBF490041EAD3715B0040EA40
:4031C000010062F17F02FD2A1DD8B3F1004F40EBC25008BF20F00100704790F0000F0CF0004C08BF49024CEA502040EA51207F3AC2BFD2F1FF0340EAC250704740F40000CF
:403200004FF00003013A5DDC12F1190FDCBF00F000407047C2F10002410021FA02F1C2F1200200FA02FC5FEA310040F1000053EA4C0308BF20EADC70704792F0000F00F0CE
:40324000004C02BF400010F4000F013AF9D040EA0C0093F0000F01F0004C02BF490011F4000F013BF9D041EA0C018FE70CEAD15392EA0C0F18BF93EA0C0F0AD030F0004CAE
:4032800018BF31F0004CD8D180EA010000F00040704790F0000F17BF90F0004F084691F0000F91F0004F14D092EA0C0F01D142020FD193EA0C0F03D14B0218BF084608D1C5
:4032C00080EA010000F0004040F0FE4040F40000704740F0FE4040F4400070474FF0FF0C1CEAD0521EBF1CEAD15392EA0C0F93EA0C0F69D0A2EB030280EA010C49024FEAD3
:40330000402037D04FF0805343EA111143EA10130CF000408B4238BF5B0042F17D024FF4000C8B4224BF5B1A40EA0C00B3EB510F24BFA3EB510340EA5C00B3EB910F24BF54
:40334000A3EB910340EA9C00B3EBD10F24BFA3EBD10340EADC001B0118BF5FEA1C1CE0D1FD2A3FF650AF8B4240EBC25008BF20F0010070470CF0004C4CEA50207F32C2BF63
:40338000D2F1FF0340EAC250704740F400004FF00003013A37E792F0000F00F0004C02BF400010F4000F013AF9D040EA0C0093F0000F01F0004C02BF490011F4000F013B42
:4033C000F9D041EA0C0195E70CEAD15392EA0C0F08D142027FF47DAF93EA0C0F7FF470AF084676E793EA0C0F04D14B023FF44CAF08466EE730F0004C18BF31F0004CCAD138
:4034000030F000427FF45CAF31F000437FF43CAF5FE700BF4FF0FF3C06E000BF4FF0010C02E000BF4FF0010C4DF804CD4FEA40024FEA41037FEA226C18BF7FEA236C11D0D8
:4034400001B052EA530C18BF90EA010F58BFB2EB030088BFC81738BF6FEAE17018BF40F0010070477FEA226C02D15FEA402C05D17FEA236CE4D15FEA412CE1D05DF8040B95
:40348000704700BF844608466146FFE70FB5FFF7C9FF002848BF10F1000F0FBD4DF808EDFFF7F4FF0CBF012000205DF808FB00BF4DF808EDFFF7EAFF34BF012000205DF87C
:4034C00008FB00BF4DF808EDFFF7E0FF94BF012000205DF808FB00BF4DF808EDFFF7D2FF94BF012000205DF808FB00BF4DF808EDFFF7C8FF34BF012000205DF808FB00BF62
:403500004FEA4002B2F1FE4F0FD34FF09E03B3EB12620DD94FEA002343F0004310F0004F23FA02F018BF404270474FF00000704712F1610F01D1420205D110F0004008BFCA
:403540006FF0004070474FF000007047014B1868704700BF3C81FF1F0E4B70B51E460E4C0025E41AA410A54204D056F8253098470135F8E700F03AF9084B094C1E46E41A50
:40358000A4100025A54204D056F8253098470135F8E770BDF8370000F8370000F83700000038000010B5431E0A44914204D011F8014B03F8014FF8E710BD03460244934223
:4035C00002D003F8011BFAE77047000000000000C84900401900004F0040240040510040300000000140001000140140000800400140000A004C01400002005001402000B3
:4036000000510140E40E004808000000FB21F93FFB2109407CD91240FB2119407A6A1F407CD92240BBFD2540FB2129403A462C407A6A2F405C4731407CD932409C6B3440B0
:40364000BBFD3540DB8F3740FB2139401BB43A403A463C405AD83D407A6A3F404C7E40405C4741406C1042407CD942408CA243409C6B4440AC344540BBFD4540CBC6464018
:40368000DB8F4740EB584840FB21494083F9A200444E6E00FC291500D1572700DD34F50062DBC0003C999500419043006351FE00BBDEAB00B761C5003A6E2400D24D420081
:4036C0004906E00009EA2E001C92D100EB1DFE0029B11C00E83EA700F535820044BB2E009CE98400B4267000417E5F00D6913900538339009CF439008B5F840028F9BD0024
:40370000F81F3B00DEFF97000F980500112FEF000A5A8B006D1F6D00CF7E360009CB2700464FB7009E663F002DEA5F00BA277500E5EBC7003D7BF100F739070092528A0042
:40374000FB6BEA001FB15F00085D8D00300356007BFC4600F0AB6B0020BCCF0036F49A00E3A91D005E619100081BE60085996500A0145F008D40680080D8FF0027734D0012
:4037800006063100CA561500C9A873007BE260006B8CC000020000000300000004000000060000000000000000000040FB21F93F000000002D44743E000000809846F83CE7
:4037C0000000006051CC783B00000080831BF0390000004020257A38000000802282E336000000001DF3693543000000F8B500BFF8BC08BC9E4670474D000000B108000068
:40380000F8B500BFF8BC08BC9E4670472900000020380000C880FF1F7800000070000000000000000000E02EC05D00001800000000366E0100000000000000000000000052
:403840000000000000000000000000000000000000000000E83700000000000000000000000000000000000000000000000000000000000000000000000000000000000029
:403880000000000000000000000000000000000000000000DC80FF1F000000000000000000000000000000000000000000000000000000000000000000000000000000008E
:4038C00000000000000000000000000000000000000000000000000000000000000000000000000000000000000000000000000000000000000000000000000000000000C8
:403900000000000000000000000000000000000000000000000000000000000000000000000000000000000000000000000000000000000000000000000000000000000087
:403940000000000000000000000000000000000000000000000000000000000000000000000000000000000000000000000000000000000000000000000000000000000047
:403980000000000000000000000000000000000000000000000000000000000000000000000000000000000000000000000000000000000000000000000000000000000007
:020000040003F7
:0200000480007A
:4000000001450040064F0040085200400764004003650040630201403E03014063040140560501405E0601404A07014050080140530901401D0B0140430C0140480D014050
:40004000610E0140330F01404514014051150140511601405C1701406A18014051190140591A0140481B014007400140184101400E4201401243014005450140034601408C
:400080000A470140114801400A490140134C0140054D0140085001407E0201400A360D501636195022360008011A041811101C08600461047C40830F856F8772880F896F32
:4000C0008C0F8F0D8438860D870F000208010E0117041B011E021F0226042A043002310132013302350436043E054030410649FF4AFF4BFF4DA04F045018580459045A0427
:400100005C305F01604062C06440654066C068C06AC06CC06EC080108220860F8A408C208E108F02900B91019204964098109A209C0C9E02A007A40CA601A810AA20AB0517
:40014000AC08AE01B030B104B302B440B60FB701BA02BE10C030C106C5D5C610C702C81BC9FFCAFFCBFFCDAFCE0FCF04D018D280D407D804D904DA04DB04DC03DF01E04013
:40018000E2C0E440E540E6C0E8C0EAC0ECC0EEC00208039204A00540078009080A4A0E010F0C1080112013441610172019801A061B031E801F44210A2240232024202510CE
:4001C00027402A1031023420354037043A804108450849014A184E085218581059015A8472808180830484208B418D10A001A540AC01B140C0DFC28FC46FCA04CC71CE081C
:40020000D042D224D60FE004E606EE28010108010A020C010D010E0210021201130218011A022204270429012A0830033104330234043501360839203A023F104062410578
:4002400049FF4AFF4BFF4DA04F015018580459045A045C335D035F016040628064406540668068406A806C406D206E8080018202840488018A028E048F01930498029A019E
:40028000A001A202AF02B304B403B502B604B701BA20BE40C023C105C53CC640C72EC83BC9FFCAFFCBFFCDAFCE07CF01D018D40FD804D904DA04DB04DC33DD33DF05E04051
:4002C000E280E440E540E680E840EA80EC40ED20EE800080020804280681074008200A400E0411201280170219011A401B901E0620802110220923082428270228282A2057
:400300002B102F02313032013702388039043A013B083E80411045204708480349104C424F045410560557025D045E825F10660467047C08871288108A018C408E019308F6
:4003400094809609974099909B609C109F10A001A110A250A304A540A780AA40AB04AC80AF80B340C0F3C24AC41ACA16CC81CE19D064D21CD6F0D860DE40EA0EEE8002023D
:40038000150116011E022A013002330134013E013F04404149FF4AFF4BFF4F0150185280580459045A045B045D115F016040624064406540668068806A806C806E808320BE
:4003C000840C851286028705880C89048A028B188C0E8D20900C94029520960C9804991F9E02A008A11FA401A509A706A801AB20AC01B303B40EB51CB601B720B980BA2239
:40040000C041C5ECC602C807C9FFCAFFCBFFCD83CE03CF01D018D602D713D804D904DA04DB04DC22DD21DF01E040E240E440E540E680E880EA80EC80EE80004401200680A3
:4004400009290A020D800E2010A011501720184419501A061C081E80211422502710284029102A043020310837043840392A41804280458046804B055180590166026740B0
:400480006820695070847120720876808014810186028F1092409608974099809B209C109E20A210A384A404A540A680AC04AE04B501B710C017C2AFC44FCA07CC46CE0FBE
:4004C000D099D601E010E202E64AE802EA04020804130604080A090B0A140B04100311071214162019081B011C131D0C1E0C1F02210C23012615270F2A2030103420360F16
:40050000370F3A803E114043410245E0460B47CE483649FF4AFF4BFF4EF04F44500C54015604580459045A045B045C325D225F0166C06A406B028102840286049404960203
:4005400098029A0C9C029E049F01A201A302A401B006B102B401B501B608BA02BE10BF01D40FD804D904DB04DC33DD30DF050004075408080A010B040C400D020E22108073
:4005800012201504160817081A091B011E8622212680270129022A022C202F403080342035013680388039023B803F10444047184D015502574459105A8A5D015E885F208D
:4005C000610462106740790884088741881089068B209080910293149404958096049708982099809A089D019E029F01A030A108A210AC20AD08B580C074C2B7C46CCAC10C
:40060000CCB8CE21D0E0D6FFD886DE02E010E202EA04EC406402658088808E0A908091029314940495809604970898209A089C029D019E029F01A010A210A4A0A60AAA01A4
:40064000AC50AD10B101B310B501B710E4D0080C0B021406180C1B021E101F01250126012B012C0A30103102320E3401370138083F405280540F580459045B045C035D308A
:400680005F01800C82028301847087028807893C8CC08D288E108F14900891309201930C96F0980C990C9A019B309E0FA0C0A11CA220A480A610A8B0A914AA40AB28AC0B84
:4006C000AE04B0F0B101B33CB40FB502D804D904DC33DF0100200104028003110510088209200A200C800D28102112401310140115801621188019101CA01D081F102101FD
:4007000023142402250129212E202F14302033013610378038843A023B103F20582059205A205C105D055E4077808130828088A08C018D01901092409480952096049710F8
:400740009A489D219F01A210A310A420A60AAF20C04FC2EFC4AFCA65CC35CE2FD6F0E0A0E240E6020607081009FD0B020D9E0E040F6011CF1330140719941A081B601C07D2
:4007800020012173220224012602270F280429302BC92C103210340F35FF38083F104030410249FF4AFF4BFF4DA04F045018580459045A045C035F01604062C064406540C9
:4007C00066C068C06AC06CC06EC08201850186028A028B02960497019802A404A501B002B201B301B502B604BE01BF04C030C102C5D0C610C702C81AC9FFCAFFCBFFCDAFB7
:40080000CE0FCF04D018D280D405D804D904DA04DB04DF01E040E2C0E440E540E6C0E8C0EAC0ECC0EEC00208032104240740084009200B100D100F241024124217081824E6
:4008400019041B201D081E601F40212024102708284429212B202F2030203301350438803A403B103F2441084208450846084BC04F01560857105E045F417740C077C26726
:40088000C42FCA47CC45CE6CD066D6D0013803C40407054806180701081909800A060C1F0DFE10061308140615CE16191730180219C01C081D202004213024182510281089
:4008C00029F82B022E192FC63018310133F0353E36073B2854185604580459045B045C225D205F0182028502870489018E0193019708990E9F0EA108A710A90EAD02AE02D9
:40090000AF04B11EB201B301B602BE40BF04D804D904DC31DF0100480208040206800701081809050B010D040F1010A113101580180219011C201D80200821082209242029
:4009400025022780289929402A082C042E422F2030A03108321137A9384039023A043B103C203F0844804501590160046180638082048305840886809044918A9260942092
:40098000980499409A0A9B299E04A080A105A324A41CA50AA740A804AA20AB02AC04AD21B302C097C20FC48FCAFFCCFFCE6FD601D80DE404EA05EE20020F04FD06020B026B
:4009C0000CCF0E301094110212601473189E1A601B012C302EC934FF350137023E103F405401580459045B045D105F018201840287108B088C028F02930294029501980239
:400A00009F04A304A710AB01AD02B002B102B301B401B504B718B808BE05BF51C035C104C206C401C60CC7E0C824C9FFCAFFCBFFCC62CDA0CEF0CF41D00CD40FD804D90489
:400A4000DA04DB04DC03DD32DF01E640E702E910EA30EB10ED10EE10EF1200480380040805800680072009080A040E400F18160219011A081B081F20200522082380254028
:400A8000270429102A052B023242330435103610370139283A803C203D083E0440414108480849405140520158045B925E805F0578107A08831884048682871089028A8097
:400AC0008D808F289040912892E4930594209502960899C09A0A9B019C109D219E24A080A101A250A384A548A680A740AB04AC40AD10B301B740C0BDC276C480CA0FCCABCC
:400B0000CE2ED00BD20CD6DFE20EE60AE808EA03EE400018010903100540082A0B030C320D141130130C1402151C17221801192C1B11203221802604278029102A022D8007
:400B400030383160320633803401351F380239023E103F044051410449FF4AFF4BFF4DA04F015018580459045A045C235D035F016040628064406540668068406A806C4067
:400B80006D206E808601870189FE8B018DC58F3A917F950E97F09C029DA39F5CA596A768AA02B002B401B5FFBE01BF10C051C104C52EC6C3C704C81FC9FFCAFFCBFFCDAFF0
:400BC000CE07CF01D018D804D904DA04DC03DD03DF01E040E280E440E540E680E840EA80EC40ED20EE80010804A005010A010D080F0812081604170918041A801D011E0890
:400C00001F0623082515274028202A042C012E852F08310932803601371438A03B183D263F8040024280440245404680484049064A024E025080521881048410860488010D
:400C40008D408E40908093109404958496809708982899809B019D079E109F54A010A108A281A344A480A510A604A910B512C0D4C261C472CAF2CCEBCEFED099D218E460DD
:400C8000E61AE808EA02EE2000FE0201087F090E0C0E0D3E0EF010A31138125C13061496166817011D341F0A20C5223A26012740290A2B342D262F18310132FF3360371EC5
:400CC0003E04580459045C305F018008834C8403870389208D209101934694029501970E9A019B109C039F10A008A120A708A94CAA04AB03AD10B004B110B203B34AB40876
:400D0000B50FB720B828B980BB28BE04BF41C003C704C9FFCA07CBFFCC40CD20CEF0CF05D008D280D804D904DA04DB04DC23DD32DF01E040E1A8E240E320002201800502D8
:400D4000071008090A400C040E220F04101012801680172019081D081E041F022002214022012320254026162714280829882C842D022E082F0230013288341036053760B9
:400D800039903CA03D123E803F0445084D044F04560857085A0377408280924095849605980899809F14A0D0A101A209A540A602A708AB02B108B201C03BC2ECC45CCAFEE5
:400DC000CCFBCEFCD040EA01EEA031203208360437203B40CCF0CE1006080B810F02322033013712524058105F206202862087019740A520A60CB320C080C2D0CCF0D4A000
:400E0000D620D840E410E6403E105504938097409A089C109F33A520A60EAB01B240CE20D440E8808120860287408D048E089380961097409A089F23A524A60EAB10AC1059
:400E4000E260E640EA20EE40601087108C10D802E00807209720C0040B240F8087018F0897209B20A740AB40C20EE00865206A806C04800481208240870296109F22A60492
:400E8000AF41B608D880DAC0E6C0E810EA4007041E088304A604AA10B320C080C680E080EA800A080B400C40132417017B087D018604874091019F01A308AD01AF04B32030
:400EC000C20BC40EDE03EE04AB20B040B304EA01EE04000F08090A0F0C0C0E09100F1A0F1C0C0000FFAB03C0000000001800C0273F001B0000000000040000040400040083
:400F00000004000000080004000000004000200000000000C0000000C00010CB0B00000000000000101A0A001000000040000840000000000000000000000000000000000F
:400F40000000000000000000000000000000000000000000000000000000000000000000000000000000000000000000000000000000000000000000000000000000000071
:400F80000000000000000000000000000000000000000000000000000000000000000000000000000000000000000000000000000000000000000000000000000000000031
:400FC00000000000000000000000000000000000000000000000000000000000000000000000000000000000000000000000000000000000000000000000000000000000F1
:4010000000000000000000000000000000000000000000000000000000000000000000000000000000000000000000000000000000000000000000000000000000000000B0
:0200000490006A
:0400000000004005B7
:0200000490105A
:04000000BC90ACAF55
:0200000490303A
:02000000564D5B
:0200000490402A
:4000000000000000000000000000000000000000000000000000000000000000000000000000000000000000000000000000000000000000000000000000000000000000C0
:400040000000000000000000000000000000000000000000000000000000000000000000000000000000000000000000000000000000000000000000000000000000000080
:400080000000000000000000000000000000000000000000000000000000000000000000000000000000000000000000000000000000000000000000000000000000000040
:4000C0000000000000000000000000000000000000000000000000000000000000000000000000000000000000000000000000000000000000000000000000000000000000
:0200000490501A
:0C00000000012E16106900012E3166B6BA
:00000001FF