:400000000080002011000000450900004509000008B5044B1A6803F53F5302331A6000F099FC00BFFA46004010B5054C237833B9044B13B10448AFF300800123237010BD46
:400040004881FF1F00000000B4360000084B10B51BB108490848AFF300800848036803B910BD074B002BFBD0BDE81040184700BF000000004C81FF1FB4360000C880FF1F2E
:400080000000000000000000F8B51B4C23680133236000F0FFFD0546606885421CD0401B02F056FC12A3D3E9002302F0B7FC06460F46206803F07EF802F05CFC02460B46EB
:4000C0003046394602F0D4FD02F06AFF0B4B1860656000232360F8BD074B1B68B3F57A6F05DD0022054B1A600022034B1A60F8BD9A999999993943406481FF1FA081FF1F30
:400100002DE9F04100F0A2FE454B1868454B196802F09AFF444903F0A1F80546424903F09DF8424CA16802F091FF0646A060E168284602F089FF3C4903F044F907463C49A8
:40014000284603F08BF880463A49304603F086F80146404602F07AFF06463349384603F07DF80146304602F071FFE560216902F06DFF0446304903F00FFA30B94FF07E5183
:40018000204603F027FA10B903E02B4C01E04FF07E54264B1C614FF001050021204603F0FBF908B94FF0000505F0010000F02CFC1E4B1D6925F0004002F0DCFB16A3D3E97A
:4001C000002302F02BFC02F0C3FE0446132800DC00240021284603F0FDF948B100F05AFD10F1B40F04DA0022104B9A6000240DE000210E4B186903F0CFF938B100F04AFDD3
:40020000B42803DD0022094B9A600024A0B200F0CBFCBDE8F08100BF000000000030A1409C81FF1FA081FF1F6F12033B6481FF1FCDCC4C3F0AD7A33C000080BF2DE9F041D9
:4002400000F008FC264B1C6800F080FE241A204602F0B0FF8046234903F000F8224D696902F0F4FE06466861A869201A02F0A2FF1C4903F0A7F807461C49404602F0EEFF9F
:4002800080464FF08141304602F0E8FF0146404602F0DCFE06464FF07C51384602F0DEFF0146304602F0D2FE03F09EF9AC6104460028D4BF0020012000F038FF84EAE470A5
:4002C000A0EBE47040F698039842A8BF1846B0F5827F00DA002080B200F048FFBDE8F0818C81FF1F0AD7233C6481FF1F0000204170B5144B1968002002F0A6FE064612495F
:4003000002F0ACFF114DE96902F0A0FE0446E8610F4B1D680F49304602F0A0FF06460021204602F09BFF0146304602F08FFE04460949284602F092FF0146204602F086FEC4
:4003400070BD00BFAC81FF1F0AD7233C6481FF1FA881FF1F0000A041CDCC0C400000000008B500F097FC02F025FF00F1004002F001FB05A3D3E9002302F050FB02F010FEBD
:4003800008BD00BFAFF30080F981AB3C81B0733F38B562B600F05CFC642000F0FFFB002000F06CFC00225A4B1A6000F0A9FC002000F078FC0024574B1C6000F0FDFD204634
:4003C00000F0CCFD00F024FF534800F0B1FD534800F09EFE524800F0A9FB00F07BFD00F07DFB4FF46171082000F0CEF8002000F045FC4C4C204600F01FF922684A4B1A60F0
:400400001C2000F0ABF804461D2000F0A7F844EA002000B202F0CEFE444902F0D3FF444B186027E0FFF79CFF002103F0D3F848B9FFF796FF002103F0AFF838B130A5D5E987
:40044000004506E030A5D5E9004502E000244FF00045FFF785FF02F08DFA00F0EDFF024621F000432046294602F002FC02F098FD274B186000F0FAFB0028D3D14FF4FA70F0
:4004800000F062FB6E2415E0204600F087FB012000F0F4FB4FF4FA7000F056FB002000F0EDFB4FF4FA7000F04FFB00F0DFFB18B90134A4B2842CE7D942F2107000F044FB4A
:4004C000012000F0DBFB06E0FFF712FF104B18600A2000F039FB00F0C9FB0028F4D000220B4B1A60642000F059FB002000F0C6FB4FF47A7000F028FB78E700BFAFF300805C
:400500009A9999999999C93F9A9999999999C9BF9C81FF1F8C81FF1F010100003D020000890000009081FF1FAC81FF1F00006144A881FF1F38B505460C460021282000F084
:4005400081FE40B9284600F00FFF002000F06EFE204600F009FF00F0EBFE38BD10B504460021282000F06EFE204600F0FDFE0121282000F0A7FE002000F022FF044600F060
:40058000D7FE204610BD00BF38B505460C4640F6B83000F0D9FA0020FFF7E0FFA02808D04FF47A7000F0D0FA0020FFF7D7FFA0283DD100213D20FFF7BDFF4FF4167000F0E2
:4005C000C3FA20213F20FFF7B5FF4FF47A7000F0BBFA02E0642000F0B7FA0020FFF7BEFFA028F7D14FF4167000F0AEFA00213E20FFF7A0FF642000F0A7FA00210720FFF7F0
:4006000099FF642000F0A0FA00213F20FFF792FFC82000F099FA29463D20FFF78BFF4FF4167000F091FA034B1C80012038BD002038BD00BFCC80FF1F2DE9F04704461A2003
:40064000FFF78CFF07461B20FFF788FF82461C20FFF784FF06461D20FFF780FF81461E20FFF77CFF05461F20FFF778FF804647EA0A2000B202F06CF90022104B02F0CEF9AC
:4006800002F08EFCA06046EA092000B202F060F900220A4B02F0C2F902F082FC206045EA082000B202F054F90022044B02F0B6F902F076FC6060BDE8F08700BF0000B03F0C
:4006C000FEE700BFF0B40022174611E050F82760F3B226F0FF0608E001EB420511F812406D78A5550132013BDBB2002BF4D10137282FEBD9F0BC7047064B1B78DBB203F058
:400700000701054A11701B09013213704422034B1A707047CF0100496E5800407658004008B50A46002102F0BCFF08BD38B500242F4B1C80582202331A700B2202331A80E9
:4007400018232C4A137040F2E731023211800232137040F65F11023211800232137045F6BF52254B1A80192502331D70062203F26E231A705222A3F580731A701F4B1B7849
:40078000DBB21F4A13704FF4E1621E4B1A8041F25122023B1A800CE01B4B1B7803F0010343EA440404F003044FF4F07000F034FE013D0DB1032CEFD115B90320FFF780FF58
:4007C000124A4FF48073138007231370002310490B7048200231087013700532137002220C4B1A700C4A137843F01F03137038BD8040004086400040904000400F010049BE
:40080000A14600402242004025420040044000400640004001400040A243004008B502F035FF08BD38B572B6324A137843F00403137000240CE0304D630019194A00114652
:400840002A44084691882858FFF76AFF0134E4B2082CF0D929494FF09040FFF733FF284A284B1A6002F5802203F5A0531A60264A137843F0020313701032137843F002033B
:400880001370224C237843F040032370A2F58632513A137843F0100313700A221C491D48FFF7BCFF0A221C491C48FFF7B7FF0A221B491C48FFF7B2FF08221B491B48FFF7AB
:4008C000ADFF0A221A491B48FFF7A8FF1A4A137843F008031370194D61232B70FFF726FF81232B70FFF708FF0E2221461448FFF795FF38BDE8460040B8360000A400004877
:40090000040400845804014003500140A0430040D80A004800510040E40A0048F0510040F00A004810510040FC0A004822510040040B00483051004022430040004800403C
:40094000B043004008B502F075FE03680C2B00D1FEE7FEE708B5104E104D16E029686B68AC68002204E051F8040B43F8040B0432A242F8D1E868002203E0002143F8041BA4
:4009800004328242F9D11035013E002EE6D102F057FEFFF7FDFCFEE701000000F038000008B5104A104B1A60104A136843F40073136000230AE0032B03D80D4A52F82310FE
:4009C00000E00C490C4A42F8231001332F2BF2D90A4B1A780A4B1A70074A0A4B1A60FFF721FF08BD0004FA050CED00E014ED00E000000000450900000080FF1FBC760040CA
:400A0000C080FF1F08ED00E0044A137803F0FB03800000F0040018431070704700510040084A137843F0040313701032137843F00403137002F66532137843F0010313702A
:400A4000704700BFA3430040014B1870704700BF1B4F0040014B1878704700BF1B4F0040014B1880704700BF1C4F0040014B1880704700BF1E4F004008B5154A137803F044
:400A8000010313700232137803F0FC031370114B1A7802F0CF021A701A7842F030021A701A7802F0F0021A701A7842F00F021A70094A137843F0010313700920FFF7D0FFDB
:400AC0000920FFF7D3FF0820FFF7BEFF08BD00BF184F0040234F0040194F004008B5054B1B7823B9FFF7C8FF0122024B1A70FFF797FF08BD8481FF1F014B1B68986470477C
:400B000008ED00E04001C0B2014B1870704700BF02E400E00422014B1A60704700E100E00422014B1A60704780E100E010B50446FFF7F6FF2046FFF7DFFF0720FFF7E2FFA3
:400B4000FFF7E8FF10BD00BF10B5044605E0084B186800F061FCA4F50044B4F5004FF6D8034B586800FB04F000F056FC10BD00BFD080FF1F024A137843F080031370704755
:400B800073640040014B1880704700BF04680040014B1880704700BF84680040014B1880704700BF44680040014B1880704700BF64680040014B1870704700BF8364004075
:400BC000014B1878704700BF63640040014B188880B27047A468004008B501E0FFF7F6FFFFF7EEFF10F0100FF8D108BD10B5164A137803F0C00343F0090313701F3213785E
:400C000043F001031370114C237843F0010323704FF4E160FFF7B6FF4FF4E160FFF7B8FF6420FFF7BBFF0020FFF7BEFF0020FFF7C1FF00F0F9FB237843F01003237000F0B3
:400C4000F7FBFFF7C9FF10BD736400409364004008B5054B1B7823B9FFF7C8FF0122024B1A70FFF787FF08BD8581FF1F024B1878C0F38010704700BF31510040044A1378E0
:400C800003F0FD03400000F002001843107070472051004008B500F05FF8A0F5004000B208BD00BF08B5002803DB80B280F4004002E0A0F5004080B200F048F808BD00BF77
:400CC000024B187800F00F00704700BF68640040014B1870704700BF8864004008B50F20FFF7F6FFFFF7ECFF00F09EFB034A137843F01003137000F09BFB08BD98640040B7
:400D000008B500F07BF84FF4004000F01FF8044B1B7813B90122024B1A70FFF7DFFF08BD8681FF1F024A137843F080031370704778640040014B1870704700BF8865004049
:400D4000014B1878704700BF68650040014B1880704700BF106A0040024B1B78024B188880B2704708650040906A0040014B188880B27047906A0040014B1880704700BFFA
:400D8000506A0040014B1880704700BF706A004008B501E0FFF7EAFFFFF7D2FF10F0400FF8D108BD08B5134B1A7802F0F8021A701A7802F0FC021A70FFF7EAFF4FF4004013
:400DC000FFF7DAFF4FF40040FFF7C0FF0020FFF7B1FFFFF7B5FF4FF40040FFF7D3FF00F023FB054A137843F01003137000F020FB08BD00BF786400409865004008B5054B8B
:400E00001B7823B9FFF7CEFF0122024B1A70FFF789FF08BD8781FF1F084A137843F0010313701032137843F00103137002F64D32137843F001031370704700BFA3430040A7
:400E4000014B1870704700BF034F0040014B1878704700BF034F0040014B1880704700BF044F0040014B1880704700BF064F004008B5154A137803F00103137002321378F6
:400E800003F0FC031370114B1A7802F0CF021A701A7842F030021A701A7802F0F0021A701A7842F00F021A70094A137843F0010313700920FFF7D0FF0920FFF7D3FF082004
:400EC000FFF7BEFF08BD00BF004F00400B4F0040014F004008B5054B1B7823B9FFF7C8FF0122024B1A70FFF797FF08BD8881FF1F024B1B68C3F88400704700BF08ED00E0FD
:400F00004001C0B2014B1870704700BF11E400E04FF40032014B1A60704700BF00E100E04FF40032014B1A60704700BF80E100E010B50446FFF7F4FF2046FFF7D9FF072028
:400F4000FFF7DEFFFFF7E4FF10BD00BF08B500F05FF8A0F5004000B208BD00BF08B5002803DB80B280F4004002E0A0F5004080B200F048F808BD00BF024B187800F00F0008
:400F8000704700BF65640040014B1870704700BF8564004008B50F20FFF7F6FFFFF7ECFF00F042FA034A137843F01003137000F03FFA08BD9564004008B500F07BF84FF430
:400FC000004000F01FF8044B1B7813B90122024B1A70FFF7DFFF08BD8981FF1F024A137843F080031370704775640040014B1870704700BF84640040014B1878704700BF9D
:4010000064640040014B1880704700BF0C680040024B1B78024B188880B27047066400408C680040014B188880B270478C680040014B1880704700BF4C680040014B1880CB
:40104000704700BF6C68004008B501E0FFF7EAFFFFF7D2FF10F0400FF8D108BD08B5134B1A7802F0F8021A701A7802F0FC021A70FFF7EAFF4FF40040FFF7DAFF4FF40040E2
:40108000FFF7C0FF0020FFF7B1FFFFF7B5FF4FF40040FFF7D3FF00F0C7F9054A137843F01003137000F0C4F908BD00BF756400409464004008B5054B1B7823B9FFF7CEFFAC
:4010C0000122024B1A70FFF789FF08BD8A81FF1F024B1B68C3F88C00704700BF08ED00E04001C0B2014B1870704700BF13E400E04FF40022014B1A60704700BF00E100E0F2
:401100004FF40022014B1A60704700BF80E100E010B50446FFF7F4FF2046FFF7D9FF0720FFF7DEFFFFF7E4FF10BD00BF044A137803F0F703C00000F0080018431070704732
:4011400020510040024A137843F08003137070477D640040014B1880704700BF18680040014B1880704700BF98680040014B1880704700BF58680040014B1870704700BF7E
:401180008D640040014B1878704700BF6D640040014B188880B27047B868004008B501E0FFF7F6FFFFF7EEFF10F0100FF8D108BD10B5154A137803F0C00343F00903137026
:4011C0001F32137843F001031370104C237843F00103237040F6C410FFF7BCFF40F6C410FFF7BEFF0020FFF7C1FF0020FFF7C4FF00F01AF9237843F01003237000F018F9F9
:40120000FFF7CCFF10BD00BF7D6400409D64004008B5054B1B7823B9FFF7CAFF0122024B1A70FFF78FFF08BD8B81FF1F044A137803F0EF03000100F0100018431070704706
:40124000105100401A4B1B78DBB2102B29D1194B1B7813F0080F26D14FF40042164B1A604000C0B229B140F001004922104B1A7002E045220E4B1A70104B18700122013338
:401280001A700F4B1B7813F0010FFAD00C4B1B7803F00A030A2B08D11022054B1A700320704702207047012070470020704700BFB081FF1FD949004080E100E0D849004062
:4012C000D7490040164B1B7813F0040F23D04000C0B229B140F001004922124B1A7002E04522104B1A70104B1870122201331A700422023B1A700D4B1B7813F0010FFAD0CA
:401300000A4B1B7803F00A030A2B06D11022054B1A7003207047022070470020704700BFD9490040B081FF1FD8490040D74900400A4B1B7813F0040F0ED01023074A13700F
:401340000421023A1170064A1370064B1B7813F0210FFAD00020704702207047D9490040B081FF1FD7490040114B1B7813F0040F1BD0104B18700422013B1A7046220E4B96
:401380001A700E4B1B7813F0010FFAD00B4B1B7813F0020F04D16022074B1A70002070476022054B1A70032070470220704700BFD9490040D8490040B081FF1FD749004093
:4013C000114B1B7813F0040F1BD0104B1B78DBB2492B05D100220E4B1A704A220B4B1A700B4B1B7813F0010FFAD00A4B1B78DBB218B11021064A117004E06021034A1170AE
:4014000000E0002318467047D9490040B081FF1FD7490040D84900400230800803D000BF01380046FCD17047EFF3108072B6704780F31088704700BF30B5214A21F000435D
:40144000934287B01BDD1F4A934205DD02460B4601F030F907B030BD02AA00F035F800F0030001281AD002280FD008B3DDE9020101230093DDE9042300F05AFFEAE70022B5
:40148000002300F039FA07B030BDDDE90423DDE9020100F031FA01F10041DBE70090DDE90423DDE9020100F043FF01F10041D1E7DDE90423DDE9020100F01EFACAE700BFEB
:4014C000FB21E93FFFFFEF7F2DE9F04F944C21F00047A7428FB040F381801446914A0E46974226DC84A3D3E90023002940F3A08101F0E0F88C4B80469F42894600F0838063
:401500007FA3D3E9002301F0D5F802460B464046C4E90023494601F0CDF879A3D3E9002301F0C8F80125C4E9020128460FB0BDE8F08F7E4A974240F383807D4A974258DC3A
:401540003D15A5F21645A7EB05518B46824601F0FFFC01F0FDF98046894642464B4650465946CDE9088901F0A5F80022714B01F055FA8B46824601F0EBFC01F0E9F98046F3
:40158000894642464B4650465946CDE90A8901F091F80022674B01F041FA00220023CDE90C0101F0A3FC002800F06A81002340464946002201F09AFC002814BF012302238B
:4015C0005D480221019000912A46214608A800F0B7FA002EC0F24A81054606E0C2E9000100250024C2E90245002528460FB0BDE8F08F02460B4601F05DF80025C4E90201EC
:40160000C4E90001F1E740A3D3E9002301F052F83FA3D3E9002306460F4601F04BF802460B463046C4E90023394601F043F838A3D3E9002301F03EF80125C4E90201D4E795
:4016400000F02CFF34A3D3E900238046894601F0E5F90022394B01F02FF801F079FC054601F076F924A3D3E90023CDE9040101F0D5F902460B464046494601F01BF820A3D1
:40168000D3E9002382468B46DDE9040101F0C6F91F2DCDE9020155DC294B6A1E53F822309F424FD002460B465046594601F002F802460B4681468846C4E900234A46434698
:4016C0005046594600F0F6FFDDE9022300F0F2FF02460B46002EC4E9022386DA4A4608F1004301F1004184E80C00E160A0606D427BE700BFAFF3008000004054FB21F93F79
:401700003163621A61B4D03D0000601A61B4D03D7370032E8A19A33B83C8C96D305FE43FFB21E93F7BD90240FB21F93FFB213941FFFFEF7F00007041703700000000E03F6C
:40174000F0360000DDE902235046594600F0B2FF3F15C1F30A53FB1A102B81468846C4E90001ABDD58A3D3E90023DDE9040101F055F98046894602460B465046594600F0CB
:4017800099FFCDE9060102460B465046594600F091FF42464B4600F08DFF4DA3D3E9002380468946DDE9040101F038F942464B4600F080FF02460B46CDE90201DDE90601F9
:4017C00000F078FF0B4602468846C1F30A517F1A312F8146C4E9002372DD3FA3D3E90023DDE9040101F01AF98046894602460B46DDE9060100F05EFF02460B4682468B4623
:40180000DDE9060100F056FF42464B4600F052FF33A3D3E9002380468946DDE9040101F0FDF842464B4600F045FFCDE9020139E700F042FF2E4B80469F42894622D02AA33C
:40184000D3E9002300F038FF02460B464046C4E90023494600F02EFF23A3D3E9002300F02BFF4FF0FF35C4E90201BEE66268E36802F1004203F1004345426260E360B4E69A
:4018800003239DE610A3D3E9002300F015FF10A3D3E9002306460F4600F00EFF02460B463046C4E90023394600F004FF08A3D3E9002300F001FF4FF0FF35C4E9020194E651
:4018C000DDE906ABFAE600BF0000601A61B4D03D7370032E8A19A33B0000002E8A19A33BC14920259A837B393163621A61B4D03DFB21F93F000000002DE9F04F21F00046A0
:40190000B6F1795F85B00C4692469B4605466BDA01F01EFB002800F0E7802A4623462846214601F07BF874A3D3E900238046894601F074F872A3D3E9002300F0BDFE4246AE
:401940004B4601F06BF870A3D3E9002300F0B2FE42464B4601F062F86DA3D3E9002300F0ABFE42464B4601F059F86BA3D3E9002300F0A0FE42464B4601F050F868A3D3E915
:40198000002300F099FE42464B4601F047F8CDE900010022644B4046494601F03FF8DDE9002306460F464046494601F037F85246804689465B462846214601F02FF80246AD
:4019C0000B464046494600F075FE02460B463046394600F06FFE02460B460020534900F069FE05B0BDE8F08F02460B4601F016F841A3D3E900238046894601F00FF840A3E3
:401A0000D3E9002300F058FE42464B4601F006F83DA3D3E9002300F04DFE42464B4600F0FDFF3BA3D3E9002300F046FE42464B4600F0F4FF38A3D3E9002300F03BFE424622
:401A40004B4600F0EBFF36A3D3E9002300F034FE4B46424600F0E2FF354BCDE900019E4297DD344B00229E4238DCA6F5001300202E4916461F4600F01DFECDE9020100222B
:401A8000294B4046494600F0C9FF32463B4600F011FEDDE9002306460F464046494600F0BDFF5246804689465B462846214600F0B5FF02460B464046494600F0FBFD02467D
:401AC0000B463046394600F0F5FD02460B46DDE9020100F0EFFD05B0BDE8F08F164B0026CDE90223154FCAE71049002005B0BDE8F08F00BFAFF30080D43888BEE9FAA8BD63
:401B0000C4B1B4BD9EEE213EAD529C804F7E923E9015CB19A001FA3E7751C1166CC1563F4C5555555555A53F0000E03F0000F03F3233D33F0000E93F0000E73F0000D23F5C
:401B40002DE9F04F794CADF51D7D1F460B93D31E84FB0354DB17C3EBA403A69E744C23EAE37554F826406B1C26460994A3EB83037C1E0D95029402EBC3032D1B3419049091
:401B80000A91089316D42C44013422AEA79F08E057F8250000F0DCFE0135A542E6E9020108D0002DF4DA013500200021A542E6E90201F6D1099B002B2FDB099B74AADDF8FB
:401BC000089002EBC30B0DF5E47A029B002BC0F295810B9B0026C3EB090824AB03EBC808049B0027A3F1080524AB03EBC904F5E9022374E8020100F011FF02460B46304628
:401C0000394600F059FD444506460F46EFD1EAE90267DA4509F10109D7D1099B10A91D4603F18043023B9B001A1D0A440B440F920E939CAB03EBC503002D53E928672BDD8C
:401C40009CAB03EBC504A83C0DF13C0A0DF5E47B0022384B3046394600F0E0FE01F078F900F076FE0022344B8046894600F0D6FE02460B463046394600F01CFD01F068F9CC
:401C800074E802234AF8040F4946404600F014FD5C4506460F46DBD1089C30463946224600F08AFC00224FF07F5306460F4600F0B5FE00F0F9FB0022204B00F0AFFE024606
:401CC0000B463046394600F0F5FC0F46064601F03FF9814600F03CFE02460B463046394600F0E8FC002C06460F4640F3EE80681E10AB53F82030C4F1180243FA02F101FA5C
:401D000002F29B1AC4F1170810AA42F82030894443FA08F8B8F1000F3DDD002D09F1010940F3D382002214460FA911E0ABAAAA2A783800000000703E000070410000204090
:401D4000C3F180700BB108600124013295420DDD51F8043F002CF3D0C3F1FF13013203F57F4395420B604FF00104F1DC089B002B0DDD012B00F0B180022B08D16A1E10ABB3
:401D800053F8223010A9C3F3150341F82230B8F1020F00F08180002200233046394601F0A5F8002800F05B82099B05F1FF3B5B4510DC05F1804310AA013B0F9802EB8303E3
:401DC000002253F80419834242EA0102F9D1002A40F0B180099B10AA013B52F82330002B40F071820E9A012352F8041901330029FAD0E9186A1C8A420C914BDC0D990B98D1
:401E00005118DB0001F180410593A79B05440139E80003EB810A24ABD20003EB000B74AB13440193A2F10803069007934FF000095AF8040F00F08CFD029BEBE80201002BB7
:401E40004FF000064FF000071BDB069B03EB0904079B09EB030824AB1C449844049BA3F10805F5E9022374E8020100F0D7FD02460B463046394600F01FFC444506460F4670
:401E8000EFD1019B09F10809E3E802670193059B9945CDD10C9DCCE632463B460020B04900F008FC06460F46002C3FF474AF089A0020AB4900F080FB02460B4630463946A4
:401EC00000F0F8FB06460F4665E710D16B1E10AA52F823304FEAE3581CE76A1E10AB53F8223010A9C3F3160341F822304FE700229C4B01F019F858B980464CE7002600274F
:401F0000EAE90267DA4509F101097FF45EAE84E6002D09F10109C8BF4FF002083FF702AF32463B4600208E4900F0C4FB4FF0020806460F462FE7089A10AB53F82B30183A7D
:401F4000CDF81490CDF8048008926BB90BF18043013B10A901EB830353F804190BF1FF3B183A0029F8D00892089A00207C4900F023FBBBF1000F04460D46C0F2B6814FEA41
:401F8000CB030DF5E87810AA02EB8B0608EB03090493043609F1080756F8040D00F0D8FC22462B4600F03AFD002267E902016E4B2046294600F032FDB84504460D46EBD145
:401FC0004B46CDF818B09B460DF5987ACDF808A0DDF824A04FF00009BAF1000FC0F226815DA3D3E90023DFF884815D4600260027002403E0A14510DBF8E90223F5E8020104
:4020000000F00CFD02460B463046394600F054FB0134A24506460F46ECDA029BABF1080B03EBC903C3E9006772AB5B4509F10109D2D1A69BDDF818B0DDF808A0032B00F25F
:402040008380DFE813F0D100950095000400BBF1000F40F35481049BCDF808B053449846D3E90067D34658E9029A32463B464846514600F021FB04460D4602460B46484639
:40208000514600F017FB32463B4600F015FBC8E9000168E90245C34526462F46E3D1DA46DDF808B0BBF1010F40F32981049B0DF59C7B53449846D3E90067994659E90234BA
:4020C0003046CDE902341A463946234600F0F4FA04460D4602460B46DDE9020100F0EAFA32463B4600F0E8FAC9E9000169E90245CB4526462F46E1D100231D4608F108083C
:4021000050AC184678E90223294600F0D5FA444503460D46F5D1019A002A00F0D880DAF80440DAF80C200A9FDAF80010DAF8080005F1004504F1004402F100427D613B61FD
:402140007C60FA603960B860059B03F007000DF51D7DBDE8F08F00BF00000040FB21F93F0000F03F0000E03F0000703E8838000000242146049D0835554475E90223204624
:4021800000F09AFA55450446F7D1019B002B50D00A9F01F100450B46DAE9000187E83000224600F087FABBF1000F03460D460DDD01241846FAE90223294600F07DFA0134C4
:4021C000A34503460D46F4DA019A0AB105F10045184629460A9BC3E90201059B03F007000DF51D7DBDE8F08F00231C46049A0832924418467AE90223214600F05DFA0BF1BE
:40220000FF3BBBF1FF3F03460C46F2D1019A0AB104F10044184621460A9BC3E90001059B03F007000DF51D7DBDE8F08F00260027F3E626460F4622460A9C0B46DAE9000112
:40224000C4E9006700F036FABBF1000F03460D46AEDC184629460A9BC3E90201BDE7089B30465A423946CDF81490CDF8048000F0A3F900222C4B06460F4600F055FE00286D
:4022800040D00022294B3046394600F0C7FB00F05FFE044600F05CFB0022234B00F0BEFB0B4602463946304600F004FA00F050FE089B05F1010B1833089310AB43F825005A
:4022C00043F82B4050E6012393E500244EE51846DAE90067DAE9022329460A9DC5E90067C5E90401C5E902232EE7A69B032B3FF62BAFDFE803F0151010020DF5987A002333
:402300001D4608E73046394600F022FE10ABAB4643F8250028E6002421460DF5987A34E700231C4672E700BF000070410000703E2DE9F04F21F00046B6F1795F85B00C46C4
:4023400090469946054604DA00F002FE002800F085802A4623462846214600F05FFB06460F4602460B462846214600F057FB3EA3D3E9002382468B463046394600F04EFBA2
:402380003BA3D3E9002300F095F932463B4600F045FB39A3D3E9002300F08EF932463B4600F03CFB36A3D3E9002300F083F932463B4600F033FB34A3D3E9002300F07CF911
:4023C0000E9BCDE900019BB30022334B4046494600F024FBDDE90023CDE902015046594600F01CFB02460B46DDE9020100F062F932463B4600F012FB42464B4600F05AF98E
:4024000023A3D3E9002306460F465046594600F005FB02460B463046394600F04DF902460B462846214600F045F905B0BDE8F08F02460B463046394600F0F0FA14A3D3E91D
:40244000002300F037F952465B4600F0E7FA2A46234600F031F905B0BDE8F08F2846214605B0BDE8F08F00BF7CD5CF5A3AD9E53DEB9C2B8AE6E55A3E7DFEB157E31DC73E00
:40248000D561C119A0012A3FA6F810111111813F495555555555C53F0000E03F21F00041704700BF00000000C1F30A522DE9F843A2F2FF36132E0B4604460D468846074610
:4024C0001CDC002E3FDB3A4A864642FA06F901EA0902024317D034A3D3E9002300F0ECF80022002300F02AFD20B1002D40DB28EA0905002738462946BDE8F883332E06DD58
:40250000B6F5806F2FD020461946BDE8F883A2F213424FF0FF3929FA02F910EA090FF2D021A3D3E9002300F0C7F80022002300F005FD0028DED0002D20DB454627EA090798
:4025400038462946D8E718A3D3E9002300F0B4F80022002300F0F2FC0028CBD0002D18DB00273D46C6E702460B4600F0A5F8CCE74FF4801343FA06F6B044B8E7142E10D07F
:402580000123C6F1340603FA06F6371928BF9844D3E725F00042074B224318BF1D460027A8E705F10108C8E79C7500883CE4377EFFFF0F000000F0BFF8B5C1F30A5604465F
:4025C0000D460B46174606BB21F00043034325D000222F4B00F022FA2E4A044697420D460B462ADBC1F30A56363E40F2FE723E44964228DC002E12DD23F0FF4323F4E003AA
:4026000043EA065520462946F8BD40F2FF729642EBD102460B4600F04FF8F8BDF8BD16F1350F1DDA4CF250339F420CDC14A1D1E9000122462B4600F031F811A3D3E9002356
:4026400000F0ECF9F8BD22460FA1D1E900012B4600F024F80CA3D3E9002300F0DFF9F8BD23F0FF4323F4E003363643EA0655204629460022084B00F0D1F9F8BDAFF3008057
:4026800059F3F8C21F6EA5019C7500883CE4377E00005043B03CFFFF0000903C03F0004321F0004242EA0301704700BF81F0004102E000BF83F0004330B54FEA41044FEA56
:4026C000430594EA050F08BF90EA020F1FBF54EA000C55EA020C7FEA645C7FEA655C00F0E2804FEA5454D4EB5555B8BF6D420CDD2C4480EA020281EA030382EA000083EA13
:40270000010180EA020281EA0303362D88BF30BD11F0004F4FEA01314FF4801C4CEA113102D0404261EB410113F0004F4FEA03334CEA133302D0524263EB430394EA050F64
:4027400000F0A780A4F10104D5F1200E0DDB02FA0EFC22FA05F2801841F1000103FA0EF2801843FA05F359410EE0A5F120050EF1200E012A03FA0EFC28BF4CF0020C43FA0E
:4027800005F3C01851EBE37101F0004507D54FF0000EDCF1000C7EEB00006EEB0101B1F5801F1BD3B1F5001F0CD349085FEA30004FEA3C0C04F101044FEA445212F5800F3C
:4027C00080F09A80BCF1004F08BF5FEA500C50F1000041EB045141EA050130BD5FEA4C0C404141EB010111F4801FA4F10104E9D191F0000F04BF01460020B1FA81F308BF1F
:402800002033A3F10B03B3F120020CDA0C3208DD02F1140CC2F10C0201FA0CF021FA02F10CE002F11402D8BFC2F1200C01FA02F120FA0CFCDCBF41EA0C019040E41AA2BF7E
:4028400001EB0451294330BD6FEA04041F3C1CDA0C340EDC04F11404C4F1200220FA04F001FA02F340EA030021FA04F345EA030130BDC4F10C04C4F1200220FA02F001FAFE
:4028800004F340EA0300294630BD21FA04F0294630BD94F0000F83F4801306BF81F480110134013D4EE77FEA645C18BF7FEA655C29D094EA050F08BF90EA020F05D054EA03
:4028C000000C04BF1946104630BD91EA030F1EBF0021002030BD5FEA545C05D14000494128BF41F0004130BD14F580043CBF01F5801130BD01F0004545F0FE4141F47001A4
:402900004FF0000030BD7FEA645C1ABF194610467FEA655C1CBF0B46024650EA013406BF52EA033591EA030F41F4002130BD00BF90F0000F04BF0021704730B54FF48064A9
:4029400004F132044FF000054FF0000150E700BF90F0000F04BF0021704730B54FF4806404F1320410F0004548BF40424FF000013EE700BF42004FEAE2014FEA31014FEA5D
:4029800002701FBF12F07F4393F07F4F81F06051704792F0000F14BF93F07F4F704730B54FF4607401F0004521F0004120E700BF50EA010208BF704730B54FF000050AE055
:4029C00050EA010208BF704730B511F0004502D5404261EB41014FF4806404F132045FEA915C3FF4DCAE4FF003025FEADC0C18BF03325FEADC0C18BF033202EBDC02C2F189
:402A0000200300FA03FC20FA02F001FA03FE40EA0E0021FA02F11444C1E600BF70B54FF0FF0C4CF4E06C1CEA11541DBF1CEA135594EA0C0F95EA0C0F00F0DEF82C4481EAEA
:402A4000030621EA4C5123EA4C5350EA013518BF52EA033541F4801143F4801338D0A0FB02CE4FF00005E1FB02E506F00042E0FB03E54FF00006E1FB03569CF0000F18BF4D
:402A80004EF0010EA4F1FF04B6F5007F64F5407404D25FEA4E0E6D4146EB060642EAC62141EA55514FEAC52040EA5E504FEACE2EB4F1FD0C88BFBCF5E06F1ED8BEF1004F9C
:402AC00008BF5FEA500E50F1000041EB045170BD06F0004646EA010140EA020081EA0301B4EB5C04C2BFD4EB0C0541EA045170BD41F480114FF0000E013C00F3AB8014F100
:402B0000360FDEBF002001F0004170BDC4F10004203C35DA0C341BDC04F11404C4F1200500FA05F320FA04F001FA05F240EA020001F0004221F0004110EBD37021FA04F6FC
:402B400042EB06015EEA430E08BF20EAD37070BDC4F10C04C4F1200500FA04F320FA05F001FA04F240EA020001F0004110EBD37041F100015EEA430E08BF20EAD37070BD0E
:402B8000C4F1200500FA05F24EEA020E20FA04F301FA05F243EA020321FA04F001F0004121FA04F220EA020000EBD3705EEA430E08BF20EAD37070BD94F0000F0FD101F003
:402BC0000046400041EB010111F4801F08BF013CF7D041EA060195F0000F18BF704703F00046520043EB030313F4801F08BF013DF7D043EA0603704794EA0C0F0CEA135549
:402C000018BF95EA0C0F0CD050EA410618BF52EA4306D1D181EA030101F000414FF0000070BD50EA410606BF1046194652EA430619D094EA0C0F02D150EA013613D195EA12
:402C40000C0F05D152EA03361CBF104619460AD181EA030101F0004141F0FE4141F470014FF0000070BD41F0FE4141F4780170BD70B54FF0FF0C4CF4E06C1CEA11541DBFD3
:402C80001CEA135594EA0C0F95EA0C0F00F0A7F8A4EB050481EA030E52EA03354FEA013100F088804FEA03334FF0805545EA131343EA12634FEA022245EA111545EA106529
:402CC0004FEA00260EF000419D4208BF964244F1FD0404F5407402D25B084FEA3202B61A65EB03055B084FEA32024FF480104FF4002CB6EB020E75EB030E22BFB61A754669
:402D000040EA0C005B084FEA3202B6EB020E75EB030E22BFB61A754640EA5C005B084FEA3202B6EB020E75EB030E22BFB61A754640EA9C005B084FEA3202B6EB020E75EB74
:402D4000030E22BFB61A754640EADC0055EA060E18D04FEA051545EA16754FEA06164FEAC30343EA52734FEAC2025FEA1C1CC0D111F4801F0BD141EA00014FF000004FF009
:402D8000004CB6E711F4801F04BF01430020B4F1FD0C88BFBCF5E06F3FF6AFAEB5EB030C04BFB6EB020C5FEA500C50F1000041EB045170BD0EF0004E4EEA113114EB5C04FE
:402DC000C2BFD4EB0C0541EA045170BD41F480114FF0000E013C90E645EA060E8DE60CEA135594EA0C0F08BF95EA0C0F3FF43BAF94EA0C0F0AD150EA01347FF434AF95EA2C
:402E00000C0F7FF425AF104619462CE795EA0C0F06D152EA03353FF4FDAE1046194622E750EA410618BF52EA43067FF4C5AE50EA41047FF40DAF52EA43057FF4EBAE12E7ED
:402E40004FF0FF3C06E000BF4FF0010C02E000BF4FF0010C4DF804CD4FEA410C7FEA6C5C4FEA430C18BF7FEA6C5C1BD001B050EA410C0CBF52EA430C91EA030F02BF90EA5C
:402E8000020F0020704710F1000F91EA030F58BF994208BF90422CBFD8176FEAE37040F0010070474FEA410C7FEA6C5C02D150EA013C07D14FEA430C7FEA6C5CD6D152EA1F
:402EC000033CD3D05DF8040B704700BF8446104662468C461946634600E000BF01B5FFF7B7FF002848BF10F1000F01BD4DF808EDFFF7F4FF0CBF012000205DF808FB00BF30
:402F00004DF808EDFFF7EAFF34BF012000205DF808FB00BF4DF808EDFFF7E0FF94BF012000205DF808FB00BF4DF808EDFFF7CEFF94BF012000205DF808FB00BF4DF808ED91
:402F4000FFF7C4FF34BF012000205DF808FB00BF4FEA410212F5001215D211D56FF47873B3EB625212D94FEAC12343F0004343EA505311F0004F23FA02F018BF404270478E
:402F80004FF00000704750EA013005D111F0004008BF6FF0004070474FF00000704700BF4FEA4102B2F1E04324BFB3F5001CDCF1FE5C0DD901F0004C4FEAC0024CEA5070A3
:402FC000B2F1004F40EB830008BF20F00100704711F0804F21D113F13872BCBF01F00040704741F480114FEA5252C2F11802C2F1200C10FA0CF320FA02F018BF40F0010063
:403000004FEAC1234FEAD32303FA0CFC40EA0C0023FA02F34FEA4303CCE77FEA625307D150EA01331EBF4FF0FE4040F44000704701F0004040F0FE4040F40000704700BF93
:4030400080F0004002E000BF81F0004142001FBF5FEA410392EA030F7FEA226C7FEA236C6AD04FEA1262D2EB1363C1BFD218414048404140B8BF5B42192B88BF704710F0BF
:40308000004F40F4000020F07F4018BF404211F0004F41F4000121F07F4118BF494292EA030F3FD0A2F1010241FA03FC10EB0C00C3F1200301FA03F100F0004302D54942DD
:4030C00060EB4000B0F5000F13D3B0F1807F06D340084FEA310102F10102FE2A51D2B1F1004F40EBC25008BF20F0010040EA03007047490040EB000010F4000FA2F1010237
:40310000EDD1B0FA80FCACF1080CB2EB0C0200FA0CF0AABF00EBC25052421843BCBFD0401843704792F0000F81F4000106BF80F400000132013BB5E74FEA41037FEA226CA8
:4031400018BF7FEA236C21D092EA030F04D092F0000F08BF0846704790EA010F1CBF0020704712F07F4F04D1400028BF40F00040704712F100723CBF00F50000704700F095
:40318000004343F0FE4040F4000070477FEA226216BF08467FEA23630146420206BF5FEA412390EA010F40F4800070474FF0000304E000BF10F0004348BF40425FEA000C79
:4031C00008BF704743F0964301464FF000001CE050EA010208BF70474FF000030AE000BF50EA010208BF704711F0004302D5404261EB41015FEA010C02BF844601460020EF
:4032000043F0B64308BFA3F18053A3F50003BCFA8CF2083AA3EBC25310DB01FA02FC634400FA02FCC2F12002BCF1004F20FA02F243EB020008BF20F00100704702F120024A
:4032400001FA02FCC2F1200250EA4C0021FA02F243EB020008BF20EADC7070474FF0FF0C1CEAD0521EBF1CEAD15392EA0C0F93EA0C0F6FD01A4480EA010C400218BF5FEAC9
:4032800041211ED04FF0006343EA501043EA5111A0FB01310CF00040B1F5000F3EBF490041EAD3715B0040EA010062F17F02FD2A1DD8B3F1004F40EBC25008BF20F001000F
:4032C000704790F0000F0CF0004C08BF49024CEA502040EA51207F3AC2BFD2F1FF0340EAC250704740F400004FF00003013A5DDC12F1190FDCBF00F000407047C2F10002AF
:40330000410021FA02F1C2F1200200FA02FC5FEA310040F1000053EA4C0308BF20EADC70704792F0000F00F0004C02BF400010F4000F013AF9D040EA0C0093F0000F01F0C8
:40334000004C02BF490011F4000F013BF9D041EA0C018FE70CEAD15392EA0C0F18BF93EA0C0F0AD030F0004C18BF31F0004CD8D180EA010000F00040704790F0000F17BF26
:4033800090F0004F084691F0000F91F0004F14D092EA0C0F01D142020FD193EA0C0F03D14B0218BF084608D180EA010000F0004040F0FE4040F40000704740F0FE4040F4D2
:4033C000400070474FF0FF0C1CEAD0521EBF1CEAD15392EA0C0F93EA0C0F69D0A2EB030280EA010C49024FEA402037D04FF0805343EA111143EA10130CF000408B4238BF50
:403400005B0042F17D024FF4000C8B4224BF5B1A40EA0C00B3EB510F24BFA3EB510340EA5C00B3EB910F24BFA3EB910340EA9C00B3EBD10F24BFA3EBD10340EADC001B019E
:4034400018BF5FEA1C1CE0D1FD2A3FF650AF8B4240EBC25008BF20F0010070470CF0004C4CEA50207F32C2BFD2F1FF0340EAC250704740F400004FF00003013A37E792F026
:40348000000F00F0004C02BF400010F4000F013AF9D040EA0C0093F0000F01F0004C02BF490011F4000F013BF9D041EA0C0195E70CEAD15392EA0C0F08D142027FF47DAF60
:4034C00093EA0C0F7FF470AF084676E793EA0C0F04D14B023FF44CAF08466EE730F0004C18BF31F0004CCAD130F000427FF45CAF31F000437FF43CAF5FE700BF4FF0FF3C00
:4035000006E000BF4FF0010C02E000BF4FF0010C4DF804CD4FEA40024FEA41037FEA226C18BF7FEA236C11D001B052EA530C18BF90EA010F58BFB2EB030088BFC81738BF77
:403540006FEAE17018BF40F0010070477FEA226C02D15FEA402C05D17FEA236CE4D15FEA412CE1D05DF8040B704700BF844608466146FFE70FB5FFF7C9FF002848BF10F148
:40358000000F0FBD4DF808EDFFF7F4FF0CBF012000205DF808FB00BF4DF808EDFFF7EAFF34BF012000205DF808FB00BF4DF808EDFFF7E0FF94BF012000205DF808FB00BFCC
:4035C0004DF808EDFFF7D2FF94BF012000205DF808FB00BF4DF808EDFFF7C8FF34BF012000205DF808FB00BF4FEA4002B2F1FE4F0FD34FF09E03B3EB12620DD94FEA00235C
:4036000043F0004310F0004F23FA02F018BF404270474FF00000704712F1610F01D1420205D110F0004008BF6FF0004070474FF000007047014B1868704700BF4081FF1FDD
:403640000E4B70B51E460E4C0025E41AA410A54204D056F8253098470135F8E700F036F9084B094C1E46E41AA4100025A54204D056F8253098470135F8E770BDD838000054
:40368000D8380000D8380000E038000010B5431E0A44914204D011F8014B03F8014FF8E710BD03460244934202D003F8011BFAE77047000000000000C84900401900004FCD
:4036C00000402400405100403000C0510040100000000140001000140140000800400140000A004C014000020050014020000000FB21F93FFB2109407CD91240FB211940B6
:403700007A6A1F407CD92240BBFD2540FB2129403A462C407A6A2F405C4731407CD932409C6B3440BBFD3540DB8F3740FB2139401BB43A403A463C405AD83D407A6A3F405E
:403740004C7E40405C4741406C1042407CD942408CA243409C6B4440AC344540BBFD4540CBC64640DB8F4740EB584840FB21494083F9A200444E6E00FC291500D157270009
:40378000DD34F50062DBC0003C999500419043006351FE00BBDEAB00B761C5003A6E2400D24D42004906E00009EA2E001C92D100EB1DFE0029B11C00E83EA700F535820044
:4037C00044BB2E009CE98400B4267000417E5F00D6913900538339009CF439008B5F840028F9BD00F81F3B00DEFF97000F980500112FEF000A5A8B006D1F6D00CF7E36005B
:4038000009CB2700464FB7009E663F002DEA5F00BA277500E5EBC7003D7BF100F739070092528A00FB6BEA001FB15F00085D8D00300356007BFC4600F0AB6B0020BCCF00E5
:4038400036F49A00E3A91D005E619100081BE60085996500A0145F008D40680080D8FF0027734D0006063100CA561500C9A873007BE260006B8CC0000200000003000000AA
:40388000040000000600000000000040FB21F93F000000002D44743E000000809846F83C0000006051CC783B00000080831BF0390000004020257A38000000802282E336CA
:4038C000000000001DF3693543000000F8B500BFF8BC08BC9E4670474D000000A1090000F8B500BFF8BC08BC9E4670472900000000390000C880FF1F80000000700000002A
:4039000000000000100000000000E02EC05D00001800000000366E010000000000000000000000000000000000000000000000000000000000000000C8380000000000008F
:403940000000000000000000000000000000000000000000000000000000000000000000000000000000000000000000000000000000000000000000E080FF1F00000000C9
:403980000000000000000000000000000000000000000000000000000000000000000000000000000000000000000000000000000000000000000000000000000000000007
:4039C00000000000000000000000000000000000000000000000000000000000000000000000000000000000000000000000000000000000000000000000000000000000C7
:403A00000000000000000000000000000000000000000000000000000000000000000000000000000000000000000000000000000000000000000000000000000000000086
:403A40000000000000000000000000000000000000000000000000000000000000000000000000000000000000000000000000000000000000000000000000000000000046
:020000040003F7
:0200000480007A
:4000000001450040064F004005520040056400400265004038000140240101404E020140380301402C040140380501405A060140390701404808014038090140070B01405B
:40004000430C0140240D0140040E0140020F01405B140140351501403D160140391701406418014050190140071B014009400140224101400E4201400443014001440140E2
:400080000545014006460140094701400248014007490140104C0140024D014008500140035101407E0201300A4B0D40164B1940224B0009010304080C047C40830F846F3C
:4000C000850F880F8D0D850D886F01200208034004020601070809030C010D400E020F20131014011506160219051D201F40280129202A022B402D062E0431083204330747
:40010000340335103608376039083A203B80580459045C225F0181148328891C8D308F0C95289714993CA301A50CA730AB02B102B33CB501D904DC20DF01020203600A208C
:4001400011201201180219201B2420022140221223102408251027502A802B042E022F28320233543714380A39803A013B103C023E803F10C00DC204C403CAECCC6FCEBFDD
:40018000E2010E0310021901230130013101320236013E043F014060410549FF4AFF4BFF4DA04F045018580459045A045C015F01604062C06440654066C068C06AC06CC0BF
:4001C0006EC085028D088E02920197039A0E9B0CA608AA04B004B104B202B301B401B508B608B702BE04C020C105C5D5C721C833C9FFCAFFCBFFCDAFCE0FCF04D018D280ED
:40020000D407D804D904DA04DB04DF01E040E2C0E440E540E6C0E8C0EAC0ECC0EEC0020204800A440E80102819841A041B111EA01F8021042250234027402F803028372091
:4002400039083B404204482049024A024E024F205008520259065AA072408040832086108B018F409180931099209B109E809F04AA02B308C081C21AC406CA80CC26CE0A78
:40028000D004D238D60FE290E820EA03EE02030C060207010A010D0415021C031D02200427022A022C04300131083302340435043602370138203E413F14540F5804590425
:4002C0005B045C225D205F0583019A01A701AD01B001B101BF01D280D40FD804D904DB04DC02DD20DF010204032008480B100C101080120919801A801B201F022110228063
:40030000236027402B202C102F12304032883501370238023A053B403C0258205A845B015C085D805F226104622074017808810183109180931099209B109E809F04B180D1
:40034000C006C241C40BCA52CC0ACE8BD6FFD806DE02E840EE800C011E012301340137013E104015410649FF4AFF4BFF4DA04F015018580459045A045C205D025F01604058
:40038000628064406540668068406A806C406D206E80800181FD820283028530860887C98A078B0F8C0790019194920293609410957398049D9E9E049F60A010A1CFA330C6
:4003C000A807AC10B20FB5FFB610B880BE40BF10C045C106C50EC6C3C724C83DC9FFCAFFCBFFCDAFCE07CF01D018D804D904DA04DC02DD02DF01E040E280E440E540E68071
:40040000E840EA80EC40ED20EE80000402810308070108410B140C80108A18201A021B081E042004270128402C803009328038203A093B044240474049044A0A4C044E0B4A
:40044000508352245A405B4089108A809180931094029604972099209B509D049E849F04A480A628A821AD10AF01C08FC28FC40BCA81CC0BCE07D011D23CEE020002012026
:40048000042C06100710090C0A020B020C300E080F0F1020120414301507160419081A011B011E0220012320241C250B2704290C2A3C2B012E013002323C33203401350FA8
:4004C00037103E113F045280540F580459045B045C225D205F018101860889048B028E049201950199029A029B049F01A902AB04AD02AF04B008B204B301B402B506B6011A
:40050000BB20BF04D804D904DC22DF01032204010508060607100A040B800D800E200F88120C1524174518011B2A1C601D201F0420042110222023102514261027012B0ABE
:400540002D082F4431803208332036203704380139203C013D203F885C425D045F1077408A1097089B049F10A510C0F5C2FAC4F0CAECCC6ECEF5D6F0E280EE0297089B0482
:400580009F10A510AD40E840EC080906150319052906350739204060410549FF4AFF4BFF4DA04F04501859045A045C205F01604062C06440654066C068C06AC06CC06EC0E8
:4005C0008E0292019A069B01A60CAD01B008B202B401B604B701BE04C020C105C5D1C720C823C9FFCAFFCBFFCDAFCE0FCF04D018D280D405D804D904DA04DB04DF01E040C9
:40060000E2C0E440E540E6C0E8C0EAC0ECC0EEC0020209020A04102019441A041B11224027042B012F04302037143D204204482049014A024E024F20520259055A807102A3
:40064000AB80AF80C001C20AC404CA28CC64CE20D004D238D60BEE02B902BF01D904DF012780E20102080407070F080109730A020D300E040FC9100411CF13301401159E68
:400680001602176019FD1B022607280729942B60340F37FF3F40405449FF4AFF4BFF4F0150185280580459045A045B045C025D115F016040624064406540668068806A80FE
:4006C0006C806E808201850B870489078F0F9201950C970299089B01AD0CAF01B001B50FBE01C054C5ECC602C807C9FFCAFFCBFFCD83CE03CF01D018D401D804D904DA04B1
:40070000DB04DC20DD11DF01E040E240E440E540E680E880EA80EC80EE8000020316068008080B400C021104131018081E8020022704280829202F02331635203704380863
:4007400039843B103E043F504280468048024C024D0956805D095E807002918092049350940899209B109F04A302AA01B510C01FC21CC406CA14CC67CE7ED081D218D6D097
:40078000EA05EE020001040105FE07010801097F0D960F68120115C5173A180126022701290E2BF02DA32F5C340335FF3F10580459045C025F01800882018596862087685E
:4007C00089C58A0F8B3A8C0C8E029010910E93F09407957F980B9A049B019C109DA39F5CA010A1FEA301A610A80CAA01AC10B00FB430B5FFBF10D804D904DC02DF0101206E
:400800000260030205200680071008410A040B100E080F4012891304170819101B021F10222027082A012D202E802F1230493110360C370439903A483B443E043F50420482
:4008400043108A088C089190931094089720984199209B109E899F04A280A408AC41B410C07FC25FC42FCA71CC4FCE76EA02EE08050C073009300B0C0D3C1001151E19282D
:400880001B141D141E031F282101260429022B012D0230023101333C34013502360439203E103F114023410649FF4AFF4BFF4DA04F015018540F580459045A045B045C22AD
:4008C0005D225F056040628064406540668068406A806C406D206E8084018501860A8C018E028F0296049C029D019E01A801AA02B008B302B404B603B701B980BA80C023AC
:40090000C106C53EC6C4C702C81FC9FFCAFFCBFFCDAFCE07CF01D018D804D904DA04DC22DD02DF01E040E280E440E540E680E840EA80EC40ED20EE80032208020A420B20EB
:400940000C800E8013101508188019401A021B621E881F8021802310260127182D202F893080354036103704388039083C243E4040204120442045204708488049044A0852
:400980004B024E085104521053485DA05E0A650466107D04860487108A018F0490049104960497809B049C029F10A010A124A218A580A744AD10AE02AF04B608C005C2953F
:4009C000C422CAB0CC78CE7AD066D224D6F0D860DE40E222E612EC40AA40AB10B584B704E840EA01EE02304032043402352038808040CCF0CE10E280044008800A100E88DE
:400A0000301036405302540157088210844088018D20930496089B049CC09D20A604AA04AB04AC02AF04B080C080C2F0CC30D4C0D620E080E610EAC0EC20EE403E105B0487
:400A40005F046304930496089B049C10A708B302B440CE20D6C0D8409618A708AC10EE40810863029720A508AF10D60297209820A508AF01B420E80208800B200D089720FF
:400A800098209C80A508AC80C20E9618A7081A089608AA10AF08C640EA80EE40001009400C1013221508510478207C10841085409820C002C203C40ED404DE03AB20AF02AE
:400AC000000708070A040C040E0510061A061C0400BF013A03C000000800F0070F000B00000000004000000000000000C0000000C40000DB1F00040000000000101A0A008D
:400B00001000000040000040000000000000000000000000000000000000000000000000000000000000000000000000000000000000000000000000000000000000000025
:400B40000000000000000000000000000000000000000000000000000000000000000000000000000000000000000000000000000000000000000000000000000000000075
:400B80000000000000000000000000000000000000000000000000000000000000000000000000000000000000000000000000000000000000000000000000000000000035
:400BC00000000000000000000000000000000000000000000000000000000000000000000000000000000000000000000000000000000000000000000000000000000000F5
:400C000000000000000000000000000000000000000000000000000000000000000000000000000000000000000000000000000000000000000000000000000000000000B4
:0200000490006A
:0400000000004005B7
:0200000490105A
:04000000BC90ACAF55
:0200000490303A
:0200000056CADE
:0200000490402A
:4000000000000000000000000000000000000000000000000000000000000000000000000000000000000000000000000000000000000000000000000000000000000000C0
:400040000000000000000000000000000000000000000000000000000000000000000000000000000000000000000000000000000000000000000000000000000000000080
:400080000000000000000000000000000000000000000000000000000000000000000000000000000000000000000000000000000000000000000000000000000000000040
:4000C0000000000000000000000000000000000000000000000000000000000000000000000000000000000000000000000000000000000000000000000000000000000000
:0200000490501A
:0C00000000012E16106900012E3067333D
:00000001FF