:4000000000800020110000007505000075050000034A08B51268034B1A6000F0B3FA00BFFA460040BC76004010B5054C237833B9044B13B10448AFF300800123237010BDDF
:400040004081FF1F0000000044190000084B10B51BB108490848AFF300800848036803B910BD074B002BFBD0BDE81040184700BF000000004481FF1F44190000C880FF1F58
:40008000000000002DE9F041022000F011F9254B254E18601C6800F013FC04EB4404241A204601F045FA2149804601F095FA316801F08AF9054670683560201A01F038FA22
:4000C0001A4901F03DFB002101F086FA18490746404601F081FA00218046284601F07CFA0146404601F070F90146384601F06CF901F0C2FB0546C00F746000F035FB40F652
:40010000980385EAE570A0EBE5709842A8BF1846BDE8F041B0F5967FACBF80B2002000F0D1BC00BF8881FF1F5C81FF1F0AD7A33C000040400000000000200546444C08B53E
:4001400000F0C0FC256062B600F09EFA00F094FB284600F0BDFB00F019FC00F069FC00F0DBFA00F07FF8322000F06AFA394800F06BFB00F005FB00F019FB06E0382000F0F4
:40018000C5FA41F2784000F04DFC052000F090F80028F3DA00F0AAF80028EFD1022000F087F803460320236000F082F804304FF0380028DB40F6FC0000F034FC012000F055
:4001C00077F8643001F0B4F9234901F0B9FA00F01FFE17A3D3E9002300F06EFE16A3D3E9002300F0B7FC16A3D3E9002300F08EFF15A3D3E9002300F05FFE01F06FF8C0B24E
:4002000000F084FAC1E700F081FA032000F050F801F08EF9114901F093FA114901F0DCF901F02AFB00F6FC0080B200F0FBFBACE762105839B4C8084077BE9F1A2FDDEC3FD3
:40024000FCA9F1D24D6210400000000000E06F408881FF1F85000000000048430000C8C20040834538B50024094B0A4D2146482209482C701C60094D01F05BFB084809498A
:40028000094B01222C6004600C601A6038BD00BF9481FF1F6481FF1F9C81FF1F8C81FF1FE481FF1F9881FF1F9081FF1F000000000138112801D90020704708B50A4B53F838
:4002C0002000AC3800F092FD05A3D3E9002300F01DFF01F023F800F00BFC643808BD00BFA4703D0AD76320409C81FF1F014B1868704700BF9081FF1F2DE9F04172B67C4EEB
:400300007C4A35461378002443F00403137004EB4403AA8856F813000134002101F009FB0A2C05F10605F2D180227349734801F0F5FA734E734F002556F8043F13F0FF0EC0
:4003400023F0FF0413D005F110530EF1FF3E03F139005FFA8EFE7044383340005B001A785978023383421155F9D101357544BE42E2D14BF67F3E644941F251270B78634A6E
:4003800043F002030B701378614843F0020313700278A1F5863142F04002027041390A785C4C42F010025C4B0A705C4A03CB5C4D2060616003CB5B4E106051602A7803CB7F
:4003C000DFF8A8813060716003CB42F00802DFF8A0C161232A7020636163534888F800300123ACF80030A6F5855618234F4AA5F527754F4C0321337001802B704D490F25EA
:40040000158023703B240C804B4C83720625A2F808E05220494A3374257081F8740111784748484AC9B24FF4E26586F81F1624F8DE5C078015784FF4F0701C4605F0010575
:40044000164600F045FB01E0032D0DD033784FF4F07003F0010343EA450500F039FB013C05F00305F0D1FEE740F20115364A374C4FF48073138036490023364E364807275C
:4004800017702370482702240F7013703370047091F89A3300F5F820033043F01F03C12701242E4A81F89A3386F8F7770470137801F5C351DBB2A0F5F42003F00706A0F201
:4004C00096700731264C1B09114A0670254F0B704FF0100E0FCA244E84F800E0A4F5B7543D80083C4425357007C42380BDE8F08148190000E8460040380600488014014003
:40050000FCFFFF476C0000480350014013500140A043004002510040B806004812510040224300402251004084400040884000408A4000408C400040004300400F010049D9
:4005400020420040254200400440004006400040084000400940004001400040CF010049985A0040465B004076580040004800408040004008B501F0A5F903680C2B00D016
:40058000FEE7FEE780B5134FF7B1134E002556F80C0C56F8084C56F8102C03463CB1043A52F8041F43F8041B191AA142F8D156F8040C1A4620B142F8045BD11A8842FAD158
:4005C000013F06F11006E2D101F082F9FFF7B4FDFEE700BF01000000BC1900000E4B0F4A0F491A600B680F4A43F400730E480B600023032B94BF50F823100C490133302BB0
:4006000042F8041FF5D10A4B0A4918780A4A0B4B08701A60FFF770BE0CED00E00004FA0514ED00E0FC7FFF1F0000000075050000BC760040C080FF1F0080FF1F08ED00E08C
:40064000B0F5004F70B506461AD904460D4DA4F50044686800F03CFAB4F5004FF7D8A6F50043013B23F4FF4323F07F03A6F50046F61AA86800FB06F0BDE8704000F028BAC3
:40068000004DF6E7CC80FF1F10B419490A78FAB9184B19481A7002701A78184C02F0F3021A701A78012042F004021A701A78C2F3810202F19242063292F83821D2B22270ED
:4006C0001A7802F0FD021A701A78D2B21A7008700B490C4A0B780C4843F008030B701378382143F008031370017010BC704700BF8181FF1F2C5800402D5800400B46004009
:40070000A8430040B8430040835B0040014B1870704700BF835B00400E4A137853B90E4B012111701A7802F0FC021A701A7842F003021A7009480A4903780A4A43F060037A
:4007400003700B7843F008030B70137843F00803137070478281FF1F5E58004077580040A4430040B4430040044AC000137800F0080003F0F7031843107070472051004082
:40078000074808490378084A43F0010303700B7843F001030B70137843F0010313707047A3430040B3430040004F0040F0B41E4A13783BBB1D481E4C01781E4B01F00101D5
:4007C000017021781C4E01F0FC01217019781B4F01F0CF0119701978132541F030011970197801F0F0011970197841F00F0119704378082143F0010343700123658035802A
:40080000397013700E480F490378084A43F0010303700B7843F001030B70137843F001031370F0BC704700BF8381FF1F004F0040024F00400B4F0040064F0040034F0040C8
:40084000A3430040B343004070B4074B074E1D6807494FF40033E024064A3360C5F884000C7070BC1360704708ED00E080E100E011E400E000E100E008B500F02FF84FF449
:40088000004000F073F80A4B1A780AB901221A70084A0F21084B11701B7800F021F9074A137843F010031370BDE8084000F01CB98481FF1F8564004065640040956400406E
:4008C00008B500F059F8A0F5004000B208BD00BFA0F5004080B200F049B800BFF8B51A4C23782BB1194A137843F080031370F8BD164B174A197801F0F8011970197801F08A
:40090000FC0119701378590604D512490B8813785B06FBD41048114F114E4FF40043114A00250B493B80338005700978138000F0D7F80D4A137843F01003137000F0D4F837
:4009400001232370CEE700BF8581FF1F77640040646400408C680040846400404C6800400C6800406C68004094640040014B1880704700BF0C680040024B034A12781888E3
:4009800080B270478C68004006640040F8B51D4C23782BB11C4A137843F080031370F8BD4EF66021184E19483278194D02F0C00242F0090232700278164F42F0010202704F
:4009C0002A7842F001022A70134AA6F89A134FF47A763980A0F8BA63137000F081F82B7843F010032B7000F07FF80C4A1378D90604D50B490B881378DB06FBD401232370F4
:400A0000C8E700BF8681FF1F7A6400409A6400409B640040946800408B6400406B640040B4680040014B1880704700BF54680040F8B51C4C23782BB11B4A137843F080032A
:400A40001370F8BD40F6C411174E18483278184D02F0C00242F0090232700278154F42F0010202702A7842F001022A70124A3980A6F81B14A0F8BC33137000F031F82B782E
:400A800043F010032B7000F02FF80C4A1378D90604D50B490B881378DB06FBD401232370CAE700BF8781FF1F7D6400409C6400409D640040186800408D6400406D64004092
:400AC000B8680040014B1880704700BF586800400230800803D000BF01380046FCD17047EFF3108072B6704780F31088704700BF10B5C0F3C7540028A4F17F02B4BF4FF098
:400B0000FF3101211E2A0CDC002A17DBC0F31603162A43F4000307DD963CA34001FB03F010BD00F0A9FE10BD4FF4800010410344C2F11702D34001FB03F010BD01320CBF24
:400B40000846002010BD00BF81F0004102E000BF83F0004330B54FEA41044FEA430594EA050F08BF90EA020F1FBF54EA000C55EA020C7FEA645C7FEA655C00F0E2804FEA57
:400B80005454D4EB5555B8BF6D420CDD2C4480EA020281EA030382EA000083EA010180EA020281EA0303362D88BF30BD11F0004F4FEA01314FF4801C4CEA113102D040420F
:400BC00061EB410113F0004F4FEA03334CEA133302D0524263EB430394EA050F00F0A780A4F10104D5F1200E0DDB02FA0EFC22FA05F2801841F1000103FA0EF2801843FA5B
:400C000005F359410EE0A5F120050EF1200E012A03FA0EFC28BF4CF0020C43FA05F3C01851EBE37101F0004507D54FF0000EDCF1000C7EEB00006EEB0101B1F5801F1BD31D
:400C4000B1F5001F0CD349085FEA30004FEA3C0C04F101044FEA445212F5800F80F09A80BCF1004F08BF5FEA500C50F1000041EB045141EA050130BD5FEA4C0C404141EB06
:400C8000010111F4801FA4F10104E9D191F0000F04BF01460020B1FA81F308BF2033A3F10B03B3F120020CDA0C3208DD02F1140CC2F10C0201FA0CF021FA02F10CE002F11E
:400CC0001402D8BFC2F1200C01FA02F120FA0CFCDCBF41EA0C019040E41AA2BF01EB0451294330BD6FEA04041F3C1CDA0C340EDC04F11404C4F1200220FA04F001FA02F3FE
:400D000040EA030021FA04F345EA030130BDC4F10C04C4F1200220FA02F001FA04F340EA0300294630BD21FA04F0294630BD94F0000F83F4801306BF81F480110134013DEB
:400D40004EE77FEA645C18BF7FEA655C29D094EA050F08BF90EA020F05D054EA000C04BF1946104630BD91EA030F1EBF0021002030BD5FEA545C05D14000494128BF41F06A
:400D8000004130BD14F580043CBF01F5801130BD01F0004545F0FE4141F470014FF0000030BD7FEA645C1ABF194610467FEA655C1CBF0B46024650EA013406BF52EA033590
:400DC00091EA030F41F4002130BD00BF90F0000F04BF0021704730B54FF4806404F132044FF000054FF0000150E700BF90F0000F04BF0021704730B54FF4806404F1320428
:400E000010F0004548BF40424FF000013EE700BF42004FEAE2014FEA31014FEA02701FBF12F07F4393F07F4F81F06051704792F0000F14BF93F07F4F704730B54FF4607418
:400E400001F0004521F0004120E700BF50EA010208BF704730B54FF000050AE050EA010208BF704730B511F0004502D5404261EB41014FF4806404F132045FEA915C3FF4CE
:400E8000DCAE4FF003025FEADC0C18BF03325FEADC0C18BF033202EBDC02C2F1200300FA03FC20FA02F001FA03FE40EA0E0021FA02F11444C1E600BF70B54FF0FF0C4CF495
:400EC000E06C1CEA11541DBF1CEA135594EA0C0F95EA0C0F00F0DEF82C4481EA030621EA4C5123EA4C5350EA013518BF52EA033541F4801143F4801338D0A0FB02CE4FF0C3
:400F00000005E1FB02E506F00042E0FB03E54FF00006E1FB03569CF0000F18BF4EF0010EA4F1FF04B6F5007F64F5407404D25FEA4E0E6D4146EB060642EAC62141EA55519C
:400F40004FEAC52040EA5E504FEACE2EB4F1FD0C88BFBCF5E06F1ED8BEF1004F08BF5FEA500E50F1000041EB045170BD06F0004646EA010140EA020081EA0301B4EB5C04F8
:400F8000C2BFD4EB0C0541EA045170BD41F480114FF0000E013C00F3AB8014F1360FDEBF002001F0004170BDC4F10004203C35DA0C341BDC04F11404C4F1200500FA05F32B
:400FC00020FA04F001FA05F240EA020001F0004221F0004110EBD37021FA04F642EB06015EEA430E08BF20EAD37070BDC4F10C04C4F1200500FA04F320FA05F001FA04F24F
:4010000040EA020001F0004110EBD37041F100015EEA430E08BF20EAD37070BDC4F1200500FA05F24EEA020E20FA04F301FA05F243EA020321FA04F001F0004121FA04F26D
:4010400020EA020000EBD3705EEA430E08BF20EAD37070BD94F0000F0FD101F00046400041EB010111F4801F08BF013CF7D041EA060195F0000F18BF704703F000465200F6
:4010800043EB030313F4801F08BF013DF7D043EA0603704794EA0C0F0CEA135518BF95EA0C0F0CD050EA410618BF52EA4306D1D181EA030101F000414FF0000070BD50EA93
:4010C000410606BF1046194652EA430619D094EA0C0F02D150EA013613D195EA0C0F05D152EA03361CBF104619460AD181EA030101F0004141F0FE4141F470014FF00000BA
:4011000070BD41F0FE4141F4780170BD70B54FF0FF0C4CF4E06C1CEA11541DBF1CEA135594EA0C0F95EA0C0F00F0A7F8A4EB050481EA030E52EA03354FEA013100F08880DA
:401140004FEA03334FF0805545EA131343EA12634FEA022245EA111545EA10654FEA00260EF000419D4208BF964244F1FD0404F5407402D25B084FEA3202B61A65EB0305D4
:401180005B084FEA32024FF480104FF4002CB6EB020E75EB030E22BFB61A754640EA0C005B084FEA3202B6EB020E75EB030E22BFB61A754640EA5C005B084FEA3202B6EB04
:4011C000020E75EB030E22BFB61A754640EA9C005B084FEA3202B6EB020E75EB030E22BFB61A754640EADC0055EA060E18D04FEA051545EA16754FEA06164FEAC30343EA0F
:4012000052734FEAC2025FEA1C1CC0D111F4801F0BD141EA00014FF000004FF0004CB6E711F4801F04BF01430020B4F1FD0C88BFBCF5E06F3FF6AFAEB5EB030C04BFB6EB62
:40124000020C5FEA500C50F1000041EB045170BD0EF0004E4EEA113114EB5C04C2BFD4EB0C0541EA045170BD41F480114FF0000E013C90E645EA060E8DE60CEA135594EA51
:401280000C0F08BF95EA0C0F3FF43BAF94EA0C0F0AD150EA01347FF434AF95EA0C0F7FF425AF104619462CE795EA0C0F06D152EA03353FF4FDAE1046194622E750EA4106B1
:4012C00018BF52EA43067FF4C5AE50EA41047FF40DAF52EA43057FF4EBAE12E74A0011D212F5001211D20DD56FF47873B3EB62520ED44FEAC12343F0004343EA505323FA68
:4013000002F070474FF00000704750EA013002D14FF0FF3070474FF0000070474FEA4102B2F1E04324BFB3F5001CDCF1FE5C0DD901F0004C4FEAC0024CEA5070B2F1004F9F
:4013400040EB830008BF20F00100704711F0804F21D113F13872BCBF01F00040704741F480114FEA5252C2F11802C2F1200C10FA0CF320FA02F018BF40F001004FEAC123D4
:401380004FEAD32303FA0CFC40EA0C0023FA02F34FEA4303CCE77FEA625307D150EA01331EBF4FF0FE4040F44000704701F0004040F0FE4040F40000704700BF80F000409D
:4013C00002E000BF81F0004142001FBF5FEA410392EA030F7FEA226C7FEA236C6AD04FEA1262D2EB1363C1BFD218414048404140B8BF5B42192B88BF704710F0004F40F489
:40140000000020F07F4018BF404211F0004F41F4000121F07F4118BF494292EA030F3FD0A2F1010241FA03FC10EB0C00C3F1200301FA03F100F0004302D5494260EB400071
:40144000B0F5000F13D3B0F1807F06D340084FEA310102F10102FE2A51D2B1F1004F40EBC25008BF20F0010040EA03007047490040EB000010F4000FA2F10102EDD1B0FAF6
:4014800080FCACF1080CB2EB0C0200FA0CF0AABF00EBC25052421843BCBFD0401843704792F0000F81F4000106BF80F400000132013BB5E74FEA41037FEA226C18BF7FEA6D
:4014C000236C21D092EA030F04D092F0000F08BF0846704790EA010F1CBF0020704712F07F4F04D1400028BF40F00040704712F100723CBF00F50000704700F0004343F0FC
:40150000FE4040F4000070477FEA226216BF08467FEA23630146420206BF5FEA412390EA010F40F4800070474FF0000304E000BF10F0004348BF40425FEA000C08BF70470D
:4015400043F0964301464FF000001CE050EA010208BF70474FF000030AE000BF50EA010208BF704711F0004302D5404261EB41015FEA010C02BF84460146002043F0B643DD
:4015800008BFA3F18053A3F50003BCFA8CF2083AA3EBC25310DB01FA02FC634400FA02FCC2F12002BCF1004F20FA02F243EB020008BF20F00100704702F1200201FA02FC1A
:4015C000C2F1200250EA4C0021FA02F243EB020008BF20EADC7070474FF0FF0C1CEAD0521EBF1CEAD15392EA0C0F93EA0C0F6FD01A4480EA010C400218BF5FEA41211ED00F
:401600004FF0006343EA501043EA5111A0FB01310CF00040B1F5000F3EBF490041EAD3715B0040EA010062F17F02FD2A1DD8B3F1004F40EBC25008BF20F00100704790F0C4
:40164000000F0CF0004C08BF49024CEA502040EA51207F3AC2BFD2F1FF0340EAC250704740F400004FF00003013A5DDC12F1190FDCBF00F000407047C2F10002410021FA26
:4016800002F1C2F1200200FA02FC5FEA310040F1000053EA4C0308BF20EADC70704792F0000F00F0004C02BF400010F4000F013AF9D040EA0C0093F0000F01F0004C02BFB4
:4016C000490011F4000F013BF9D041EA0C018FE70CEAD15392EA0C0F18BF93EA0C0F0AD030F0004C18BF31F0004CD8D180EA010000F00040704790F0000F17BF90F0004F01
:40170000084691F0000F91F0004F14D092EA0C0F01D142020FD193EA0C0F03D14B0218BF084608D180EA010000F0004040F0FE4040F40000704740F0FE4040F44000704746
:401740004FF0FF0C1CEAD0521EBF1CEAD15392EA0C0F93EA0C0F69D0A2EB030280EA010C49024FEA402037D04FF0805343EA111143EA10130CF000408B4238BF5B0042F155
:401780007D024FF4000C8B4224BF5B1A40EA0C00B3EB510F24BFA3EB510340EA5C00B3EB910F24BFA3EB910340EA9C00B3EBD10F24BFA3EBD10340EADC001B0118BF5FEAA9
:4017C0001C1CE0D1FD2A3FF650AF8B4240EBC25008BF20F0010070470CF0004C4CEA50207F32C2BFD2F1FF0340EAC250704740F400004FF00003013A37E792F0000F00F0E4
:40180000004C02BF400010F4000F013AF9D040EA0C0093F0000F01F0004C02BF490011F4000F013BF9D041EA0C0195E70CEAD15392EA0C0F08D142027FF47DAF93EA0C0F63
:401840007FF470AF084676E793EA0C0F04D14B023FF44CAF08466EE730F0004C18BF31F0004CCAD130F000427FF45CAF31F000437FF43CAF5FE700BF4FEA4002B2F1FE4F43
:401880000FD34FF09E03B3EB12620DD94FEA002343F0004310F0004F23FA02F018BF404270474FF00000704712F1610F01D1420205D110F0004008BF6FF0004070474FF03D
:4018C00000007047014B1868704700BF3C81FF1F0E4B70B51E460E4C0025E41AA410A54204D056F8253098470135F8E700F04CF8084B094C1E46E41AA4100025A54204D0DD
:4019000056F8253098470135F8E770BD9419000094190000941900009C19000010B5431E0A44914204D011F8014B03F8014FF8E710BD03460244934202D003F8011BFAE792
:401940007047000000000000004F00400C00405100403000C05100401000F0510040100000000140001000140140800000150140000700400140000A004C01400002005035
:401980000140200043000000F8B500BFF8BC08BC9E4670474D000000DD050000F8B500BFF8BC08BC9E46704729000000C0190000C880FF1F78000000A800000000000000CE
:4019C00000000000300000000000C05D80BB0000006CDC02000000000000000000000000000000000000000000000000000000000000000084190000000000000000000078
:401A000000000000000000000000000000000000000000000000000000000000000000000000000000000000000000000000000000000000DC80FF1F00000000000000002C
:401A40000000000000000000000000000000000000000000000000000000000000000000000000000000000000000000000000000000000000000000000000000000000066
:401A80000000000000000000000000000000000000000000000000000000000000000000000000000000000000000000000000000000000000000000000000000000000026
:401AC00000000000000000000000000000000000000000000000000000000000000000000000000000000000000000000000000000000000000000000000000000000000E6
:401B000000000000000000000000000000000000000000000000000000000000000000000000000000000000000000000000000000000000000000000000000000000000A5
:020000040003F7
:0200000480007A
:40000000024F00400252004004640040026500404404014039050140650601403E070140430A0140230B0140440C0140200D0140121401403F1501404816014030170140F3
:40004000011B014002400140044101400942014001430140044501400446014003480140024C0140024D0140065001400151014001400A4B10051104846F850F8B0D8D0DA6
:400080008572863C000103080E0219081C021D041F022108220424042A092D042F013002310432013308340435023608370139023E153F04540F580459045B045F058110E4
:4000C00083208523871C888089108A1F8B608D108FA09077910F94CC950C9621970398CC990A9A129B05A0BBA244A505A70AA808AAF1AD07B140B2F0B330B40FB580B70FF6
:40010000BB08D40FD804D904DB04DF01038204200B010E681088122015201702180219011A041BC81C241D081E281F2021012221232124202515268027022B422C202E4022
:40014000308032103614370239023DAA59015A045B505C085F62610462107B01835A8408870191109310AD10AF10C049C271C45ECA59CCECCEF1D6FFD806DE08EA0204CF0C
:40018000063008940A600B010CFD0E02149E166018301AC91C73260F36FF37013E404056410349FF4AFF4BFF4DA04F015018580459045A045F01604062806440654066805A
:4001C00068406A806C406D206E80800A8140840C85108701881089058B088C0792109340940C950597089B5C9D1DA001A11CA501A710AA30AB02AC01AF20B00EB140B220C4
:40020000B303B401B53CB610B822BE50BF01C052C106C50EC6C3C724C83DC9FFCAFFCBFFCDAFCE07CF01D018D280D804D904DA04DB04DF01E040E280E440E540E680E8406A
:40024000EA80EC40ED20EE8000440280030804240702090A0C200E200F06108212081708184019811A441B591D40200822182348254029512B203108329138223B043F1022
:4002800042044708480449844FA0508A52105302710290269110920293109520966097409B029D049E10A010A10CA290A320A4A8A540A703C0EFC2ECC42BCA0FCC0FCE277F
:4002C000D044D23C0A0226022E01300232014030410249FF4AFF4BFF4DA04F045018528058045A045B045C025D225F01604062C06440654066C068C06AC06CC06EC08B014D
:400300009A01A702AB01AC01B001B102B501BF10C020C103C5D1C620C80BC9FFCAFFCBFFCDAFCE0FCF04D018D405D804D904DA04DB04DC22DD22DF01E040E2C0E440E5409E
:40034000E6C0E8C0EAC0ECC0EEC000100C2010221780181019011B081E8027882C242F083E2040104120440446204C204D01552056205D015E805F0870028D01AB04AF206A
:40038000C002C240C485CA60CE20D066D6D0EC042701370139083F044060410249FF4AFF4BFF4DA04F04501859045A045C105D015F01604062C06440654066C068C06AC09A
:4003C0006CC06EC08602870292019B019D01A602A702B202B302B401B701BF04C020C106C5D1C702C813C9FFCAFFCBFFCDAFCE0FCF04D018D280D405D804D904DA04DB04EA
:40040000DC11DD11DF01E040E2C0E440E540E6C0E8C0EAC0ECC0EEC000040902102018041B142244258027202B102C20302031803A0440044604482849014F20500852049D
:4004400059015A887102C004C208C404CA42CC0CCE02D024D224D60B010503020D020F011501170A1E01220131043303340135083B083E10580459045C305F010514060122
:40048000075009400E220F14108014021501172419201C081D141E42204022082304241125082622274032083628370138403B013C013E14450947104C804D404E024F10E2
:4004C00057205E406E146F0176017724830189018A088C12941095409D24A141A210A404A601A720AE81AF28C0F0C2E1C4F8CCE2CEE9D0E0D230D610E2010004020A0304B5
:40050000042F050206100709080B09010A1410061221130B143F150B190B1C191E26270428162A292E3F2F03300731023304342035013618370839803A8A3F04541C56040C
:40054000580459045B045C335D305F0180FE81018201830284A38502865C870188C58A3A8B108C7F9501970A98969A689D019F06A40EA6F0AA01B104B310B4FFB503B708D1
:40058000BB20BE10D804D904DF0100640280041105040B040EA2110812081540160819101C011EA8211122442304254127282D402F2032443504361139123B043C183D0241
:4005C0003E085E0965226680850290449110952097049D10A010A104A288C07FC2B2C4C6CA50CCEACEE7D6C0D8B0E2013380CC100B080E01A780C2C05B019B01A780AE017E
:40060000AF05D640E810EA40EC10A78056205C40D402D6048E209E20A840E4028780A780E6100B01C2028301930100070A010C040E0210091A09000300087132F9F906008F
:400640008EF951000400000000010000FF50008C00A0804C8F0030008000000002000000060000000100000008010706E0C016380000A800000001042506040003E0C0008B
:400680000AFFFFFF62A0F0410C0000000000021004040404333300010000000000004002001030100010101200000000000000000000000000000000C000000000000000E7
:4006C000400B0B0000000000040D09000500000000000000000080000000000000000000000000000000000000000000000000000000000000000000000000000000000005
:4007000000000000000000000000000000000000000000000000000000000000000000000000000000000000000000000000000000000000000000000000000000000000B9
:400740000000000000000000000000000000000000000000000000000000000000000000000000000000000000000000000000000000000000000000000000000000000079
:400780000000000000000000000000000000000000000000000000000000000000000000000000000000000000000000000000000000000000000000000000000000000039
:4007C00000000000000000000000000000000000000000000000000000000000000000000000000000000000000000000000000000000000000000000000000000000000F9
:0200000490006A
:0400000000004005B7
:0200000490105A
:04000000BC90ACAF55
:0200000490303A
:0200000006A256
:0200000490402A
:4000000000000000000000000000000000000000000000000000000000000000000000000000000000000000000000000000000000000000000000000000000000000000C0
:400040000000000000000000000000000000000000000000000000000000000000000000000000000000000000000000000000000000000000000000000000000000000080
:400080000000000000000000000000000000000000000000000000000000000000000000000000000000000000000000000000000000000000000000000000000000000040
:4000C0000000000000000000000000000000000000000000000000000000000000000000000000000000000000000000000000000000000000000000000000000000000000
:0200000490501A
:0C00000000012E16106900012E22170BC3
:00000001FF