:4000000000800020110000009D0900009D09000008B5044B1A6803F53F5302331A6000F0C5FC00BFFA46004010B5054C237833B9044B13B10448AFF300800123237010BD6A
:400040004881FF1F00000000EC3D0000084B10B51BB108490848AFF300800848036803B910BD074B002BFBD0BDE81040184700BF000000004C81FF1FEC3D0000C880FF1FB0
:400080000000000008B501F06DFAC043014B188008BD00BFCC80FF1F08B501F063FAC043034B58804FF6FF7001F056FA08BD00BFCC80FF1F00000000F8B51B4C236801336C
:4000C000236000F00DFF0546606885421CD0401B02F0DAFF12A3D3E9002303F03BF806460F46206803F002FC02F0E0FF02460B463046394603F058F903F0EEFA0B4B186075
:40010000656000232360F8BD074B1B68B3F57A6F05DD0022054B1A600022034B1A60F8BD9A999999993943406481FF1FA481FF1F2DE9F04100F0B0FF454B1868454B1968C5
:4001400003F01EFB444903F025FC0546424903F021FC424CA16803F015FB0646A060E168284603F00DFB3C4903F0C8FC07463C49284603F00FFC80463A49304603F00AFC22
:400180000146404603F0FEFA06463349384603F001FC0146304603F0F5FAE560216903F0F1FA0446304903F093FD30B94FF07E51204603F0ABFD10B903E02B4C01E04FF084
:4001C0007E54264B1C614FF001050021204603F07FFD08B94FF0000505F0010000F040FC1E4B1D6925F0004002F060FF16A3D3E9002302F0AFFF03F047FA0446132800DC7B
:4002000000240021284603F081FD48B100F068FE10F1B40F04DA0022104B9A6000240DE000210E4B186903F053FD38B100F058FEB42803DD0022094B9A600024A0B200F022
:40024000D7FDBDE8F08100BF000000000030A140A081FF1FA481FF1F6F12033B6481FF1FCDCC4C3F0AD7A33C000080BF2DE9F04100F0D8FC264B1C6800F08EFF241A20463C
:4002800003F034FB8046234903F084FB224D696903F078FA06466861A869201A03F026FB1C4903F02BFC07461C49404603F072FB80464FF08141304603F06CFB01464046E3
:4002C00003F060FA06464FF07C51384603F062FB0146304603F056FA03F022FDAC6104460028D4BF0020012001F046F884EAE470A0EBE47040F698039842A8BF1846B0F541
:40030000827F00DA002080B201F056F8BDE8F0819C81FF1F0AD7233C6481FF1F0000204110B500F0FBFB194B1B7F2BB9FF2803D10122164B1A7710BD5A1E14490A4482F855
:4003400020000133DBB20B77042B1ED900230B7791F820301B021BB291F8210091F82220120212B291F823401443184303F0BEFA074903F0C3FB074B1860204603F0B6FA22
:40038000034903F0BBFB044B186010BD6481FF1F00007A44B081FF1FAC81FF1F70B5144B1968002003F0ECF90646124903F0F2FA114D696A03F0E6F9044668620F4B1D68E0
:4003C0000F49304603F0E6FA06460021204603F0E1FA0146304603F0D5F904460949284603F0D8FA0146204603F0CCF970BD00BFB081FF1F0AD7233C6481FF1FAC81FF1F40
:400400000000A041CDCC0C4008B500F069FD03F06DFA00F1004002F049FE05A3D3E9002302F098FE03F058F908BD00BFAFF30080F981AB3C81B0733F38B562B600F02EFDC2
:40044000642000F0CFFC002000F03EFD0022584B1A60584801F052F8574801F027F801F0FDF801F00DF94FF47A7000F065FC012001F0B4F8082000F0D5F801F0A1F800F0B1
:4004800065FD002000F034FD00244C4B1C6000F0B9FE204600F088FE00F0E0FF484800F06DFE484800F05AFF474800F093FB474800F024FC00F034FE00F0F8FB00F020FB90
:4004C000002000F001FD27E0FFF79EFF002103F01DFC48B9FFF798FF002103F0F9FB38B12FA5D5E9004506E02FA5D5E9004502E000244FF00045FFF787FF02F0D7FD01F057
:4005000037FB024621F000432046294602F04CFF03F0E2F8264B186000F0CEFC0028D3D14FF4FA7000F008FC6E2415E0204600F059FC012000F0C8FC4FF4FA7000F0FCFB63
:40054000002000F0C1FC4FF4FA7000F0F5FB00F0B3FC18B90134A4B2842CE7D942F2107000F0EAFB012000F0AFFC06E0FFF716FF0F4B18600A2000F0DFFB00F09DFC002809
:40058000F4D000220A4B1A60642000F02BFC002000F09AFC4FF47A7000F0CEFB90E700BF9A9999999999C93F9A9999999999C9BFA081FF1F99000000850000009C81FF1FD3
:4005C000310100006D02000021030000B900000038B505460C460021282001F0CDF940B9284601F05BFA002000F0F8FF204601F055FA01F037FA38BD10B5044600212820EA
:4006000001F0BAF9204601F049FA0121282001F0F3F9002001F06EFA044601F023FA204610BD00BF10B5044640F6B83000F084FB0020FFF7E1FFA02808D04FF47A7000F023
:400640007BFB0020FFF7D8FFA0283BD100213D20FFF7BEFF4FF4167000F06EFB20213F20FFF7B6FF4FF47A7000F066FB02E0642000F062FB0020FFF7BFFFA028F7D14FF4CD
:40068000167000F059FB00213E20FFF7A1FF642000F052FB00210720FFF79AFF642000F04BFB00213F20FFF793FFC82000F044FB21463D20FFF78CFF4FF4167000F03CFBB5
:4006C000012010BD002010BDFEE700BFF0B40022174611E050F82760F3B226F0FF0608E001EB420511F812406D78A5550132013BDBB2002BF4D10137252FEBD9F0BC7047E4
:400700000A4B1B78DBB203F00701094A11701B09013213700822074B1A70202203F6C3031A704422A3F21A231A707047CF0100496E580040CD51004008B50A46002103F0F3
:400740004CFB08BD38B50024364B1C80192502331D700B2202331A801823334A137033210232118002321370EF21023211800232137040F2E731023211800232137040F6B0
:400780005F11023211800232137040F6B733023213800232157002321380244B1D70022203F262231A7008224FF040231A70032103F5007319701E4B1B78DBB21D490B70EA
:4007C0001D4B1A8041F25122023B1A800CE01B4B1B7803F0010343EA440404F003044FF4F07001F0B5F9013D0DB1032CEFD115B90320FFF769FF124B4FF480721A8007225D
:400800001A7000220F490A704820023108701A700222033B1A7003F2A1331A78FF221A7038BD00BF80400040864000409E40004008010049A146004022420040254200400F
:40084000044000400640004008B503F0BBFA08BD38B572B6394A137843F00403137000240CE0374D630019194A0011462A44084691882858FFF760FF0134E4B2072CF0D929
:4008800030494FF09040FFF721FF2F4B2F4A136002F50062136002F58E422B32137843F0020313701032137843F002031370284C237843F040032370A2F58632513A1378F9
:4008C00043F0100313700A2222492348FFF7BCFF0A2222492248FFF7B7FF052221492248FFF7B2FF082221492148FFF7ADFF0A2220492148FFF7A8FF082220492048FFF702
:40090000A3FF08221F492048FFF79EFF1F4A137843F0080313701E4D61232B70FFF712FF81232B7001221B4B1A70FFF7E9FE0E2221461948FFF788FF38BD00BFE84600407C
:40094000F03D00009800004804040484D8000140A0430040B00E004800510040BC0E0048C0510040C80E0048CB510040D00E0048F2510040D80E004810510040E40E004878
:4009800022510040EC0E004832510040224300400048004004000840B043004008B503F0E5F903680C2B00D1FEE7FEE708B5104E104D16E029686B68AC68002204E051F8D3
:4009C000040B43F8040B0432A242F8D1E868002203E0002143F8041B04328242F9D11035013E002EE6D103F0C7F9FFF725FDFEE7010000002040000008B5104A104B1A60C1
:400A0000104A136843F40073136000230AE0032B03D80D4A52F8231000E00C490C4A42F8231001332F2BF2D90A4B1A780A4B1A70074A0A4B1A60FFF70BFF08BD0004FA05DB
:400A40000CED00E014ED00E0000000009D0900000080FF1FBC760040C080FF1F08ED00E0044A137803F0FB03800000F004001843107070470051004008B572220B4B1A7041
:400A8000202203F582731A700949042000F06AF90721042000F07AF90622064B1A70472210331A7002225A331A7008BD87640040490B00002264004010B501F051F804463E
:400AC0000D4A137843F02003137002F58272137843F010031370FF3A137843F0100313701023064A1360A2F5C072136000F014F9204601F039F810BD9764004080E200E06E
:400B000008B5054B1B7823B9FFF7B6FF0122024B1A70FFF7D1FF08BD8C81FF1F084B1B78DBB213F0200F06D0064A1078C0B213F01E0F02D17047002070470020704700BFF2
:400B40006B6500404765004013E0104B1B78DBB2072B02D900220D4B1A700C4A1378DBB20B49CB5CDBB20B490B7013780133DBB21370064B1B78DBB2074A1278934204D0F1
:400B8000064B1B7813F0040FDFD070478D81FF1FB481FF1F476400408E81FF1F6C640040014B1B689864704708ED00E04001C0B2014B1870704700BF02E400E00422014BA2
:400BC0001A60704700E100E00422014B1A60704780E100E010B50446FFF7F6FF2046FFF7DFFF0720FFF7E2FFFFF7E8FF10BD00BF084A137843F0040313701032137843F0EA
:400C00000403137002F66532137843F001031370704700BFA3430040014B1870704700BF1B4F0040014B1878704700BF1B4F0040014B1880704700BF1C4F0040014B1880E1
:400C4000704700BF1E4F004008B5154A137803F0010313700232137803F0FC031370114B1A7802F0CF021A701A7842F030021A701A7802F0F0021A701A7842F00F021A70E2
:400C8000094A137843F0010313700920FFF7D0FF0920FFF7D3FF0820FFF7BEFF08BD00BF184F0040234F0040194F004008B5054B1B7823B9FFF7C8FF0122024B1A70FFF734
:400CC00097FF08BD9081FF1F014B1B68D864704708ED00E04001C0B2014B1870704700BF03E400E00822014B1A60704700E100E00822014B1A60704780E100E010B50446B0
:400D0000FFF7F6FF2046FFF7DFFF0720FFF7E2FFFFF7E8FF10BD00BF054A137843F0040313701032137843F004031370704700BFA243004001BE704710B5044605E0084BAE
:400D4000186800F005FFA4F50044B4F5004FF6D8034B586800FB04F000F0FAFE10BD00BFD080FF1F70B504460E46074B1D681F2802D90020FFF7DEFF04F01F04103455F826
:400D8000240045F8246070BD08ED00E038B504460D46072902D90020FFF7CCFF1F2C02D90020FFF7C7FF04F01F0000F1604000F564406D01EDB2057038BD00BF024A13788A
:400DC00043F080031370704777650040014B1880704700BF0A680040014B1880704700BF8A680040014B1880704700BF4A680040014B1880704700BF6A680040014B1870C3
:400E0000704700BF82640040014B1878704700BF62640040014B188880B27047AA68004008B501E0FFF7F6FFFFF7EEFF10F0100FF8D108BD08B5174A137803F0C00343F0EC
:400E400009031370E23A137843F0010313700132137843F0010313704FF4E160FFF7B6FF4FF4E160FFF7B8FF6420FFF7BBFF0020FFF7BEFF0020FFF7C1FF00F071FE064A1E
:400E8000137843F01003137000F06EFEFFF7C8FF08BD00BF776500409264004008B5054B1B7823B9FFF7C6FF0122024B1A70FFF785FF08BD9181FF1F024B1878C0F30010AF
:400EC000704700BF01510040044A137803F0FD03400000F002001843107070472051004008B500F05FF8A0F5004000B208BD00BF08B5002803DB80B280F4004002E0A0F57A
:400F0000004080B200F048F808BD00BF024B187800F00F00704700BF68650040014B1870704700BF8865004008B50F20FFF7F6FFFFF7ECFF00F014FE034A137843F01003DD
:400F4000137000F011FE08BD9865004008B500F07BF84FF4004000F01FF8044B1B7813B90122024B1A70FFF7DFFF08BD9281FF1F024A137843F080031370704776650040EF
:400F8000014B1870704700BF89640040014B1878704700BF69640040014B1880704700BF10680040024B1B78024B188880B270470864004090680040014B188880B27047DA
:400FC00090680040014B1880704700BF50680040014B1880704700BF7068004008B501E0FFF7EAFFFFF7D2FF10F0400FF8D108BD08B5134B1A7802F0F8021A701A7802F02D
:40100000FC021A70FFF7EAFF4FF40040FFF7DAFF4FF40040FFF7C0FF0020FFF7B1FFFFF7B5FF4FF40040FFF7D3FF00F099FD054A137843F01003137000F096FD08BD00BFD4
:40104000766500409964004008B5054B1B7823B9FFF7CEFF0122024B1A70FFF789FF08BD9381FF1F084A137843F0010313701032137843F00103137002F64D32137843F017
:4010800001031370704700BFA3430040014B1870704700BF034F0040014B1878704700BF034F0040014B1880704700BF044F0040014B1880704700BF064F004008B5154A55
:4010C000137803F0010313700232137803F0FC031370114B1A7802F0CF021A701A7842F030021A701A7802F0F0021A701A7842F00F021A70094A137843F0010313700920DC
:40110000FFF7D0FF0920FFF7D3FF0820FFF7BEFF08BD00BF004F00400B4F0040014F004008B5054B1B7823B9FFF7C8FF0122024B1A70FFF797FF08BD9481FF1F024B1B685A
:40114000C3F88400704700BF08ED00E04001C0B2014B1870704700BF11E400E04FF40032014B1A60704700BF00E100E04FF40032014B1A60704700BF80E100E010B50446A0
:40118000FFF7F4FF2046FFF7D9FF0720FFF7DEFFFFF7E4FF10BD00BF08B500F05FF8A0F5004000B208BD00BF08B5002803DB80B280F4004002E0A0F5004080B200F048F8E2
:4011C00008BD00BF024B187800F00F00704700BF66640040014B1870704700BF8664004008B50F20FFF7F6FFFFF7ECFF00F0B8FC034A137843F01003137000F0B5FC08BD38
:401200009664004008B500F07BF84FF4004000F01FF8044B1B7813B90122024B1A70FFF7DFFF08BD9581FF1F024A137843F080031370704774640040014B1870704700BF2C
:4012400081640040014B1878704700BF61640040014B1880704700BF00680040024B1B78024B188880B270470064004080680040014B188880B2704780680040014B18808D
:40128000704700BF40680040014B1880704700BF6068004008B501E0FFF7EAFFFFF7D2FF10F0400FF8D108BD08B5134B1A7802F0F8021A701A7802F0FC021A70FFF7EAFF3F
:4012C0004FF40040FFF7DAFF4FF40040FFF7C0FF0020FFF7B1FFFFF7B5FF4FF40040FFF7D3FF00F03DFC054A137843F01003137000F03AFC08BD00BF7464004091640040E6
:4013000008B5054B1B7823B9FFF7CEFF0122024B1A70FFF789FF08BD9681FF1F024B1B68C3F88C00704700BF08ED00E04001C0B2014B1870704700BF13E400E04FF4002261
:40134000014B1A60704700BF00E100E04FF40022014B1A60704700BF80E100E010B50446FFF7F4FF2046FFF7D9FF0720FFF7DEFFFFF7E4FF10BD00BF044A137803F0F7033D
:40138000C00000F0080018431070704720510040024A137843F080031370704778640040014B1880704700BF18680040014B1880704700BF98680040014B1880704700BF41
:4013C00058680040014B1870704700BF89650040014B1878704700BF69650040014B188880B27047B868004008B501E0FFF7F6FFFFF7EEFF10F0100FF8D108BD08B5154AAB
:40140000137803F0C00343F0090313702432137843F0010313700132137843F00103137040F6C410FFF7BCFF40F6C410FFF7BEFF0020FFF7C1FF0020FFF7C4FF00F090FBF4
:40144000054A137843F01003137000F08DFBFFF7CBFF08BD786400409965004008B5054B1B7823B9FFF7CAFF0122024B1A70FFF78FFF08BD9781FF1F014B1B68586470477C
:4014800008ED00E04001C0B2014B1870704700BF01E400E00222014B1A60704700E100E00222014B1A60704780E100E010B50446FFF7F6FF2046FFF7DFFF0720FFF7E2FF1F
:4014C000FFF7E8FF10BD00BF014B1B681864704708ED00E04001C0B2014B1870704700BF00E400E00122014B1A60704700E100E00122014B1A60704780E100E010B504469A
:40150000FFF7F6FF2046FFF7DFFF0720FFF7E2FFFFF7E8FF10BD00BF024A137843F08003137070477A650040014B1870704700BF8A650040014B1878704700BF6A6500405F
:40154000014B1880704700BF546A0040014B188880B27047946A0040014B1880704700BF146A0040024B1B78024B188880B270470A650040946A004008B501E0FFF7E6FFCC
:40158000FFF7D8FF10F0080FF8D108BD08B54FF6FF70FFF7D5FF4FF6FF70FFF7DDFF00F0DFFA064A137843F01003137000F0DCFAFFF7E2FF0020FFF7B7FF08BD9A6500401E
:4015C00008B5054B1B7823B9FFF7E0FF0122024B1A70FFF7A1FF08BD9881FF1F044A137803F0FE0300F0010018431070704700BF0051004038B50222114B1A7081220E3B8B
:401600001A70082202331A700F2511331D70002401331C704FF400420A4B1A6007212846FFF7B4FB08492846FFF79CFB1022074B1A70074B1C70074B1C70074B1C7038BDD6
:40164000D649004080E100E0A9160000BC81FF1FC281FF1FCA81FF1FC081FF1F08B500F07FFA064A137843F0040313701032137843F00403137000F077FA08BDA5430040F1
:4016800008B5074B1B7823B9FFF7B4FF0122044B1A70FFF7E3FF4FF40042024B1A6008BD9981FF1F00E100E038B5A54B1C78A54B1B7813F0400F00F03A81E4B214F0010F8A
:4016C00000F01D819F4B1B78453B052B00F21481DFE813F006008200120112010600DF0004F0DF0504F00A04082C42D1954B1B78DBB2452B35D1944B1B7813F0FF0F10D051
:40170000924B1B681B78DBB2914A137004228C4B1A7001228F4B1A7046228A4B1A702C46EDE08D4B1B7813F0020F0DD08B4A137843F00A0313706022824B1A704FF40042DA
:40174000874B1A602C46DAE0864A137843F0100313701022844B1A700422023B1A702C46CDE00022764B1A704A22764B1A702C46C5E00A2C2BD1794A137843F0A003137022
:40178000754B1B7813F0020F14D06E4B1B7813F0080F01D0092300E00A23704A11780B4313706022674B1A704FF400426C4B1A602C46A4E06B4A137843F0100313701022B5
:4017C000694B1A700422023B1A702C4697E00020FFF7B0FA2C4692E014F0020F36D15D4B1A78D2B2584B1B78DBB29A4210D2594A1378DBB255490968CB5CDBB254490B7040
:4018000004214F4B197013780133DBB2137076E0514B1B7813F0020F0CD0504A137843F00A0313706022474B1A704FF400424C4B1A6064E04B4A137843F0100313701022A1
:40184000494B1A700422023B1A7058E0424B1B7813F0020F0CD0414A137843F09A0313706022384B1A704FF400423D4B1A6046E03C4A137843F01003137010223A4B1A7055
:401880000422023B1A70354A137843F09003137035E0364A1378DBB2354908682C490978C9B2C15413780133DBB213701278D2B2304B1B78DBB29A4203D21022204B1A7077
:4018C0001DE0254B1B7813F0020F0CD0234A137843F00903137060221A4B1A704FF400421F4B1A600BE01F4A137843F0100313700022134B1A7002E00020FFF71BFA14F0A1
:40190000200F1CD00F4B1B7813F0080F01D0012300E00223114A11780B431370114A137803F0EF0313701022064B1A7038BD054B1B7813F0100F02D11022024B1A7038BDB0
:40194000D7490040BC81FF1FC181FF1FCC81FF1FD8490040C081FF1FC881FF1FC281FF1F80E100E0D6490040D9490040CA81FF1FC481FF1FC981FF1F1A4B1B78DBB2102B63
:4019800029D1194B1B7813F0080F26D14FF40042164B1A604000C0B229B140F001004922104B1A7002E045220E4B1A70104B1870012201331A700F4B1B7813F0010FFAD0FE
:4019C0000C4B1B7803F00A030A2B08D11022054B1A700320704702207047012070470020704700BFBC81FF1FD949004080E100E0D8490040D7490040164B1B7813F0040FF9
:401A000023D04000C0B229B140F001004922124B1A7002E04522104B1A70104B1870122201331A700422023B1A700D4B1B7813F0010FFAD00A4B1B7803F00A030A2B06D1F8
:401A40001022054B1A7003207047022070470020704700BFD9490040BC81FF1FD8490040D74900400A4B1B7813F0040F0ED01023074A13700421023A1170064A1370064BAA
:401A80001B7813F0210FFAD00020704702207047D9490040BC81FF1FD7490040114B1B7813F0040F1BD0104B18700422013B1A7046220E4B1A700E4B1B7813F0010FFAD0F6
:401AC0000B4B1B7813F0020F04D16022074B1A70002070476022054B1A70032070470220704700BFD9490040D8490040BC81FF1FD7490040114B1B7813F0040F1BD0104B48
:401B00001B78DBB2492B05D100220E4B1A704A220B4B1A700B4B1B7813F0010FFAD00A4B1B78DBB218B11021064A117004E06021034A117000E0002318467047D949004037
:401B4000BC81FF1FD7490040D8490040000000000230800803D000BF01380046FCD17047EFF3108072B6704780F31088704700BF30B5214A21F00043934287B01BDD1F4A17
:401B8000934205DD02460B4601F030F907B030BD02AA00F035F800F0030001281AD002280FD008B3DDE9020101230093DDE9042300F05AFFEAE70022002300F039FA07B0DE
:401BC00030BDDDE90423DDE9020100F031FA01F10041DBE70090DDE90423DDE9020100F043FF01F10041D1E7DDE90423DDE9020100F01EFACAE700BFFB21E93FFFFFEF7FF1
:401C00002DE9F04F944C21F00047A7428FB040F381801446914A0E46974226DC84A3D3E90023002940F3A08101F0E0F88C4B80469F42894600F083807FA3D3E9002301F0D9
:401C4000D5F802460B464046C4E90023494601F0CDF879A3D3E9002301F0C8F80125C4E9020128460FB0BDE8F08F7E4A974240F383807D4A974258DC3D15A5F21645A7EB0F
:401C800005518B46824601F0FFFC01F0FDF98046894642464B4650465946CDE9088901F0A5F80022714B01F055FA8B46824601F0EBFC01F0E9F98046894642464B46504604
:401CC0005946CDE90A8901F091F80022674B01F041FA00220023CDE90C0101F0A3FC002800F06A81002340464946002201F09AFC002814BF012302235D48022101900091D8
:401D00002A46214608A800F0B7FA002EC0F24A81054606E0C2E9000100250024C2E90245002528460FB0BDE8F08F02460B4601F05DF80025C4E90201C4E90001F1E740A325
:401D4000D3E9002301F052F83FA3D3E9002306460F4601F04BF802460B463046C4E90023394601F043F838A3D3E9002301F03EF80125C4E90201D4E700F02CFF34A3D3E909
:401D800000238046894601F0E5F90022394B01F02FF801F079FC054601F076F924A3D3E90023CDE9040101F0D5F902460B464046494601F01BF820A3D3E9002382468B46C0
:401DC000DDE9040101F0C6F91F2DCDE9020155DC294B6A1E53F822309F424FD002460B465046594601F002F802460B4681468846C4E900234A4643465046594600F0F6FFAF
:401E0000DDE9022300F0F2FF02460B46002EC4E9022386DA4A4608F1004301F1004184E80C00E160A0606D427BE700BFAFF3008000004054FB21F93F3163621A61B4D03D19
:401E40000000601A61B4D03D7370032E8A19A33B83C8C96D305FE43FFB21E93F7BD90240FB21F93FFB213941FFFFEF7F00007041A03E00000000E03F203E0000DDE90223D7
:401E80005046594600F0B2FF3F15C1F30A53FB1A102B81468846C4E90001ABDD58A3D3E90023DDE9040101F055F98046894602460B465046594600F099FFCDE906010246F8
:401EC0000B465046594600F091FF42464B4600F08DFF4DA3D3E9002380468946DDE9040101F038F942464B4600F080FF02460B46CDE90201DDE9060100F078FF0B4602464F
:401F00008846C1F30A517F1A312F8146C4E9002372DD3FA3D3E90023DDE9040101F01AF98046894602460B46DDE9060100F05EFF02460B4682468B46DDE9060100F056FFC9
:401F400042464B4600F052FF33A3D3E9002380468946DDE9040101F0FDF842464B4600F045FFCDE9020139E700F042FF2E4B80469F42894622D02AA3D3E9002300F038FF01
:401F800002460B464046C4E90023494600F02EFF23A3D3E9002300F02BFF4FF0FF35C4E90201BEE66268E36802F1004203F1004345426260E360B4E603239DE610A3D3E941
:401FC000002300F015FF10A3D3E9002306460F4600F00EFF02460B463046C4E90023394600F004FF08A3D3E9002300F001FF4FF0FF35C4E9020194E6DDE906ABFAE600BF0C
:402000000000601A61B4D03D7370032E8A19A33B0000002E8A19A33BC14920259A837B393163621A61B4D03DFB21F93F000000002DE9F04F21F00046B6F1795F85B00C4668
:4020400092469B4605466BDA01F01EFB002800F0E7802A4623462846214601F07BF874A3D3E900238046894601F074F872A3D3E9002300F0BDFE42464B4601F06BF870A375
:40208000D3E9002300F0B2FE42464B4601F062F86DA3D3E9002300F0ABFE42464B4601F059F86BA3D3E9002300F0A0FE42464B4601F050F868A3D3E9002300F099FE424694
:4020C0004B4601F047F8CDE900010022644B4046494601F03FF8DDE9002306460F464046494601F037F85246804689465B462846214601F02FF802460B464046494600F042
:4021000075FE02460B463046394600F06FFE02460B460020534900F069FE05B0BDE8F08F02460B4601F016F841A3D3E900238046894601F00FF840A3D3E9002300F058FECC
:4021400042464B4601F006F83DA3D3E9002300F04DFE42464B4600F0FDFF3BA3D3E9002300F046FE42464B4600F0F4FF38A3D3E9002300F03BFE42464B4600F0EBFF36A3BC
:40218000D3E9002300F034FE4B46424600F0E2FF354BCDE900019E4297DD344B00229E4238DCA6F5001300202E4916461F4600F01DFECDE902010022294B4046494600F0AF
:4021C000C9FF32463B4600F011FEDDE9002306460F464046494600F0BDFF5246804689465B462846214600F0B5FF02460B464046494600F0FBFD02460B463046394600F079
:40220000F5FD02460B46DDE9020100F0EFFD05B0BDE8F08F164B0026CDE90223154FCAE71049002005B0BDE8F08F00BFAFF30080D43888BEE9FAA8BDC4B1B4BD9EEE213E80
:40224000AD529C804F7E923E9015CB19A001FA3E7751C1166CC1563F4C5555555555A53F0000E03F0000F03F3233D33F0000E93F0000E73F0000D23F2DE9F04F794CADF52A
:402280001D7D1F460B93D31E84FB0354DB17C3EBA403A69E744C23EAE37554F826406B1C26460994A3EB83037C1E0D95029402EBC3032D1B341904900A91089316D42C4476
:4022C000013422AEA79F08E057F8250000F0DCFE0135A542E6E9020108D0002DF4DA013500200021A542E6E90201F6D1099B002B2FDB099B74AADDF8089002EBC30B0DF5EF
:40230000E47A029B002BC0F295810B9B0026C3EB090824AB03EBC808049B0027A3F1080524AB03EBC904F5E9022374E8020100F011FF02460B463046394600F059FD4445E7
:4023400006460F46EFD1EAE90267DA4509F10109D7D1099B10A91D4603F18043023B9B001A1D0A440B440F920E939CAB03EBC503002D53E928672BDD9CAB03EBC504A83CB1
:402380000DF13C0A0DF5E47B0022384B3046394600F0E0FE01F078F900F076FE0022344B8046894600F0D6FE02460B463046394600F01CFD01F068F974E802234AF8040F91
:4023C0004946404600F014FD5C4506460F46DBD1089C30463946224600F08AFC00224FF07F5306460F4600F0B5FE00F0F9FB0022204B00F0AFFE02460B463046394600F05F
:40240000F5FC0F46064601F03FF9814600F03CFE02460B463046394600F0E8FC002C06460F4640F3EE80681E10AB53F82030C4F1180243FA02F101FA02F29B1AC4F11708CD
:4024400010AA42F82030894443FA08F8B8F1000F3DDD002D09F1010940F3D382002214460FA911E0ABAAAA2AA83F00000000703E0000704100002040C3F180700BB10860C7
:402480000124013295420DDD51F8043F002CF3D0C3F1FF13013203F57F4395420B604FF00104F1DC089B002B0DDD012B00F0B180022B08D16A1E10AB53F8223010A9C3F328
:4024C000150341F82230B8F1020F00F08180002200233046394601F0A5F8002800F05B82099B05F1FF3B5B4510DC05F1804310AA013B0F9802EB8303002253F80419834259
:4025000042EA0102F9D1002A40F0B180099B10AA013B52F82330002B40F071820E9A012352F8041901330029FAD0E9186A1C8A420C914BDC0D990B985118DB0001F18041E1
:402540000593A79B05440139E80003EB810A24ABD20003EB000B74AB13440193A2F10803069007934FF000095AF8040F00F08CFD029BEBE80201002B4FF000064FF00007DC
:402580001BDB069B03EB0904079B09EB030824AB1C449844049BA3F10805F5E9022374E8020100F0D7FD02460B463046394600F01FFC444506460F46EFD1019B09F108094D
:4025C000E3E802670193059B9945CDD10C9DCCE632463B460020B04900F008FC06460F46002C3FF474AF089A0020AB4900F080FB02460B463046394600F0F8FB06460F4640
:4026000065E710D16B1E10AA52F823304FEAE3581CE76A1E10AB53F8223010A9C3F3160341F822304FE700229C4B01F019F858B980464CE700260027EAE90267DA4509F136
:4026400001097FF45EAE84E6002D09F10109C8BF4FF002083FF702AF32463B4600208E4900F0C4FB4FF0020806460F462FE7089A10AB53F82B30183ACDF81490CDF80480D9
:4026800008926BB90BF18043013B10A901EB830353F804190BF1FF3B183A0029F8D00892089A00207C4900F023FBBBF1000F04460D46C0F2B6814FEACB030DF5E87810AAC2
:4026C00002EB8B0608EB03090493043609F1080756F8040D00F0D8FC22462B4600F03AFD002267E902016E4B2046294600F032FDB84504460D46EBD14B46CDF818B09B46E9
:402700000DF5987ACDF808A0DDF824A04FF00009BAF1000FC0F226815DA3D3E90023DFF884815D4600260027002403E0A14510DBF8E90223F5E8020100F00CFD02460B4629
:402740003046394600F054FB0134A24506460F46ECDA029BABF1080B03EBC903C3E9006772AB5B4509F10109D2D1A69BDDF818B0DDF808A0032B00F28380DFE813F0D1000C
:40278000950095000400BBF1000F40F35481049BCDF808B053449846D3E90067D34658E9029A32463B464846514600F021FB04460D4602460B464846514600F017FB32467F
:4027C0003B4600F015FBC8E9000168E90245C34526462F46E3D1DA46DDF808B0BBF1010F40F32981049B0DF59C7B53449846D3E90067994659E902343046CDE902341A46C2
:402800003946234600F0F4FA04460D4602460B46DDE9020100F0EAFA32463B4600F0E8FAC9E9000169E90245CB4526462F46E1D100231D4608F1080850AC184678E90223D6
:40284000294600F0D5FA444503460D46F5D1019A002A00F0D880DAF80440DAF80C200A9FDAF80010DAF8080005F1004504F1004402F100427D613B617C60FA603960B860AF
:40288000059B03F007000DF51D7DBDE8F08F00BF00000040FB21F93F0000F03F0000E03F0000703EB83F000000242146049D0835554475E90223204600F09AFA5545044625
:4028C000F7D1019B002B50D00A9F01F100450B46DAE9000187E83000224600F087FABBF1000F03460D460DDD01241846FAE90223294600F07DFA0134A34503460D46F4DA93
:40290000019A0AB105F10045184629460A9BC3E90201059B03F007000DF51D7DBDE8F08F00231C46049A0832924418467AE90223214600F05DFA0BF1FF3BBBF1FF3F03465B
:402940000C46F2D1019A0AB104F10044184621460A9BC3E90001059B03F007000DF51D7DBDE8F08F00260027F3E626460F4622460A9C0B46DAE90001C4E9006700F036FA04
:40298000BBF1000F03460D46AEDC184629460A9BC3E90201BDE7089B30465A423946CDF81490CDF8048000F0A3F900222C4B06460F4600F055FE002840D00022294B30463E
:4029C000394600F0C7FB00F05FFE044600F05CFB0022234B00F0BEFB0B4602463946304600F004FA00F050FE089B05F1010B1833089310AB43F8250043F82B4050E601232F
:402A000093E500244EE51846DAE90067DAE9022329460A9DC5E90067C5E90401C5E902232EE7A69B032B3FF62BAFDFE803F0151010020DF5987A00231D4608E730463946A4
:402A400000F022FE10ABAB4643F8250028E6002421460DF5987A34E700231C4672E700BF000070410000703E2DE9F04F21F00046B6F1795F85B00C4690469946054604DAE6
:402A800000F002FE002800F085802A4623462846214600F05FFB06460F4602460B462846214600F057FB3EA3D3E9002382468B463046394600F04EFB3BA3D3E9002300F08C
:402AC00095F932463B4600F045FB39A3D3E9002300F08EF932463B4600F03CFB36A3D3E9002300F083F932463B4600F033FB34A3D3E9002300F07CF90E9BCDE900019BB3C9
:402B00000022334B4046494600F024FBDDE90023CDE902015046594600F01CFB02460B46DDE9020100F062F932463B4600F012FB42464B4600F05AF923A3D3E90023064603
:402B40000F465046594600F005FB02460B463046394600F04DF902460B462846214600F045F905B0BDE8F08F02460B463046394600F0F0FA14A3D3E9002300F037F95246EC
:402B80005B4600F0E7FA2A46234600F031F905B0BDE8F08F2846214605B0BDE8F08F00BF7CD5CF5A3AD9E53DEB9C2B8AE6E55A3E7DFEB157E31DC73ED561C119A0012A3F7A
:402BC000A6F810111111813F495555555555C53F0000E03F21F00041704700BF00000000C1F30A522DE9F843A2F2FF36132E0B4604460D46884607461CDC002E3FDB3A4A1F
:402C0000864642FA06F901EA0902024317D034A3D3E9002300F0ECF80022002300F02AFD20B1002D40DB28EA0905002738462946BDE8F883332E06DDB6F5806F2FD02046D5
:402C40001946BDE8F883A2F213424FF0FF3929FA02F910EA090FF2D021A3D3E9002300F0C7F80022002300F005FD0028DED0002D20DB454627EA090738462946D8E718A3E9
:402C8000D3E9002300F0B4F80022002300F0F2FC0028CBD0002D18DB00273D46C6E702460B4600F0A5F8CCE74FF4801343FA06F6B044B8E7142E10D00123C6F1340603FA8D
:402CC00006F6371928BF9844D3E725F00042074B224318BF1D460027A8E705F10108C8E79C7500883CE4377EFFFF0F000000F0BFF8B5C1F30A5604460D460B46174606BB68
:402D000021F00043034325D000222F4B00F022FA2E4A044697420D460B462ADBC1F30A56363E40F2FE723E44964228DC002E12DD23F0FF4323F4E00343EA065520462946C7
:402D4000F8BD40F2FF729642EBD102460B4600F04FF8F8BDF8BD16F1350F1DDA4CF250339F420CDC14A1D1E9000122462B4600F031F811A3D3E9002300F0ECF9F8BD22467A
:402D80000FA1D1E900012B4600F024F80CA3D3E9002300F0DFF9F8BD23F0FF4323F4E003363643EA0655204629460022084B00F0D1F9F8BDAFF3008059F3F8C21F6EA501C9
:402DC0009C7500883CE4377E00005043B03CFFFF0000903C03F0004321F0004242EA0301704700BF81F0004102E000BF83F0004330B54FEA41044FEA430594EA050F08BFA7
:402E000090EA020F1FBF54EA000C55EA020C7FEA645C7FEA655C00F0E2804FEA5454D4EB5555B8BF6D420CDD2C4480EA020281EA030382EA000083EA010180EA020281EA91
:402E40000303362D88BF30BD11F0004F4FEA01314FF4801C4CEA113102D0404261EB410113F0004F4FEA03334CEA133302D0524263EB430394EA050F00F0A780A4F1010447
:402E8000D5F1200E0DDB02FA0EFC22FA05F2801841F1000103FA0EF2801843FA05F359410EE0A5F120050EF1200E012A03FA0EFC28BF4CF0020C43FA05F3C01851EBE37118
:402EC00001F0004507D54FF0000EDCF1000C7EEB00006EEB0101B1F5801F1BD3B1F5001F0CD349085FEA30004FEA3C0C04F101044FEA445212F5800F80F09A80BCF1004FCF
:402F000008BF5FEA500C50F1000041EB045141EA050130BD5FEA4C0C404141EB010111F4801FA4F10104E9D191F0000F04BF01460020B1FA81F308BF2033A3F10B03B3F1C4
:402F400020020CDA0C3208DD02F1140CC2F10C0201FA0CF021FA02F10CE002F11402D8BFC2F1200C01FA02F120FA0CFCDCBF41EA0C019040E41AA2BF01EB0451294330BD36
:402F80006FEA04041F3C1CDA0C340EDC04F11404C4F1200220FA04F001FA02F340EA030021FA04F345EA030130BDC4F10C04C4F1200220FA02F001FA04F340EA03002946BE
:402FC00030BD21FA04F0294630BD94F0000F83F4801306BF81F480110134013D4EE77FEA645C18BF7FEA655C29D094EA050F08BF90EA020F05D054EA000C04BF19461046CB
:4030000030BD91EA030F1EBF0021002030BD5FEA545C05D14000494128BF41F0004130BD14F580043CBF01F5801130BD01F0004545F0FE4141F470014FF0000030BD7FEA4B
:40304000645C1ABF194610467FEA655C1CBF0B46024650EA013406BF52EA033591EA030F41F4002130BD00BF90F0000F04BF0021704730B54FF4806404F132044FF0000588
:403080004FF0000150E700BF90F0000F04BF0021704730B54FF4806404F1320410F0004548BF40424FF000013EE700BF42004FEAE2014FEA31014FEA02701FBF12F07F4371
:4030C00093F07F4F81F06051704792F0000F14BF93F07F4F704730B54FF4607401F0004521F0004120E700BF50EA010208BF704730B54FF000050AE050EA010208BF704767
:4031000030B511F0004502D5404261EB41014FF4806404F132045FEA915C3FF4DCAE4FF003025FEADC0C18BF03325FEADC0C18BF033202EBDC02C2F1200300FA03FC20FAC6
:4031400002F001FA03FE40EA0E0021FA02F11444C1E600BF70B54FF0FF0C4CF4E06C1CEA11541DBF1CEA135594EA0C0F95EA0C0F00F0DEF82C4481EA030621EA4C5123EA1B
:403180004C5350EA013518BF52EA033541F4801143F4801338D0A0FB02CE4FF00005E1FB02E506F00042E0FB03E54FF00006E1FB03569CF0000F18BF4EF0010EA4F1FF04DF
:4031C000B6F5007F64F5407404D25FEA4E0E6D4146EB060642EAC62141EA55514FEAC52040EA5E504FEACE2EB4F1FD0C88BFBCF5E06F1ED8BEF1004F08BF5FEA500E50F18B
:40320000000041EB045170BD06F0004646EA010140EA020081EA0301B4EB5C04C2BFD4EB0C0541EA045170BD41F480114FF0000E013C00F3AB8014F1360FDEBF002001F074
:40324000004170BDC4F10004203C35DA0C341BDC04F11404C4F1200500FA05F320FA04F001FA05F240EA020001F0004221F0004110EBD37021FA04F642EB06015EEA430EDB
:4032800008BF20EAD37070BDC4F10C04C4F1200500FA04F320FA05F001FA04F240EA020001F0004110EBD37041F100015EEA430E08BF20EAD37070BDC4F1200500FA05F2C9
:4032C0004EEA020E20FA04F301FA05F243EA020321FA04F001F0004121FA04F220EA020000EBD3705EEA430E08BF20EAD37070BD94F0000F0FD101F00046400041EB0101D3
:4033000011F4801F08BF013CF7D041EA060195F0000F18BF704703F00046520043EB030313F4801F08BF013DF7D043EA0603704794EA0C0F0CEA135518BF95EA0C0F0CD068
:4033400050EA410618BF52EA4306D1D181EA030101F000414FF0000070BD50EA410606BF1046194652EA430619D094EA0C0F02D150EA013613D195EA0C0F05D152EA0336B2
:403380001CBF104619460AD181EA030101F0004141F0FE4141F470014FF0000070BD41F0FE4141F4780170BD70B54FF0FF0C4CF4E06C1CEA11541DBF1CEA135594EA0C0FEB
:4033C00095EA0C0F00F0A7F8A4EB050481EA030E52EA03354FEA013100F088804FEA03334FF0805545EA131343EA12634FEA022245EA111545EA10654FEA00260EF000414B
:403400009D4208BF964244F1FD0404F5407402D25B084FEA3202B61A65EB03055B084FEA32024FF480104FF4002CB6EB020E75EB030E22BFB61A754640EA0C005B084FEAED
:403440003202B6EB020E75EB030E22BFB61A754640EA5C005B084FEA3202B6EB020E75EB030E22BFB61A754640EA9C005B084FEA3202B6EB020E75EB030E22BFB61A754682
:4034800040EADC0055EA060E18D04FEA051545EA16754FEA06164FEAC30343EA52734FEAC2025FEA1C1CC0D111F4801F0BD141EA00014FF000004FF0004CB6E711F4801FB2
:4034C00004BF01430020B4F1FD0C88BFBCF5E06F3FF6AFAEB5EB030C04BFB6EB020C5FEA500C50F1000041EB045170BD0EF0004E4EEA113114EB5C04C2BFD4EB0C0541EAC8
:40350000045170BD41F480114FF0000E013C90E645EA060E8DE60CEA135594EA0C0F08BF95EA0C0F3FF43BAF94EA0C0F0AD150EA01347FF434AF95EA0C0F7FF425AF1046A8
:4035400019462CE795EA0C0F06D152EA03353FF4FDAE1046194622E750EA410618BF52EA43067FF4C5AE50EA41047FF40DAF52EA43057FF4EBAE12E74FF0FF3C06E000BF3F
:403580004FF0010C02E000BF4FF0010C4DF804CD4FEA410C7FEA6C5C4FEA430C18BF7FEA6C5C1BD001B050EA410C0CBF52EA430C91EA030F02BF90EA020F0020704710F14B
:4035C000000F91EA030F58BF994208BF90422CBFD8176FEAE37040F0010070474FEA410C7FEA6C5C02D150EA013C07D14FEA430C7FEA6C5CD6D152EA033CD3D05DF8040B7B
:40360000704700BF8446104662468C461946634600E000BF01B5FFF7B7FF002848BF10F1000F01BD4DF808EDFFF7F4FF0CBF012000205DF808FB00BF4DF808EDFFF7EAFF15
:4036400034BF012000205DF808FB00BF4DF808EDFFF7E0FF94BF012000205DF808FB00BF4DF808EDFFF7CEFF94BF012000205DF808FB00BF4DF808EDFFF7C4FF34BF012096
:4036800000205DF808FB00BF4FEA410212F5001215D211D56FF47873B3EB625212D94FEAC12343F0004343EA505311F0004F23FA02F018BF404270474FF00000704750EAE4
:4036C000013005D111F0004008BF6FF0004070474FF00000704700BF4FEA4102B2F1E04324BFB3F5001CDCF1FE5C0DD901F0004C4FEAC0024CEA5070B2F1004F40EB8300EC
:4037000008BF20F00100704711F0804F21D113F13872BCBF01F00040704741F480114FEA5252C2F11802C2F1200C10FA0CF320FA02F018BF40F001004FEAC1234FEAD3236F
:4037400003FA0CFC40EA0C0023FA02F34FEA4303CCE77FEA625307D150EA01331EBF4FF0FE4040F44000704701F0004040F0FE4040F40000704700BF80F0004002E000BF47
:4037800081F0004142001FBF5FEA410392EA030F7FEA226C7FEA236C6AD04FEA1262D2EB1363C1BFD218414048404140B8BF5B42192B88BF704710F0004F40F4000020F036
:4037C0007F4018BF404211F0004F41F4000121F07F4118BF494292EA030F3FD0A2F1010241FA03FC10EB0C00C3F1200301FA03F100F0004302D5494260EB4000B0F5000FEA
:4038000013D3B0F1807F06D340084FEA310102F10102FE2A51D2B1F1004F40EBC25008BF20F0010040EA03007047490040EB000010F4000FA2F10102EDD1B0FA80FCACF1AD
:40384000080CB2EB0C0200FA0CF0AABF00EBC25052421843BCBFD0401843704792F0000F81F4000106BF80F400000132013BB5E74FEA41037FEA226C18BF7FEA236C21D022
:4038800092EA030F04D092F0000F08BF0846704790EA010F1CBF0020704712F07F4F04D1400028BF40F00040704712F100723CBF00F50000704700F0004343F0FE4040F426
:4038C000000070477FEA226216BF08467FEA23630146420206BF5FEA412390EA010F40F4800070474FF0000304E000BF10F0004348BF40425FEA000C08BF704743F0964390
:4039000001464FF000001CE050EA010208BF70474FF000030AE000BF50EA010208BF704711F0004302D5404261EB41015FEA010C02BF84460146002043F0B64308BFA3F1AA
:403940008053A3F50003BCFA8CF2083AA3EBC25310DB01FA02FC634400FA02FCC2F12002BCF1004F20FA02F243EB020008BF20F00100704702F1200201FA02FCC2F12002BC
:4039800050EA4C0021FA02F243EB020008BF20EADC7070474FF0FF0C1CEAD0521EBF1CEAD15392EA0C0F93EA0C0F6FD01A4480EA010C400218BF5FEA41211ED04FF000635E
:4039C00043EA501043EA5111A0FB01310CF00040B1F5000F3EBF490041EAD3715B0040EA010062F17F02FD2A1DD8B3F1004F40EBC25008BF20F00100704790F0000F0CF078
:403A0000004C08BF49024CEA502040EA51207F3AC2BFD2F1FF0340EAC250704740F400004FF00003013A5DDC12F1190FDCBF00F000407047C2F10002410021FA02F1C2F1A7
:403A4000200200FA02FC5FEA310040F1000053EA4C0308BF20EADC70704792F0000F00F0004C02BF400010F4000F013AF9D040EA0C0093F0000F01F0004C02BF490011F428
:403A8000000F013BF9D041EA0C018FE70CEAD15392EA0C0F18BF93EA0C0F0AD030F0004C18BF31F0004CD8D180EA010000F00040704790F0000F17BF90F0004F084691F09C
:403AC000000F91F0004F14D092EA0C0F01D142020FD193EA0C0F03D14B0218BF084608D180EA010000F0004040F0FE4040F40000704740F0FE4040F4400070474FF0FF0CE8
:403B00001CEAD0521EBF1CEAD15392EA0C0F93EA0C0F69D0A2EB030280EA010C49024FEA402037D04FF0805343EA111143EA10130CF000408B4238BF5B0042F17D024FF4F9
:403B4000000C8B4224BF5B1A40EA0C00B3EB510F24BFA3EB510340EA5C00B3EB910F24BFA3EB910340EA9C00B3EBD10F24BFA3EBD10340EADC001B0118BF5FEA1C1CE0D19E
:403B8000FD2A3FF650AF8B4240EBC25008BF20F0010070470CF0004C4CEA50207F32C2BFD2F1FF0340EAC250704740F400004FF00003013A37E792F0000F00F0004C02BFDC
:403BC000400010F4000F013AF9D040EA0C0093F0000F01F0004C02BF490011F4000F013BF9D041EA0C0195E70CEAD15392EA0C0F08D142027FF47DAF93EA0C0F7FF470AFFB
:403C0000084676E793EA0C0F04D14B023FF44CAF08466EE730F0004C18BF31F0004CCAD130F000427FF45CAF31F000437FF43CAF5FE700BF4FF0FF3C06E000BF4FF0010CF1
:403C400002E000BF4FF0010C4DF804CD4FEA40024FEA41037FEA226C18BF7FEA236C11D001B052EA530C18BF90EA010F58BFB2EB030088BFC81738BF6FEAE17018BF40F070
:403C8000010070477FEA226C02D15FEA402C05D17FEA236CE4D15FEA412CE1D05DF8040B704700BF844608466146FFE70FB5FFF7C9FF002848BF10F1000F0FBD4DF808ED9D
:403CC000FFF7F4FF0CBF012000205DF808FB00BF4DF808EDFFF7EAFF34BF012000205DF808FB00BF4DF808EDFFF7E0FF94BF012000205DF808FB00BF4DF808EDFFF7D2FF99
:403D000094BF012000205DF808FB00BF4DF808EDFFF7C8FF34BF012000205DF808FB00BF4FEA4002B2F1FE4F0FD34FF09E03B3EB12620DD94FEA002343F0004310F0004F50
:403D400023FA02F018BF404270474FF00000704712F1610F01D1420205D110F0004008BF6FF0004070474FF000007047014B1868704700BF4081FF1F0E4B70B51E460E4C1F
:403D80000025E41AA410A54204D056F8253098470135F8E700F032F9084B094C1E46E41AA4100025A54204D056F8253098470135F8E770BD08400000084000000840000085
:403DC0001040000010B5431E0A44914204D011F8014B03F8014FF8E710BD03460244934202D003F8011BFAE77047000000000000C84900401900004F004024004051004039
:403E0000300000000140001000140140000800400140000A004C01400002005001402000FB21F93FFB2109407CD91240FB2119407A6A1F407CD92240BBFD2540FB21294068
:403E40003A462C407A6A2F405C4731407CD932409C6B3440BBFD3540DB8F3740FB2139401BB43A403A463C405AD83D407A6A3F404C7E40405C4741406C1042407CD9424070
:403E80008CA243409C6B4440AC344540BBFD4540CBC64640DB8F4740EB584840FB21494083F9A200444E6E00FC291500D1572700DD34F50062DBC0003C9995004190430084
:403EC0006351FE00BBDEAB00B761C5003A6E2400D24D42004906E00009EA2E001C92D100EB1DFE0029B11C00E83EA700F535820044BB2E009CE98400B4267000417E5F00E0
:403F0000D6913900538339009CF439008B5F840028F9BD00F81F3B00DEFF97000F980500112FEF000A5A8B006D1F6D00CF7E360009CB2700464FB7009E663F002DEA5F00B1
:403F4000BA277500E5EBC7003D7BF100F739070092528A00FB6BEA001FB15F00085D8D00300356007BFC4600F0AB6B0020BCCF0036F49A00E3A91D005E619100081BE600D8
:403F800085996500A0145F008D40680080D8FF0027734D0006063100CA561500C9A873007BE260006B8CC0000200000003000000040000000600000000000040FB21F93F8B
:403FC000000000002D44743E000000809846F83C0000006051CC783B00000080831BF0390000004020257A38000000802282E336000000001DF3693543000000F8B500BFC4
:40400000F8BC08BC9E4670474D000000F9090000F8B500BFF8BC08BC9E4670472900000030400000C880FF1F800000008800000000000000010001000000E02EC05D00006B
:404040001800000000366E010000000000000000000000000000000000000000000000000000000000000000F83F000000000000000000000000000000000000000000004C
:4040800000000000000000000000000000000000000000000000000000000000000000000000000000000000E080FF1F000000000000000000000000000000000000000082
:4040C00000000000000000000000000000000000000000000000000000000000000000000000000000000000000000000000000000000000000000000000000000000000C0
:40410000000000000000000000000000000000000000000000000000000000000000000000000000000000000000000000000000000000000000000000000000000000007F
:40414000000000000000000000000000000000000000000000000000000000000000000000000000000000000000000000000000000000000000000000000000000000003F
:4041800000000000000000000000000000000000000000000000000000000000000000000000000000000000000000000000000000000000000000000000000000000000FF
:020000040003F7
:0200000480007A
:40000000064F004008520040066400400465004063000140380101404E020140410301405C040140540501405A0601405B0701406208014049090140150B01406B0C014034
:40004000380D0140481401405015014062160140511701403D18014051190140621A0140511B014007400140104101401142014007430140024501400146014001470140D8
:400080000E48014011490140154C0140034D0140085001400351014001500A360D60163619702236000208140C1410101C08600461047908816F820F860F8772896F8C0F14
:4000C000880F890D8A0D8B38007D01A3035C043B0C660E181056119612281368197F1DC51F3A27012818290E2A602BF02C282DFE2E502F0131FF3407367838203F014064C7
:40010000410549FF4AFF4BFF4DA04F015018580459045A045C045D045F016040628064406540668068406A806C406D206E80830185018E049001930296019E029F04A9040E
:40014000B001B102B204B304B402B701BE01BF44C064C105C53CC620C74EC83BC9FFCAFFCBFFCDAFCE07CF01D018D40FD804D904DA04DB04DC14DD44DF05E040E280E4403D
:40018000E540E680E840EA80EC40ED20EE80020103A004800A800D020E200F22100619401A041BA01C041D201E101F01208024402644280429542E103002324033203401E5
:4001C000368038023A013C043F0243014701480D4A024C484E824F04560857115C025EA86402660867067F20C08DC2B8C403CA2ECC9DCEC1D081D23CD6F0D860DE40041058
:40020000050409040A020E08140117081C181D0420182102260327012E042F0A30013102321833083402350136043704380839803E043F404003470449FF4A074BFF4C4065
:400240004D204EF04F0550085407580459045A045B045C335D325F01604061A862406320810C8301850C87028C018F1091109201970F990B9A029B049C049D07A720A9083E
:40028000AB01B001B120B204B310B402B50FBE05BF04D804D904DC44DF01004004040520060208A10B020E2215461640188819081D081E481F402102220423042612271147
:4002C0002B182D442F42304933203580368838403A013B043D103E043F2045085501560A5E505F0982018A018B0C90409204940296889C019D149F01A040A120A280A390FE
:40030000A407A502B204C0E1C2ABC4B0CAD6CC5FCE6BD040D6F0E204E602EA8000B0024004C0050206200AF00C030E0C0F0110C012101302140C160318701C07200F240AC3
:400340002605270228052A0A2C802E103301340F350236F03F105280580459045B045C345D405F01801082208501860488218A128C07900494109660970298079B029E0782
:40038000A001A202A708A810A904AAA0AD04AE08B040B101B280B308B430B502B60FB704B980BA20BF11C060C103C9FFCAFFCBFFCDA0CF04D018D804D904DA04DC44DD03A8
:4003C000DF01E040E2C0E440E540E6C0E8C0EAC0ECC0EEC001080206038005190606084009080A840C020E25100A1280130414801760180219401B201C021D111E212008AB
:40040000220824402729282029042B102C202D9031023520370438083B403D0842024380461047044D204E0B58805A80710280408440900891129206930494069504968098
:40044000970399809A089C619D349F08A060A120A380A40FA609A722AA16AB10AC20AE40B080B440B509C0FFC2FFC4DFCA72CC61CE4AD040D220E608EA08EE10030F0406EC
:400480000573060112051530160117C919941B601DCF1E031F3021FD23022A022D9E2E062F6031FF36073A803F014060410345D146204750482B49FF4AFF4BFF4DAF4E0FE4
:4004C0004F045018540F580459045A045B045C025D435F01604062C06440654066C068C06AC06CC06EC0800B82048E10900C920298079C0C9E01A220A408A601AE0FB00FD7
:40050000B418B620C046C105C50CC7EBC831C9FFCAFFCBFFCEF0CF44D00CD602D711D804DA04DB04DC04DD22DF01E6C0EA40EB0200800380040408400A440C080D010E0221
:400540001002110212201401160818021AC01B101E021F4027402D012E402F8034403550362037083C023E06408041014610480849044A014D044E084F0153055610570243
:4005800059205D015EA4681069606B047090731080088101840287088C048D04910292069304940495049680974399509A089B019E109F40A041A120A208A3A0A402A50C72
:4005C000A601A712A808AD48B001B280B320C029C2BBC4CDCA90CC70CEC0D041D22CD6F4E209EA01EC20043B0E78130114401608185D1A2020662210268028662A083078AA
:4006000031013207348038084045410649FF4AFF4BFF4DA04F0150185280580459045A045B045C045D045F016040628064406540668068406A806C406D206E80830485012F
:400640008608870289028B01970899019B029E02A104A201A604A901AB02B001B104B204B303B408B508B602BB08BF01C045C106C543C6C2C70EC81FC9FFCAFFCBFFCDAF18
:40068000CE07CF01D018D40FD804D904DA04DB04DC44DD44DF05E040E280E440E540E680E840EA80EC40ED20EE800320050406010B020D080F0811041280148015201708CA
:4006C00018851B481C801D041E241F06239826022B4833243502380439043B124102450249A04B064DA052A459105A0A5B806224750278807A107B028110829087108C100B
:400700008E28912092109604970899219A019E289F09A020A208A509A602A702A908B020C0A4C261C47CCA05CC86CE07D081D23CD60FD806DE02E010E440E8808704912053
:4007400092109604970899219A019C209E289F09A020A208A509A602A702AF40B002B404B644B708E8700101040A05020604070C0B010E0811041302150216051704190264
:400780001B041C031E0C2101270128032A042B012C032E0433083501360F37063A803B803F104050410649FF4AFF4BFF4DA04F04501854015604580459045A045B045C42CD
:4007C0005D205F01604062C06440654066C068C06AC06CC06EC08194836084078573899E8A078B608E0491CF93309404953097C99A08A001A202A407A5FDA702A801AA027D
:40080000AB0FB40FB5FFBF10C050C106C5D1C702C813C9FFCAFFCBFFCDAFCE0FCF04D018D804D904DA04DC04DF01E040E2C0E440E540E6C0E8C0EAC0ECC0EEC0012003223E
:400840000620070109280E111008110413021510160A19201E011F40212024052722282029202B202E182F4831083302372A380139243A013B083D023E26482049014A0AE4
:400880004E0A52085C025D105E48674083028740880889108B02C0A7C2A6C4CECAE6CCE3CEE7D23CD6F0D880E220E4200061029E040A0506081E09020CFF0D0810791106BA
:4008C00012861301149F150816601A1E1B011D0720402104242025012706286029082C142D0730803278330734013508360638023A083E10580459045C225F018006820199
:40090000840186068701880289188C078D019006911F920195089A019B069C049D199F04A110A507A718A806AD19AF02B11FB607BA80BB02D804D904DC22DF010080010842
:40094000034B04200504074909220A500BA00CC00D12108012101350160819641A101B011F40213022282740284029042A202B022C802E402F1031223344362037493820DD
:4009800039403A183E843F105880594066086710808081088281862088038B418E089020914092049310952096109A019B049C039D28A0C0A308A608A820AC01AE80B0081F
:4009C000B720C0FFC2DEC44FCADFCCFFCE7EE005E208E401E608EA03EC08EE04000102060320040C051C060307020A080C1013201520160318101B031C011D101E0E1F0C74
:400A0000210C22102311251029142D092E0C2F103210331F340F372039203A223E043F505280580459045B045C225D405F01840485C58629873A881C8C1C9010910E920981
:400A400093F0940895A39616975C99FE9B01A701A97FAD96AF68B21CB420B603B7FFBE40BF40C032C104C206C401C60CC7E0C824C9FFCAFFCBFFCC62CDA0CEF0CF41D00CCC
:400A8000D280D804D904DA04DB04DC02DD32DF01E640E702E910EA30EB10ED10EE10EF12018803040404060A074008020A200C080D200E0A1401170118011A241B081C84C5
:400AC0001D021E20200225042660271028282A802C012E082F443108320133203480360437513B043C043E024001411242104A08528173407501810182A08C809020914068
:400B00009202939C94049740988099809A0A9B059C019D20A088A128A201A320A504A650AA01AD08B010B190B401C0F7C2ECC490CAFECCF7CEC2D00FD204E004E404EA0267
:400B4000EC0100020504060208020D010E011001160418041B011E0820042601270228042B012C042D04300132023304340C3501370239083E053F10540F580459045B04FF
:400B80005C445D405F0187018A018D048E01930298029B02A002A402A501A604AF04B001B104B301B404B602B702B880BE41BF05D405D804D904DB04DC04DF01020A04418E
:400BC0000520068007200A040B080D080E800F0A12C0130414801520162119821B101D021E201F20200222052404264027202A402B122D202F2230203202372038803B04C6
:400C00003E803F0444024602580859415C025E64814082208401880889028C048E418F0490A191219210930C960A988099219A119D809F05A020A101A28AA50AA704A90182
:400C4000AC40B101B210B720C0F3C2F2C4FCCA7ACC25CE5AD6FBE010E408E840ECA008040E0217011F0226052E022F043002310132013302360437043E01405449FF4AFFD0
:400C80004BFF4F01501852805401580459045A045B045C405D115F016040624064406540668068806A806C806E8082048418850287018A018E0491019302940295019702D4
:400CC00098109A089C019D019F02A018A408A610A801AB04AF04B003B204B303B418B504B802BB08BE04BF10C051C5ECC720C823C9FFCAFFCBFFCD83CE03CF01D018D41843
:400D0000D604D804D904DA04DB04DC42DD21DF01E040E240E440E540E680E880EA80EC80EE80001002010420050106120E1A1022150116081704181019401A401C801E082F
:400D40001F14228A251C28012D402E203288368A3D084302460148024C024D0A56015702590A5A405C026440670970028002810183048441850188408A028B118D108E2093
:400D80008F019020914192109A189D409F01A020A201A508A840AB20AD08AF01B304B501B60AB704C0F3C2E0C475CA38CCDACE40D011D218D68BD8B0E080E222E440E620BA
:400DC000E840EA8130203204361037083B40CCF0CE10054009800E04314056208740960897409F08A420B210C080C2C0CC10D440E6403E1057048304900296089F08A18010
:400E0000A801AA20AE04B420CE20D440E620E840EA20EE2081809002961C9F08A180B204E4805D02D6019D029D02500165206A806C048004812082409002961C9F08D48080
:400E4000D880DAC0E680051007040A042308811083048604960C9F08AA10C080C240C810E080E420E610EA80011008080B010D1010201320150154205D0179107C08850215
:400E80008F019D02C002C20BC40ED402D601DE03E60885109120AB20001F081E0A1C0C110E15101F1A1C1C1700FF010F03C000001000C81707000200000000000400000400
:400EC000040004000004000000080004000000000008080008000000D40000CB1F00140000000000101A0A0010000000480000000000000000000000000000000000000064
:400F000000000000000000000000000000000000000000000000000000000000000000000000000000000000000000000000000000000000000000000000000000000000B1
:400F40000000000000000000000000000000000000000000000000000000000000000000000000000000000000000000000000000000000000000000000000000000000071
:400F80000000000000000000000000000000000000000000000000000000000000000000000000000000000000000000000000000000000000000000000000000000000031
:400FC00000000000000000000000000000000000000000000000000000000000000000000000000000000000000000000000000000000000000000000000000000000000F1
:0200000490006A
:0400000000004005B7
:0200000490105A
:04000000BC90ACAF55
:0200000490303A
:020000003522A7
:0200000490402A
:4000000000000000000000000000000000000000000000000000000000000000000000000000000000000000000000000000000000000000000000000000000000000000C0
:400040000000000000000000000000000000000000000000000000000000000000000000000000000000000000000000000000000000000000000000000000000000000080
:400080000000000000000000000000000000000000000000000000000000000000000000000000000000000000000000000000000000000000000000000000000000000040
:4000C0000000000000000000000000000000000000000000000000000000000000000000000000000000000000000000000000000000000000000000000000000000000000
:0200000490501A
:0C00000000012E16106900012E34458B03
:00000001FF