:400000000080002011000000010400000104000008B5044B1A6803F53F5302331A6000F00FFA00BFFA46004010B5054C237833B9044B13B10448AFF300800123237010BD64
:400040007081FF1F00000000D8280000084B10B51BB108490848AFF300800848036803B910BD074B002BFBD0BDE81040184700BF000000007481FF1FD8280000C880FF1FB2
:400080000000000010B4841C00231A4603E0E15C0A44D2B20133052BF9DD027210BC7047F0B591B062B600240D940E94ADF83C40FF238DF8343000F0A3FA00F035FD00F006
:4000C00043FF0121204600F02BFE01F059FFB0FA80F0400901F048FF002425462646274614E000F0A1FA002000F0A6FA002000F0AFFA0744012000F0ABFA0644022000F08C
:40010000A7FA05440A2000F08BFC0134092CE8DD154B83FB0712FF17C7EBA207ADF8367083FB0612F617C6EBA206ADF8386083FB0523ED17C5EBA305ADF83A500DA8FFF73D
:40014000A1FF00F09DFF0028BFD0BDF93620BDF93830BDF93A100091044903A801F098FF03A800F03DFFB0E767666666DC280000FEE700BFF0B40022174611E050F82760CF
:40018000F3B226F0FF0608E001EB420511F812406D78A5550132013BDBB2002BF4D10137202FEBD9F0BC704708B50A46002101F066FF08BD38B51D22244B1A8018220233A3
:4001C0001A70062203F27E231A705222A3F580731A701F4B1B78DBB21E4A13704FF4E2621D4B1A8041F25122023B1A80002419250CE01A4B1B7803F0010343EA440404F083
:4002000003044FF4F07001F0C3FE013D0DB1032CEFD115B90320FFF7ABFF114A4FF4807313800723137000230E490B7048200231087013700532137002220B4B1A700B4A77
:40024000137843F00103137038BD00BF804000400F010049A14600402242004025420040044000400640004001400040A2430040F8B5164B1B78DBB2154E3478E4B2154FD3
:400280003D78EDB203F00701134A11701B090132137044F00303337045F003033B703F220E4B1A70802203F2F4731A70A02203F21F231A70502204331A700A2000F0C6FB17
:4002C0003D7034704422064B1A70F8BDCF010049F8460040F94600406E5800400D5100407658004008B501F0BFFE08BD38B572B6304A137843F00403137000240CE02E4D5D
:40030000630019194A0011462A44084691882858FFF74AFF0134E4B2062CF0D927494FF09040FFF727FF04212548FFF73DFF042224492548FFF7D6FF244A137843F00203D2
:4003400013701032137843F002031370204C237843F040032370A2F58632513A137843F01003137008221B491B48FFF7BBFF0A221A491B48FFF7B6FF08221A491A48FFF711
:40038000B1FF082219491A48FFF7ACFF194A137843F008031370184D61232B70FFF70AFFC1232B70FFF764FF0E2221461348FFF799FF38BDE8460040F82800008400004825
:4003C00000760040F00300480876004003500140A0430040CC03004802510040D4030048F0510040E003004812510040E8030048225100402243004000480040B043004039
:4004000008B501F005FE03680C2B00D1FEE7FEE708B5094B1A681044084BC31A802B02DC054B186005E001F0F3FD0C2303604FF0FF32104608BD00BFCC80FF1FA082FF1F1A
:4004400008B5104E104D16E029686B68AC68002204E051F8040B43F8040B0432A242F8D1E868002203E0002143F8041B04328242F9D11035013E002EE6D101F0CFFDFFF75B
:400480000FFEFEE701000000F02A000008B5114A114B1A60114A136843F40073136000230AE0032B03D80E4A52F8231000E00D490D4A42F8231001332F2BF2D90B4B1A7828
:4004C0000B4B1A70084A0B4B1A60FFF70FFF00F0C5F908BD0004FA050CED00E014ED00E000000000010400000080FF1FBC760040C080FF1F08ED00E010B541F6FF734FF4CD
:4005000080420121022000F05FF9084C207041F6FF731A460121062000F074F96070044800F08EF9002000F091F910BD8C81FF1F6D06000070B52C4C207800F0C5F9607888
:4005400000F0C2F9294B1B78FF2B03D100F02AFA264B1870254D287806230246194600F03BFA214E341DA4B2224645F6A031287800F046FA2978307800F0E6F96B78FF2B38
:4005800002D100F00FFA6870184D687807230246062100F021FA164A92B22146687800F02FFA114C6978607800F0CEF90121207800F06EF90121607800F06AF901F0F0FCA2
:4005C0000C4A137843F02003137001F0EDFC0A4B1A7842F001021A701A7842F002021A700122064B1A6070BD8C81FF1FD080FF1FAC81FF1F966400407665004080E200E0D9
:4006000008B5074BDB6823B9FFF776FF0122044BDA6000F0CBF8FFF78DFF024B1B7808BD8C81FF1F67650040024A137843F004031370704776650040044B1B7803F0FF0228
:400640000BB90028F8D01046704700BF67650040C0F10200034B33F91030034A1088181A00B27047AC81FF1FBC81FF1F704700BF08B50A2813D00C2802D0082809D104E01F
:400680004FF400624FF480510DE080224FF4807109E0002000F0C2F90022114603E04FF400724FF480610020084B188042F2107303FB01F313F5806301D503F2FF73DB120C
:4006C00003490B6012B2034B1A8008BDBA81FF1FB481FF1FBC81FF1F10B501F061FC0446184A137843F0010313701032137843F00103137002F5AA520832137843F003034F
:4007000013701822104B1A70013B1A7842F040021A701A7802F0FC021A70CE22053B1A700222A3F597530C3B1A70084A137843F0080313700A2000F089F9204601F034FC4D
:4007400010BD00BFAB43004006590040275B004010B504460A280DD00C2802D0082804D101E0C22207E0422205E0002000F056F9C22200E08222034B1A702046FFF778FFCE
:4007800010BD00BF0259004008B5064A137843F0060313700C20FFF7DBFF0022024B1A8008BD00BF01590040B881FF1F08B5054B1B7823B9FFF7E8FF0122024B1A70FFF7F8
:4007C0008BFF08BD9C81FF1FF0B583B016461F460B4C012525700023019300932B460A460146284600F0BCF83A463146207800F091F80221207800F07BF8207803B0F0BD42
:40080000D280FF1FF0B583B016461F460B4D00242C700194009423460A460146204600F09FF83A463146287800F074F80221287800F05EF8287803B0F0BD00BFD380FF1F55
:40084000014B1B681864704708ED00E04001C0B2014B1870704700BF00E400E00B4A7F2313708021517007E0DA0002F1804202F5F042013BDBB21370002BF5D1DB0003F159
:40088000804303F5F04300221A707047D480FF1F172815D831B103010A495A5C42F020025A5405E0030107495A5C02F0DF025A540001044A835C43F00103835400207047D5
:4008C000012070471070004017280CD80001074BC1180A7942F004020A71C25C42F00102C254002070470120704700BF1070004017280BD80001064A835C03F0F1034900C2
:4009000001F00E011943815400207047012070471070004041F6FF73994201D14FF4005141F6FF739A4201D14FF40052172808D8C00000F1804000F5EC408180C28000202D
:4009400070470120704700BF172805D8034B03EB0010417200207047012070471070004017281BD810B4C00000F1804404F5EC44D201D2B201F07F01114321709DF80420A5
:400980001201D2B203F00F03134363709DF8083003F00F03A3700020E07001E00120704710BC704710B501F0FBFA0A4B5B78182B0BD9084A1478013B5370E30003F1804370
:4009C00003F5F0431B78137000E0FF2401F0ECFA204610BDD480FF1F10F0800F0CD111F4704F0BD1C00000F1804000F5F04001808270C37000207047012070470120704768
:400A000010F0800F08D1C00000F1804000F5F0408180C280002070470120704701BE704710B5044605E0084B186801F0B1FAA4F50044B4F5004FF6D8034B586800FB04F04D
:400A400001F0A6FA10BD00BFDC80FF1F08B5034B1B7A00FB03F001F09BFA08BDDC80FF1F70B504460E46074B1D681F2802D90020FFF7D4FF04F01F04103455F8240045F8DE
:400A8000246070BD08ED00E038B504460D46072902D90020FFF7C2FF1F2C02D90020FFF7BDFF04F01F0000F1604000F564406D01EDB2057038BD00BF134B1B78DBB20360F8
:400AC000124A127843EA02230360114A127843EA024303600F4A127843EA026303600E4B1B78DBB243600D4A127843EA022343600B4A127843EA024343600A4A127843EAD8
:400B000002634360704700BF0301004904010049EC4600400201004901010049000100490501004906010049F8B501F039FA0746404A137843F0010313701032137843F0BD
:400B40000103137001263C4B1E700225943B1D7002F5E2521B32137803F07F0313700020FFF774FF354C237803F0F9032370344A137803F0DF031370237833432370304692
:400B8000FFF764FF2820FFF761FF2E4B1A7802F07F021A701A7802F0BF021A7023782B4323702846FFF752FF237843F0040323700023254A137001321370384601F0F4F987
:400BC00007211720FFF760FF20491720FFF748FF07211820FFF758FF1D491820FFF740FF07211520FFF750FF1A491520FFF738FF07213046FFF748FF17493046FFF730FFA7
:400C000007212846FFF740FF14492846FFF728FF07210320FFF738FF11490320FFF720FF07210C20FFF730FF0E490C20FFF718FFF8BD00BFA54300409D60004094430040FE
:400C400012600040F85100408460004001160000E9130000FD1500005D1500008D150000C11500000916000008B5214B18700023204A1370204A1370204A1370204A13705F
:400C8000204A1370204A1370204A1370204B4FF400021A604FF080721A604FF400121A6002221A6004221A6008221A6011B1012906D00BE0174A137803F0FE0313700AE0ED
:400CC000144A137843F00103137004E0114A137843F00103137003220F4B1A708022203B1A70012001F054F904220C4B1A7008BDD981FF1FDC81FF1FF881FF1FFB81FF1FEE
:400D0000F081FF1FFA81FF1FFD81FF1FD881FF1F00E100E009600040286000401260004038B504460D46064B1B7823B9FFF7FCFE0122034B1A7029462046FFF795FF38BD0B
:400D40009D81FF1F00230A4A13700A4A13700A4A13700A4A13700A4A13700A4A13700A4A13700322094B1A708022203B1A707047DC81FF1FF881FF1FFB81FF1FF081FF1FB7
:400D8000FA81FF1FFD81FF1FD881FF1F2860004000EB40008300024A13445878704700BF0082FF1F431EDBB2072B3CD8F0B4074600EB4004A3001C4C2344DB889BB2C3F55A
:400DC00000739A4208D900EB400293002344DA8892B2C2F5007292B200EB4004A300124C2344DB7843EA1223104D04012E192B55D3B2737039B909E0CE5C3D010C4C665556
:400E000001339BB200E000239A42F5D8420002449300054A134400225A705A79D2B20001044B1A54F0BC70470082FF1FFC5F004078600040FE5F0040431EDBB2072B0BD86D
:400E4000420002449300054A134400225A705A79D2B20001024B1A54704700BF0082FF1FFE5F00400246002001E0013080B2135C002BFAD1704700BF10B4FF2400230EE080
:400E8000094AD25C02EB42029100084A11448A7AD2B2824201D11C4602230133DBB2012BEED9204610BC7047C881FF1F0082FF1F10B5204C2079FFF7DFFF237813F0800F34
:400EC0000ED06378DBB2212B2FD11B4B07221A80C0EBC000194A1044586000F0F3FA10BD144B5B78DBB2202B02D0222B10D01EE0114A07231380C0EBC00310490B445360CB
:400F00000F4A135C43F00103135400F003FB10BD084B9B780B4A22F81030094A135C43F00203135400F08CF910BD002010BD002010BD00BF00600040E481FF1FEC80FF1F92
:400F4000C081FF1FD481FF1F10B500241F4B1C701F4B1C705C700AE01E4B185DC0B2431EDBB2072B01D8FFF767FF0134E4B2012CF2D9194B1B7813F0FF0F1AD0154B1B78C7
:400F800013F0FF0F17D0154B1B7813F0FF0F14D0114B1B78DBB2082B11D80E4B1B78DBB2082B0ED80D4B1B78DBB2082B0BD8002010BD012010BD012010BD012010BD0120C1
:400FC00010BD012010BD012010BD00BF9E81FF1FC081FF1FCC81FF1FC481FF1FC881FF1F2DE9F8438046234B1B78234AD65CF6B2FFF738FF05460027344606EB4602930074
:401000001E4A13441B899BB29D4209D906EB460293001A4A1344B3F808901FFA89F900E0A9464A4608EB07013046FFF7BBFEC9EB0505ADB245B906EB460293000F4A1344C4
:401040001B899BB2994510D14F44BFB204EB440293000A4A13445B7813F0FF0FF6D025B9002211463046FFF79DFE002DC4D1BDE8F88300BF9E81FF1FC481FF1F0082FF1F60
:4010800008B5034B1B78034AD05CFFF781FE08BD9E81FF1FC481FF1FC37803F0030390F9020000280FDA032B06D002F001030B48C15442F001020EE0C2F380030848C1544D
:4010C00042F0040207E0032B05D0C2F340030548C15442F002021046704700BFC481FF1FC881FF1FCC81FF1F1D4B19781D4A13889BB20B449BB2138000220FE01A494B689F
:401100001B78DBB2194883544B6801334B600132D2B20B889BB2013B9BB20B80124B1B889BB20BB1072AE9D90D4B1B78DBB2082B00D05AB10E490B7883F080030B700F211D
:401140000C4B197002210C4B197004E0022309490B7009490B70094B1A70014B1A707047D881FF1FDA81FF1FE481FF1F006000406E82FF1FF981FF1FDC81FF1FFC81FF1FAF
:401180000222074B1A708022064B1A700F22064B1A700023054A1370054A137001207047DC81FF1F6E82FF1FF981FF1FD881FF1FFC81FF1F08B5FFF797FF08BD10B4194B9E
:4011C000197801F00F010239C9B2174A13889BB20B449BB21380002011E0144A5468144B1B5CDBB223705368013353600130C0B20139C9B213889BB2013B9BB213800B4BBA
:401200001B889BB20BB10029E7D10A4B19700A4A137883F0800313700B22084B1A7010BC704700BF29600040DA81FF1FE481FF1F00600040FC81FF1F6E82FF1FF981FF1FF9
:401240000623064A1370064A13708022054B1A700022054B1A700120704700BFDC81FF1FF981FF1F6E82FF1FFC81FF1F064B9B6843B1054B9A6810709A6804490988518009
:4012800000229A60704700BFE481FF1FDA81FF1F08B5134B1A78D2B21A701B78DBB213F0800F02D00F4A137008BD0220FFF7DEFF0D4B1B7803F06003202B05D0402B06D029
:4012C00043B900F093FC06E000F072FE03E000F037FE00E0002010B90322024B1A7008BD28600040F981FF1F0060004008B5094B1978094A13889BB20B449BB2138000226D
:40130000064B1A700120FFF7B1FF0322044B1A7008BD00BFD881FF1FDA81FF1FDC81FF1FF981FF1F08B50B4B1B78DBB2042B06D0062B07D0022B0BD1FFF7D8FF08BDFFF7B5
:401340003DFF08BD0320FFF791FF0322024B1A7008BD00BFDC81FF1FF981FF1F08B50022044B1A700120FFF781FF0322024B1A7008BD00BFDC81FF1FF981FF1F08B50B4B3B
:401380001B7813F0FF0F07D0084A137843F0800307490B70002313700022064B1A700120FFF764FF0322044B1A7008BDFA81FF1F08600040DC81FF1FF981FF1F08B5094B0F
:4013C0001B78DBB2042B06D0062B07D0022B07D1FFF7F0FE08BDFFF7C1FF08BDFFF7CEFF08BD00BFDC81FF1F08B5284B1B78DBB213F0100F48D013F0800F0CD003F00F03D8
:40140000012B16D1FFF744FF214B1B7813F0800F11D1012312E013F0400F03D0FFF7CEFF01230BE013F0200F07D0FFF77BFF012304E0002302E0002300E0002323B3134B00
:401440001B7813F0800F1FD1124B1B78124A12781343124A13701278D2B2934214D10C4B1B78DBB2094A127812F0800F07D1084B1B78DBB2054A1370137803F00F03044AA4
:401480001278D2B29342EAD108BD00BF28600040F981FF1F6E82FF1FFC81FF1F296000400022064B1A80064B9B682BB1044A916800230B7092685380704700BFDA81FF1F5A
:4014C000E481FF1F08B50F4B1B889BB213B9FFF757FE15E002220C4B1A7000220B4B1A70FFF7DEFF0A4AD179937943EA0123054A128892B2934201D2024A1380FFF7F4FDE6
:40150000012008BDE481FF1FDC81FF1F6E82FF1F0060004008B504220B4B1A7080220B4B1A70FFF7BDFF0A4AD179937943EA0123084A128892B2934201D2064A13800B223F
:40154000054B1A70012008BDDC81FF1F6E82FF1F00600040E481FF1FF981FF1F0122094B1A700F3B9B7C084B1B7B03F00303934204D0054AD37B83F08003D3730122024B31
:401580005A7370470B6000400082FF1F02220A4B1A700F3B93F82230084B1B7E03F00303012B04D0054AD37E83F08003D3760122024B5A76704700BF0B6000400082FF1F6D
:4015C00004220C4B1A700F3B93F832300A4B93F8243003F00303012B06D0074A92F8273083F0800382F827300122034B83F82520704700BF0B6000400082FF1F704700BF1D
:4016000008B5FFF79FFB08BD08B500F0A5FC08BD70B588B0054603AC174E0FCE0FC43368237035B322232B7003236B7001A8FFF743FA002402231AE008AA224412F81C2C99
:4016400008A901EB121111F8141CE954581C00212954981C02F00F0208AE324412F8142C2A54DA1CA9540134E4B20433DBB2212BE2D908B070BD00BF2429000010B4012315
:401680003EE019461A010C242148845403EB4300820020480244527912F0FF0F13D003EB430082001B480244127912F0800F04D01801194A024494700AE01801164A024447
:4016C0000820907004E01801134A0244802090704800084482000F480244D488E4B208010B4901448C71D088C0F30720C871D088C0B20871D288C2F307224A710133DBB2DC
:40170000082BBED9FF22054B1A7010BC704700BF706000400082FF1FFC5F00400A600040074B1A78074B03EBC2035B681A7C824204D9C00010301844406870470020704738
:40174000D981FF1F38290000F8B5404B1B7813F0FF0F79D03D4B18780138C0B2FFF7E0FF047AC2683A4B1878C0B200236AE01178884264D13749095CC9B25578A9425ED168
:40178000917801F07F01D67806F00306DFF8C8E04D000D44AF000EEB07054FF0000C85F803C092F802C085F804C092F803C00EF807C097882F8192F90250002D0DDA012E70
:4017C00001D1072700E00D274E000E44B500224E35446F7101266E700CE0012E01D1052700E009274E000E44B5001B4E35446F7100266E70DFF868E00F010EEB0706012513
:40180000B57001FA05F529448D00134929440D89C5F307250EF807500D89EDB27570CE88F6B20E4D3D44AE71CE88C6F30726EE71CE88F6B22E71C988C1F307216971083268
:401840000133DBB2A34292D3F8BD00BFFB81FF1FF081FF1F6C82FF1F0082FF1F70600040FC5F0040034B1A78034B03EBC2035868704700BFD981FF1F3829000008B5084B69
:4018800018780138C0B2FFF74BFF30B142681279023200EBC203586808BD002008BD00BFFB81FF1F2DE9F047002310E0724D5900CA189600AC190022AA55A270E270228113
:4018C000A272627034462C4462710133DBB2082BECD940B90AE000226849CA546849CA540133DBB200E00023012BF4D9654B1B7813F0FF0F00F0BD80624B18780138C0B2C3
:40190000FFF70EFF80464368DB7913F0400F05D05D4A137843F00103137004E05A4A137803F0FE03137098F808704FF0000A01266FE0D8F80C50002467E0AB7803F07F034C
:401940009E425FD1314606EB460083004A4803441B899BB2A888834206D206EB460E4FEA8E03454A134418812B784448C35CDBB26878834246D195F802C0DFF8FCE04B001D
:401980000B4498000EEB000383F804C0EB780EF80030EB7803F0030395F90200002813DA012B02D14FF0070901E04FF00D09DFF8C8E04B0003EB010C4FEA8C00704480F831
:4019C00005900121417012E0012B02D14FF0050901E04FF00909DFF8A0E04B0003EB010C4FEA8C00704480F8059000214170AB790A2B01D0022B05D1524631462846FFF77A
:401A00004BFB824608350134E4B2BC4295D30136F6B2082E8DD9D8F80C0000220CE0837803F07F0310F8084B03EB43039900124B19448C720132D2B2BA42F0D3FFF71EFFEC
:401A4000124B1860002301210FE00B4D4A00501884002C44E380228992B213449BB203F0010213449BB20131C9B20829EDD9FFF705FEBDE8F08700BF0082FF1F6C82FF1FAB
:401A8000E081FF1FFB81FF1FFD81FF1FF481FF1F08B5154B1B7903F07F035A1ED2B2072A20D8590019448A0010490A44917841F0010191700021D170517841F0020151704F
:401AC000127912F0800F05D01B01094A1A448D23937004E01B01064A1A4489239370FFF7AFFB08BD002008BD006000400082FF1FFC5F0040274B1B7903F07F035A1ED2B27C
:401B0000072A44D810B5590019448A0022490A44917801F0FE0191700021D1701F4C1801215C01F07F012154517801F0FD015170127912F0800F13D003EB43018A001649C4
:401B40000A445278D2B2012A04D1224602440C23937019E01B01114A1A440D23937013E003EB43018A000C490A445278D2B2012A05D11B01094A1A440823937004E01B014C
:401B8000064A1A4409239370FFF75AFB10BD0020704700BF006000400082FF1FFC5F004010B50E4B1C79E4B20D4B18780138C0B2FFF7B6FD43681B799C4201D9022C0AD833
:401BC000084A135DDBB208490B55044B9B78DBB21355012010BD002010BD00BF00600040FB81FF1F6C82FF1FE081FF1F10B59C4B1B78DBB200219B4A118013F0800F00F04A
:401C0000AD80974A5278D2B20A2A00F27481DFE812F06900720172017201720172010B007201920072019A008D4BDB78DBB2012B09D1FFF717FE42688A4B5A6012221A80CF
:401C4000FFF740FC10BD864BDB78DBB2022B13D1834B9878FFF764FD002800F04E814268804B5A605A68D1785A68927842EA01221A80FFF727FC10BD794BDB78DBB2032BE0
:401C800005D02CE00A7811440133DBB201E000237549734A9278D2B2934203D20A7812F0FF0FEFD16E4B9B7813F0FF0F0BD06C4B9B78DBB26D4A127C934204D16C4C204686
:401CC000FFF7A6FC21460B7813F0FF0F00F017810B78644A13805160FFF7F4FB10BD00F067F910BD13F0030317D0022B40F009815C490B805A4B1B7903F07F0303EB43039C
:401D00009A005C4B1A449278D2B25B4B1A7000225A704B60FFF7D6FB10BD524902230B80564B1A78D2B2544B1A7000225A704B60FFF7C8FB10BD4B4B01221A80504A5A602C
:401D4000FFF7C0FB10BD474A01231380444B1B794C490B445360FFF7B5FB10BD404A5278013A0A2A00F2CF80DFE812F04C00CD009800CD000B00CD00CD00CD001300CD00D3
:401D80003000374B9B78DBB23F4A1370FFF758FA10BD334B9B7803F0FF041BB1601EC0B2FFF7BEFC04B110B9002C40F0AE80344B1B78DBB29C4206D0314B1C700120334BBB
:401DC0001870FFF76FFDFFF73BFA10BDFFF7E8FE002800F09C80224A1379DBB21279D2B22B490A702B4AD25CD2B22649CB5CDBB29A4204D00122254B1A70FFF7A5FCFFF7CB
:401E00001FFA10BD03F00303012B17D04BB1022B7FD1134B9B7813F0FF0F7CD1FFF76AFE10BD0F4B9B78DBB2012B76D1134A137803F0FD031370FFF703FA10BD084B1B79CB
:401E4000DBB2012B6BD8064B98781B79DBB21249CA5C22EA0002CA54FFF7F2F910BD00BF00600040E481FF1FA0290000842A00007482FF1F0082FF1FA081FF1FFD81FF1FA1
:401E8000FB81FF1F6C82FF1FFA81FF1FF881FF1FF081FF1FE081FF1F7082FF1F03F00303012B17D04BB1022B3BD1224B9B7813F0FF0F38D1FFF7ECFD10BD1E4B9B78DBB29E
:401EC000012B32D11C4A137843F002031370FFF7B7F910BD174B1B79DBB2012B27D8154B98781B79DBB21549CA5C22EA0002CA54FFF7A6F910BD002010BD002010BD002049
:401F000010BD002010BD002010BD002010BD002010BD002010BD002010BD002010BD002010BD002010BD002010BD002010BD002010BD00BF00600040FD81FF1F7082FF1FAD
:401F4000044B1B7813F0800F01D0024B5B780020704700BF00600040024B1878C0F38010704700BF8F450040044A137803F0FD03400000F0020018431070704720510040DB
:401F8000024B1878C0F34000704700BF215100400230800803D000BF01380046FCD17047EFF3108072B6704780F31088704700BF08B5144B1B7803F00303012B02D0022B35
:401FC00004D00FE00F4B1B79DBB20CE00D4B1B7903F07F0303EB43039A000B4B1A44937ADBB200E00023022B07D8084A1268D35C022B04D1FEF75CFF08BD002008BD002014
:4020000008BD00BF006000400082FF1FF481FF1F014B1868704700BF6881FF1F0E4B70B51E460E4C0025E41AA410A54204D056F8253098470135F8E700F048FD084B094CBE
:402040001E46E41AA4100025A54204D056F8253098470135F8E770BDD82A0000D82A0000D82A0000E02A000010B5431E0A44914204D011F8014B03F8014FF8E710BD0346E6
:402080000244934202D003F8011BFAE7704700000EB400B54FF402719CB0ADF814106FF00041049107914FF6FF711DAB02900690084853F8042BADF81610006802A9019394
:4020C00000F064F8029B00221A701CB05DF804EB03B070476881FF1F2DE9F0478E6882469E420C46914698463ED88A8912F4906F3AD02568096902236F1A656905EB4505EB
:4021000095FBF3F57B1C43449D4238BF1D4653050FD5294600F040FB064698B13A462169FFF7A2FFA38923F4906343F08003A38113E02A4600F08EFB064670B92169504643
:4021400000F0DEFA0C23CAF80030A3894FF0FF3043F04003A381BDE8F08726613E44266046466561ED1BA560464528BF464649463246206800F0A8FAA36800209B1BA36035
:4021800023681E442660BDE8F08700002DE9F04F9DB003938B8980461C060D4616460DD50B695BB9402100F0F7FA2860286118B90C23C8F80030CDE040236B610023099365
:4021C00020238DF82930DFF89CB130238DF82A3037463C4614F8013B1BB9B7EB060910D003E0252BF9D02746F3E74B46324629464046FFF771FF013000F0A780099B4B449A
:4022000009933B78002B00F0A08000234FF0FF3204930793059206938DF853301A930126052221784E4800F041FA671C049B38B14B4A3C46801A06FA00F018430490EFE752
:40224000D90644BF20228DF853201A0744BF2B228DF8532022782A2A03D0079A00210A200BE0039A111D12680391002A10DA524243F00200079204900BE027463B7801341E
:40228000303B092B03D800FB02320121F5E701B107923B782E2B1ED17B782A2B0AD1039B02371A1D1B680392002BB8BF4FF0FF33059310E0002319460593781C0A24074624
:4022C0003A780130303A092A03D804FB01210123F5E703B1059103223978224800F0E6F940B14023CBEB000003FA00F0049B013718430490397806221B487E1C8DF82810B9
:4023000000F0D4F988B1194B33B9039B073323F007030833039314E003AB00932A46144B04A94046AFF3008007E003AB00932A460F4B04A9404600F093F8B0F1FF3F8246F1
:4023400003D0099B5344099342E7AB895B0601D4099801E04FF0FF301DB0BDE8F08F00BF982A00009E2A0000A22A000000000000D92000002DE9F04791461F460A698B6842
:4023800006469342B8BF1346C9F8003091F843200C46DDF8208012B10133C9F800302368990642BFD9F800300233C9F80030256815F0060510D104F1190A07E00123524615
:4023C00039463046C04701301AD00135E368D9F800209B1A9D42F1DB94F843302268003318BF012392060FD5E118302081F843005A1C94F845102244023382F8431003E01A
:402400004FF0FF30BDE8F08704F1430239463046C0470130F4D02268D9F80050E36802F00602042A08BF5D1B2269A3680CBF25EAE57500259342C4BF9B1AED184FF0000941
:402440001A344D4509D00123224639463046C0470130D5D009F10109F3E70020BDE8F0872DE9F04317460A7E85B06E2A984606460C460C9B01F1430E00F0AE8011D8632A36
:4024800022D009D8002A00F0BB80582A40F0CA8081F84520834955E0642A1ED0692A1CD0C0E0732A00F0B08009D86F2A2ED0702A40F0B8800A6842F020020A603EE0752A5A
:4024C00024D0782A3AD0ADE01A6801F14205111D1960136884F84230A8E021681A6811F0800F02D0111D196008E011F0400F02F10401196002D0B2F9003000E01368002B6C
:402500003CDA2D225B4284F8432037E021681A6811F0800F02D0111D196007E011F0400F02F10401196001D0138800E01368227E5C496F2A14BF0A2208221BE078225A49E1
:4025400084F845202268186812F0800F00F104051D6003D1550601D5038800E00368D00744BF42F0200222601BB9226822F0200222601022002084F8430001E049490A2219
:402580006568002DA56008DB206820F0040020602BB9002D7DD175460CE0002B79D07546B3FBF2F002FB1033CB5C05F8013D03460028F5D1082A0BD12368DA0708D523699C
:4025C00062689A42DEBF302305F8013C05F1FF35C5EB0E0323612EE008681A6810F0800F496903D0101D1860136808E010F0400F02F104001860136801D0198000E0196084
:4026000000232361754616E01A68111D1960156800216268284600F049F808B1401B6060636804E004F1420584F8422001232361002384F84330CDF800803B4603AA2146E1
:402640003046FFF797FE013002D14FF0FF3026E023692A4639463046C0470130F5D023689B0710D5002504F1190907E001234A4639463046C0470130E7D00135E368039A08
:402680009B1A9D42F2DBE068039B9842B8BF184605E00B7804F1420584F842308AE705B0BDE8F083A92A0000BA2A000010B5C9B202449042034605D01C7801308C42F8D1CB
:4026C000184610BD002010BD884210B501EB020301D8421E0BE09842FBD28118D21AD34204D013F8014D01F8014DF8E710BD994204D011F8014B02F8014FF8E710BD0000C3
:4027000038B50546002944D051F8043C0C1F002BB8BFE41800F0D4F81E4A1368114613B96360146030E0A3420DD92268A018834201BF18685B681218226063600C6023E016
:40274000A24203D813465A68002AF9D118681918A1420BD12168014458188242196013D110685268014419605A600DE002D90C232B6009E021686018824201BF10685268F0
:402780000918216062605C602846BDE8384000F098B838BDA881FF1F70B5CD1C25F0030508350C2D38BF0C25002D064601DBA94202D90C23336046E000F082F8234B1C68CA
:4027C0001A462146A1B10B685B1B0ED40B2B03D90B60CC18CD501EE08C420BBF63684B681360636018BF0C4615E00C464968E9E7174C23681BB9304600F052F820602946DB
:40280000304600F04DF8431C18D0C41C24F00304A0420DD12560304600F053F804F10B00231D20F00700C31A0ED05A42E25070BD211A304600F034F80130EBD10C2333602C
:40284000304600F03EF8002070BD00BFA881FF1FA481FF1FF8B5074615460E4621B91146BDE8F840FFF798BF1AB9FFF749FF2846F8BD00F027F885420ED929463846FFF74E
:402880008BFF044650B131462A46FFF7EDFB31463846FFF735FF01E03046F8BD2046F8BD38B5064C0023054608462360FDF7B0FD431C02D1236803B12B6038BD9882FF1FF0
:4028C0007047704751F8040C0028BEBF091851F8043CC0180438704700000000613A202534642C20623A202534642C20633A202534640A0D00000000305100404000C051CB
:402900000040100000000140001000140140000800400140000A004C01400002005001402000000030313233343536373839414243444546000000000100000040290000C2
:4029400001000000842A00000000000000000000010000005829000001000000402A0000030000008429000000000000000000000000000000000000000000008029000062
:40298000020A000000008103080002000100820240000A000100030240000A0002030000040309042C0343007900700072006500730073002000530065006D00690063001C
:4029C0006F006E0064007500630074006F007200100355005300420055004100520054003803430044004300200043006F006D006D0075006E006900630061007400690092
:402A00006F006E00200049006E007400650072006600610063006500260343004400430020004400610074006100200049006E0074006500720066006100630065000000CA
:402A4000090243000201018032090400000102020103052400100104240202052406000105240100010705810308000A09040100020A0000040705820240000007050302DA
:402A8000400000001201000202000008B40432F20100010280014300232D302B2000686C4C0065666745464700303132333435363738394142434445460030313233343553
:402AC000363738396162636465660000F8B500BFF8BC08BC9E4670474D0000008D040000F8B500BFF8BC08BC9E46704729000000002B0000C880FF1FA80000003001000034
:402B000000000000A082FF1FFFFFFFFF7F800000030000000000C05D80BB000030000000006CDC0200C2010000000800C201000000080000A120000000000200000000002C
:402B40000000000000000000000000000000000000000000000000000000000000000000962A00000000000000000000000000000000000000000000000000000000000095
:402B800000000000000000000000000000000000000000000000000000000000000000000881FF1F000000000000000000000000000000000000000000000000000000006E
:402BC00000000000000000000000000000000000000000000000000000000000000000000000000000000000000000000000000000000000000000000000000000000000D5
:402C00000000000000000000000000000000000000000000000000000000000000000000000000000000000000000000000000000000000000000000000000000000000094
:402C40000000000000000000000000000000000000000000000000000000000000000000000000000000000000000000000000000000000000000000000000000000000054
:402C80000000000000000000000000000000000000000000000000000000000000000000000000000000000000000000000000000000000000000000000000000000000014
:020000040003F7
:0200000480007A
:400000000145004003520040015B00400164004002010140020301400E0401402A0501403A06014041070140010B0140010D0140010F0140171401402615014012160140CF
:400040003F17014002190140011B01400E4001400B41014007420140084301400144014002450140084601400A4701400548014003490140044C0140024D014006500140FC
:40008000025101407E020033010F7C40278486028340E2049B40E201580459045F018A028F029E01A701B202B302B401B701D804D904DF01001003110404070409080A0451
:4000C0000D080E050F101308162017111C101D041E041F1825082604270129042D042E202F08311833113510370938043B203C803E043F1098049B40AC04C067C2E6C47414
:40010000CA62CCE7CE76EA0800400280042006100708088009230A400B400C080D040E04131014011704180219631D421E021F2121082201241026202702280429202A08E1
:400140002B012D0130FF3303351C376039203E013F10560257355804590C5B0C5F01860192029901A703A801B203B301B502D608D804D90CDB04DC09DD90DF01010804029E
:4001800005140610070108020D180E051208171619081D0120202120220824142680270829082C242E813120350136943C903E045B405E20600266206C016D046E016F1428
:4001C0007440768077027B027F028410872092049404950496019704980499049B419D109F0CA108A204A440B304C0F4C2E8C472CAF2CCF4CE70D628D828DE18EE20EA0811
:40020000E201E204070309031103150319021B012501270233013502580459045F018701910195019901A501A901B301D804D904DF010108021003010610070109280D281F
:400240001114153420102304272029082D183128330535103705380439243C048C1090049120970499109A109B019F20A128C0A5C266C466CA62CCE7CE46E210E810020187
:40028000090121013401350139203F1052075306580459045B045F01D401D804D904DB0CDF01011002100301040205800610070109280C080D281308153017081D3027043F
:4002C00029042A082C082D822E083118330135103708380439203D203E04462047045A406C206D206E206F027B02900691209244970499069A109B099D109E209F20A108F9
:40030000A420A610A702A810A902AA48C0B7C266C464CAF2CC67CE66D608DE08EC01EE06EC01EE06E8101302168030823640370439083E8080028302C430CCF0CE60E220E9
:40034000E4805A805F806680830495089F04A480A640D480D6A0E28096809E809F80A480A640AD04EA108480878096809F80A480A640B280E2508240811096401B02260457
:400380009640A510A702AF02C608C80109100B400E40401044029640A204A510C20ED00624089680AE40C820EE408E409680B4049C02A810AA04AF40B402E8080001010124
:4003C0000A010B0110011A0100AB100A00000000003F3F004000000000000000C0000000000B0B00000000000002020000000000000100000000000000000000000000005C
:4004000000000000000000000000000000000000000000000000000000000000000000000000000000000000000000000000000000000000000000000000000000000000BC
:40044000000000000000000000000000000000000000000000000000000000000000000000000000000000000000000000000000000000000000000000000000000000007C
:40048000000000000000000000000000000000000000000000000000000000000000000000000000000000000000000000000000000000000000000000000000000000003C
:4004C00000000000000000000000000000000000000000000000000000000000000000000000000000000000000000000000000000000000000000000000000000000000FC
:0200000490006A
:0400000000004005B7
:0200000490105A
:04000000BC90ACAF55
:0200000490303A
:02000000D7091E
:0200000490402A
:4000000000000000000000000000000000000000000000000000000000000000000000000000000000000000000000000000000000000000000000000000000000000000C0
:400040000000000000000000000000000000000000000000000000000000000000000000000000000000000000000000000000000000000000000000000000000000000080
:400080000000000000000000000000000000000000000000000000000000000000000000000000000000000000000000000000000000000000000000000000000000000040
:4000C0000000000000000000000000000000000000000000000000000000000000000000000000000000000000000000000000000000000000000000000000000000000000
:0200000490501A
:0C00000000012E16106900012E26E77288
:00000001FF