:400000000080002011000000C1060000C106000008B5044B1A6803F53F5302331A6000F057FB00BFFA46004010B5054C237833B9044B13B10448AFF300800123237010BD97
:400040004081FF1F00000000C01B0000084B10B51BB108490848AFF300800848036803B910BD074B002BFBD0BDE81040184700BF000000004481FF1FC01B0000C880FF1F5C
:40008000000000000000000008B500F069FF0EA3D3E9002300F0B8FF0DA3D3E9002300F001FE0DA3D3E9002301F0D8F80CA3D3E9002300F0A9FF01F0B9F9C0B200F0C2FB3E
:4000C00008BD00BFAFF3008062105839B4C8084077BE9F1A2FDDEC3FFCA9F1D24D6210400000000000E06F4008B5064901F01CFB054901F011FA01F003FD80B200F01CFDEE
:4001000008BD00BF00409C4500007A4410B50446002101F0A7FC18B1012000F075FD02E0002000F071FD204601F0C4FC0028B8BF404200EB801300EB430000EB800080B26B
:4001400000F000FD10BD00BF08B562B600F0B2FB00F04CFD00F04AF8322000F015FB00F0C9FC322000F010FB022000F055F901F087FAFFF7CBFF052000F04EF9002828DABD
:4001800000F068F928BB032000F046F910F1040F11DB0020FFF7A8FF012000F03DF9643001F06EFA0E4901F073FBFFF76DFF322000F0EAFAD5E70020FFF766FF032000F040
:4001C0002BF901F05DFA074901F062FBFFF78CFFC7E70020FFF758FF0348FFF785FFC0E7000048430000C8C23333333F10B500240D4B1C700D4800F047FC234605E000213C
:400200000B4A42F823100133DBB2112BF7D90023084A1360084A1360084A1360084A136000F08CFB10BD00BF5C81FF1FBD0300009081FF1F8481FF1FD881FF1F8C81FF1F46
:400240008881FF1F574B1B7F23B1574A136801331360704730B4554A136801331360514B59799D7941EA0521C1F30A01504A1160DC79600140EAD500C0F30A005060197AD4
:40028000890041EA9411587A41EA8021C1F30A0191609D7AE90141EA5001C1F30A01D160DC7A200140EA1510C0F30A001061197B490041EAD4115D7B41EA4521C1F30A0121
:4002C00051619C7BA00140EA9500C0F30A009061D97BC90041EA5411D161197C5D7C41EA0521C1F30A0111629C7C600140EAD500C0F30A005062D97C890041EA9411187D2D
:4003000041EA8021C1F30A0191625D7DE90141EA5001C1F30A01D1629C7D200140EA1510C0F30A001063D97D490041EAD4111D7E41EA4521C1F30A0151635C7EA00140EA61
:400340009500C0F30A009063997EC90041EA5411D163DB7E13F0010F03D040F2FF71116402E00021124A116413F0020F04D040F2FF710F4A516402E000210D4A516413F0C0
:40038000080F03D001210B4A116002E00021094A116013F0040F03D0074A13680133136030BC70475C81FF1F8C81FF1F8481FF1F9081FF1F8881FF1FD881FF1F38B500F0B2
:4003C00037FC044600F0C8FA104B1B7833B90F2804D00F4A13680133136038BD0B4DEA1810715A1C0B4B83FB0231D317C3EBE10303EB830303EB8303D31ADBB22B700BB9E4
:40040000FFF720FF204600F017FC38BD5C81FF1F8C81FF1F1F85EB5108B5431E112B11D818460B4B53F82000AC3800F087FD06A3D3E9002300F012FF01F018F800F000FC13
:40044000643808BD002008BDA4703D0AD76320409081FF1F014B1868704700BF8881FF1FFEE700BFF0B40022174611E050F82760F3B226F0FF0608E001EB420511F81240EC
:400480006D78A5550132013BDBB2002BF4D10137132FEBD9F0BC70470A4B1B78DBB203F00701094A11701B09013213701022074B1A7040F20112AE331A804422A3F534733F
:4004C0001A707047CF0100496E580040985A004008B50A46002101F06AFB08BD38B50F22264B1A801823264A13703B2102321180023213700622234B1A705222A3F58073D3
:400500001A70214B1B78DBB2204A13704FF4E2621F4B1A8041F25122023B1A80002419250CE01C4B1B7803F0010343EA440404F003044FF4F07000F073FB013D0DB1032CD5
:40054000EFD115B90320FFF78BFF134A4FF48073138007231370002310490B7048200231087013700532137002220D4B1A700D4A137843F00303137038BD00BF80400040D8
:4005800082400040004300400F010049A14600402242004025420040044000400640004001400040A243004008B501F0F5FA08BD38B572B6334A137843F0040313700024DB
:4005C0000CE0314D630019194A0011462A44084691882858FFF77CFF0134E4B2092CF0D900240BE02849A3001819420088188022016CC06BFFF7D8FF0134E4B2002CF1D0D7
:4006000022494FF09040FFF72DFF214A137843F0020313701032137843F0020313701D4C237843F040032370A2F58632513A137843F010031370082217491848FFF7B4FF17
:40064000082217491748FFF7AFFF082216491748FFF7AAFF164A137843F008031370154D61232B70FFF73AFFC1232B700122124B1A70FFF711FF0E2221461048FFF794FF03
:4006800038BD00BFE8460040C41B00005000004803500140A043004064030048125100406C030048225100407403004832510040224300400048004004000840B043004000
:4006C00008B501F03DFA03680C2B00D1FEE7FEE708B5104E104D16E029686B68AC68002204E051F8040B43F8040B0432A242F8D1E868002203E0002143F8041B043282429D
:40070000F9D11035013E002EE6D101F01FFAFFF71BFDFEE701000000301C000008B5104A104B1A60104A136843F40073136000230AE0032B03D80D4A52F8231000E00C493F
:400740000C4A42F8231001332F2BF2D90A4B1A780A4B1A70074A0A4B1A60FFF729FF08BD0004FA050CED00E014ED00E000000000C10600000080FF1FBC760040C080FF1FA2
:4007800008ED00E001BE704710B5044605E0084B186800F045FAA4F50044B4F5004FF6D8034B586800FB04F000F03AFA10BD00BFCC80FF1F70B504460E46074B1D681F285D
:4007C00002D90020FFF7DEFF04F01F04103455F8240045F8246070BD08ED00E038B504460D46072902D90020FFF7CCFF1F2C02D90020FFF7C7FF04F01F0000F1604000F58B
:4008000064406D01EDB2057038BD00BF054A137843F0080313701032137843F008031370704700BFA8430040054B1A7802F0FD021A701A7800F0020010431870704700BFE2
:400840002C580040014B1870704700BF835B0040064B1B78C3F3810303F19243063393F83831DBB2024A1370704700BF2C5800400B46004008B5064B1A7802F0F3021A7000
:400880001A7800F00C0010431870FFF7E1FF08BD2C58004010B50024054B1C7001331C700420FFF7E7FF2046FFF7BEFF10BD00BF2C58004008B5074B1B7823B9FFF7EAFF25
:4008C0000122044B1A70FFF7A1FF3820FFF7BAFF08BD00BF7981FF1F08B509490120FFF769FF07210120FFF779FF0022054B1A707222054B1A702022A3F580731A7008BDF8
:40090000BD0900007A81FF1F8965004008B500F08FF9084A137843F020031370A2F58072137843F0100313700222034B1A6000F083F908BD9965004000E100E008B5054BB9
:400940005B7823B9FFF7C8FF0122024B5A70FFF7DDFF08BD7A81FF1F0222134B1A60134A9378DBB2D178C9B2127912F0FF0F01D18B4211D00E4AD05CC0B20133DBB2182B57
:4009800000D90023094A9370137913F0FF0F06D00022064B1A7102E0064B1878C0B20222054B1A60704700BF80E100E07A81FF1FDC81FF1F4965004000E100E01D4B1B785C
:4009C000DBB213F01E0F05D01B4803F01E0201780A43027003F0200303F0FF0233B3174B1978C9B2164B1B78DBB21648C154164B1B7813F0FF0F02D00121144B197010492B
:400A00000B780133DBB20B700B78DBB2182B02D900210B4B19700A4B1978C9B20C4B1B78DBB2994202D10121074B1970002AC5D1704700BF696400407A81FF1F49650040FC
:400A40007D81FF1FDC81FF1F7E81FF1F7F81FF1F7C81FF1F014B1B681864704708ED00E04001C0B2014B1870704700BF00E400E00122014B1A60704700E100E00122014B21
:400A80001A60704780E100E010B50446FFF7F6FF2046FFF7DFFF0720FFF7E2FFFFF7E8FF10BD00BF084A137843F060031370A2F5A652133A137843F008031370103213783E
:400AC00043F008031370704777580040054B1A7802F0FC021A701A7800F0030010431870704700BF5E58004008B50320FFF7EEFF08BD00BF08B5054B1B7823B90122034B13
:400B00001A70FFF7F1FFFFF7CDFF08BD8081FF1F024A137843F08003137070477D640040014B1880704700BF18680040014B1880704700BF98680040014B1880704700BFA9
:400B400058680040014B1880704700BF78680040014B1870704700BF8D640040014B1878704700BF6D640040014B188880B27047B868004008B501E0FFF7F6FFFFF7EEFF7C
:400B800010F0100FF8D108BD10B5164A137803F0C00343F0090313701F32137843F001031370114C237843F0010323704EF66020FFF7B6FF4EF66020FFF7B8FF0020FFF712
:400BC000BBFF0020FFF7BEFF0020FFF7C1FF00F02FF8237843F01003237000F02DF8FFF7C9FF10BD7D6400409D64004008B5054B1B7823B9FFF7C8FF0122024B1A70FFF7DC
:400C000087FF08BD8181FF1F044A137803F0F703C00000F00800184310707047205100400230800803D000BF01380046FCD17047EFF3108072B6704780F31088704700BF67
:400C400010B5C0F3C7540028A4F17F02B4BF4FF0FF3101211E2A0CDC002A17DBC0F31603162A43F4000307DD963CA34001FB03F010BD00F01FFF10BD4FF480001041034482
:400C8000C2F11702D34001FB03F010BD01320CBF0846002010BD00BF81F0004102E000BF83F0004330B54FEA41044FEA430594EA050F08BF90EA020F1FBF54EA000C55EA69
:400CC000020C7FEA645C7FEA655C00F0E2804FEA5454D4EB5555B8BF6D420CDD2C4480EA020281EA030382EA000083EA010180EA020281EA0303362D88BF30BD11F0004FF8
:400D00004FEA01314FF4801C4CEA113102D0404261EB410113F0004F4FEA03334CEA133302D0524263EB430394EA050F00F0A780A4F10104D5F1200E0DDB02FA0EFC22FA97
:400D400005F2801841F1000103FA0EF2801843FA05F359410EE0A5F120050EF1200E012A03FA0EFC28BF4CF0020C43FA05F3C01851EBE37101F0004507D54FF0000EDCF14B
:400D8000000C7EEB00006EEB0101B1F5801F1BD3B1F5001F0CD349085FEA30004FEA3C0C04F101044FEA445212F5800F80F09A80BCF1004F08BF5FEA500C50F1000041EB83
:400DC000045141EA050130BD5FEA4C0C404141EB010111F4801FA4F10104E9D191F0000F04BF01460020B1FA81F308BF2033A3F10B03B3F120020CDA0C3208DD02F1140CC1
:400E0000C2F10C0201FA0CF021FA02F10CE002F11402D8BFC2F1200C01FA02F120FA0CFCDCBF41EA0C019040E41AA2BF01EB0451294330BD6FEA04041F3C1CDA0C340EDCF9
:400E400004F11404C4F1200220FA04F001FA02F340EA030021FA04F345EA030130BDC4F10C04C4F1200220FA02F001FA04F340EA0300294630BD21FA04F0294630BD94F01F
:400E8000000F83F4801306BF81F480110134013D4EE77FEA645C18BF7FEA655C29D094EA050F08BF90EA020F05D054EA000C04BF1946104630BD91EA030F1EBF0021002070
:400EC00030BD5FEA545C05D14000494128BF41F0004130BD14F580043CBF01F5801130BD01F0004545F0FE4141F470014FF0000030BD7FEA645C1ABF194610467FEA655CCD
:400F00001CBF0B46024650EA013406BF52EA033591EA030F41F4002130BD00BF90F0000F04BF0021704730B54FF4806404F132044FF000054FF0000150E700BF90F0000F9C
:400F400004BF0021704730B54FF4806404F1320410F0004548BF40424FF000013EE700BF42004FEAE2014FEA31014FEA02701FBF12F07F4393F07F4F81F06051704792F0EB
:400F8000000F14BF93F07F4F704730B54FF4607401F0004521F0004120E700BF50EA010208BF704730B54FF000050AE050EA010208BF704730B511F0004502D5404261EBA4
:400FC00041014FF4806404F132045FEA915C3FF4DCAE4FF003025FEADC0C18BF03325FEADC0C18BF033202EBDC02C2F1200300FA03FC20FA02F001FA03FE40EA0E0021FAB7
:4010000002F11444C1E600BF70B54FF0FF0C4CF4E06C1CEA11541DBF1CEA135594EA0C0F95EA0C0F00F0DEF82C4481EA030621EA4C5123EA4C5350EA013518BF52EA033563
:4010400041F4801143F4801338D0A0FB02CE4FF00005E1FB02E506F00042E0FB03E54FF00006E1FB03569CF0000F18BF4EF0010EA4F1FF04B6F5007F64F5407404D25FEA44
:401080004E0E6D4146EB060642EAC62141EA55514FEAC52040EA5E504FEACE2EB4F1FD0C88BFBCF5E06F1ED8BEF1004F08BF5FEA500E50F1000041EB045170BD06F0004658
:4010C00046EA010140EA020081EA0301B4EB5C04C2BFD4EB0C0541EA045170BD41F480114FF0000E013C00F3AB8014F1360FDEBF002001F0004170BDC4F10004203C35DA2E
:401100000C341BDC04F11404C4F1200500FA05F320FA04F001FA05F240EA020001F0004221F0004110EBD37021FA04F642EB06015EEA430E08BF20EAD37070BDC4F10C04C8
:40114000C4F1200500FA04F320FA05F001FA04F240EA020001F0004110EBD37041F100015EEA430E08BF20EAD37070BDC4F1200500FA05F24EEA020E20FA04F301FA05F2E5
:4011800043EA020321FA04F001F0004121FA04F220EA020000EBD3705EEA430E08BF20EAD37070BD94F0000F0FD101F00046400041EB010111F4801F08BF013CF7D041EAE5
:4011C000060195F0000F18BF704703F00046520043EB030313F4801F08BF013DF7D043EA0603704794EA0C0F0CEA135518BF95EA0C0F0CD050EA410618BF52EA4306D1D1E5
:4012000081EA030101F000414FF0000070BD50EA410606BF1046194652EA430619D094EA0C0F02D150EA013613D195EA0C0F05D152EA03361CBF104619460AD181EA0301B8
:4012400001F0004141F0FE4141F470014FF0000070BD41F0FE4141F4780170BD70B54FF0FF0C4CF4E06C1CEA11541DBF1CEA135594EA0C0F95EA0C0F00F0A7F8A4EB050465
:4012800081EA030E52EA03354FEA013100F088804FEA03334FF0805545EA131343EA12634FEA022245EA111545EA10654FEA00260EF000419D4208BF964244F1FD0404F5C0
:4012C000407402D25B084FEA3202B61A65EB03055B084FEA32024FF480104FF4002CB6EB020E75EB030E22BFB61A754640EA0C005B084FEA3202B6EB020E75EB030E22BFC5
:40130000B61A754640EA5C005B084FEA3202B6EB020E75EB030E22BFB61A754640EA9C005B084FEA3202B6EB020E75EB030E22BFB61A754640EADC0055EA060E18D04FEAA0
:40134000051545EA16754FEA06164FEAC30343EA52734FEAC2025FEA1C1CC0D111F4801F0BD141EA00014FF000004FF0004CB6E711F4801F04BF01430020B4F1FD0C88BF71
:40138000BCF5E06F3FF6AFAEB5EB030C04BFB6EB020C5FEA500C50F1000041EB045170BD0EF0004E4EEA113114EB5C04C2BFD4EB0C0541EA045170BD41F480114FF0000EB0
:4013C000013C90E645EA060E8DE60CEA135594EA0C0F08BF95EA0C0F3FF43BAF94EA0C0F0AD150EA01347FF434AF95EA0C0F7FF425AF104619462CE795EA0C0F06D152EA80
:4014000003353FF4FDAE1046194622E750EA410618BF52EA43067FF4C5AE50EA41047FF40DAF52EA43057FF4EBAE12E74A0011D212F5001211D20DD56FF47873B3EB625233
:401440000ED44FEAC12343F0004343EA505323FA02F070474FF00000704750EA013002D14FF0FF3070474FF0000070474FEA4102B2F1E04324BFB3F5001CDCF1FE5C0DD91C
:4014800001F0004C4FEAC0024CEA5070B2F1004F40EB830008BF20F00100704711F0804F21D113F13872BCBF01F00040704741F480114FEA5252C2F11802C2F1200C10FAA3
:4014C0000CF320FA02F018BF40F001004FEAC1234FEAD32303FA0CFC40EA0C0023FA02F34FEA4303CCE77FEA625307D150EA01331EBF4FF0FE4040F44000704701F00040F4
:4015000040F0FE4040F40000704700BF80F0004002E000BF81F0004142001FBF5FEA410392EA030F7FEA226C7FEA236C6AD04FEA1262D2EB1363C1BFD21841404840414058
:40154000B8BF5B42192B88BF704710F0004F40F4000020F07F4018BF404211F0004F41F4000121F07F4118BF494292EA030F3FD0A2F1010241FA03FC10EB0C00C3F1200366
:4015800001FA03F100F0004302D5494260EB4000B0F5000F13D3B0F1807F06D340084FEA310102F10102FE2A51D2B1F1004F40EBC25008BF20F0010040EA030070474900E2
:4015C00040EB000010F4000FA2F10102EDD1B0FA80FCACF1080CB2EB0C0200FA0CF0AABF00EBC25052421843BCBFD0401843704792F0000F81F4000106BF80F4000001327C
:40160000013BB5E74FEA41037FEA226C18BF7FEA236C21D092EA030F04D092F0000F08BF0846704790EA010F1CBF0020704712F07F4F04D1400028BF40F00040704712F1AD
:4016400000723CBF00F50000704700F0004343F0FE4040F4000070477FEA226216BF08467FEA23630146420206BF5FEA412390EA010F40F4800070474FF0000304E000BFEC
:4016800010F0004348BF40425FEA000C08BF704743F0964301464FF000001CE050EA010208BF70474FF000030AE000BF50EA010208BF704711F0004302D5404261EB410171
:4016C0005FEA010C02BF84460146002043F0B64308BFA3F18053A3F50003BCFA8CF2083AA3EBC25310DB01FA02FC634400FA02FCC2F12002BCF1004F20FA02F243EB020002
:4017000008BF20F00100704702F1200201FA02FCC2F1200250EA4C0021FA02F243EB020008BF20EADC7070474FF0FF0C1CEAD0521EBF1CEAD15392EA0C0F93EA0C0F6FD0B7
:401740001A4480EA010C400218BF5FEA41211ED04FF0006343EA501043EA5111A0FB01310CF00040B1F5000F3EBF490041EAD3715B0040EA010062F17F02FD2A1DD8B3F197
:40178000004F40EBC25008BF20F00100704790F0000F0CF0004C08BF49024CEA502040EA51207F3AC2BFD2F1FF0340EAC250704740F400004FF00003013A5DDC12F1190FDD
:4017C000DCBF00F000407047C2F10002410021FA02F1C2F1200200FA02FC5FEA310040F1000053EA4C0308BF20EADC70704792F0000F00F0004C02BF400010F4000F013A6F
:40180000F9D040EA0C0093F0000F01F0004C02BF490011F4000F013BF9D041EA0C018FE70CEAD15392EA0C0F18BF93EA0C0F0AD030F0004C18BF31F0004CD8D180EA01004B
:4018400000F00040704790F0000F17BF90F0004F084691F0000F91F0004F14D092EA0C0F01D142020FD193EA0C0F03D14B0218BF084608D180EA010000F0004040F0FE406E
:4018800040F40000704740F0FE4040F4400070474FF0FF0C1CEAD0521EBF1CEAD15392EA0C0F93EA0C0F69D0A2EB030280EA010C49024FEA402037D04FF0805343EA11116E
:4018C00043EA10130CF000408B4238BF5B0042F17D024FF4000C8B4224BF5B1A40EA0C00B3EB510F24BFA3EB510340EA5C00B3EB910F24BFA3EB910340EA9C00B3EBD10F11
:4019000024BFA3EBD10340EADC001B0118BF5FEA1C1CE0D1FD2A3FF650AF8B4240EBC25008BF20F0010070470CF0004C4CEA50207F32C2BFD2F1FF0340EAC250704740F437
:4019400000004FF00003013A37E792F0000F00F0004C02BF400010F4000F013AF9D040EA0C0093F0000F01F0004C02BF490011F4000F013BF9D041EA0C0195E70CEAD153F1
:4019800092EA0C0F08D142027FF47DAF93EA0C0F7FF470AF084676E793EA0C0F04D14B023FF44CAF08466EE730F0004C18BF31F0004CCAD130F000427FF45CAF31F00043E5
:4019C0007FF43CAF5FE700BF4FF0FF3C06E000BF4FF0010C02E000BF4FF0010C4DF804CD4FEA40024FEA41037FEA226C18BF7FEA236C11D001B052EA530C18BF90EA010FCA
:401A000058BFB2EB030088BFC81738BF6FEAE17018BF40F0010070477FEA226C02D15FEA402C05D17FEA236CE4D15FEA412CE1D05DF8040B704700BF844608466146FFE781
:401A40000FB5FFF7C9FF002848BF10F1000F0FBD4DF808EDFFF7F4FF0CBF012000205DF808FB00BF4DF808EDFFF7EAFF34BF012000205DF808FB00BF4DF808EDFFF7E0FF20
:401A800094BF012000205DF808FB00BF4DF808EDFFF7D2FF94BF012000205DF808FB00BF4DF808EDFFF7C8FF34BF012000205DF808FB00BF4FEA4002B2F1FE4F0FD34FF001
:401AC0009E03B3EB12620DD94FEA002343F0004310F0004F23FA02F018BF404270474FF00000704712F1610F01D1420205D110F0004008BF6FF0004070474FF00000704765
:401B000042000ED2B2F1FE4F0BD34FF09E03B3EB126209D44FEA002343F0004323FA02F070474FF00000704712F1610F01D1420202D14FF0FF3070474FF00000704700BF22
:401B4000014B1868704700BF3C81FF1F0E4B70B51E460E4C0025E41AA410A54204D056F8253098470135F8E700F050F8084B094C1E46E41AA4100025A54204D056F825306A
:401B800098470135F8E770BD181C0000181C0000181C0000201C000010B5431E0A44914204D011F8014B03F8014FF8E710BD03460244934202D003F8011BFAE770470000E0
:401BC00000000000005100401000405100403000C05100401000F0510040100000000140001000140140800400190140000300400140000A004C01400002005001402000FF
:401C000080180140E402004880004300F8B500BFF8BC08BC9E4670474D0000001D070000F8B500BFF8BC08BC9E46704729000000401C0000C880FF1F78000000B800000050
:401C4000000000000000C05D80BB000030000000006CDC0200000000000000000000000000000000000000000000000000000000000000000A1C000000000000000000006C
:401C800000000000000000000000000000000000000000000000000000000000000000000000000000000000000000000000000000000000DC80FF1F0000000000000000AA
:401CC00000000000000000000000000000000000000000000000000000000000000000000000000000000000000000000000000000000000000000000000000000000000E4
:401D000000000000000000000000000000000000000000000000000000000000000000000000000000000000000000000000000000000000000000000000000000000000A3
:401D40000000000000000000000000000000000000000000000000000000000000000000000000000000000000000000000000000000000000000000000000000000000063
:401D80000000000000000000000000000000000000000000000000000000000000000000000000000000000000000000000000000000000000000000000000000000000023
:020000040003F7
:0200000480007A
:40000000025200400264004001650040010701404508014036090140020B0140410C01401F0D0140141801403A1901400340014001410140014201400343014004450140A3
:4000400001460140034C0140075001400151014010011102893C8D0F8972E60201040204030804080604070408770B010C300E400F021477150C186019021A101C141D0CB6
:400080001E612273230C2440250426202708286429082A122B0432073470350C360837033A283B203F40580459045C115F0182038301840387028A038F02950199019A0278
:4000C000A203A803A901AC01AF01B101B202B502B601BB08BF10D41CD604D804D904DB04DC11DD10DF0101010204032804010510060207120A040C400D080E040F021040D7
:400100001180120815051604170819041A021C011E041F0820402128220A2540270A2B092D012E012F2831183440352036083710384839013D243E4259045A026240634897
:400140008740C0FEC2E2C47BCAECCC76CEFBD603D80DAD80E8084060410549FF4AFF4BFF4DA04F0450185A045F01604062C06440654066C068C06AC06CC06EC089028D0857
:400180008E02920197039A0E9B0CA608AA04B004B104B202B301B401B508B608B702BE04C020C105C5D5C721C833C9FFCAFFCBFFCDAFCE0FCF04D018D280D407D804D904E3
:4001C000DA04DB04DF01E040E2C0E440E540E6C0E8C0EAC0ECC0EEC002020A44102819841A041B1220502250302838504204482049014A024E024F205008520259055AA0CA
:4002000072408302C001C20AC406CC06CE0CD004D238D60FE0040507080109070A020D020F011001120219011B062403280329012B0430033507580459045C115F0102404B
:40024000032A0520088009480A800E4010A81340172819501B241E402140224423402510261029402B0B2D203118361039543E5440804148420149104A02500452405A0883
:4002800069546A146B2870A88520940896419D30A148A202A308A510A725B120B240C04FC21DC46FCA2CCC26CE7ED00BD20CD602E60232203620CC30A620A6208620A6208D
:4002C000E640530256208220D403AF0208108410C20200030C020E01100211011C021D01000F000000001000090406000604090007040800000009000F030000000300007D
:4003000001000000040000000200000006010002000110020002100107000E040002A000000004046103050004000E0C14FFFFFF62A0F0410C0000000000021204040404C9
:40034000111100010000000000004002001030100010101200000000000000000000000000000000400B0B0000000000020B090003000000000000000000800000000000A7
:40038000000000000000000000000000000000000000000000000000000000000000000000000000000000000000000000000000000000000000000000000000000000003D
:4003C00000000000000000000000000000000000000000000000000000000000000000000000000000000000000000000000000000000000000000000000000000000000FD
:4004000000000000000000000000000000000000000000000000000000000000000000000000000000000000000000000000000000000000000000000000000000000000BC
:40044000000000000000000000000000000000000000000000000000000000000000000000000000000000000000000000000000000000000000000000000000000000007C
:0200000490006A
:0400000000004005B7
:0200000490105A
:04000000BC90ACAF55
:0200000490303A
:0200000009C134
:0200000490402A
:4000000000000000000000000000000000000000000000000000000000000000000000000000000000000000000000000000000000000000000000000000000000000000C0
:400040000000000000000000000000000000000000000000000000000000000000000000000000000000000000000000000000000000000000000000000000000000000080
:400080000000000000000000000000000000000000000000000000000000000000000000000000000000000000000000000000000000000000000000000000000000000040
:4000C0000000000000000000000000000000000000000000000000000000000000000000000000000000000000000000000000000000000000000000000000000000000000
:0200000490501A
:0C00000000012E16106900012E221A2AA1
:00000001FF